{
	"contracts/SocialToken.sol": {
		"SocialToken": {
			"abi": [
				{
					"inputs": [],
					"stateMutability": "nonpayable",
					"type": "constructor"
				},
				{
					"inputs": [
						{
							"internalType": "address",
							"name": "target",
							"type": "address"
						}
					],
					"name": "AddressEmptyCode",
					"type": "error"
				},
				{
					"inputs": [],
					"name": "CooldownPeriodNotElapsed",
					"type": "error"
				},
				{
					"inputs": [
						{
							"internalType": "address",
							"name": "implementation",
							"type": "address"
						}
					],
					"name": "ERC1967InvalidImplementation",
					"type": "error"
				},
				{
					"inputs": [],
					"name": "ERC1967NonPayable",
					"type": "error"
				},
				{
					"inputs": [
						{
							"internalType": "address",
							"name": "spender",
							"type": "address"
						},
						{
							"internalType": "uint256",
							"name": "allowance",
							"type": "uint256"
						},
						{
							"internalType": "uint256",
							"name": "needed",
							"type": "uint256"
						}
					],
					"name": "ERC20InsufficientAllowance",
					"type": "error"
				},
				{
					"inputs": [
						{
							"internalType": "address",
							"name": "sender",
							"type": "address"
						},
						{
							"internalType": "uint256",
							"name": "balance",
							"type": "uint256"
						},
						{
							"internalType": "uint256",
							"name": "needed",
							"type": "uint256"
						}
					],
					"name": "ERC20InsufficientBalance",
					"type": "error"
				},
				{
					"inputs": [
						{
							"internalType": "address",
							"name": "approver",
							"type": "address"
						}
					],
					"name": "ERC20InvalidApprover",
					"type": "error"
				},
				{
					"inputs": [
						{
							"internalType": "address",
							"name": "receiver",
							"type": "address"
						}
					],
					"name": "ERC20InvalidReceiver",
					"type": "error"
				},
				{
					"inputs": [
						{
							"internalType": "address",
							"name": "sender",
							"type": "address"
						}
					],
					"name": "ERC20InvalidSender",
					"type": "error"
				},
				{
					"inputs": [
						{
							"internalType": "address",
							"name": "spender",
							"type": "address"
						}
					],
					"name": "ERC20InvalidSpender",
					"type": "error"
				},
				{
					"inputs": [],
					"name": "FailedCall",
					"type": "error"
				},
				{
					"inputs": [],
					"name": "InsufficientTweetCount",
					"type": "error"
				},
				{
					"inputs": [],
					"name": "InvalidInitialization",
					"type": "error"
				},
				{
					"inputs": [],
					"name": "InvalidMetricsTimestamp",
					"type": "error"
				},
				{
					"inputs": [],
					"name": "InvalidOracleAddress",
					"type": "error"
				},
				{
					"inputs": [],
					"name": "NotInitializing",
					"type": "error"
				},
				{
					"inputs": [
						{
							"internalType": "address",
							"name": "owner",
							"type": "address"
						}
					],
					"name": "OwnableInvalidOwner",
					"type": "error"
				},
				{
					"inputs": [
						{
							"internalType": "address",
							"name": "account",
							"type": "address"
						}
					],
					"name": "OwnableUnauthorizedAccount",
					"type": "error"
				},
				{
					"inputs": [],
					"name": "RewardClaimTooSoon",
					"type": "error"
				},
				{
					"inputs": [],
					"name": "UUPSUnauthorizedCallContext",
					"type": "error"
				},
				{
					"inputs": [
						{
							"internalType": "bytes32",
							"name": "slot",
							"type": "bytes32"
						}
					],
					"name": "UUPSUnsupportedProxiableUUID",
					"type": "error"
				},
				{
					"anonymous": false,
					"inputs": [
						{
							"indexed": true,
							"internalType": "address",
							"name": "owner",
							"type": "address"
						},
						{
							"indexed": true,
							"internalType": "address",
							"name": "spender",
							"type": "address"
						},
						{
							"indexed": false,
							"internalType": "uint256",
							"name": "value",
							"type": "uint256"
						}
					],
					"name": "Approval",
					"type": "event"
				},
				{
					"anonymous": false,
					"inputs": [
						{
							"indexed": false,
							"internalType": "uint64",
							"name": "version",
							"type": "uint64"
						}
					],
					"name": "Initialized",
					"type": "event"
				},
				{
					"anonymous": false,
					"inputs": [
						{
							"components": [
								{
									"internalType": "uint256",
									"name": "minSentimentScore",
									"type": "uint256"
								},
								{
									"internalType": "uint256",
									"name": "minEngagementRate",
									"type": "uint256"
								},
								{
									"internalType": "uint256",
									"name": "minTweetCount",
									"type": "uint256"
								},
								{
									"internalType": "uint256",
									"name": "rewardBaseAmount",
									"type": "uint256"
								},
								{
									"internalType": "uint256",
									"name": "penaltyBaseAmount",
									"type": "uint256"
								},
								{
									"internalType": "uint256",
									"name": "cooldownPeriod",
									"type": "uint256"
								}
							],
							"indexed": false,
							"internalType": "struct SocialToken.TokenMechanics",
							"name": "mechanics",
							"type": "tuple"
						}
					],
					"name": "MechanicsUpdated",
					"type": "event"
				},
				{
					"anonymous": false,
					"inputs": [
						{
							"indexed": true,
							"internalType": "address",
							"name": "newOracle",
							"type": "address"
						}
					],
					"name": "OracleUpdated",
					"type": "event"
				},
				{
					"anonymous": false,
					"inputs": [
						{
							"indexed": true,
							"internalType": "address",
							"name": "previousOwner",
							"type": "address"
						},
						{
							"indexed": true,
							"internalType": "address",
							"name": "newOwner",
							"type": "address"
						}
					],
					"name": "OwnershipTransferred",
					"type": "event"
				},
				{
					"anonymous": false,
					"inputs": [
						{
							"indexed": false,
							"internalType": "address",
							"name": "account",
							"type": "address"
						}
					],
					"name": "Paused",
					"type": "event"
				},
				{
					"anonymous": false,
					"inputs": [
						{
							"indexed": false,
							"internalType": "uint256",
							"name": "amount",
							"type": "uint256"
						},
						{
							"indexed": false,
							"internalType": "uint256",
							"name": "sentimentScore",
							"type": "uint256"
						},
						{
							"indexed": false,
							"internalType": "uint256",
							"name": "engagementRate",
							"type": "uint256"
						}
					],
					"name": "PenaltyApplied",
					"type": "event"
				},
				{
					"anonymous": false,
					"inputs": [
						{
							"indexed": false,
							"internalType": "uint256",
							"name": "amount",
							"type": "uint256"
						},
						{
							"indexed": false,
							"internalType": "uint256",
							"name": "sentimentScore",
							"type": "uint256"
						},
						{
							"indexed": false,
							"internalType": "uint256",
							"name": "engagementRate",
							"type": "uint256"
						}
					],
					"name": "RewardDistributed",
					"type": "event"
				},
				{
					"anonymous": false,
					"inputs": [
						{
							"indexed": true,
							"internalType": "address",
							"name": "from",
							"type": "address"
						},
						{
							"indexed": true,
							"internalType": "address",
							"name": "to",
							"type": "address"
						},
						{
							"indexed": false,
							"internalType": "uint256",
							"name": "value",
							"type": "uint256"
						}
					],
					"name": "Transfer",
					"type": "event"
				},
				{
					"anonymous": false,
					"inputs": [
						{
							"indexed": false,
							"internalType": "address",
							"name": "account",
							"type": "address"
						}
					],
					"name": "Unpaused",
					"type": "event"
				},
				{
					"anonymous": false,
					"inputs": [
						{
							"indexed": true,
							"internalType": "address",
							"name": "implementation",
							"type": "address"
						}
					],
					"name": "Upgraded",
					"type": "event"
				},
				{
					"inputs": [],
					"name": "UPGRADE_INTERFACE_VERSION",
					"outputs": [
						{
							"internalType": "string",
							"name": "",
							"type": "string"
						}
					],
					"stateMutability": "view",
					"type": "function"
				},
				{
					"inputs": [
						{
							"internalType": "address",
							"name": "owner",
							"type": "address"
						},
						{
							"internalType": "address",
							"name": "spender",
							"type": "address"
						}
					],
					"name": "allowance",
					"outputs": [
						{
							"internalType": "uint256",
							"name": "",
							"type": "uint256"
						}
					],
					"stateMutability": "view",
					"type": "function"
				},
				{
					"inputs": [
						{
							"internalType": "address",
							"name": "spender",
							"type": "address"
						},
						{
							"internalType": "uint256",
							"name": "value",
							"type": "uint256"
						}
					],
					"name": "approve",
					"outputs": [
						{
							"internalType": "bool",
							"name": "",
							"type": "bool"
						}
					],
					"stateMutability": "nonpayable",
					"type": "function"
				},
				{
					"inputs": [
						{
							"internalType": "address",
							"name": "account",
							"type": "address"
						}
					],
					"name": "balanceOf",
					"outputs": [
						{
							"internalType": "uint256",
							"name": "",
							"type": "uint256"
						}
					],
					"stateMutability": "view",
					"type": "function"
				},
				{
					"inputs": [],
					"name": "claimReward",
					"outputs": [],
					"stateMutability": "nonpayable",
					"type": "function"
				},
				{
					"inputs": [],
					"name": "decimals",
					"outputs": [
						{
							"internalType": "uint8",
							"name": "",
							"type": "uint8"
						}
					],
					"stateMutability": "view",
					"type": "function"
				},
				{
					"inputs": [
						{
							"internalType": "string",
							"name": "name",
							"type": "string"
						},
						{
							"internalType": "string",
							"name": "symbol",
							"type": "string"
						},
						{
							"internalType": "address",
							"name": "_socialOracle",
							"type": "address"
						},
						{
							"components": [
								{
									"internalType": "uint256",
									"name": "minSentimentScore",
									"type": "uint256"
								},
								{
									"internalType": "uint256",
									"name": "minEngagementRate",
									"type": "uint256"
								},
								{
									"internalType": "uint256",
									"name": "minTweetCount",
									"type": "uint256"
								},
								{
									"internalType": "uint256",
									"name": "rewardBaseAmount",
									"type": "uint256"
								},
								{
									"internalType": "uint256",
									"name": "penaltyBaseAmount",
									"type": "uint256"
								},
								{
									"internalType": "uint256",
									"name": "cooldownPeriod",
									"type": "uint256"
								}
							],
							"internalType": "struct SocialToken.TokenMechanics",
							"name": "_mechanics",
							"type": "tuple"
						}
					],
					"name": "initialize",
					"outputs": [],
					"stateMutability": "nonpayable",
					"type": "function"
				},
				{
					"inputs": [],
					"name": "lastMechanicsUpdate",
					"outputs": [
						{
							"internalType": "uint256",
							"name": "",
							"type": "uint256"
						}
					],
					"stateMutability": "view",
					"type": "function"
				},
				{
					"inputs": [
						{
							"internalType": "address",
							"name": "",
							"type": "address"
						}
					],
					"name": "lastRewardClaim",
					"outputs": [
						{
							"internalType": "uint256",
							"name": "",
							"type": "uint256"
						}
					],
					"stateMutability": "view",
					"type": "function"
				},
				{
					"inputs": [],
					"name": "mechanics",
					"outputs": [
						{
							"internalType": "uint256",
							"name": "minSentimentScore",
							"type": "uint256"
						},
						{
							"internalType": "uint256",
							"name": "minEngagementRate",
							"type": "uint256"
						},
						{
							"internalType": "uint256",
							"name": "minTweetCount",
							"type": "uint256"
						},
						{
							"internalType": "uint256",
							"name": "rewardBaseAmount",
							"type": "uint256"
						},
						{
							"internalType": "uint256",
							"name": "penaltyBaseAmount",
							"type": "uint256"
						},
						{
							"internalType": "uint256",
							"name": "cooldownPeriod",
							"type": "uint256"
						}
					],
					"stateMutability": "view",
					"type": "function"
				},
				{
					"inputs": [],
					"name": "name",
					"outputs": [
						{
							"internalType": "string",
							"name": "",
							"type": "string"
						}
					],
					"stateMutability": "view",
					"type": "function"
				},
				{
					"inputs": [],
					"name": "owner",
					"outputs": [
						{
							"internalType": "address",
							"name": "",
							"type": "address"
						}
					],
					"stateMutability": "view",
					"type": "function"
				},
				{
					"inputs": [],
					"name": "pause",
					"outputs": [],
					"stateMutability": "nonpayable",
					"type": "function"
				},
				{
					"inputs": [],
					"name": "paused",
					"outputs": [
						{
							"internalType": "bool",
							"name": "",
							"type": "bool"
						}
					],
					"stateMutability": "view",
					"type": "function"
				},
				{
					"inputs": [],
					"name": "proxiableUUID",
					"outputs": [
						{
							"internalType": "bytes32",
							"name": "",
							"type": "bytes32"
						}
					],
					"stateMutability": "view",
					"type": "function"
				},
				{
					"inputs": [],
					"name": "renounceOwnership",
					"outputs": [],
					"stateMutability": "nonpayable",
					"type": "function"
				},
				{
					"inputs": [],
					"name": "socialOracle",
					"outputs": [
						{
							"internalType": "contract ISocialMetricsOracle",
							"name": "",
							"type": "address"
						}
					],
					"stateMutability": "view",
					"type": "function"
				},
				{
					"inputs": [],
					"name": "symbol",
					"outputs": [
						{
							"internalType": "string",
							"name": "",
							"type": "string"
						}
					],
					"stateMutability": "view",
					"type": "function"
				},
				{
					"inputs": [],
					"name": "totalSupply",
					"outputs": [
						{
							"internalType": "uint256",
							"name": "",
							"type": "uint256"
						}
					],
					"stateMutability": "view",
					"type": "function"
				},
				{
					"inputs": [
						{
							"internalType": "address",
							"name": "to",
							"type": "address"
						},
						{
							"internalType": "uint256",
							"name": "value",
							"type": "uint256"
						}
					],
					"name": "transfer",
					"outputs": [
						{
							"internalType": "bool",
							"name": "",
							"type": "bool"
						}
					],
					"stateMutability": "nonpayable",
					"type": "function"
				},
				{
					"inputs": [
						{
							"internalType": "address",
							"name": "from",
							"type": "address"
						},
						{
							"internalType": "address",
							"name": "to",
							"type": "address"
						},
						{
							"internalType": "uint256",
							"name": "value",
							"type": "uint256"
						}
					],
					"name": "transferFrom",
					"outputs": [
						{
							"internalType": "bool",
							"name": "",
							"type": "bool"
						}
					],
					"stateMutability": "nonpayable",
					"type": "function"
				},
				{
					"inputs": [
						{
							"internalType": "address",
							"name": "newOwner",
							"type": "address"
						}
					],
					"name": "transferOwnership",
					"outputs": [],
					"stateMutability": "nonpayable",
					"type": "function"
				},
				{
					"inputs": [],
					"name": "unpause",
					"outputs": [],
					"stateMutability": "nonpayable",
					"type": "function"
				},
				{
					"inputs": [],
					"name": "updateBasedOnMetrics",
					"outputs": [],
					"stateMutability": "nonpayable",
					"type": "function"
				},
				{
					"inputs": [
						{
							"components": [
								{
									"internalType": "uint256",
									"name": "minSentimentScore",
									"type": "uint256"
								},
								{
									"internalType": "uint256",
									"name": "minEngagementRate",
									"type": "uint256"
								},
								{
									"internalType": "uint256",
									"name": "minTweetCount",
									"type": "uint256"
								},
								{
									"internalType": "uint256",
									"name": "rewardBaseAmount",
									"type": "uint256"
								},
								{
									"internalType": "uint256",
									"name": "penaltyBaseAmount",
									"type": "uint256"
								},
								{
									"internalType": "uint256",
									"name": "cooldownPeriod",
									"type": "uint256"
								}
							],
							"internalType": "struct SocialToken.TokenMechanics",
							"name": "newMechanics",
							"type": "tuple"
						}
					],
					"name": "updateMechanics",
					"outputs": [],
					"stateMutability": "nonpayable",
					"type": "function"
				},
				{
					"inputs": [
						{
							"internalType": "address",
							"name": "newOracle",
							"type": "address"
						}
					],
					"name": "updateOracle",
					"outputs": [],
					"stateMutability": "nonpayable",
					"type": "function"
				},
				{
					"inputs": [
						{
							"internalType": "address",
							"name": "newImplementation",
							"type": "address"
						},
						{
							"internalType": "bytes",
							"name": "data",
							"type": "bytes"
						}
					],
					"name": "upgradeToAndCall",
					"outputs": [],
					"stateMutability": "payable",
					"type": "function"
				}
			],
			"devdoc": {
				"errors": {
					"AddressEmptyCode(address)": [
						{
							"details": "There's no code at `target` (it is not a contract)."
						}
					],
					"ERC1967InvalidImplementation(address)": [
						{
							"details": "The `implementation` of the proxy is invalid."
						}
					],
					"ERC1967NonPayable()": [
						{
							"details": "An upgrade function sees `msg.value > 0` that may be lost."
						}
					],
					"ERC20InsufficientAllowance(address,uint256,uint256)": [
						{
							"details": "Indicates a failure with the `spender`s `allowance`. Used in transfers.",
							"params": {
								"allowance": "Amount of tokens a `spender` is allowed to operate with.",
								"needed": "Minimum amount required to perform a transfer.",
								"spender": "Address that may be allowed to operate on tokens without being their owner."
							}
						}
					],
					"ERC20InsufficientBalance(address,uint256,uint256)": [
						{
							"details": "Indicates an error related to the current `balance` of a `sender`. Used in transfers.",
							"params": {
								"balance": "Current balance for the interacting account.",
								"needed": "Minimum amount required to perform a transfer.",
								"sender": "Address whose tokens are being transferred."
							}
						}
					],
					"ERC20InvalidApprover(address)": [
						{
							"details": "Indicates a failure with the `approver` of a token to be approved. Used in approvals.",
							"params": {
								"approver": "Address initiating an approval operation."
							}
						}
					],
					"ERC20InvalidReceiver(address)": [
						{
							"details": "Indicates a failure with the token `receiver`. Used in transfers.",
							"params": {
								"receiver": "Address to which tokens are being transferred."
							}
						}
					],
					"ERC20InvalidSender(address)": [
						{
							"details": "Indicates a failure with the token `sender`. Used in transfers.",
							"params": {
								"sender": "Address whose tokens are being transferred."
							}
						}
					],
					"ERC20InvalidSpender(address)": [
						{
							"details": "Indicates a failure with the `spender` to be approved. Used in approvals.",
							"params": {
								"spender": "Address that may be allowed to operate on tokens without being their owner."
							}
						}
					],
					"FailedCall()": [
						{
							"details": "A call to an address target failed. The target may have reverted."
						}
					],
					"InvalidInitialization()": [
						{
							"details": "The contract is already initialized."
						}
					],
					"NotInitializing()": [
						{
							"details": "The contract is not initializing."
						}
					],
					"OwnableInvalidOwner(address)": [
						{
							"details": "The owner is not a valid owner account. (eg. `address(0)`)"
						}
					],
					"OwnableUnauthorizedAccount(address)": [
						{
							"details": "The caller account is not authorized to perform an operation."
						}
					],
					"UUPSUnauthorizedCallContext()": [
						{
							"details": "The call is from an unauthorized context."
						}
					],
					"UUPSUnsupportedProxiableUUID(bytes32)": [
						{
							"details": "The storage `slot` is unsupported as a UUID."
						}
					]
				},
				"events": {
					"Approval(address,address,uint256)": {
						"details": "Emitted when the allowance of a `spender` for an `owner` is set by a call to {approve}. `value` is the new allowance."
					},
					"Initialized(uint64)": {
						"details": "Triggered when the contract has been initialized or reinitialized."
					},
					"Paused(address)": {
						"details": "Emitted when the pause is triggered by `account`."
					},
					"Transfer(address,address,uint256)": {
						"details": "Emitted when `value` tokens are moved from one account (`from`) to another (`to`). Note that `value` may be zero."
					},
					"Unpaused(address)": {
						"details": "Emitted when the pause is lifted by `account`."
					},
					"Upgraded(address)": {
						"details": "Emitted when the implementation is upgraded."
					}
				},
				"kind": "dev",
				"methods": {
					"allowance(address,address)": {
						"details": "See {IERC20-allowance}."
					},
					"approve(address,uint256)": {
						"details": "See {IERC20-approve}. NOTE: If `value` is the maximum `uint256`, the allowance is not updated on `transferFrom`. This is semantically equivalent to an infinite approval. Requirements: - `spender` cannot be the zero address."
					},
					"balanceOf(address)": {
						"details": "See {IERC20-balanceOf}."
					},
					"constructor": {
						"custom:oz-upgrades-unsafe-allow": "constructor"
					},
					"decimals()": {
						"details": "Returns the number of decimals used to get its user representation. For example, if `decimals` equals `2`, a balance of `505` tokens should be displayed to a user as `5.05` (`505 / 10 ** 2`). Tokens usually opt for a value of 18, imitating the relationship between Ether and Wei. This is the default value returned by this function, unless it's overridden. NOTE: This information is only used for _display_ purposes: it in no way affects any of the arithmetic of the contract, including {IERC20-balanceOf} and {IERC20-transfer}."
					},
					"name()": {
						"details": "Returns the name of the token."
					},
					"owner()": {
						"details": "Returns the address of the current owner."
					},
					"paused()": {
						"details": "Returns true if the contract is paused, and false otherwise."
					},
					"proxiableUUID()": {
						"details": "Implementation of the ERC-1822 {proxiableUUID} function. This returns the storage slot used by the implementation. It is used to validate the implementation's compatibility when performing an upgrade. IMPORTANT: A proxy pointing at a proxiable contract should not be considered proxiable itself, because this risks bricking a proxy that upgrades to it, by delegating to itself until out of gas. Thus it is critical that this function revert if invoked through a proxy. This is guaranteed by the `notDelegated` modifier."
					},
					"renounceOwnership()": {
						"details": "Leaves the contract without owner. It will not be possible to call `onlyOwner` functions. Can only be called by the current owner. NOTE: Renouncing ownership will leave the contract without an owner, thereby disabling any functionality that is only available to the owner."
					},
					"symbol()": {
						"details": "Returns the symbol of the token, usually a shorter version of the name."
					},
					"totalSupply()": {
						"details": "See {IERC20-totalSupply}."
					},
					"transfer(address,uint256)": {
						"details": "See {IERC20-transfer}. Requirements: - `to` cannot be the zero address. - the caller must have a balance of at least `value`."
					},
					"transferFrom(address,address,uint256)": {
						"details": "See {IERC20-transferFrom}. Skips emitting an {Approval} event indicating an allowance update. This is not required by the ERC. See {xref-ERC20-_approve-address-address-uint256-bool-}[_approve]. NOTE: Does not update the allowance if the current allowance is the maximum `uint256`. Requirements: - `from` and `to` cannot be the zero address. - `from` must have a balance of at least `value`. - the caller must have allowance for ``from``'s tokens of at least `value`."
					},
					"transferOwnership(address)": {
						"details": "Transfers ownership of the contract to a new account (`newOwner`). Can only be called by the current owner."
					},
					"upgradeToAndCall(address,bytes)": {
						"custom:oz-upgrades-unsafe-allow-reachable": "delegatecall",
						"details": "Upgrade the implementation of the proxy to `newImplementation`, and subsequently execute the function call encoded in `data`. Calls {_authorizeUpgrade}. Emits an {Upgraded} event."
					}
				},
				"version": 1
			},
			"evm": {
				"assembly": "    /* \"contracts/SocialToken.sol\":763:7418  contract SocialToken is ERC20Upgradeable, OwnableUpgradeable, UUPSUpgradeable, PausableUpgradeable {... */\n  mstore(0x40, 0xa0)\n    /* \"@openzeppelin/contracts-upgradeable/proxy/utils/UUPSUpgradeable.sol\":1171:1175  this */\n  address\n    /* \"@openzeppelin/contracts-upgradeable/proxy/utils/UUPSUpgradeable.sol\":1128:1176  address private immutable __self = address(this) */\n  0xffffffffffffffffffffffffffffffffffffffff\n  and\n  0x80\n  swap1\n  0xffffffffffffffffffffffffffffffffffffffff\n  and\n  dup2\n  mstore\n  pop\n    /* \"contracts/SocialToken.sol\":2240:2293  constructor() {... */\n  callvalue\n  dup1\n  iszero\n  tag_1\n  jumpi\n  0x00\n  dup1\n  revert\ntag_1:\n  pop\n    /* \"contracts/SocialToken.sol\":2264:2286  _disableInitializers() */\n  tag_4\n    /* \"contracts/SocialToken.sol\":2264:2284  _disableInitializers */\n  shl(0x20, tag_5)\n    /* \"contracts/SocialToken.sol\":2264:2286  _disableInitializers() */\n  0x20\n  shr\n  jump\t// in\ntag_4:\n    /* \"contracts/SocialToken.sol\":763:7418  contract SocialToken is ERC20Upgradeable, OwnableUpgradeable, UUPSUpgradeable, PausableUpgradeable {... */\n  jump(tag_6)\n    /* \"@openzeppelin/contracts-upgradeable/proxy/utils/Initializable.sol\":7711:8133  function _disableInitializers() internal virtual {... */\ntag_5:\n    /* \"@openzeppelin/contracts-upgradeable/proxy/utils/Initializable.sol\":7826:7856  InitializableStorage storage $ */\n  0x00\n    /* \"@openzeppelin/contracts-upgradeable/proxy/utils/Initializable.sol\":7859:7885  _getInitializableStorage() */\n  tag_8\n    /* \"@openzeppelin/contracts-upgradeable/proxy/utils/Initializable.sol\":7859:7883  _getInitializableStorage */\n  shl(0x20, tag_9)\n    /* \"@openzeppelin/contracts-upgradeable/proxy/utils/Initializable.sol\":7859:7885  _getInitializableStorage() */\n  0x20\n  shr\n  jump\t// in\ntag_8:\n    /* \"@openzeppelin/contracts-upgradeable/proxy/utils/Initializable.sol\":7826:7885  InitializableStorage storage $ = _getInitializableStorage() */\n  swap1\n  pop\n    /* \"@openzeppelin/contracts-upgradeable/proxy/utils/Initializable.sol\":7900:7901  $ */\n  dup1\n    /* \"@openzeppelin/contracts-upgradeable/proxy/utils/Initializable.sol\":7900:7915  $._initializing */\n  0x00\n  add\n  0x08\n  swap1\n  sload\n  swap1\n  0x0100\n  exp\n  swap1\n  div\n  0xff\n  and\n    /* \"@openzeppelin/contracts-upgradeable/proxy/utils/Initializable.sol\":7896:7972  if ($._initializing) {... */\n  iszero\n  tag_10\n  jumpi\n    /* \"@openzeppelin/contracts-upgradeable/proxy/utils/Initializable.sol\":7938:7961  InvalidInitialization() */\n  mload(0x40)\n  0xf92ee8a900000000000000000000000000000000000000000000000000000000\n  dup2\n  mstore\n  0x04\n  add\n  mload(0x40)\n  dup1\n  swap2\n  sub\n  swap1\n  revert\n    /* \"@openzeppelin/contracts-upgradeable/proxy/utils/Initializable.sol\":7896:7972  if ($._initializing) {... */\ntag_10:\n    /* \"@openzeppelin/contracts-upgradeable/proxy/utils/Initializable.sol\":8003:8019  type(uint64).max */\n  0xffffffffffffffff\n    /* \"@openzeppelin/contracts-upgradeable/proxy/utils/Initializable.sol\":7985:8019  $._initialized != type(uint64).max */\n  dup1\n  and\n    /* \"@openzeppelin/contracts-upgradeable/proxy/utils/Initializable.sol\":7985:7986  $ */\n  dup2\n    /* \"@openzeppelin/contracts-upgradeable/proxy/utils/Initializable.sol\":7985:7999  $._initialized */\n  0x00\n  add\n  0x00\n  swap1\n  sload\n  swap1\n  0x0100\n  exp\n  swap1\n  div\n  0xffffffffffffffff\n  and\n    /* \"@openzeppelin/contracts-upgradeable/proxy/utils/Initializable.sol\":7985:8019  $._initialized != type(uint64).max */\n  0xffffffffffffffff\n  and\n  eq\n    /* \"@openzeppelin/contracts-upgradeable/proxy/utils/Initializable.sol\":7981:8127  if ($._initialized != type(uint64).max) {... */\n  tag_11\n  jumpi\n    /* \"@openzeppelin/contracts-upgradeable/proxy/utils/Initializable.sol\":8052:8068  type(uint64).max */\n  0xffffffffffffffff\n    /* \"@openzeppelin/contracts-upgradeable/proxy/utils/Initializable.sol\":8035:8036  $ */\n  dup2\n    /* \"@openzeppelin/contracts-upgradeable/proxy/utils/Initializable.sol\":8035:8049  $._initialized */\n  0x00\n  add\n  0x00\n    /* \"@openzeppelin/contracts-upgradeable/proxy/utils/Initializable.sol\":8035:8068  $._initialized = type(uint64).max */\n  0x0100\n  exp\n  dup2\n  sload\n  dup2\n  0xffffffffffffffff\n  mul\n  not\n  and\n  swap1\n  dup4\n  0xffffffffffffffff\n  and\n  mul\n  or\n  swap1\n  sstore\n  pop\n    /* \"@openzeppelin/contracts-upgradeable/proxy/utils/Initializable.sol\":8087:8116  Initialized(type(uint64).max) */\n  0xc7f505b2f371ae2175ee4913f4499e1f2633a7b5936321eed1cdaeb6115181d2\n    /* \"@openzeppelin/contracts-upgradeable/proxy/utils/Initializable.sol\":8099:8115  type(uint64).max */\n  0xffffffffffffffff\n    /* \"@openzeppelin/contracts-upgradeable/proxy/utils/Initializable.sol\":8087:8116  Initialized(type(uint64).max) */\n  mload(0x40)\n  tag_12\n  swap2\n  swap1\n  tag_13\n  jump\t// in\ntag_12:\n  mload(0x40)\n  dup1\n  swap2\n  sub\n  swap1\n  log1\n    /* \"@openzeppelin/contracts-upgradeable/proxy/utils/Initializable.sol\":7981:8127  if ($._initialized != type(uint64).max) {... */\ntag_11:\n    /* \"@openzeppelin/contracts-upgradeable/proxy/utils/Initializable.sol\":7760:8133  {... */\n  pop\n    /* \"@openzeppelin/contracts-upgradeable/proxy/utils/Initializable.sol\":7711:8133  function _disableInitializers() internal virtual {... */\n  jump\t// out\n    /* \"@openzeppelin/contracts-upgradeable/proxy/utils/Initializable.sol\":8737:8907  function _getInitializableStorage() private pure returns (InitializableStorage storage $) {... */\ntag_9:\n    /* \"@openzeppelin/contracts-upgradeable/proxy/utils/Initializable.sol\":8795:8825  InitializableStorage storage $ */\n  0x00\n    /* \"@openzeppelin/contracts-upgradeable/proxy/utils/Initializable.sol\":8870:8891  INITIALIZABLE_STORAGE */\n  0xf0c57e16840df040f15088dc2f81fe391c3923bec73e23a9662efc9c229c6a00\n    /* \"@openzeppelin/contracts-upgradeable/proxy/utils/Initializable.sol\":8860:8891  $.slot := INITIALIZABLE_STORAGE */\n  swap1\n  pop\n    /* \"@openzeppelin/contracts-upgradeable/proxy/utils/Initializable.sol\":8737:8907  function _getInitializableStorage() private pure returns (InitializableStorage storage $) {... */\n  swap1\n  jump\t// out\n    /* \"#utility.yul\":7:108   */\ntag_15:\n    /* \"#utility.yul\":43:50   */\n  0x00\n    /* \"#utility.yul\":83:101   */\n  0xffffffffffffffff\n    /* \"#utility.yul\":76:81   */\n  dup3\n    /* \"#utility.yul\":72:102   */\n  and\n    /* \"#utility.yul\":61:102   */\n  swap1\n  pop\n    /* \"#utility.yul\":7:108   */\n  swap2\n  swap1\n  pop\n  jump\t// out\n    /* \"#utility.yul\":114:229   */\ntag_16:\n    /* \"#utility.yul\":199:222   */\n  tag_20\n    /* \"#utility.yul\":216:221   */\n  dup2\n    /* \"#utility.yul\":199:222   */\n  tag_15\n  jump\t// in\ntag_20:\n    /* \"#utility.yul\":194:197   */\n  dup3\n    /* \"#utility.yul\":187:223   */\n  mstore\n    /* \"#utility.yul\":114:229   */\n  pop\n  pop\n  jump\t// out\n    /* \"#utility.yul\":235:453   */\ntag_13:\n    /* \"#utility.yul\":326:330   */\n  0x00\n    /* \"#utility.yul\":364:366   */\n  0x20\n    /* \"#utility.yul\":353:362   */\n  dup3\n    /* \"#utility.yul\":349:367   */\n  add\n    /* \"#utility.yul\":341:367   */\n  swap1\n  pop\n    /* \"#utility.yul\":377:446   */\n  tag_22\n    /* \"#utility.yul\":443:444   */\n  0x00\n    /* \"#utility.yul\":432:441   */\n  dup4\n    /* \"#utility.yul\":428:445   */\n  add\n    /* \"#utility.yul\":419:425   */\n  dup5\n    /* \"#utility.yul\":377:446   */\n  tag_16\n  jump\t// in\ntag_22:\n    /* \"#utility.yul\":235:453   */\n  swap3\n  swap2\n  pop\n  pop\n  jump\t// out\n    /* \"contracts/SocialToken.sol\":763:7418  contract SocialToken is ERC20Upgradeable, OwnableUpgradeable, UUPSUpgradeable, PausableUpgradeable {... */\ntag_6:\n  mload(0x80)\n  codecopy(0x00, dataOffset(sub_0), dataSize(sub_0))\n  0x00\n  assignImmutable(\"0x0b83f23a4eeb8c3f5f7d5934a2289bcf0186d09a12e1b7f20adf54e4b179db15\")\n  return(0x00, dataSize(sub_0))\nstop\n\nsub_0: assembly {\n        /* \"contracts/SocialToken.sol\":763:7418  contract SocialToken is ERC20Upgradeable, OwnableUpgradeable, UUPSUpgradeable, PausableUpgradeable {... */\n      mstore(0x40, 0x80)\n      jumpi(tag_1, lt(calldatasize, 0x04))\n      shr(0xe0, calldataload(0x00))\n      dup1\n      0x715018a6\n      gt\n      tag_29\n      jumpi\n      dup1\n      0xa9059cbb\n      gt\n      tag_30\n      jumpi\n      dup1\n      0xb88a802f\n      gt\n      tag_31\n      jumpi\n      dup1\n      0xb88a802f\n      eq\n      tag_25\n      jumpi\n      dup1\n      0xd8ad5231\n      eq\n      tag_26\n      jumpi\n      dup1\n      0xdd62ed3e\n      eq\n      tag_27\n      jumpi\n      dup1\n      0xf2fde38b\n      eq\n      tag_28\n      jumpi\n      jump(tag_1)\n    tag_31:\n      dup1\n      0xa9059cbb\n      eq\n      tag_22\n      jumpi\n      dup1\n      0xad3cb1cc\n      eq\n      tag_23\n      jumpi\n      dup1\n      0xaf9dcc2c\n      eq\n      tag_24\n      jumpi\n      jump(tag_1)\n    tag_30:\n      dup1\n      0x8da5cb5b\n      gt\n      tag_32\n      jumpi\n      dup1\n      0x8da5cb5b\n      eq\n      tag_18\n      jumpi\n      dup1\n      0x95d89b41\n      eq\n      tag_19\n      jumpi\n      dup1\n      0x9e24f236\n      eq\n      tag_20\n      jumpi\n      dup1\n      0xa7892c11\n      eq\n      tag_21\n      jumpi\n      jump(tag_1)\n    tag_32:\n      dup1\n      0x715018a6\n      eq\n      tag_15\n      jumpi\n      dup1\n      0x78f3c4b6\n      eq\n      tag_16\n      jumpi\n      dup1\n      0x8456cb59\n      eq\n      tag_17\n      jumpi\n      jump(tag_1)\n    tag_29:\n      dup1\n      0x313ce567\n      gt\n      tag_33\n      jumpi\n      dup1\n      0x4f1ef286\n      gt\n      tag_34\n      jumpi\n      dup1\n      0x4f1ef286\n      eq\n      tag_11\n      jumpi\n      dup1\n      0x52d1902d\n      eq\n      tag_12\n      jumpi\n      dup1\n      0x5c975abb\n      eq\n      tag_13\n      jumpi\n      dup1\n      0x70a08231\n      eq\n      tag_14\n      jumpi\n      jump(tag_1)\n    tag_34:\n      dup1\n      0x313ce567\n      eq\n      tag_8\n      jumpi\n      dup1\n      0x38b42785\n      eq\n      tag_9\n      jumpi\n      dup1\n      0x3f4ba83a\n      eq\n      tag_10\n      jumpi\n      jump(tag_1)\n    tag_33:\n      dup1\n      0x06fdde03\n      eq\n      tag_2\n      jumpi\n      dup1\n      0x095ea7b3\n      eq\n      tag_3\n      jumpi\n      dup1\n      0x0b594036\n      eq\n      tag_4\n      jumpi\n      dup1\n      0x18160ddd\n      eq\n      tag_5\n      jumpi\n      dup1\n      0x1cb44dfc\n      eq\n      tag_6\n      jumpi\n      dup1\n      0x23b872dd\n      eq\n      tag_7\n      jumpi\n    tag_1:\n      0x00\n      dup1\n      revert\n        /* \"@openzeppelin/contracts-upgradeable/token/ERC20/ERC20Upgradeable.sol\":2716:2860  function name() public view virtual returns (string memory) {... */\n    tag_2:\n      callvalue\n      dup1\n      iszero\n      tag_35\n      jumpi\n      0x00\n      dup1\n      revert\n    tag_35:\n      pop\n      tag_36\n      tag_37\n      jump\t// in\n    tag_36:\n      mload(0x40)\n      tag_38\n      swap2\n      swap1\n      tag_39\n      jump\t// in\n    tag_38:\n      mload(0x40)\n      dup1\n      swap2\n      sub\n      swap1\n      return\n        /* \"@openzeppelin/contracts-upgradeable/token/ERC20/ERC20Upgradeable.sol\":5210:5396  function approve(address spender, uint256 value) public virtual returns (bool) {... */\n    tag_3:\n      callvalue\n      dup1\n      iszero\n      tag_40\n      jumpi\n      0x00\n      dup1\n      revert\n    tag_40:\n      pop\n      tag_41\n      0x04\n      dup1\n      calldatasize\n      sub\n      dup2\n      add\n      swap1\n      tag_42\n      swap2\n      swap1\n      tag_43\n      jump\t// in\n    tag_42:\n      tag_44\n      jump\t// in\n    tag_41:\n      mload(0x40)\n      tag_45\n      swap2\n      swap1\n      tag_46\n      jump\t// in\n    tag_45:\n      mload(0x40)\n      dup1\n      swap2\n      sub\n      swap1\n      return\n        /* \"contracts/SocialToken.sol\":7010:7176  function updateMechanics(TokenMechanics memory newMechanics) external onlyOwner {... */\n    tag_4:\n      callvalue\n      dup1\n      iszero\n      tag_47\n      jumpi\n      0x00\n      dup1\n      revert\n    tag_47:\n      pop\n      tag_48\n      0x04\n      dup1\n      calldatasize\n      sub\n      dup2\n      add\n      swap1\n      tag_49\n      swap2\n      swap1\n      tag_50\n      jump\t// in\n    tag_49:\n      tag_51\n      jump\t// in\n    tag_48:\n      stop\n        /* \"@openzeppelin/contracts-upgradeable/token/ERC20/ERC20Upgradeable.sol\":3896:4048  function totalSupply() public view virtual returns (uint256) {... */\n    tag_5:\n      callvalue\n      dup1\n      iszero\n      tag_52\n      jumpi\n      0x00\n      dup1\n      revert\n    tag_52:\n      pop\n      tag_53\n      tag_54\n      jump\t// in\n    tag_53:\n      mload(0x40)\n      tag_55\n      swap2\n      swap1\n      tag_56\n      jump\t// in\n    tag_55:\n      mload(0x40)\n      dup1\n      swap2\n      sub\n      swap1\n      return\n        /* \"contracts/SocialToken.sol\":6774:7004  function updateOracle(address newOracle) external onlyOwner {... */\n    tag_6:\n      callvalue\n      dup1\n      iszero\n      tag_57\n      jumpi\n      0x00\n      dup1\n      revert\n    tag_57:\n      pop\n      tag_58\n      0x04\n      dup1\n      calldatasize\n      sub\n      dup2\n      add\n      swap1\n      tag_59\n      swap2\n      swap1\n      tag_60\n      jump\t// in\n    tag_59:\n      tag_61\n      jump\t// in\n    tag_58:\n      stop\n        /* \"@openzeppelin/contracts-upgradeable/token/ERC20/ERC20Upgradeable.sol\":5988:6232  function transferFrom(address from, address to, uint256 value) public virtual returns (bool) {... */\n    tag_7:\n      callvalue\n      dup1\n      iszero\n      tag_62\n      jumpi\n      0x00\n      dup1\n      revert\n    tag_62:\n      pop\n      tag_63\n      0x04\n      dup1\n      calldatasize\n      sub\n      dup2\n      add\n      swap1\n      tag_64\n      swap2\n      swap1\n      tag_65\n      jump\t// in\n    tag_64:\n      tag_66\n      jump\t// in\n    tag_63:\n      mload(0x40)\n      tag_67\n      swap2\n      swap1\n      tag_46\n      jump\t// in\n    tag_67:\n      mload(0x40)\n      dup1\n      swap2\n      sub\n      swap1\n      return\n        /* \"@openzeppelin/contracts-upgradeable/token/ERC20/ERC20Upgradeable.sol\":3754:3836  function decimals() public view virtual returns (uint8) {... */\n    tag_8:\n      callvalue\n      dup1\n      iszero\n      tag_68\n      jumpi\n      0x00\n      dup1\n      revert\n    tag_68:\n      pop\n      tag_69\n      tag_70\n      jump\t// in\n    tag_69:\n      mload(0x40)\n      tag_71\n      swap2\n      swap1\n      tag_72\n      jump\t// in\n    tag_71:\n      mload(0x40)\n      dup1\n      swap2\n      sub\n      swap1\n      return\n        /* \"contracts/SocialToken.sol\":1522:1553  TokenMechanics public mechanics */\n    tag_9:\n      callvalue\n      dup1\n      iszero\n      tag_73\n      jumpi\n      0x00\n      dup1\n      revert\n    tag_73:\n      pop\n      tag_74\n      tag_75\n      jump\t// in\n    tag_74:\n      mload(0x40)\n      tag_76\n      swap7\n      swap6\n      swap5\n      swap4\n      swap3\n      swap2\n      swap1\n      tag_77\n      jump\t// in\n    tag_76:\n      mload(0x40)\n      dup1\n      swap2\n      sub\n      swap1\n      return\n        /* \"contracts/SocialToken.sol\":7249:7314  function unpause() external onlyOwner {... */\n    tag_10:\n      callvalue\n      dup1\n      iszero\n      tag_78\n      jumpi\n      0x00\n      dup1\n      revert\n    tag_78:\n      pop\n      tag_79\n      tag_80\n      jump\t// in\n    tag_79:\n      stop\n        /* \"@openzeppelin/contracts-upgradeable/proxy/utils/UUPSUpgradeable.sol\":4161:4375  function upgradeToAndCall(address newImplementation, bytes memory data) public payable virtual onlyProxy {... */\n    tag_11:\n      tag_81\n      0x04\n      dup1\n      calldatasize\n      sub\n      dup2\n      add\n      swap1\n      tag_82\n      swap2\n      swap1\n      tag_83\n      jump\t// in\n    tag_82:\n      tag_84\n      jump\t// in\n    tag_81:\n      stop\n        /* \"@openzeppelin/contracts-upgradeable/proxy/utils/UUPSUpgradeable.sol\":3708:3842  function proxiableUUID() external view virtual notDelegated returns (bytes32) {... */\n    tag_12:\n      callvalue\n      dup1\n      iszero\n      tag_85\n      jumpi\n      0x00\n      dup1\n      revert\n    tag_85:\n      pop\n      tag_86\n      tag_87\n      jump\t// in\n    tag_86:\n      mload(0x40)\n      tag_88\n      swap2\n      swap1\n      tag_89\n      jump\t// in\n    tag_88:\n      mload(0x40)\n      dup1\n      swap2\n      sub\n      swap1\n      return\n        /* \"@openzeppelin/contracts-upgradeable/security/PausableUpgradeable.sol\":1879:1963  function paused() public view virtual returns (bool) {... */\n    tag_13:\n      callvalue\n      dup1\n      iszero\n      tag_90\n      jumpi\n      0x00\n      dup1\n      revert\n    tag_90:\n      pop\n      tag_91\n      tag_92\n      jump\t// in\n    tag_91:\n      mload(0x40)\n      tag_93\n      swap2\n      swap1\n      tag_46\n      jump\t// in\n    tag_93:\n      mload(0x40)\n      dup1\n      swap2\n      sub\n      swap1\n      return\n        /* \"@openzeppelin/contracts-upgradeable/token/ERC20/ERC20Upgradeable.sol\":4106:4277  function balanceOf(address account) public view virtual returns (uint256) {... */\n    tag_14:\n      callvalue\n      dup1\n      iszero\n      tag_94\n      jumpi\n      0x00\n      dup1\n      revert\n    tag_94:\n      pop\n      tag_95\n      0x04\n      dup1\n      calldatasize\n      sub\n      dup2\n      add\n      swap1\n      tag_96\n      swap2\n      swap1\n      tag_60\n      jump\t// in\n    tag_96:\n      tag_97\n      jump\t// in\n    tag_95:\n      mload(0x40)\n      tag_98\n      swap2\n      swap1\n      tag_56\n      jump\t// in\n    tag_98:\n      mload(0x40)\n      dup1\n      swap2\n      sub\n      swap1\n      return\n        /* \"@openzeppelin/contracts-upgradeable/access/OwnableUpgradeable.sol\":3155:3256  function renounceOwnership() public virtual onlyOwner {... */\n    tag_15:\n      callvalue\n      dup1\n      iszero\n      tag_99\n      jumpi\n      0x00\n      dup1\n      revert\n    tag_99:\n      pop\n      tag_100\n      tag_101\n      jump\t// in\n    tag_100:\n      stop\n        /* \"contracts/SocialToken.sol\":925:965  ISocialMetricsOracle public socialOracle */\n    tag_16:\n      callvalue\n      dup1\n      iszero\n      tag_102\n      jumpi\n      0x00\n      dup1\n      revert\n    tag_102:\n      pop\n      tag_103\n      tag_104\n      jump\t// in\n    tag_103:\n      mload(0x40)\n      tag_105\n      swap2\n      swap1\n      tag_106\n      jump\t// in\n    tag_105:\n      mload(0x40)\n      dup1\n      swap2\n      sub\n      swap1\n      return\n        /* \"contracts/SocialToken.sol\":7182:7243  function pause() external onlyOwner {... */\n    tag_17:\n      callvalue\n      dup1\n      iszero\n      tag_107\n      jumpi\n      0x00\n      dup1\n      revert\n    tag_107:\n      pop\n      tag_108\n      tag_109\n      jump\t// in\n    tag_108:\n      stop\n        /* \"@openzeppelin/contracts-upgradeable/access/OwnableUpgradeable.sol\":2441:2585  function owner() public view virtual returns (address) {... */\n    tag_18:\n      callvalue\n      dup1\n      iszero\n      tag_110\n      jumpi\n      0x00\n      dup1\n      revert\n    tag_110:\n      pop\n      tag_111\n      tag_112\n      jump\t// in\n    tag_111:\n      mload(0x40)\n      tag_113\n      swap2\n      swap1\n      tag_114\n      jump\t// in\n    tag_113:\n      mload(0x40)\n      dup1\n      swap2\n      sub\n      swap1\n      return\n        /* \"@openzeppelin/contracts-upgradeable/token/ERC20/ERC20Upgradeable.sol\":2973:3121  function symbol() public view virtual returns (string memory) {... */\n    tag_19:\n      callvalue\n      dup1\n      iszero\n      tag_115\n      jumpi\n      0x00\n      dup1\n      revert\n    tag_115:\n      pop\n      tag_116\n      tag_117\n      jump\t// in\n    tag_116:\n      mload(0x40)\n      tag_118\n      swap2\n      swap1\n      tag_39\n      jump\t// in\n    tag_118:\n      mload(0x40)\n      dup1\n      swap2\n      sub\n      swap1\n      return\n        /* \"contracts/SocialToken.sol\":1590:1624  uint256 public lastMechanicsUpdate */\n    tag_20:\n      callvalue\n      dup1\n      iszero\n      tag_119\n      jumpi\n      0x00\n      dup1\n      revert\n    tag_119:\n      pop\n      tag_120\n      tag_121\n      jump\t// in\n    tag_120:\n      mload(0x40)\n      tag_122\n      swap2\n      swap1\n      tag_56\n      jump\t// in\n    tag_122:\n      mload(0x40)\n      dup1\n      swap2\n      sub\n      swap1\n      return\n        /* \"contracts/SocialToken.sol\":2915:3907  function updateBasedOnMetrics() external whenNotPaused {... */\n    tag_21:\n      callvalue\n      dup1\n      iszero\n      tag_123\n      jumpi\n      0x00\n      dup1\n      revert\n    tag_123:\n      pop\n      tag_124\n      tag_125\n      jump\t// in\n    tag_124:\n      stop\n        /* \"@openzeppelin/contracts-upgradeable/token/ERC20/ERC20Upgradeable.sol\":4472:4650  function transfer(address to, uint256 value) public virtual returns (bool) {... */\n    tag_22:\n      callvalue\n      dup1\n      iszero\n      tag_126\n      jumpi\n      0x00\n      dup1\n      revert\n    tag_126:\n      pop\n      tag_127\n      0x04\n      dup1\n      calldatasize\n      sub\n      dup2\n      add\n      swap1\n      tag_128\n      swap2\n      swap1\n      tag_43\n      jump\t// in\n    tag_128:\n      tag_129\n      jump\t// in\n    tag_127:\n      mload(0x40)\n      tag_130\n      swap2\n      swap1\n      tag_46\n      jump\t// in\n    tag_130:\n      mload(0x40)\n      dup1\n      swap2\n      sub\n      swap1\n      return\n        /* \"@openzeppelin/contracts-upgradeable/proxy/utils/UUPSUpgradeable.sol\":1819:1877  string public constant UPGRADE_INTERFACE_VERSION = \"5.0.0\" */\n    tag_23:\n      callvalue\n      dup1\n      iszero\n      tag_131\n      jumpi\n      0x00\n      dup1\n      revert\n    tag_131:\n      pop\n      tag_132\n      tag_133\n      jump\t// in\n    tag_132:\n      mload(0x40)\n      tag_134\n      swap2\n      swap1\n      tag_39\n      jump\t// in\n    tag_134:\n      mload(0x40)\n      dup1\n      swap2\n      sub\n      swap1\n      return\n        /* \"contracts/SocialToken.sol\":2299:2873  function initialize(... */\n    tag_24:\n      callvalue\n      dup1\n      iszero\n      tag_135\n      jumpi\n      0x00\n      dup1\n      revert\n    tag_135:\n      pop\n      tag_136\n      0x04\n      dup1\n      calldatasize\n      sub\n      dup2\n      add\n      swap1\n      tag_137\n      swap2\n      swap1\n      tag_138\n      jump\t// in\n    tag_137:\n      tag_139\n      jump\t// in\n    tag_136:\n      stop\n        /* \"contracts/SocialToken.sol\":3913:4509  function claimReward() external whenNotPaused {... */\n    tag_25:\n      callvalue\n      dup1\n      iszero\n      tag_140\n      jumpi\n      0x00\n      dup1\n      revert\n    tag_140:\n      pop\n      tag_141\n      tag_142\n      jump\t// in\n    tag_141:\n      stop\n        /* \"contracts/SocialToken.sol\":1630:1680  mapping(address => uint256) public lastRewardClaim */\n    tag_26:\n      callvalue\n      dup1\n      iszero\n      tag_143\n      jumpi\n      0x00\n      dup1\n      revert\n    tag_143:\n      pop\n      tag_144\n      0x04\n      dup1\n      calldatasize\n      sub\n      dup2\n      add\n      swap1\n      tag_145\n      swap2\n      swap1\n      tag_60\n      jump\t// in\n    tag_145:\n      tag_146\n      jump\t// in\n    tag_144:\n      mload(0x40)\n      tag_147\n      swap2\n      swap1\n      tag_56\n      jump\t// in\n    tag_147:\n      mload(0x40)\n      dup1\n      swap2\n      sub\n      swap1\n      return\n        /* \"@openzeppelin/contracts-upgradeable/token/ERC20/ERC20Upgradeable.sol\":4708:4903  function allowance(address owner, address spender) public view virtual returns (uint256) {... */\n    tag_27:\n      callvalue\n      dup1\n      iszero\n      tag_148\n      jumpi\n      0x00\n      dup1\n      revert\n    tag_148:\n      pop\n      tag_149\n      0x04\n      dup1\n      calldatasize\n      sub\n      dup2\n      add\n      swap1\n      tag_150\n      swap2\n      swap1\n      tag_151\n      jump\t// in\n    tag_150:\n      tag_152\n      jump\t// in\n    tag_149:\n      mload(0x40)\n      tag_153\n      swap2\n      swap1\n      tag_56\n      jump\t// in\n    tag_153:\n      mload(0x40)\n      dup1\n      swap2\n      sub\n      swap1\n      return\n        /* \"@openzeppelin/contracts-upgradeable/access/OwnableUpgradeable.sol\":3405:3620  function transferOwnership(address newOwner) public virtual onlyOwner {... */\n    tag_28:\n      callvalue\n      dup1\n      iszero\n      tag_154\n      jumpi\n      0x00\n      dup1\n      revert\n    tag_154:\n      pop\n      tag_155\n      0x04\n      dup1\n      calldatasize\n      sub\n      dup2\n      add\n      swap1\n      tag_156\n      swap2\n      swap1\n      tag_60\n      jump\t// in\n    tag_156:\n      tag_157\n      jump\t// in\n    tag_155:\n      stop\n        /* \"@openzeppelin/contracts-upgradeable/token/ERC20/ERC20Upgradeable.sol\":2716:2860  function name() public view virtual returns (string memory) {... */\n    tag_37:\n        /* \"@openzeppelin/contracts-upgradeable/token/ERC20/ERC20Upgradeable.sol\":2761:2774  string memory */\n      0x60\n        /* \"@openzeppelin/contracts-upgradeable/token/ERC20/ERC20Upgradeable.sol\":2786:2808  ERC20Storage storage $ */\n      0x00\n        /* \"@openzeppelin/contracts-upgradeable/token/ERC20/ERC20Upgradeable.sol\":2811:2829  _getERC20Storage() */\n      tag_159\n        /* \"@openzeppelin/contracts-upgradeable/token/ERC20/ERC20Upgradeable.sol\":2811:2827  _getERC20Storage */\n      tag_160\n        /* \"@openzeppelin/contracts-upgradeable/token/ERC20/ERC20Upgradeable.sol\":2811:2829  _getERC20Storage() */\n      jump\t// in\n    tag_159:\n        /* \"@openzeppelin/contracts-upgradeable/token/ERC20/ERC20Upgradeable.sol\":2786:2829  ERC20Storage storage $ = _getERC20Storage() */\n      swap1\n      pop\n        /* \"@openzeppelin/contracts-upgradeable/token/ERC20/ERC20Upgradeable.sol\":2846:2847  $ */\n      dup1\n        /* \"@openzeppelin/contracts-upgradeable/token/ERC20/ERC20Upgradeable.sol\":2846:2853  $._name */\n      0x03\n      add\n        /* \"@openzeppelin/contracts-upgradeable/token/ERC20/ERC20Upgradeable.sol\":2839:2853  return $._name */\n      dup1\n      sload\n      tag_161\n      swap1\n      tag_162\n      jump\t// in\n    tag_161:\n      dup1\n      0x1f\n      add\n      0x20\n      dup1\n      swap2\n      div\n      mul\n      0x20\n      add\n      mload(0x40)\n      swap1\n      dup2\n      add\n      0x40\n      mstore\n      dup1\n      swap3\n      swap2\n      swap1\n      dup2\n      dup2\n      mstore\n      0x20\n      add\n      dup3\n      dup1\n      sload\n      tag_163\n      swap1\n      tag_162\n      jump\t// in\n    tag_163:\n      dup1\n      iszero\n      tag_164\n      jumpi\n      dup1\n      0x1f\n      lt\n      tag_165\n      jumpi\n      0x0100\n      dup1\n      dup4\n      sload\n      div\n      mul\n      dup4\n      mstore\n      swap2\n      0x20\n      add\n      swap2\n      jump(tag_164)\n    tag_165:\n      dup3\n      add\n      swap2\n      swap1\n      0x00\n      mstore\n      keccak256(0x00, 0x20)\n      swap1\n    tag_166:\n      dup2\n      sload\n      dup2\n      mstore\n      swap1\n      0x01\n      add\n      swap1\n      0x20\n      add\n      dup1\n      dup4\n      gt\n      tag_166\n      jumpi\n      dup3\n      swap1\n      sub\n      0x1f\n      and\n      dup3\n      add\n      swap2\n    tag_164:\n      pop\n      pop\n      pop\n      pop\n      pop\n      swap2\n      pop\n      pop\n        /* \"@openzeppelin/contracts-upgradeable/token/ERC20/ERC20Upgradeable.sol\":2716:2860  function name() public view virtual returns (string memory) {... */\n      swap1\n      jump\t// out\n        /* \"@openzeppelin/contracts-upgradeable/token/ERC20/ERC20Upgradeable.sol\":5210:5396  function approve(address spender, uint256 value) public virtual returns (bool) {... */\n    tag_44:\n        /* \"@openzeppelin/contracts-upgradeable/token/ERC20/ERC20Upgradeable.sol\":5283:5287  bool */\n      0x00\n        /* \"@openzeppelin/contracts-upgradeable/token/ERC20/ERC20Upgradeable.sol\":5299:5312  address owner */\n      dup1\n        /* \"@openzeppelin/contracts-upgradeable/token/ERC20/ERC20Upgradeable.sol\":5315:5327  _msgSender() */\n      tag_168\n        /* \"@openzeppelin/contracts-upgradeable/token/ERC20/ERC20Upgradeable.sol\":5315:5325  _msgSender */\n      tag_169\n        /* \"@openzeppelin/contracts-upgradeable/token/ERC20/ERC20Upgradeable.sol\":5315:5327  _msgSender() */\n      jump\t// in\n    tag_168:\n        /* \"@openzeppelin/contracts-upgradeable/token/ERC20/ERC20Upgradeable.sol\":5299:5327  address owner = _msgSender() */\n      swap1\n      pop\n        /* \"@openzeppelin/contracts-upgradeable/token/ERC20/ERC20Upgradeable.sol\":5337:5368  _approve(owner, spender, value) */\n      tag_170\n        /* \"@openzeppelin/contracts-upgradeable/token/ERC20/ERC20Upgradeable.sol\":5346:5351  owner */\n      dup2\n        /* \"@openzeppelin/contracts-upgradeable/token/ERC20/ERC20Upgradeable.sol\":5353:5360  spender */\n      dup6\n        /* \"@openzeppelin/contracts-upgradeable/token/ERC20/ERC20Upgradeable.sol\":5362:5367  value */\n      dup6\n        /* \"@openzeppelin/contracts-upgradeable/token/ERC20/ERC20Upgradeable.sol\":5337:5345  _approve */\n      tag_171\n        /* \"@openzeppelin/contracts-upgradeable/token/ERC20/ERC20Upgradeable.sol\":5337:5368  _approve(owner, spender, value) */\n      jump\t// in\n    tag_170:\n        /* \"@openzeppelin/contracts-upgradeable/token/ERC20/ERC20Upgradeable.sol\":5385:5389  true */\n      0x01\n        /* \"@openzeppelin/contracts-upgradeable/token/ERC20/ERC20Upgradeable.sol\":5378:5389  return true */\n      swap2\n      pop\n      pop\n        /* \"@openzeppelin/contracts-upgradeable/token/ERC20/ERC20Upgradeable.sol\":5210:5396  function approve(address spender, uint256 value) public virtual returns (bool) {... */\n      swap3\n      swap2\n      pop\n      pop\n      jump\t// out\n        /* \"contracts/SocialToken.sol\":7010:7176  function updateMechanics(TokenMechanics memory newMechanics) external onlyOwner {... */\n    tag_51:\n        /* \"@openzeppelin/contracts-upgradeable/access/OwnableUpgradeable.sol\":2334:2347  _checkOwner() */\n      tag_173\n        /* \"@openzeppelin/contracts-upgradeable/access/OwnableUpgradeable.sol\":2334:2345  _checkOwner */\n      tag_174\n        /* \"@openzeppelin/contracts-upgradeable/access/OwnableUpgradeable.sol\":2334:2347  _checkOwner() */\n      jump\t// in\n    tag_173:\n        /* \"contracts/SocialToken.sol\":7112:7124  newMechanics */\n      dup1\n        /* \"contracts/SocialToken.sol\":7100:7109  mechanics */\n      0x33\n        /* \"contracts/SocialToken.sol\":7100:7124  mechanics = newMechanics */\n      0x00\n      dup3\n      add\n      mload\n      dup2\n      0x00\n      add\n      sstore\n      0x20\n      dup3\n      add\n      mload\n      dup2\n      0x01\n      add\n      sstore\n      0x40\n      dup3\n      add\n      mload\n      dup2\n      0x02\n      add\n      sstore\n      0x60\n      dup3\n      add\n      mload\n      dup2\n      0x03\n      add\n      sstore\n      0x80\n      dup3\n      add\n      mload\n      dup2\n      0x04\n      add\n      sstore\n      0xa0\n      dup3\n      add\n      mload\n      dup2\n      0x05\n      add\n      sstore\n      swap1\n      pop\n      pop\n        /* \"contracts/SocialToken.sol\":7139:7169  MechanicsUpdated(newMechanics) */\n      0x367b6b00685ae263e44e2231e399d2e112eac1979516a9e0e1069d7cd4ac3a2d\n        /* \"contracts/SocialToken.sol\":7156:7168  newMechanics */\n      dup2\n        /* \"contracts/SocialToken.sol\":7139:7169  MechanicsUpdated(newMechanics) */\n      mload(0x40)\n      tag_176\n      swap2\n      swap1\n      tag_177\n      jump\t// in\n    tag_176:\n      mload(0x40)\n      dup1\n      swap2\n      sub\n      swap1\n      log1\n        /* \"contracts/SocialToken.sol\":7010:7176  function updateMechanics(TokenMechanics memory newMechanics) external onlyOwner {... */\n      pop\n      jump\t// out\n        /* \"@openzeppelin/contracts-upgradeable/token/ERC20/ERC20Upgradeable.sol\":3896:4048  function totalSupply() public view virtual returns (uint256) {... */\n    tag_54:\n        /* \"@openzeppelin/contracts-upgradeable/token/ERC20/ERC20Upgradeable.sol\":3948:3955  uint256 */\n      0x00\n        /* \"@openzeppelin/contracts-upgradeable/token/ERC20/ERC20Upgradeable.sol\":3967:3989  ERC20Storage storage $ */\n      dup1\n        /* \"@openzeppelin/contracts-upgradeable/token/ERC20/ERC20Upgradeable.sol\":3992:4010  _getERC20Storage() */\n      tag_179\n        /* \"@openzeppelin/contracts-upgradeable/token/ERC20/ERC20Upgradeable.sol\":3992:4008  _getERC20Storage */\n      tag_160\n        /* \"@openzeppelin/contracts-upgradeable/token/ERC20/ERC20Upgradeable.sol\":3992:4010  _getERC20Storage() */\n      jump\t// in\n    tag_179:\n        /* \"@openzeppelin/contracts-upgradeable/token/ERC20/ERC20Upgradeable.sol\":3967:4010  ERC20Storage storage $ = _getERC20Storage() */\n      swap1\n      pop\n        /* \"@openzeppelin/contracts-upgradeable/token/ERC20/ERC20Upgradeable.sol\":4027:4028  $ */\n      dup1\n        /* \"@openzeppelin/contracts-upgradeable/token/ERC20/ERC20Upgradeable.sol\":4027:4041  $._totalSupply */\n      0x02\n      add\n      sload\n        /* \"@openzeppelin/contracts-upgradeable/token/ERC20/ERC20Upgradeable.sol\":4020:4041  return $._totalSupply */\n      swap2\n      pop\n      pop\n        /* \"@openzeppelin/contracts-upgradeable/token/ERC20/ERC20Upgradeable.sol\":3896:4048  function totalSupply() public view virtual returns (uint256) {... */\n      swap1\n      jump\t// out\n        /* \"contracts/SocialToken.sol\":6774:7004  function updateOracle(address newOracle) external onlyOwner {... */\n    tag_61:\n        /* \"@openzeppelin/contracts-upgradeable/access/OwnableUpgradeable.sol\":2334:2347  _checkOwner() */\n      tag_181\n        /* \"@openzeppelin/contracts-upgradeable/access/OwnableUpgradeable.sol\":2334:2345  _checkOwner */\n      tag_174\n        /* \"@openzeppelin/contracts-upgradeable/access/OwnableUpgradeable.sol\":2334:2347  _checkOwner() */\n      jump\t// in\n    tag_181:\n        /* \"contracts/SocialToken.sol\":6869:6870  0 */\n      0x00\n        /* \"contracts/SocialToken.sol\":6848:6871  newOracle == address(0) */\n      0xffffffffffffffffffffffffffffffffffffffff\n      and\n        /* \"contracts/SocialToken.sol\":6848:6857  newOracle */\n      dup2\n        /* \"contracts/SocialToken.sol\":6848:6871  newOracle == address(0) */\n      0xffffffffffffffffffffffffffffffffffffffff\n      and\n      sub\n        /* \"contracts/SocialToken.sol\":6844:6902  if (newOracle == address(0)) revert InvalidOracleAddress() */\n      tag_183\n      jumpi\n        /* \"contracts/SocialToken.sol\":6880:6902  InvalidOracleAddress() */\n      mload(0x40)\n      0x5521068100000000000000000000000000000000000000000000000000000000\n      dup2\n      mstore\n      0x04\n      add\n      mload(0x40)\n      dup1\n      swap2\n      sub\n      swap1\n      revert\n        /* \"contracts/SocialToken.sol\":6844:6902  if (newOracle == address(0)) revert InvalidOracleAddress() */\n    tag_183:\n        /* \"contracts/SocialToken.sol\":6948:6957  newOracle */\n      dup1\n        /* \"contracts/SocialToken.sol\":6912:6924  socialOracle */\n      0x32\n      0x00\n        /* \"contracts/SocialToken.sol\":6912:6958  socialOracle = ISocialMetricsOracle(newOracle) */\n      0x0100\n      exp\n      dup2\n      sload\n      dup2\n      0xffffffffffffffffffffffffffffffffffffffff\n      mul\n      not\n      and\n      swap1\n      dup4\n      0xffffffffffffffffffffffffffffffffffffffff\n      and\n      mul\n      or\n      swap1\n      sstore\n      pop\n        /* \"contracts/SocialToken.sol\":6987:6996  newOracle */\n      dup1\n        /* \"contracts/SocialToken.sol\":6973:6997  OracleUpdated(newOracle) */\n      0xffffffffffffffffffffffffffffffffffffffff\n      and\n      0x3df77beb5db05fcdd70a30fc8adf3f83f9501b68579455adbd100b8180940394\n      mload(0x40)\n      mload(0x40)\n      dup1\n      swap2\n      sub\n      swap1\n      log2\n        /* \"contracts/SocialToken.sol\":6774:7004  function updateOracle(address newOracle) external onlyOwner {... */\n      pop\n      jump\t// out\n        /* \"@openzeppelin/contracts-upgradeable/token/ERC20/ERC20Upgradeable.sol\":5988:6232  function transferFrom(address from, address to, uint256 value) public virtual returns (bool) {... */\n    tag_66:\n        /* \"@openzeppelin/contracts-upgradeable/token/ERC20/ERC20Upgradeable.sol\":6075:6079  bool */\n      0x00\n        /* \"@openzeppelin/contracts-upgradeable/token/ERC20/ERC20Upgradeable.sol\":6091:6106  address spender */\n      dup1\n        /* \"@openzeppelin/contracts-upgradeable/token/ERC20/ERC20Upgradeable.sol\":6109:6121  _msgSender() */\n      tag_185\n        /* \"@openzeppelin/contracts-upgradeable/token/ERC20/ERC20Upgradeable.sol\":6109:6119  _msgSender */\n      tag_169\n        /* \"@openzeppelin/contracts-upgradeable/token/ERC20/ERC20Upgradeable.sol\":6109:6121  _msgSender() */\n      jump\t// in\n    tag_185:\n        /* \"@openzeppelin/contracts-upgradeable/token/ERC20/ERC20Upgradeable.sol\":6091:6121  address spender = _msgSender() */\n      swap1\n      pop\n        /* \"@openzeppelin/contracts-upgradeable/token/ERC20/ERC20Upgradeable.sol\":6131:6168  _spendAllowance(from, spender, value) */\n      tag_186\n        /* \"@openzeppelin/contracts-upgradeable/token/ERC20/ERC20Upgradeable.sol\":6147:6151  from */\n      dup6\n        /* \"@openzeppelin/contracts-upgradeable/token/ERC20/ERC20Upgradeable.sol\":6153:6160  spender */\n      dup3\n        /* \"@openzeppelin/contracts-upgradeable/token/ERC20/ERC20Upgradeable.sol\":6162:6167  value */\n      dup6\n        /* \"@openzeppelin/contracts-upgradeable/token/ERC20/ERC20Upgradeable.sol\":6131:6146  _spendAllowance */\n      tag_187\n        /* \"@openzeppelin/contracts-upgradeable/token/ERC20/ERC20Upgradeable.sol\":6131:6168  _spendAllowance(from, spender, value) */\n      jump\t// in\n    tag_186:\n        /* \"@openzeppelin/contracts-upgradeable/token/ERC20/ERC20Upgradeable.sol\":6178:6204  _transfer(from, to, value) */\n      tag_188\n        /* \"@openzeppelin/contracts-upgradeable/token/ERC20/ERC20Upgradeable.sol\":6188:6192  from */\n      dup6\n        /* \"@openzeppelin/contracts-upgradeable/token/ERC20/ERC20Upgradeable.sol\":6194:6196  to */\n      dup6\n        /* \"@openzeppelin/contracts-upgradeable/token/ERC20/ERC20Upgradeable.sol\":6198:6203  value */\n      dup6\n        /* \"@openzeppelin/contracts-upgradeable/token/ERC20/ERC20Upgradeable.sol\":6178:6187  _transfer */\n      tag_189\n        /* \"@openzeppelin/contracts-upgradeable/token/ERC20/ERC20Upgradeable.sol\":6178:6204  _transfer(from, to, value) */\n      jump\t// in\n    tag_188:\n        /* \"@openzeppelin/contracts-upgradeable/token/ERC20/ERC20Upgradeable.sol\":6221:6225  true */\n      0x01\n        /* \"@openzeppelin/contracts-upgradeable/token/ERC20/ERC20Upgradeable.sol\":6214:6225  return true */\n      swap2\n      pop\n      pop\n        /* \"@openzeppelin/contracts-upgradeable/token/ERC20/ERC20Upgradeable.sol\":5988:6232  function transferFrom(address from, address to, uint256 value) public virtual returns (bool) {... */\n      swap4\n      swap3\n      pop\n      pop\n      pop\n      jump\t// out\n        /* \"@openzeppelin/contracts-upgradeable/token/ERC20/ERC20Upgradeable.sol\":3754:3836  function decimals() public view virtual returns (uint8) {... */\n    tag_70:\n        /* \"@openzeppelin/contracts-upgradeable/token/ERC20/ERC20Upgradeable.sol\":3803:3808  uint8 */\n      0x00\n        /* \"@openzeppelin/contracts-upgradeable/token/ERC20/ERC20Upgradeable.sol\":3827:3829  18 */\n      0x12\n        /* \"@openzeppelin/contracts-upgradeable/token/ERC20/ERC20Upgradeable.sol\":3820:3829  return 18 */\n      swap1\n      pop\n        /* \"@openzeppelin/contracts-upgradeable/token/ERC20/ERC20Upgradeable.sol\":3754:3836  function decimals() public view virtual returns (uint8) {... */\n      swap1\n      jump\t// out\n        /* \"contracts/SocialToken.sol\":1522:1553  TokenMechanics public mechanics */\n    tag_75:\n      0x33\n      dup1\n      0x00\n      add\n      sload\n      swap1\n      dup1\n      0x01\n      add\n      sload\n      swap1\n      dup1\n      0x02\n      add\n      sload\n      swap1\n      dup1\n      0x03\n      add\n      sload\n      swap1\n      dup1\n      0x04\n      add\n      sload\n      swap1\n      dup1\n      0x05\n      add\n      sload\n      swap1\n      pop\n      dup7\n      jump\t// out\n        /* \"contracts/SocialToken.sol\":7249:7314  function unpause() external onlyOwner {... */\n    tag_80:\n        /* \"@openzeppelin/contracts-upgradeable/access/OwnableUpgradeable.sol\":2334:2347  _checkOwner() */\n      tag_192\n        /* \"@openzeppelin/contracts-upgradeable/access/OwnableUpgradeable.sol\":2334:2345  _checkOwner */\n      tag_174\n        /* \"@openzeppelin/contracts-upgradeable/access/OwnableUpgradeable.sol\":2334:2347  _checkOwner() */\n      jump\t// in\n    tag_192:\n        /* \"contracts/SocialToken.sol\":7297:7307  _unpause() */\n      tag_194\n        /* \"contracts/SocialToken.sol\":7297:7305  _unpause */\n      tag_195\n        /* \"contracts/SocialToken.sol\":7297:7307  _unpause() */\n      jump\t// in\n    tag_194:\n        /* \"contracts/SocialToken.sol\":7249:7314  function unpause() external onlyOwner {... */\n      jump\t// out\n        /* \"@openzeppelin/contracts-upgradeable/proxy/utils/UUPSUpgradeable.sol\":4161:4375  function upgradeToAndCall(address newImplementation, bytes memory data) public payable virtual onlyProxy {... */\n    tag_84:\n        /* \"@openzeppelin/contracts-upgradeable/proxy/utils/UUPSUpgradeable.sol\":2655:2668  _checkProxy() */\n      tag_197\n        /* \"@openzeppelin/contracts-upgradeable/proxy/utils/UUPSUpgradeable.sol\":2655:2666  _checkProxy */\n      tag_198\n        /* \"@openzeppelin/contracts-upgradeable/proxy/utils/UUPSUpgradeable.sol\":2655:2668  _checkProxy() */\n      jump\t// in\n    tag_197:\n        /* \"@openzeppelin/contracts-upgradeable/proxy/utils/UUPSUpgradeable.sol\":4276:4312  _authorizeUpgrade(newImplementation) */\n      tag_200\n        /* \"@openzeppelin/contracts-upgradeable/proxy/utils/UUPSUpgradeable.sol\":4294:4311  newImplementation */\n      dup3\n        /* \"@openzeppelin/contracts-upgradeable/proxy/utils/UUPSUpgradeable.sol\":4276:4293  _authorizeUpgrade */\n      tag_201\n        /* \"@openzeppelin/contracts-upgradeable/proxy/utils/UUPSUpgradeable.sol\":4276:4312  _authorizeUpgrade(newImplementation) */\n      jump\t// in\n    tag_200:\n        /* \"@openzeppelin/contracts-upgradeable/proxy/utils/UUPSUpgradeable.sol\":4322:4368  _upgradeToAndCallUUPS(newImplementation, data) */\n      tag_202\n        /* \"@openzeppelin/contracts-upgradeable/proxy/utils/UUPSUpgradeable.sol\":4344:4361  newImplementation */\n      dup3\n        /* \"@openzeppelin/contracts-upgradeable/proxy/utils/UUPSUpgradeable.sol\":4363:4367  data */\n      dup3\n        /* \"@openzeppelin/contracts-upgradeable/proxy/utils/UUPSUpgradeable.sol\":4322:4343  _upgradeToAndCallUUPS */\n      tag_203\n        /* \"@openzeppelin/contracts-upgradeable/proxy/utils/UUPSUpgradeable.sol\":4322:4368  _upgradeToAndCallUUPS(newImplementation, data) */\n      jump\t// in\n    tag_202:\n        /* \"@openzeppelin/contracts-upgradeable/proxy/utils/UUPSUpgradeable.sol\":4161:4375  function upgradeToAndCall(address newImplementation, bytes memory data) public payable virtual onlyProxy {... */\n      pop\n      pop\n      jump\t// out\n        /* \"@openzeppelin/contracts-upgradeable/proxy/utils/UUPSUpgradeable.sol\":3708:3842  function proxiableUUID() external view virtual notDelegated returns (bytes32) {... */\n    tag_87:\n        /* \"@openzeppelin/contracts-upgradeable/proxy/utils/UUPSUpgradeable.sol\":3777:3784  bytes32 */\n      0x00\n        /* \"@openzeppelin/contracts-upgradeable/proxy/utils/UUPSUpgradeable.sol\":2926:2946  _checkNotDelegated() */\n      tag_205\n        /* \"@openzeppelin/contracts-upgradeable/proxy/utils/UUPSUpgradeable.sol\":2926:2944  _checkNotDelegated */\n      tag_206\n        /* \"@openzeppelin/contracts-upgradeable/proxy/utils/UUPSUpgradeable.sol\":2926:2946  _checkNotDelegated() */\n      jump\t// in\n    tag_205:\n        /* \"@openzeppelin/contracts/proxy/ERC1967/ERC1967Utils.sol\":811:877  0x360894a13ba1a3210667c828492db98dca3e2076cc3735a920a3ca505d382bbc */\n      0x360894a13ba1a3210667c828492db98dca3e2076cc3735a920a3ca505d382bbc\n        /* \"@openzeppelin/contracts-upgradeable/proxy/utils/UUPSUpgradeable.sol\":3803:3835  ERC1967Utils.IMPLEMENTATION_SLOT */\n      0x00\n      shl\n        /* \"@openzeppelin/contracts-upgradeable/proxy/utils/UUPSUpgradeable.sol\":3796:3835  return ERC1967Utils.IMPLEMENTATION_SLOT */\n      swap1\n      pop\n        /* \"@openzeppelin/contracts-upgradeable/proxy/utils/UUPSUpgradeable.sol\":3708:3842  function proxiableUUID() external view virtual notDelegated returns (bytes32) {... */\n      swap1\n      jump\t// out\n        /* \"@openzeppelin/contracts-upgradeable/security/PausableUpgradeable.sol\":1879:1963  function paused() public view virtual returns (bool) {... */\n    tag_92:\n        /* \"@openzeppelin/contracts-upgradeable/security/PausableUpgradeable.sol\":1926:1930  bool */\n      0x00\n        /* \"@openzeppelin/contracts-upgradeable/security/PausableUpgradeable.sol\":1949:1956  _paused */\n      dup1\n      0x00\n      swap1\n      sload\n      swap1\n      0x0100\n      exp\n      swap1\n      div\n      0xff\n      and\n        /* \"@openzeppelin/contracts-upgradeable/security/PausableUpgradeable.sol\":1942:1956  return _paused */\n      swap1\n      pop\n        /* \"@openzeppelin/contracts-upgradeable/security/PausableUpgradeable.sol\":1879:1963  function paused() public view virtual returns (bool) {... */\n      swap1\n      jump\t// out\n        /* \"@openzeppelin/contracts-upgradeable/token/ERC20/ERC20Upgradeable.sol\":4106:4277  function balanceOf(address account) public view virtual returns (uint256) {... */\n    tag_97:\n        /* \"@openzeppelin/contracts-upgradeable/token/ERC20/ERC20Upgradeable.sol\":4171:4178  uint256 */\n      0x00\n        /* \"@openzeppelin/contracts-upgradeable/token/ERC20/ERC20Upgradeable.sol\":4190:4212  ERC20Storage storage $ */\n      dup1\n        /* \"@openzeppelin/contracts-upgradeable/token/ERC20/ERC20Upgradeable.sol\":4215:4233  _getERC20Storage() */\n      tag_210\n        /* \"@openzeppelin/contracts-upgradeable/token/ERC20/ERC20Upgradeable.sol\":4215:4231  _getERC20Storage */\n      tag_160\n        /* \"@openzeppelin/contracts-upgradeable/token/ERC20/ERC20Upgradeable.sol\":4215:4233  _getERC20Storage() */\n      jump\t// in\n    tag_210:\n        /* \"@openzeppelin/contracts-upgradeable/token/ERC20/ERC20Upgradeable.sol\":4190:4233  ERC20Storage storage $ = _getERC20Storage() */\n      swap1\n      pop\n        /* \"@openzeppelin/contracts-upgradeable/token/ERC20/ERC20Upgradeable.sol\":4250:4251  $ */\n      dup1\n        /* \"@openzeppelin/contracts-upgradeable/token/ERC20/ERC20Upgradeable.sol\":4250:4261  $._balances */\n      0x00\n      add\n        /* \"@openzeppelin/contracts-upgradeable/token/ERC20/ERC20Upgradeable.sol\":4250:4270  $._balances[account] */\n      0x00\n        /* \"@openzeppelin/contracts-upgradeable/token/ERC20/ERC20Upgradeable.sol\":4262:4269  account */\n      dup5\n        /* \"@openzeppelin/contracts-upgradeable/token/ERC20/ERC20Upgradeable.sol\":4250:4270  $._balances[account] */\n      0xffffffffffffffffffffffffffffffffffffffff\n      and\n      0xffffffffffffffffffffffffffffffffffffffff\n      and\n      dup2\n      mstore\n      0x20\n      add\n      swap1\n      dup2\n      mstore\n      0x20\n      add\n      0x00\n      keccak256\n      sload\n        /* \"@openzeppelin/contracts-upgradeable/token/ERC20/ERC20Upgradeable.sol\":4243:4270  return $._balances[account] */\n      swap2\n      pop\n      pop\n        /* \"@openzeppelin/contracts-upgradeable/token/ERC20/ERC20Upgradeable.sol\":4106:4277  function balanceOf(address account) public view virtual returns (uint256) {... */\n      swap2\n      swap1\n      pop\n      jump\t// out\n        /* \"@openzeppelin/contracts-upgradeable/access/OwnableUpgradeable.sol\":3155:3256  function renounceOwnership() public virtual onlyOwner {... */\n    tag_101:\n        /* \"@openzeppelin/contracts-upgradeable/access/OwnableUpgradeable.sol\":2334:2347  _checkOwner() */\n      tag_212\n        /* \"@openzeppelin/contracts-upgradeable/access/OwnableUpgradeable.sol\":2334:2345  _checkOwner */\n      tag_174\n        /* \"@openzeppelin/contracts-upgradeable/access/OwnableUpgradeable.sol\":2334:2347  _checkOwner() */\n      jump\t// in\n    tag_212:\n        /* \"@openzeppelin/contracts-upgradeable/access/OwnableUpgradeable.sol\":3219:3249  _transferOwnership(address(0)) */\n      tag_214\n        /* \"@openzeppelin/contracts-upgradeable/access/OwnableUpgradeable.sol\":3246:3247  0 */\n      0x00\n        /* \"@openzeppelin/contracts-upgradeable/access/OwnableUpgradeable.sol\":3219:3237  _transferOwnership */\n      tag_215\n        /* \"@openzeppelin/contracts-upgradeable/access/OwnableUpgradeable.sol\":3219:3249  _transferOwnership(address(0)) */\n      jump\t// in\n    tag_214:\n        /* \"@openzeppelin/contracts-upgradeable/access/OwnableUpgradeable.sol\":3155:3256  function renounceOwnership() public virtual onlyOwner {... */\n      jump\t// out\n        /* \"contracts/SocialToken.sol\":925:965  ISocialMetricsOracle public socialOracle */\n    tag_104:\n      0x32\n      0x00\n      swap1\n      sload\n      swap1\n      0x0100\n      exp\n      swap1\n      div\n      0xffffffffffffffffffffffffffffffffffffffff\n      and\n      dup2\n      jump\t// out\n        /* \"contracts/SocialToken.sol\":7182:7243  function pause() external onlyOwner {... */\n    tag_109:\n        /* \"@openzeppelin/contracts-upgradeable/access/OwnableUpgradeable.sol\":2334:2347  _checkOwner() */\n      tag_217\n        /* \"@openzeppelin/contracts-upgradeable/access/OwnableUpgradeable.sol\":2334:2345  _checkOwner */\n      tag_174\n        /* \"@openzeppelin/contracts-upgradeable/access/OwnableUpgradeable.sol\":2334:2347  _checkOwner() */\n      jump\t// in\n    tag_217:\n        /* \"contracts/SocialToken.sol\":7228:7236  _pause() */\n      tag_219\n        /* \"contracts/SocialToken.sol\":7228:7234  _pause */\n      tag_220\n        /* \"contracts/SocialToken.sol\":7228:7236  _pause() */\n      jump\t// in\n    tag_219:\n        /* \"contracts/SocialToken.sol\":7182:7243  function pause() external onlyOwner {... */\n      jump\t// out\n        /* \"@openzeppelin/contracts-upgradeable/access/OwnableUpgradeable.sol\":2441:2585  function owner() public view virtual returns (address) {... */\n    tag_112:\n        /* \"@openzeppelin/contracts-upgradeable/access/OwnableUpgradeable.sol\":2487:2494  address */\n      0x00\n        /* \"@openzeppelin/contracts-upgradeable/access/OwnableUpgradeable.sol\":2506:2530  OwnableStorage storage $ */\n      dup1\n        /* \"@openzeppelin/contracts-upgradeable/access/OwnableUpgradeable.sol\":2533:2553  _getOwnableStorage() */\n      tag_222\n        /* \"@openzeppelin/contracts-upgradeable/access/OwnableUpgradeable.sol\":2533:2551  _getOwnableStorage */\n      tag_223\n        /* \"@openzeppelin/contracts-upgradeable/access/OwnableUpgradeable.sol\":2533:2553  _getOwnableStorage() */\n      jump\t// in\n    tag_222:\n        /* \"@openzeppelin/contracts-upgradeable/access/OwnableUpgradeable.sol\":2506:2553  OwnableStorage storage $ = _getOwnableStorage() */\n      swap1\n      pop\n        /* \"@openzeppelin/contracts-upgradeable/access/OwnableUpgradeable.sol\":2570:2571  $ */\n      dup1\n        /* \"@openzeppelin/contracts-upgradeable/access/OwnableUpgradeable.sol\":2570:2578  $._owner */\n      0x00\n      add\n      0x00\n      swap1\n      sload\n      swap1\n      0x0100\n      exp\n      swap1\n      div\n      0xffffffffffffffffffffffffffffffffffffffff\n      and\n        /* \"@openzeppelin/contracts-upgradeable/access/OwnableUpgradeable.sol\":2563:2578  return $._owner */\n      swap2\n      pop\n      pop\n        /* \"@openzeppelin/contracts-upgradeable/access/OwnableUpgradeable.sol\":2441:2585  function owner() public view virtual returns (address) {... */\n      swap1\n      jump\t// out\n        /* \"@openzeppelin/contracts-upgradeable/token/ERC20/ERC20Upgradeable.sol\":2973:3121  function symbol() public view virtual returns (string memory) {... */\n    tag_117:\n        /* \"@openzeppelin/contracts-upgradeable/token/ERC20/ERC20Upgradeable.sol\":3020:3033  string memory */\n      0x60\n        /* \"@openzeppelin/contracts-upgradeable/token/ERC20/ERC20Upgradeable.sol\":3045:3067  ERC20Storage storage $ */\n      0x00\n        /* \"@openzeppelin/contracts-upgradeable/token/ERC20/ERC20Upgradeable.sol\":3070:3088  _getERC20Storage() */\n      tag_225\n        /* \"@openzeppelin/contracts-upgradeable/token/ERC20/ERC20Upgradeable.sol\":3070:3086  _getERC20Storage */\n      tag_160\n        /* \"@openzeppelin/contracts-upgradeable/token/ERC20/ERC20Upgradeable.sol\":3070:3088  _getERC20Storage() */\n      jump\t// in\n    tag_225:\n        /* \"@openzeppelin/contracts-upgradeable/token/ERC20/ERC20Upgradeable.sol\":3045:3088  ERC20Storage storage $ = _getERC20Storage() */\n      swap1\n      pop\n        /* \"@openzeppelin/contracts-upgradeable/token/ERC20/ERC20Upgradeable.sol\":3105:3106  $ */\n      dup1\n        /* \"@openzeppelin/contracts-upgradeable/token/ERC20/ERC20Upgradeable.sol\":3105:3114  $._symbol */\n      0x04\n      add\n        /* \"@openzeppelin/contracts-upgradeable/token/ERC20/ERC20Upgradeable.sol\":3098:3114  return $._symbol */\n      dup1\n      sload\n      tag_226\n      swap1\n      tag_162\n      jump\t// in\n    tag_226:\n      dup1\n      0x1f\n      add\n      0x20\n      dup1\n      swap2\n      div\n      mul\n      0x20\n      add\n      mload(0x40)\n      swap1\n      dup2\n      add\n      0x40\n      mstore\n      dup1\n      swap3\n      swap2\n      swap1\n      dup2\n      dup2\n      mstore\n      0x20\n      add\n      dup3\n      dup1\n      sload\n      tag_227\n      swap1\n      tag_162\n      jump\t// in\n    tag_227:\n      dup1\n      iszero\n      tag_228\n      jumpi\n      dup1\n      0x1f\n      lt\n      tag_229\n      jumpi\n      0x0100\n      dup1\n      dup4\n      sload\n      div\n      mul\n      dup4\n      mstore\n      swap2\n      0x20\n      add\n      swap2\n      jump(tag_228)\n    tag_229:\n      dup3\n      add\n      swap2\n      swap1\n      0x00\n      mstore\n      keccak256(0x00, 0x20)\n      swap1\n    tag_230:\n      dup2\n      sload\n      dup2\n      mstore\n      swap1\n      0x01\n      add\n      swap1\n      0x20\n      add\n      dup1\n      dup4\n      gt\n      tag_230\n      jumpi\n      dup3\n      swap1\n      sub\n      0x1f\n      and\n      dup3\n      add\n      swap2\n    tag_228:\n      pop\n      pop\n      pop\n      pop\n      pop\n      swap2\n      pop\n      pop\n        /* \"@openzeppelin/contracts-upgradeable/token/ERC20/ERC20Upgradeable.sol\":2973:3121  function symbol() public view virtual returns (string memory) {... */\n      swap1\n      jump\t// out\n        /* \"contracts/SocialToken.sol\":1590:1624  uint256 public lastMechanicsUpdate */\n    tag_121:\n      sload(0x39)\n      dup2\n      jump\t// out\n        /* \"contracts/SocialToken.sol\":2915:3907  function updateBasedOnMetrics() external whenNotPaused {... */\n    tag_125:\n        /* \"@openzeppelin/contracts-upgradeable/security/PausableUpgradeable.sol\":1503:1522  _requireNotPaused() */\n      tag_232\n        /* \"@openzeppelin/contracts-upgradeable/security/PausableUpgradeable.sol\":1503:1520  _requireNotPaused */\n      tag_233\n        /* \"@openzeppelin/contracts-upgradeable/security/PausableUpgradeable.sol\":1503:1522  _requireNotPaused() */\n      jump\t// in\n    tag_232:\n        /* \"contracts/SocialToken.sol\":3024:3033  mechanics */\n      0x33\n        /* \"contracts/SocialToken.sol\":3024:3048  mechanics.cooldownPeriod */\n      0x05\n      add\n      sload\n        /* \"contracts/SocialToken.sol\":3002:3021  lastMechanicsUpdate */\n      sload(0x39)\n        /* \"contracts/SocialToken.sol\":3002:3048  lastMechanicsUpdate + mechanics.cooldownPeriod */\n      tag_235\n      swap2\n      swap1\n      tag_236\n      jump\t// in\n    tag_235:\n        /* \"contracts/SocialToken.sol\":2984:2999  block.timestamp */\n      timestamp\n        /* \"contracts/SocialToken.sol\":2984:3048  block.timestamp < lastMechanicsUpdate + mechanics.cooldownPeriod */\n      lt\n        /* \"contracts/SocialToken.sol\":2980:3096  if (block.timestamp < lastMechanicsUpdate + mechanics.cooldownPeriod) ... */\n      iszero\n      tag_237\n      jumpi\n        /* \"contracts/SocialToken.sol\":3070:3096  CooldownPeriodNotElapsed() */\n      mload(0x40)\n      0x4a448f3700000000000000000000000000000000000000000000000000000000\n      dup2\n      mstore\n      0x04\n      add\n      mload(0x40)\n      dup1\n      swap2\n      sub\n      swap1\n      revert\n        /* \"contracts/SocialToken.sol\":2980:3096  if (block.timestamp < lastMechanicsUpdate + mechanics.cooldownPeriod) ... */\n    tag_237:\n        /* \"contracts/SocialToken.sol\":3107:3156  ISocialMetricsOracle.SocialMetrics memory metrics */\n      0x00\n        /* \"contracts/SocialToken.sol\":3159:3171  socialOracle */\n      0x32\n      0x00\n      swap1\n      sload\n      swap1\n      0x0100\n      exp\n      swap1\n      div\n      0xffffffffffffffffffffffffffffffffffffffff\n      and\n        /* \"contracts/SocialToken.sol\":3159:3188  socialOracle.getLatestMetrics */\n      0xffffffffffffffffffffffffffffffffffffffff\n      and\n      0x395924dc\n        /* \"contracts/SocialToken.sol\":3159:3190  socialOracle.getLatestMetrics() */\n      mload(0x40)\n      dup2\n      0xffffffff\n      and\n      0xe0\n      shl\n      dup2\n      mstore\n      0x04\n      add\n      0x80\n      mload(0x40)\n      dup1\n      dup4\n      sub\n      dup2\n      dup7\n      gas\n      staticcall\n      iszero\n      dup1\n      iszero\n      tag_239\n      jumpi\n      returndatasize\n      0x00\n      dup1\n      returndatacopy\n      revert(0x00, returndatasize)\n    tag_239:\n      pop\n      pop\n      pop\n      pop\n      mload(0x40)\n      returndatasize\n      not(0x1f)\n      0x1f\n      dup3\n      add\n      and\n      dup3\n      add\n      dup1\n      0x40\n      mstore\n      pop\n      dup2\n      add\n      swap1\n      tag_240\n      swap2\n      swap1\n      tag_241\n      jump\t// in\n    tag_240:\n        /* \"contracts/SocialToken.sol\":3107:3190  ISocialMetricsOracle.SocialMetrics memory metrics = socialOracle.getLatestMetrics() */\n      swap1\n      pop\n        /* \"contracts/SocialToken.sol\":3279:3286  1 hours */\n      0x0e10\n        /* \"contracts/SocialToken.sol\":3259:3266  metrics */\n      dup2\n        /* \"contracts/SocialToken.sol\":3259:3276  metrics.timestamp */\n      0x60\n      add\n      mload\n        /* \"contracts/SocialToken.sol\":3241:3256  block.timestamp */\n      timestamp\n        /* \"contracts/SocialToken.sol\":3241:3276  block.timestamp - metrics.timestamp */\n      tag_242\n      swap2\n      swap1\n      tag_243\n      jump\t// in\n    tag_242:\n        /* \"contracts/SocialToken.sol\":3241:3286  block.timestamp - metrics.timestamp > 1 hours */\n      gt\n        /* \"contracts/SocialToken.sol\":3237:3333  if (block.timestamp - metrics.timestamp > 1 hours) ... */\n      iszero\n      tag_244\n      jumpi\n        /* \"contracts/SocialToken.sol\":3308:3333  InvalidMetricsTimestamp() */\n      mload(0x40)\n      0x7428474c00000000000000000000000000000000000000000000000000000000\n      dup2\n      mstore\n      0x04\n      add\n      mload(0x40)\n      dup1\n      swap2\n      sub\n      swap1\n      revert\n        /* \"contracts/SocialToken.sol\":3237:3333  if (block.timestamp - metrics.timestamp > 1 hours) ... */\n    tag_244:\n        /* \"contracts/SocialToken.sol\":3368:3377  mechanics */\n      0x33\n        /* \"contracts/SocialToken.sol\":3368:3391  mechanics.minTweetCount */\n      0x02\n      add\n      sload\n        /* \"contracts/SocialToken.sol\":3347:3354  metrics */\n      dup2\n        /* \"contracts/SocialToken.sol\":3347:3365  metrics.tweetCount */\n      0x00\n      add\n      mload\n        /* \"contracts/SocialToken.sol\":3347:3391  metrics.tweetCount < mechanics.minTweetCount */\n      lt\n        /* \"contracts/SocialToken.sol\":3343:3437  if (metrics.tweetCount < mechanics.minTweetCount) ... */\n      iszero\n      tag_245\n      jumpi\n        /* \"contracts/SocialToken.sol\":3413:3437  InsufficientTweetCount() */\n      mload(0x40)\n      0xda2029d100000000000000000000000000000000000000000000000000000000\n      dup2\n      mstore\n      0x04\n      add\n      mload(0x40)\n      dup1\n      swap2\n      sub\n      swap1\n      revert\n        /* \"contracts/SocialToken.sol\":3343:3437  if (metrics.tweetCount < mechanics.minTweetCount) ... */\n    tag_245:\n        /* \"contracts/SocialToken.sol\":3527:3536  mechanics */\n      0x33\n        /* \"contracts/SocialToken.sol\":3527:3554  mechanics.minSentimentScore */\n      0x00\n      add\n      sload\n        /* \"contracts/SocialToken.sol\":3501:3508  metrics */\n      dup2\n        /* \"contracts/SocialToken.sol\":3501:3523  metrics.sentimentScore */\n      0x20\n      add\n      mload\n        /* \"contracts/SocialToken.sol\":3501:3554  metrics.sentimentScore >= mechanics.minSentimentScore */\n      lt\n      iszero\n        /* \"contracts/SocialToken.sol\":3501:3623  metrics.sentimentScore >= mechanics.minSentimentScore &&... */\n      dup1\n      iszero\n      tag_246\n      jumpi\n      pop\n        /* \"contracts/SocialToken.sol\":3596:3605  mechanics */\n      0x33\n        /* \"contracts/SocialToken.sol\":3596:3623  mechanics.minEngagementRate */\n      0x01\n      add\n      sload\n        /* \"contracts/SocialToken.sol\":3570:3577  metrics */\n      dup2\n        /* \"contracts/SocialToken.sol\":3570:3592  metrics.engagementRate */\n      0x40\n      add\n      mload\n        /* \"contracts/SocialToken.sol\":3570:3623  metrics.engagementRate >= mechanics.minEngagementRate */\n      lt\n      iszero\n        /* \"contracts/SocialToken.sol\":3501:3623  metrics.sentimentScore >= mechanics.minSentimentScore &&... */\n    tag_246:\n        /* \"contracts/SocialToken.sol\":3484:3752  if (... */\n      iszero\n      tag_247\n      jumpi\n        /* \"contracts/SocialToken.sol\":3648:3679  _handlePositiveMetrics(metrics) */\n      tag_248\n        /* \"contracts/SocialToken.sol\":3671:3678  metrics */\n      dup2\n        /* \"contracts/SocialToken.sol\":3648:3670  _handlePositiveMetrics */\n      tag_249\n        /* \"contracts/SocialToken.sol\":3648:3679  _handlePositiveMetrics(metrics) */\n      jump\t// in\n    tag_248:\n        /* \"contracts/SocialToken.sol\":3484:3752  if (... */\n      jump(tag_250)\n    tag_247:\n        /* \"contracts/SocialToken.sol\":3710:3741  _handleNegativeMetrics(metrics) */\n      tag_251\n        /* \"contracts/SocialToken.sol\":3733:3740  metrics */\n      dup2\n        /* \"contracts/SocialToken.sol\":3710:3732  _handleNegativeMetrics */\n      tag_252\n        /* \"contracts/SocialToken.sol\":3710:3741  _handleNegativeMetrics(metrics) */\n      jump\t// in\n    tag_251:\n        /* \"contracts/SocialToken.sol\":3484:3752  if (... */\n    tag_250:\n        /* \"contracts/SocialToken.sol\":3784:3799  block.timestamp */\n      timestamp\n        /* \"contracts/SocialToken.sol\":3762:3781  lastMechanicsUpdate */\n      0x39\n        /* \"contracts/SocialToken.sol\":3762:3799  lastMechanicsUpdate = block.timestamp */\n      dup2\n      swap1\n      sstore\n      pop\n        /* \"contracts/SocialToken.sol\":3865:3877  socialOracle */\n      0x32\n      0x00\n      swap1\n      sload\n      swap1\n      0x0100\n      exp\n      swap1\n      div\n      0xffffffffffffffffffffffffffffffffffffffff\n      and\n        /* \"contracts/SocialToken.sol\":3865:3898  socialOracle.requestSocialMetrics */\n      0xffffffffffffffffffffffffffffffffffffffff\n      and\n      0x09c22c5d\n        /* \"contracts/SocialToken.sol\":3865:3900  socialOracle.requestSocialMetrics() */\n      mload(0x40)\n      dup2\n      0xffffffff\n      and\n      0xe0\n      shl\n      dup2\n      mstore\n      0x04\n      add\n      0x20\n      mload(0x40)\n      dup1\n      dup4\n      sub\n      dup2\n      0x00\n      dup8\n      gas\n      call\n      iszero\n      dup1\n      iszero\n      tag_254\n      jumpi\n      returndatasize\n      0x00\n      dup1\n      returndatacopy\n      revert(0x00, returndatasize)\n    tag_254:\n      pop\n      pop\n      pop\n      pop\n      mload(0x40)\n      returndatasize\n      not(0x1f)\n      0x1f\n      dup3\n      add\n      and\n      dup3\n      add\n      dup1\n      0x40\n      mstore\n      pop\n      dup2\n      add\n      swap1\n      tag_255\n      swap2\n      swap1\n      tag_256\n      jump\t// in\n    tag_255:\n      pop\n        /* \"contracts/SocialToken.sol\":2970:3907  {... */\n      pop\n        /* \"contracts/SocialToken.sol\":2915:3907  function updateBasedOnMetrics() external whenNotPaused {... */\n      jump\t// out\n        /* \"@openzeppelin/contracts-upgradeable/token/ERC20/ERC20Upgradeable.sol\":4472:4650  function transfer(address to, uint256 value) public virtual returns (bool) {... */\n    tag_129:\n        /* \"@openzeppelin/contracts-upgradeable/token/ERC20/ERC20Upgradeable.sol\":4541:4545  bool */\n      0x00\n        /* \"@openzeppelin/contracts-upgradeable/token/ERC20/ERC20Upgradeable.sol\":4557:4570  address owner */\n      dup1\n        /* \"@openzeppelin/contracts-upgradeable/token/ERC20/ERC20Upgradeable.sol\":4573:4585  _msgSender() */\n      tag_258\n        /* \"@openzeppelin/contracts-upgradeable/token/ERC20/ERC20Upgradeable.sol\":4573:4583  _msgSender */\n      tag_169\n        /* \"@openzeppelin/contracts-upgradeable/token/ERC20/ERC20Upgradeable.sol\":4573:4585  _msgSender() */\n      jump\t// in\n    tag_258:\n        /* \"@openzeppelin/contracts-upgradeable/token/ERC20/ERC20Upgradeable.sol\":4557:4585  address owner = _msgSender() */\n      swap1\n      pop\n        /* \"@openzeppelin/contracts-upgradeable/token/ERC20/ERC20Upgradeable.sol\":4595:4622  _transfer(owner, to, value) */\n      tag_259\n        /* \"@openzeppelin/contracts-upgradeable/token/ERC20/ERC20Upgradeable.sol\":4605:4610  owner */\n      dup2\n        /* \"@openzeppelin/contracts-upgradeable/token/ERC20/ERC20Upgradeable.sol\":4612:4614  to */\n      dup6\n        /* \"@openzeppelin/contracts-upgradeable/token/ERC20/ERC20Upgradeable.sol\":4616:4621  value */\n      dup6\n        /* \"@openzeppelin/contracts-upgradeable/token/ERC20/ERC20Upgradeable.sol\":4595:4604  _transfer */\n      tag_189\n        /* \"@openzeppelin/contracts-upgradeable/token/ERC20/ERC20Upgradeable.sol\":4595:4622  _transfer(owner, to, value) */\n      jump\t// in\n    tag_259:\n        /* \"@openzeppelin/contracts-upgradeable/token/ERC20/ERC20Upgradeable.sol\":4639:4643  true */\n      0x01\n        /* \"@openzeppelin/contracts-upgradeable/token/ERC20/ERC20Upgradeable.sol\":4632:4643  return true */\n      swap2\n      pop\n      pop\n        /* \"@openzeppelin/contracts-upgradeable/token/ERC20/ERC20Upgradeable.sol\":4472:4650  function transfer(address to, uint256 value) public virtual returns (bool) {... */\n      swap3\n      swap2\n      pop\n      pop\n      jump\t// out\n        /* \"@openzeppelin/contracts-upgradeable/proxy/utils/UUPSUpgradeable.sol\":1819:1877  string public constant UPGRADE_INTERFACE_VERSION = \"5.0.0\" */\n    tag_133:\n      mload(0x40)\n      dup1\n      0x40\n      add\n      0x40\n      mstore\n      dup1\n      0x05\n      dup2\n      mstore\n      0x20\n      add\n      0x352e302e30000000000000000000000000000000000000000000000000000000\n      dup2\n      mstore\n      pop\n      dup2\n      jump\t// out\n        /* \"contracts/SocialToken.sol\":2299:2873  function initialize(... */\n    tag_139:\n        /* \"@openzeppelin/contracts-upgradeable/proxy/utils/Initializable.sol\":4158:4188  InitializableStorage storage $ */\n      0x00\n        /* \"@openzeppelin/contracts-upgradeable/proxy/utils/Initializable.sol\":4191:4217  _getInitializableStorage() */\n      tag_261\n        /* \"@openzeppelin/contracts-upgradeable/proxy/utils/Initializable.sol\":4191:4215  _getInitializableStorage */\n      tag_262\n        /* \"@openzeppelin/contracts-upgradeable/proxy/utils/Initializable.sol\":4191:4217  _getInitializableStorage() */\n      jump\t// in\n    tag_261:\n        /* \"@openzeppelin/contracts-upgradeable/proxy/utils/Initializable.sol\":4158:4217  InitializableStorage storage $ = _getInitializableStorage() */\n      swap1\n      pop\n        /* \"@openzeppelin/contracts-upgradeable/proxy/utils/Initializable.sol\":4279:4298  bool isTopLevelCall */\n      0x00\n        /* \"@openzeppelin/contracts-upgradeable/proxy/utils/Initializable.sol\":4302:4303  $ */\n      dup2\n        /* \"@openzeppelin/contracts-upgradeable/proxy/utils/Initializable.sol\":4302:4317  $._initializing */\n      0x00\n      add\n      0x08\n      swap1\n      sload\n      swap1\n      0x0100\n      exp\n      swap1\n      div\n      0xff\n      and\n        /* \"@openzeppelin/contracts-upgradeable/proxy/utils/Initializable.sol\":4301:4317  !$._initializing */\n      iszero\n        /* \"@openzeppelin/contracts-upgradeable/proxy/utils/Initializable.sol\":4279:4317  bool isTopLevelCall = !$._initializing */\n      swap1\n      pop\n        /* \"@openzeppelin/contracts-upgradeable/proxy/utils/Initializable.sol\":4327:4345  uint64 initialized */\n      0x00\n        /* \"@openzeppelin/contracts-upgradeable/proxy/utils/Initializable.sol\":4348:4349  $ */\n      dup3\n        /* \"@openzeppelin/contracts-upgradeable/proxy/utils/Initializable.sol\":4348:4362  $._initialized */\n      0x00\n      add\n      0x00\n      swap1\n      sload\n      swap1\n      0x0100\n      exp\n      swap1\n      div\n      0xffffffffffffffff\n      and\n        /* \"@openzeppelin/contracts-upgradeable/proxy/utils/Initializable.sol\":4327:4362  uint64 initialized = $._initialized */\n      swap1\n      pop\n        /* \"@openzeppelin/contracts-upgradeable/proxy/utils/Initializable.sol\":4706:4723  bool initialSetup */\n      0x00\n        /* \"@openzeppelin/contracts-upgradeable/proxy/utils/Initializable.sol\":4741:4742  0 */\n      dup1\n        /* \"@openzeppelin/contracts-upgradeable/proxy/utils/Initializable.sol\":4726:4737  initialized */\n      dup3\n        /* \"@openzeppelin/contracts-upgradeable/proxy/utils/Initializable.sol\":4726:4742  initialized == 0 */\n      0xffffffffffffffff\n      and\n      eq\n        /* \"@openzeppelin/contracts-upgradeable/proxy/utils/Initializable.sol\":4726:4760  initialized == 0 && isTopLevelCall */\n      dup1\n      iszero\n      tag_263\n      jumpi\n      pop\n        /* \"@openzeppelin/contracts-upgradeable/proxy/utils/Initializable.sol\":4746:4760  isTopLevelCall */\n      dup3\n        /* \"@openzeppelin/contracts-upgradeable/proxy/utils/Initializable.sol\":4726:4760  initialized == 0 && isTopLevelCall */\n    tag_263:\n        /* \"@openzeppelin/contracts-upgradeable/proxy/utils/Initializable.sol\":4706:4760  bool initialSetup = initialized == 0 && isTopLevelCall */\n      swap1\n      pop\n        /* \"@openzeppelin/contracts-upgradeable/proxy/utils/Initializable.sol\":4770:4787  bool construction */\n      0x00\n        /* \"@openzeppelin/contracts-upgradeable/proxy/utils/Initializable.sol\":4805:4806  1 */\n      0x01\n        /* \"@openzeppelin/contracts-upgradeable/proxy/utils/Initializable.sol\":4790:4801  initialized */\n      dup4\n        /* \"@openzeppelin/contracts-upgradeable/proxy/utils/Initializable.sol\":4790:4806  initialized == 1 */\n      0xffffffffffffffff\n      and\n      eq\n        /* \"@openzeppelin/contracts-upgradeable/proxy/utils/Initializable.sol\":4790:4840  initialized == 1 && address(this).code.length == 0 */\n      dup1\n      iszero\n      tag_264\n      jumpi\n      pop\n        /* \"@openzeppelin/contracts-upgradeable/proxy/utils/Initializable.sol\":4839:4840  0 */\n      0x00\n        /* \"@openzeppelin/contracts-upgradeable/proxy/utils/Initializable.sol\":4818:4822  this */\n      address\n        /* \"@openzeppelin/contracts-upgradeable/proxy/utils/Initializable.sol\":4810:4835  address(this).code.length */\n      0xffffffffffffffffffffffffffffffffffffffff\n      and\n      extcodesize\n        /* \"@openzeppelin/contracts-upgradeable/proxy/utils/Initializable.sol\":4810:4840  address(this).code.length == 0 */\n      eq\n        /* \"@openzeppelin/contracts-upgradeable/proxy/utils/Initializable.sol\":4790:4840  initialized == 1 && address(this).code.length == 0 */\n    tag_264:\n        /* \"@openzeppelin/contracts-upgradeable/proxy/utils/Initializable.sol\":4770:4840  bool construction = initialized == 1 && address(this).code.length == 0 */\n      swap1\n      pop\n        /* \"@openzeppelin/contracts-upgradeable/proxy/utils/Initializable.sol\":4856:4868  initialSetup */\n      dup2\n        /* \"@openzeppelin/contracts-upgradeable/proxy/utils/Initializable.sol\":4855:4868  !initialSetup */\n      iszero\n        /* \"@openzeppelin/contracts-upgradeable/proxy/utils/Initializable.sol\":4855:4885  !initialSetup && !construction */\n      dup1\n      iszero\n      tag_265\n      jumpi\n      pop\n        /* \"@openzeppelin/contracts-upgradeable/proxy/utils/Initializable.sol\":4873:4885  construction */\n      dup1\n        /* \"@openzeppelin/contracts-upgradeable/proxy/utils/Initializable.sol\":4872:4885  !construction */\n      iszero\n        /* \"@openzeppelin/contracts-upgradeable/proxy/utils/Initializable.sol\":4855:4885  !initialSetup && !construction */\n    tag_265:\n        /* \"@openzeppelin/contracts-upgradeable/proxy/utils/Initializable.sol\":4851:4942  if (!initialSetup && !construction) {... */\n      iszero\n      tag_266\n      jumpi\n        /* \"@openzeppelin/contracts-upgradeable/proxy/utils/Initializable.sol\":4908:4931  InvalidInitialization() */\n      mload(0x40)\n      0xf92ee8a900000000000000000000000000000000000000000000000000000000\n      dup2\n      mstore\n      0x04\n      add\n      mload(0x40)\n      dup1\n      swap2\n      sub\n      swap1\n      revert\n        /* \"@openzeppelin/contracts-upgradeable/proxy/utils/Initializable.sol\":4851:4942  if (!initialSetup && !construction) {... */\n    tag_266:\n        /* \"@openzeppelin/contracts-upgradeable/proxy/utils/Initializable.sol\":4968:4969  1 */\n      0x01\n        /* \"@openzeppelin/contracts-upgradeable/proxy/utils/Initializable.sol\":4951:4952  $ */\n      dup6\n        /* \"@openzeppelin/contracts-upgradeable/proxy/utils/Initializable.sol\":4951:4965  $._initialized */\n      0x00\n      add\n      0x00\n        /* \"@openzeppelin/contracts-upgradeable/proxy/utils/Initializable.sol\":4951:4969  $._initialized = 1 */\n      0x0100\n      exp\n      dup2\n      sload\n      dup2\n      0xffffffffffffffff\n      mul\n      not\n      and\n      swap1\n      dup4\n      0xffffffffffffffff\n      and\n      mul\n      or\n      swap1\n      sstore\n      pop\n        /* \"@openzeppelin/contracts-upgradeable/proxy/utils/Initializable.sol\":4983:4997  isTopLevelCall */\n      dup4\n        /* \"@openzeppelin/contracts-upgradeable/proxy/utils/Initializable.sol\":4979:5046  if (isTopLevelCall) {... */\n      iszero\n      tag_267\n      jumpi\n        /* \"@openzeppelin/contracts-upgradeable/proxy/utils/Initializable.sol\":5031:5035  true */\n      0x01\n        /* \"@openzeppelin/contracts-upgradeable/proxy/utils/Initializable.sol\":5013:5014  $ */\n      dup6\n        /* \"@openzeppelin/contracts-upgradeable/proxy/utils/Initializable.sol\":5013:5028  $._initializing */\n      0x00\n      add\n      0x08\n        /* \"@openzeppelin/contracts-upgradeable/proxy/utils/Initializable.sol\":5013:5035  $._initializing = true */\n      0x0100\n      exp\n      dup2\n      sload\n      dup2\n      0xff\n      mul\n      not\n      and\n      swap1\n      dup4\n      iszero\n      iszero\n      mul\n      or\n      swap1\n      sstore\n      pop\n        /* \"@openzeppelin/contracts-upgradeable/proxy/utils/Initializable.sol\":4979:5046  if (isTopLevelCall) {... */\n    tag_267:\n        /* \"contracts/SocialToken.sol\":2485:2511  __ERC20_init(name, symbol) */\n      tag_269\n        /* \"contracts/SocialToken.sol\":2498:2502  name */\n      dup10\n        /* \"contracts/SocialToken.sol\":2504:2510  symbol */\n      dup10\n        /* \"contracts/SocialToken.sol\":2485:2497  __ERC20_init */\n      tag_270\n        /* \"contracts/SocialToken.sol\":2485:2511  __ERC20_init(name, symbol) */\n      jump\t// in\n    tag_269:\n        /* \"contracts/SocialToken.sol\":2521:2547  __Ownable_init(msg.sender) */\n      tag_271\n        /* \"contracts/SocialToken.sol\":2536:2546  msg.sender */\n      caller\n        /* \"contracts/SocialToken.sol\":2521:2535  __Ownable_init */\n      tag_272\n        /* \"contracts/SocialToken.sol\":2521:2547  __Ownable_init(msg.sender) */\n      jump\t// in\n    tag_271:\n        /* \"contracts/SocialToken.sol\":2557:2574  __Pausable_init() */\n      tag_273\n        /* \"contracts/SocialToken.sol\":2557:2572  __Pausable_init */\n      tag_274\n        /* \"contracts/SocialToken.sol\":2557:2574  __Pausable_init() */\n      jump\t// in\n    tag_273:\n        /* \"contracts/SocialToken.sol\":2584:2608  __UUPSUpgradeable_init() */\n      tag_275\n        /* \"contracts/SocialToken.sol\":2584:2606  __UUPSUpgradeable_init */\n      tag_276\n        /* \"contracts/SocialToken.sol\":2584:2608  __UUPSUpgradeable_init() */\n      jump\t// in\n    tag_275:\n        /* \"contracts/SocialToken.sol\":2648:2649  0 */\n      0x00\n        /* \"contracts/SocialToken.sol\":2623:2650  _socialOracle == address(0) */\n      0xffffffffffffffffffffffffffffffffffffffff\n      and\n        /* \"contracts/SocialToken.sol\":2623:2636  _socialOracle */\n      dup8\n        /* \"contracts/SocialToken.sol\":2623:2650  _socialOracle == address(0) */\n      0xffffffffffffffffffffffffffffffffffffffff\n      and\n      sub\n        /* \"contracts/SocialToken.sol\":2619:2681  if (_socialOracle == address(0)) revert InvalidOracleAddress() */\n      tag_277\n      jumpi\n        /* \"contracts/SocialToken.sol\":2659:2681  InvalidOracleAddress() */\n      mload(0x40)\n      0x5521068100000000000000000000000000000000000000000000000000000000\n      dup2\n      mstore\n      0x04\n      add\n      mload(0x40)\n      dup1\n      swap2\n      sub\n      swap1\n      revert\n        /* \"contracts/SocialToken.sol\":2619:2681  if (_socialOracle == address(0)) revert InvalidOracleAddress() */\n    tag_277:\n        /* \"contracts/SocialToken.sol\":2727:2740  _socialOracle */\n      dup7\n        /* \"contracts/SocialToken.sol\":2691:2703  socialOracle */\n      0x32\n      0x00\n        /* \"contracts/SocialToken.sol\":2691:2741  socialOracle = ISocialMetricsOracle(_socialOracle) */\n      0x0100\n      exp\n      dup2\n      sload\n      dup2\n      0xffffffffffffffffffffffffffffffffffffffff\n      mul\n      not\n      and\n      swap1\n      dup4\n      0xffffffffffffffffffffffffffffffffffffffff\n      and\n      mul\n      or\n      swap1\n      sstore\n      pop\n        /* \"contracts/SocialToken.sol\":2763:2773  _mechanics */\n      dup6\n        /* \"contracts/SocialToken.sol\":2751:2760  mechanics */\n      0x33\n        /* \"contracts/SocialToken.sol\":2751:2773  mechanics = _mechanics */\n      0x00\n      dup3\n      add\n      mload\n      dup2\n      0x00\n      add\n      sstore\n      0x20\n      dup3\n      add\n      mload\n      dup2\n      0x01\n      add\n      sstore\n      0x40\n      dup3\n      add\n      mload\n      dup2\n      0x02\n      add\n      sstore\n      0x60\n      dup3\n      add\n      mload\n      dup2\n      0x03\n      add\n      sstore\n      0x80\n      dup3\n      add\n      mload\n      dup2\n      0x04\n      add\n      sstore\n      0xa0\n      dup3\n      add\n      mload\n      dup2\n      0x05\n      add\n      sstore\n      swap1\n      pop\n      pop\n        /* \"contracts/SocialToken.sol\":2823:2866  _mint(msg.sender, 1000000 * 10**decimals()) */\n      tag_278\n        /* \"contracts/SocialToken.sol\":2829:2839  msg.sender */\n      caller\n        /* \"contracts/SocialToken.sol\":2855:2865  decimals() */\n      tag_279\n        /* \"contracts/SocialToken.sol\":2855:2863  decimals */\n      tag_70\n        /* \"contracts/SocialToken.sol\":2855:2865  decimals() */\n      jump\t// in\n    tag_279:\n        /* \"contracts/SocialToken.sol\":2851:2853  10 */\n      0x0a\n        /* \"contracts/SocialToken.sol\":2851:2865  10**decimals() */\n      tag_280\n      swap2\n      swap1\n      tag_281\n      jump\t// in\n    tag_280:\n        /* \"contracts/SocialToken.sol\":2841:2848  1000000 */\n      0x0f4240\n        /* \"contracts/SocialToken.sol\":2841:2865  1000000 * 10**decimals() */\n      tag_282\n      swap2\n      swap1\n      tag_283\n      jump\t// in\n    tag_282:\n        /* \"contracts/SocialToken.sol\":2823:2828  _mint */\n      tag_284\n        /* \"contracts/SocialToken.sol\":2823:2866  _mint(msg.sender, 1000000 * 10**decimals()) */\n      jump\t// in\n    tag_278:\n        /* \"@openzeppelin/contracts-upgradeable/proxy/utils/Initializable.sol\":5070:5084  isTopLevelCall */\n      dup4\n        /* \"@openzeppelin/contracts-upgradeable/proxy/utils/Initializable.sol\":5066:5167  if (isTopLevelCall) {... */\n      iszero\n      tag_285\n      jumpi\n        /* \"@openzeppelin/contracts-upgradeable/proxy/utils/Initializable.sol\":5118:5123  false */\n      0x00\n        /* \"@openzeppelin/contracts-upgradeable/proxy/utils/Initializable.sol\":5100:5101  $ */\n      dup6\n        /* \"@openzeppelin/contracts-upgradeable/proxy/utils/Initializable.sol\":5100:5115  $._initializing */\n      0x00\n      add\n      0x08\n        /* \"@openzeppelin/contracts-upgradeable/proxy/utils/Initializable.sol\":5100:5123  $._initializing = false */\n      0x0100\n      exp\n      dup2\n      sload\n      dup2\n      0xff\n      mul\n      not\n      and\n      swap1\n      dup4\n      iszero\n      iszero\n      mul\n      or\n      swap1\n      sstore\n      pop\n        /* \"@openzeppelin/contracts-upgradeable/proxy/utils/Initializable.sol\":5142:5156  Initialized(1) */\n      0xc7f505b2f371ae2175ee4913f4499e1f2633a7b5936321eed1cdaeb6115181d2\n        /* \"@openzeppelin/contracts-upgradeable/proxy/utils/Initializable.sol\":5154:5155  1 */\n      0x01\n        /* \"@openzeppelin/contracts-upgradeable/proxy/utils/Initializable.sol\":5142:5156  Initialized(1) */\n      mload(0x40)\n      tag_286\n      swap2\n      swap1\n      tag_287\n      jump\t// in\n    tag_286:\n      mload(0x40)\n      dup1\n      swap2\n      sub\n      swap1\n      log1\n        /* \"@openzeppelin/contracts-upgradeable/proxy/utils/Initializable.sol\":5066:5167  if (isTopLevelCall) {... */\n    tag_285:\n        /* \"@openzeppelin/contracts-upgradeable/proxy/utils/Initializable.sol\":4092:5173  {... */\n      pop\n      pop\n      pop\n      pop\n      pop\n        /* \"contracts/SocialToken.sol\":2299:2873  function initialize(... */\n      pop\n      pop\n      pop\n      pop\n      jump\t// out\n        /* \"contracts/SocialToken.sol\":3913:4509  function claimReward() external whenNotPaused {... */\n    tag_142:\n        /* \"@openzeppelin/contracts-upgradeable/security/PausableUpgradeable.sol\":1503:1522  _requireNotPaused() */\n      tag_289\n        /* \"@openzeppelin/contracts-upgradeable/security/PausableUpgradeable.sol\":1503:1520  _requireNotPaused */\n      tag_233\n        /* \"@openzeppelin/contracts-upgradeable/security/PausableUpgradeable.sol\":1503:1522  _requireNotPaused() */\n      jump\t// in\n    tag_289:\n        /* \"contracts/SocialToken.sol\":4021:4030  mechanics */\n      0x33\n        /* \"contracts/SocialToken.sol\":4021:4045  mechanics.cooldownPeriod */\n      0x05\n      add\n      sload\n        /* \"contracts/SocialToken.sol\":3991:4006  lastRewardClaim */\n      0x3a\n        /* \"contracts/SocialToken.sol\":3991:4018  lastRewardClaim[msg.sender] */\n      0x00\n        /* \"contracts/SocialToken.sol\":4007:4017  msg.sender */\n      caller\n        /* \"contracts/SocialToken.sol\":3991:4018  lastRewardClaim[msg.sender] */\n      0xffffffffffffffffffffffffffffffffffffffff\n      and\n      0xffffffffffffffffffffffffffffffffffffffff\n      and\n      dup2\n      mstore\n      0x20\n      add\n      swap1\n      dup2\n      mstore\n      0x20\n      add\n      0x00\n      keccak256\n      sload\n        /* \"contracts/SocialToken.sol\":3991:4045  lastRewardClaim[msg.sender] + mechanics.cooldownPeriod */\n      tag_291\n      swap2\n      swap1\n      tag_236\n      jump\t// in\n    tag_291:\n        /* \"contracts/SocialToken.sol\":3973:3988  block.timestamp */\n      timestamp\n        /* \"contracts/SocialToken.sol\":3973:4045  block.timestamp < lastRewardClaim[msg.sender] + mechanics.cooldownPeriod */\n      lt\n        /* \"contracts/SocialToken.sol\":3969:4086  if (block.timestamp < lastRewardClaim[msg.sender] + mechanics.cooldownPeriod)... */\n      iszero\n      tag_292\n      jumpi\n        /* \"contracts/SocialToken.sol\":4066:4086  RewardClaimTooSoon() */\n      mload(0x40)\n      0x2bc08a7300000000000000000000000000000000000000000000000000000000\n      dup2\n      mstore\n      0x04\n      add\n      mload(0x40)\n      dup1\n      swap2\n      sub\n      swap1\n      revert\n        /* \"contracts/SocialToken.sol\":3969:4086  if (block.timestamp < lastRewardClaim[msg.sender] + mechanics.cooldownPeriod)... */\n    tag_292:\n        /* \"contracts/SocialToken.sol\":4097:4146  ISocialMetricsOracle.SocialMetrics memory metrics */\n      0x00\n        /* \"contracts/SocialToken.sol\":4149:4161  socialOracle */\n      0x32\n      0x00\n      swap1\n      sload\n      swap1\n      0x0100\n      exp\n      swap1\n      div\n      0xffffffffffffffffffffffffffffffffffffffff\n      and\n        /* \"contracts/SocialToken.sol\":4149:4178  socialOracle.getLatestMetrics */\n      0xffffffffffffffffffffffffffffffffffffffff\n      and\n      0x395924dc\n        /* \"contracts/SocialToken.sol\":4149:4180  socialOracle.getLatestMetrics() */\n      mload(0x40)\n      dup2\n      0xffffffff\n      and\n      0xe0\n      shl\n      dup2\n      mstore\n      0x04\n      add\n      0x80\n      mload(0x40)\n      dup1\n      dup4\n      sub\n      dup2\n      dup7\n      gas\n      staticcall\n      iszero\n      dup1\n      iszero\n      tag_294\n      jumpi\n      returndatasize\n      0x00\n      dup1\n      returndatacopy\n      revert(0x00, returndatasize)\n    tag_294:\n      pop\n      pop\n      pop\n      pop\n      mload(0x40)\n      returndatasize\n      not(0x1f)\n      0x1f\n      dup3\n      add\n      and\n      dup3\n      add\n      dup1\n      0x40\n      mstore\n      pop\n      dup2\n      add\n      swap1\n      tag_295\n      swap2\n      swap1\n      tag_241\n      jump\t// in\n    tag_295:\n        /* \"contracts/SocialToken.sol\":4097:4180  ISocialMetricsOracle.SocialMetrics memory metrics = socialOracle.getLatestMetrics() */\n      swap1\n      pop\n        /* \"contracts/SocialToken.sol\":4199:4219  uint256 rewardAmount */\n      0x00\n        /* \"contracts/SocialToken.sol\":4222:4355  _calculateReward(... */\n      tag_296\n        /* \"contracts/SocialToken.sol\":4252:4259  metrics */\n      dup3\n        /* \"contracts/SocialToken.sol\":4252:4274  metrics.sentimentScore */\n      0x20\n      add\n      mload\n        /* \"contracts/SocialToken.sol\":4288:4295  metrics */\n      dup4\n        /* \"contracts/SocialToken.sol\":4288:4310  metrics.engagementRate */\n      0x40\n      add\n      mload\n        /* \"contracts/SocialToken.sol\":4324:4345  balanceOf(msg.sender) */\n      tag_297\n        /* \"contracts/SocialToken.sol\":4334:4344  msg.sender */\n      caller\n        /* \"contracts/SocialToken.sol\":4324:4333  balanceOf */\n      tag_97\n        /* \"contracts/SocialToken.sol\":4324:4345  balanceOf(msg.sender) */\n      jump\t// in\n    tag_297:\n        /* \"contracts/SocialToken.sol\":4222:4238  _calculateReward */\n      tag_298\n        /* \"contracts/SocialToken.sol\":4222:4355  _calculateReward(... */\n      jump\t// in\n    tag_296:\n        /* \"contracts/SocialToken.sol\":4199:4355  uint256 rewardAmount = _calculateReward(... */\n      swap1\n      pop\n        /* \"contracts/SocialToken.sol\":4385:4386  0 */\n      0x00\n        /* \"contracts/SocialToken.sol\":4370:4382  rewardAmount */\n      dup2\n        /* \"contracts/SocialToken.sol\":4370:4386  rewardAmount > 0 */\n      gt\n        /* \"contracts/SocialToken.sol\":4366:4503  if (rewardAmount > 0) {... */\n      iszero\n      tag_299\n      jumpi\n        /* \"contracts/SocialToken.sol\":4402:4433  _mint(msg.sender, rewardAmount) */\n      tag_300\n        /* \"contracts/SocialToken.sol\":4408:4418  msg.sender */\n      caller\n        /* \"contracts/SocialToken.sol\":4420:4432  rewardAmount */\n      dup3\n        /* \"contracts/SocialToken.sol\":4402:4407  _mint */\n      tag_284\n        /* \"contracts/SocialToken.sol\":4402:4433  _mint(msg.sender, rewardAmount) */\n      jump\t// in\n    tag_300:\n        /* \"contracts/SocialToken.sol\":4477:4492  block.timestamp */\n      timestamp\n        /* \"contracts/SocialToken.sol\":4447:4462  lastRewardClaim */\n      0x3a\n        /* \"contracts/SocialToken.sol\":4447:4474  lastRewardClaim[msg.sender] */\n      0x00\n        /* \"contracts/SocialToken.sol\":4463:4473  msg.sender */\n      caller\n        /* \"contracts/SocialToken.sol\":4447:4474  lastRewardClaim[msg.sender] */\n      0xffffffffffffffffffffffffffffffffffffffff\n      and\n      0xffffffffffffffffffffffffffffffffffffffff\n      and\n      dup2\n      mstore\n      0x20\n      add\n      swap1\n      dup2\n      mstore\n      0x20\n      add\n      0x00\n      keccak256\n        /* \"contracts/SocialToken.sol\":4447:4492  lastRewardClaim[msg.sender] = block.timestamp */\n      dup2\n      swap1\n      sstore\n      pop\n        /* \"contracts/SocialToken.sol\":4366:4503  if (rewardAmount > 0) {... */\n    tag_299:\n        /* \"contracts/SocialToken.sol\":3959:4509  {... */\n      pop\n      pop\n        /* \"contracts/SocialToken.sol\":3913:4509  function claimReward() external whenNotPaused {... */\n      jump\t// out\n        /* \"contracts/SocialToken.sol\":1630:1680  mapping(address => uint256) public lastRewardClaim */\n    tag_146:\n      mstore(0x20, 0x3a)\n      dup1\n      0x00\n      mstore\n      keccak256(0x00, 0x40)\n      0x00\n      swap2\n      pop\n      swap1\n      pop\n      sload\n      dup2\n      jump\t// out\n        /* \"@openzeppelin/contracts-upgradeable/token/ERC20/ERC20Upgradeable.sol\":4708:4903  function allowance(address owner, address spender) public view virtual returns (uint256) {... */\n    tag_152:\n        /* \"@openzeppelin/contracts-upgradeable/token/ERC20/ERC20Upgradeable.sol\":4788:4795  uint256 */\n      0x00\n        /* \"@openzeppelin/contracts-upgradeable/token/ERC20/ERC20Upgradeable.sol\":4807:4829  ERC20Storage storage $ */\n      dup1\n        /* \"@openzeppelin/contracts-upgradeable/token/ERC20/ERC20Upgradeable.sol\":4832:4850  _getERC20Storage() */\n      tag_302\n        /* \"@openzeppelin/contracts-upgradeable/token/ERC20/ERC20Upgradeable.sol\":4832:4848  _getERC20Storage */\n      tag_160\n        /* \"@openzeppelin/contracts-upgradeable/token/ERC20/ERC20Upgradeable.sol\":4832:4850  _getERC20Storage() */\n      jump\t// in\n    tag_302:\n        /* \"@openzeppelin/contracts-upgradeable/token/ERC20/ERC20Upgradeable.sol\":4807:4850  ERC20Storage storage $ = _getERC20Storage() */\n      swap1\n      pop\n        /* \"@openzeppelin/contracts-upgradeable/token/ERC20/ERC20Upgradeable.sol\":4867:4868  $ */\n      dup1\n        /* \"@openzeppelin/contracts-upgradeable/token/ERC20/ERC20Upgradeable.sol\":4867:4880  $._allowances */\n      0x01\n      add\n        /* \"@openzeppelin/contracts-upgradeable/token/ERC20/ERC20Upgradeable.sol\":4867:4887  $._allowances[owner] */\n      0x00\n        /* \"@openzeppelin/contracts-upgradeable/token/ERC20/ERC20Upgradeable.sol\":4881:4886  owner */\n      dup6\n        /* \"@openzeppelin/contracts-upgradeable/token/ERC20/ERC20Upgradeable.sol\":4867:4887  $._allowances[owner] */\n      0xffffffffffffffffffffffffffffffffffffffff\n      and\n      0xffffffffffffffffffffffffffffffffffffffff\n      and\n      dup2\n      mstore\n      0x20\n      add\n      swap1\n      dup2\n      mstore\n      0x20\n      add\n      0x00\n      keccak256\n        /* \"@openzeppelin/contracts-upgradeable/token/ERC20/ERC20Upgradeable.sol\":4867:4896  $._allowances[owner][spender] */\n      0x00\n        /* \"@openzeppelin/contracts-upgradeable/token/ERC20/ERC20Upgradeable.sol\":4888:4895  spender */\n      dup5\n        /* \"@openzeppelin/contracts-upgradeable/token/ERC20/ERC20Upgradeable.sol\":4867:4896  $._allowances[owner][spender] */\n      0xffffffffffffffffffffffffffffffffffffffff\n      and\n      0xffffffffffffffffffffffffffffffffffffffff\n      and\n      dup2\n      mstore\n      0x20\n      add\n      swap1\n      dup2\n      mstore\n      0x20\n      add\n      0x00\n      keccak256\n      sload\n        /* \"@openzeppelin/contracts-upgradeable/token/ERC20/ERC20Upgradeable.sol\":4860:4896  return $._allowances[owner][spender] */\n      swap2\n      pop\n      pop\n        /* \"@openzeppelin/contracts-upgradeable/token/ERC20/ERC20Upgradeable.sol\":4708:4903  function allowance(address owner, address spender) public view virtual returns (uint256) {... */\n      swap3\n      swap2\n      pop\n      pop\n      jump\t// out\n        /* \"@openzeppelin/contracts-upgradeable/access/OwnableUpgradeable.sol\":3405:3620  function transferOwnership(address newOwner) public virtual onlyOwner {... */\n    tag_157:\n        /* \"@openzeppelin/contracts-upgradeable/access/OwnableUpgradeable.sol\":2334:2347  _checkOwner() */\n      tag_304\n        /* \"@openzeppelin/contracts-upgradeable/access/OwnableUpgradeable.sol\":2334:2345  _checkOwner */\n      tag_174\n        /* \"@openzeppelin/contracts-upgradeable/access/OwnableUpgradeable.sol\":2334:2347  _checkOwner() */\n      jump\t// in\n    tag_304:\n        /* \"@openzeppelin/contracts-upgradeable/access/OwnableUpgradeable.sol\":3509:3510  0 */\n      0x00\n        /* \"@openzeppelin/contracts-upgradeable/access/OwnableUpgradeable.sol\":3489:3511  newOwner == address(0) */\n      0xffffffffffffffffffffffffffffffffffffffff\n      and\n        /* \"@openzeppelin/contracts-upgradeable/access/OwnableUpgradeable.sol\":3489:3497  newOwner */\n      dup2\n        /* \"@openzeppelin/contracts-upgradeable/access/OwnableUpgradeable.sol\":3489:3511  newOwner == address(0) */\n      0xffffffffffffffffffffffffffffffffffffffff\n      and\n      sub\n        /* \"@openzeppelin/contracts-upgradeable/access/OwnableUpgradeable.sol\":3485:3576  if (newOwner == address(0)) {... */\n      tag_306\n      jumpi\n        /* \"@openzeppelin/contracts-upgradeable/access/OwnableUpgradeable.sol\":3562:3563  0 */\n      0x00\n        /* \"@openzeppelin/contracts-upgradeable/access/OwnableUpgradeable.sol\":3534:3565  OwnableInvalidOwner(address(0)) */\n      mload(0x40)\n      0x1e4fbdf700000000000000000000000000000000000000000000000000000000\n      dup2\n      mstore\n      0x04\n      add\n      tag_307\n      swap2\n      swap1\n      tag_114\n      jump\t// in\n    tag_307:\n      mload(0x40)\n      dup1\n      swap2\n      sub\n      swap1\n      revert\n        /* \"@openzeppelin/contracts-upgradeable/access/OwnableUpgradeable.sol\":3485:3576  if (newOwner == address(0)) {... */\n    tag_306:\n        /* \"@openzeppelin/contracts-upgradeable/access/OwnableUpgradeable.sol\":3585:3613  _transferOwnership(newOwner) */\n      tag_308\n        /* \"@openzeppelin/contracts-upgradeable/access/OwnableUpgradeable.sol\":3604:3612  newOwner */\n      dup2\n        /* \"@openzeppelin/contracts-upgradeable/access/OwnableUpgradeable.sol\":3585:3603  _transferOwnership */\n      tag_215\n        /* \"@openzeppelin/contracts-upgradeable/access/OwnableUpgradeable.sol\":3585:3613  _transferOwnership(newOwner) */\n      jump\t// in\n    tag_308:\n        /* \"@openzeppelin/contracts-upgradeable/access/OwnableUpgradeable.sol\":3405:3620  function transferOwnership(address newOwner) public virtual onlyOwner {... */\n      pop\n      jump\t// out\n        /* \"@openzeppelin/contracts-upgradeable/token/ERC20/ERC20Upgradeable.sol\":1947:2100  function _getERC20Storage() private pure returns (ERC20Storage storage $) {... */\n    tag_160:\n        /* \"@openzeppelin/contracts-upgradeable/token/ERC20/ERC20Upgradeable.sol\":1997:2019  ERC20Storage storage $ */\n      0x00\n        /* \"@openzeppelin/contracts-upgradeable/token/ERC20/ERC20Upgradeable.sol\":2064:2084  ERC20StorageLocation */\n      0x52c63247e1f47db19d5ce0460030c497f067ca4cebf71ba98eeadabe20bace00\n        /* \"@openzeppelin/contracts-upgradeable/token/ERC20/ERC20Upgradeable.sol\":2054:2084  $.slot := ERC20StorageLocation */\n      swap1\n      pop\n        /* \"@openzeppelin/contracts-upgradeable/token/ERC20/ERC20Upgradeable.sol\":1947:2100  function _getERC20Storage() private pure returns (ERC20Storage storage $) {... */\n      swap1\n      jump\t// out\n        /* \"@openzeppelin/contracts-upgradeable/utils/ContextUpgradeable.sol\":887:983  function _msgSender() internal view virtual returns (address) {... */\n    tag_169:\n        /* \"@openzeppelin/contracts-upgradeable/utils/ContextUpgradeable.sol\":940:947  address */\n      0x00\n        /* \"@openzeppelin/contracts-upgradeable/utils/ContextUpgradeable.sol\":966:976  msg.sender */\n      caller\n        /* \"@openzeppelin/contracts-upgradeable/utils/ContextUpgradeable.sol\":959:976  return msg.sender */\n      swap1\n      pop\n        /* \"@openzeppelin/contracts-upgradeable/utils/ContextUpgradeable.sol\":887:983  function _msgSender() internal view virtual returns (address) {... */\n      swap1\n      jump\t// out\n        /* \"@openzeppelin/contracts-upgradeable/token/ERC20/ERC20Upgradeable.sol\":10001:10129  function _approve(address owner, address spender, uint256 value) internal {... */\n    tag_171:\n        /* \"@openzeppelin/contracts-upgradeable/token/ERC20/ERC20Upgradeable.sol\":10085:10122  _approve(owner, spender, value, true) */\n      tag_312\n        /* \"@openzeppelin/contracts-upgradeable/token/ERC20/ERC20Upgradeable.sol\":10094:10099  owner */\n      dup4\n        /* \"@openzeppelin/contracts-upgradeable/token/ERC20/ERC20Upgradeable.sol\":10101:10108  spender */\n      dup4\n        /* \"@openzeppelin/contracts-upgradeable/token/ERC20/ERC20Upgradeable.sol\":10110:10115  value */\n      dup4\n        /* \"@openzeppelin/contracts-upgradeable/token/ERC20/ERC20Upgradeable.sol\":10117:10121  true */\n      0x01\n        /* \"@openzeppelin/contracts-upgradeable/token/ERC20/ERC20Upgradeable.sol\":10085:10093  _approve */\n      tag_313\n        /* \"@openzeppelin/contracts-upgradeable/token/ERC20/ERC20Upgradeable.sol\":10085:10122  _approve(owner, spender, value, true) */\n      jump\t// in\n    tag_312:\n        /* \"@openzeppelin/contracts-upgradeable/token/ERC20/ERC20Upgradeable.sol\":10001:10129  function _approve(address owner, address spender, uint256 value) internal {... */\n      pop\n      pop\n      pop\n      jump\t// out\n        /* \"@openzeppelin/contracts-upgradeable/access/OwnableUpgradeable.sol\":2658:2820  function _checkOwner() internal view virtual {... */\n    tag_174:\n        /* \"@openzeppelin/contracts-upgradeable/access/OwnableUpgradeable.sol\":2728:2740  _msgSender() */\n      tag_315\n        /* \"@openzeppelin/contracts-upgradeable/access/OwnableUpgradeable.sol\":2728:2738  _msgSender */\n      tag_169\n        /* \"@openzeppelin/contracts-upgradeable/access/OwnableUpgradeable.sol\":2728:2740  _msgSender() */\n      jump\t// in\n    tag_315:\n        /* \"@openzeppelin/contracts-upgradeable/access/OwnableUpgradeable.sol\":2717:2740  owner() != _msgSender() */\n      0xffffffffffffffffffffffffffffffffffffffff\n      and\n        /* \"@openzeppelin/contracts-upgradeable/access/OwnableUpgradeable.sol\":2717:2724  owner() */\n      tag_316\n        /* \"@openzeppelin/contracts-upgradeable/access/OwnableUpgradeable.sol\":2717:2722  owner */\n      tag_112\n        /* \"@openzeppelin/contracts-upgradeable/access/OwnableUpgradeable.sol\":2717:2724  owner() */\n      jump\t// in\n    tag_316:\n        /* \"@openzeppelin/contracts-upgradeable/access/OwnableUpgradeable.sol\":2717:2740  owner() != _msgSender() */\n      0xffffffffffffffffffffffffffffffffffffffff\n      and\n      eq\n        /* \"@openzeppelin/contracts-upgradeable/access/OwnableUpgradeable.sol\":2713:2814  if (owner() != _msgSender()) {... */\n      tag_317\n      jumpi\n        /* \"@openzeppelin/contracts-upgradeable/access/OwnableUpgradeable.sol\":2790:2802  _msgSender() */\n      tag_318\n        /* \"@openzeppelin/contracts-upgradeable/access/OwnableUpgradeable.sol\":2790:2800  _msgSender */\n      tag_169\n        /* \"@openzeppelin/contracts-upgradeable/access/OwnableUpgradeable.sol\":2790:2802  _msgSender() */\n      jump\t// in\n    tag_318:\n        /* \"@openzeppelin/contracts-upgradeable/access/OwnableUpgradeable.sol\":2763:2803  OwnableUnauthorizedAccount(_msgSender()) */\n      mload(0x40)\n      0x118cdaa700000000000000000000000000000000000000000000000000000000\n      dup2\n      mstore\n      0x04\n      add\n      tag_319\n      swap2\n      swap1\n      tag_114\n      jump\t// in\n    tag_319:\n      mload(0x40)\n      dup1\n      swap2\n      sub\n      swap1\n      revert\n        /* \"@openzeppelin/contracts-upgradeable/access/OwnableUpgradeable.sol\":2713:2814  if (owner() != _msgSender()) {... */\n    tag_317:\n        /* \"@openzeppelin/contracts-upgradeable/access/OwnableUpgradeable.sol\":2658:2820  function _checkOwner() internal view virtual {... */\n      jump\t// out\n        /* \"@openzeppelin/contracts-upgradeable/token/ERC20/ERC20Upgradeable.sol\":11745:12222  function _spendAllowance(address owner, address spender, uint256 value) internal virtual {... */\n    tag_187:\n        /* \"@openzeppelin/contracts-upgradeable/token/ERC20/ERC20Upgradeable.sol\":11844:11868  uint256 currentAllowance */\n      0x00\n        /* \"@openzeppelin/contracts-upgradeable/token/ERC20/ERC20Upgradeable.sol\":11871:11896  allowance(owner, spender) */\n      tag_321\n        /* \"@openzeppelin/contracts-upgradeable/token/ERC20/ERC20Upgradeable.sol\":11881:11886  owner */\n      dup5\n        /* \"@openzeppelin/contracts-upgradeable/token/ERC20/ERC20Upgradeable.sol\":11888:11895  spender */\n      dup5\n        /* \"@openzeppelin/contracts-upgradeable/token/ERC20/ERC20Upgradeable.sol\":11871:11880  allowance */\n      tag_152\n        /* \"@openzeppelin/contracts-upgradeable/token/ERC20/ERC20Upgradeable.sol\":11871:11896  allowance(owner, spender) */\n      jump\t// in\n    tag_321:\n        /* \"@openzeppelin/contracts-upgradeable/token/ERC20/ERC20Upgradeable.sol\":11844:11896  uint256 currentAllowance = allowance(owner, spender) */\n      swap1\n      pop\n        /* \"@openzeppelin/contracts-upgradeable/token/ERC20/ERC20Upgradeable.sol\":11930:11947  type(uint256).max */\n      0xffffffffffffffffffffffffffffffffffffffffffffffffffffffffffffffff\n        /* \"@openzeppelin/contracts-upgradeable/token/ERC20/ERC20Upgradeable.sol\":11910:11926  currentAllowance */\n      dup2\n        /* \"@openzeppelin/contracts-upgradeable/token/ERC20/ERC20Upgradeable.sol\":11910:11947  currentAllowance != type(uint256).max */\n      eq\n        /* \"@openzeppelin/contracts-upgradeable/token/ERC20/ERC20Upgradeable.sol\":11906:12216  if (currentAllowance != type(uint256).max) {... */\n      tag_322\n      jumpi\n        /* \"@openzeppelin/contracts-upgradeable/token/ERC20/ERC20Upgradeable.sol\":11986:11991  value */\n      dup2\n        /* \"@openzeppelin/contracts-upgradeable/token/ERC20/ERC20Upgradeable.sol\":11967:11983  currentAllowance */\n      dup2\n        /* \"@openzeppelin/contracts-upgradeable/token/ERC20/ERC20Upgradeable.sol\":11967:11991  currentAllowance < value */\n      lt\n        /* \"@openzeppelin/contracts-upgradeable/token/ERC20/ERC20Upgradeable.sol\":11963:12093  if (currentAllowance < value) {... */\n      iszero\n      tag_323\n      jumpi\n        /* \"@openzeppelin/contracts-upgradeable/token/ERC20/ERC20Upgradeable.sol\":12045:12052  spender */\n      dup3\n        /* \"@openzeppelin/contracts-upgradeable/token/ERC20/ERC20Upgradeable.sol\":12054:12070  currentAllowance */\n      dup2\n        /* \"@openzeppelin/contracts-upgradeable/token/ERC20/ERC20Upgradeable.sol\":12072:12077  value */\n      dup4\n        /* \"@openzeppelin/contracts-upgradeable/token/ERC20/ERC20Upgradeable.sol\":12018:12078  ERC20InsufficientAllowance(spender, currentAllowance, value) */\n      mload(0x40)\n      0xfb8f41b200000000000000000000000000000000000000000000000000000000\n      dup2\n      mstore\n      0x04\n      add\n      tag_324\n      swap4\n      swap3\n      swap2\n      swap1\n      tag_325\n      jump\t// in\n    tag_324:\n      mload(0x40)\n      dup1\n      swap2\n      sub\n      swap1\n      revert\n        /* \"@openzeppelin/contracts-upgradeable/token/ERC20/ERC20Upgradeable.sol\":11963:12093  if (currentAllowance < value) {... */\n    tag_323:\n        /* \"@openzeppelin/contracts-upgradeable/token/ERC20/ERC20Upgradeable.sol\":12134:12191  _approve(owner, spender, currentAllowance - value, false) */\n      tag_326\n        /* \"@openzeppelin/contracts-upgradeable/token/ERC20/ERC20Upgradeable.sol\":12143:12148  owner */\n      dup5\n        /* \"@openzeppelin/contracts-upgradeable/token/ERC20/ERC20Upgradeable.sol\":12150:12157  spender */\n      dup5\n        /* \"@openzeppelin/contracts-upgradeable/token/ERC20/ERC20Upgradeable.sol\":12178:12183  value */\n      dup5\n        /* \"@openzeppelin/contracts-upgradeable/token/ERC20/ERC20Upgradeable.sol\":12159:12175  currentAllowance */\n      dup5\n        /* \"@openzeppelin/contracts-upgradeable/token/ERC20/ERC20Upgradeable.sol\":12159:12183  currentAllowance - value */\n      sub\n        /* \"@openzeppelin/contracts-upgradeable/token/ERC20/ERC20Upgradeable.sol\":12185:12190  false */\n      0x00\n        /* \"@openzeppelin/contracts-upgradeable/token/ERC20/ERC20Upgradeable.sol\":12134:12142  _approve */\n      tag_313\n        /* \"@openzeppelin/contracts-upgradeable/token/ERC20/ERC20Upgradeable.sol\":12134:12191  _approve(owner, spender, currentAllowance - value, false) */\n      jump\t// in\n    tag_326:\n        /* \"@openzeppelin/contracts-upgradeable/token/ERC20/ERC20Upgradeable.sol\":11906:12216  if (currentAllowance != type(uint256).max) {... */\n    tag_322:\n        /* \"@openzeppelin/contracts-upgradeable/token/ERC20/ERC20Upgradeable.sol\":11834:12222  {... */\n      pop\n        /* \"@openzeppelin/contracts-upgradeable/token/ERC20/ERC20Upgradeable.sol\":11745:12222  function _spendAllowance(address owner, address spender, uint256 value) internal virtual {... */\n      pop\n      pop\n      pop\n      jump\t// out\n        /* \"@openzeppelin/contracts-upgradeable/token/ERC20/ERC20Upgradeable.sol\":6605:6905  function _transfer(address from, address to, uint256 value) internal {... */\n    tag_189:\n        /* \"@openzeppelin/contracts-upgradeable/token/ERC20/ERC20Upgradeable.sol\":6704:6705  0 */\n      0x00\n        /* \"@openzeppelin/contracts-upgradeable/token/ERC20/ERC20Upgradeable.sol\":6688:6706  from == address(0) */\n      0xffffffffffffffffffffffffffffffffffffffff\n      and\n        /* \"@openzeppelin/contracts-upgradeable/token/ERC20/ERC20Upgradeable.sol\":6688:6692  from */\n      dup4\n        /* \"@openzeppelin/contracts-upgradeable/token/ERC20/ERC20Upgradeable.sol\":6688:6706  from == address(0) */\n      0xffffffffffffffffffffffffffffffffffffffff\n      and\n      sub\n        /* \"@openzeppelin/contracts-upgradeable/token/ERC20/ERC20Upgradeable.sol\":6684:6770  if (from == address(0)) {... */\n      tag_328\n      jumpi\n        /* \"@openzeppelin/contracts-upgradeable/token/ERC20/ERC20Upgradeable.sol\":6756:6757  0 */\n      0x00\n        /* \"@openzeppelin/contracts-upgradeable/token/ERC20/ERC20Upgradeable.sol\":6729:6759  ERC20InvalidSender(address(0)) */\n      mload(0x40)\n      0x96c6fd1e00000000000000000000000000000000000000000000000000000000\n      dup2\n      mstore\n      0x04\n      add\n      tag_329\n      swap2\n      swap1\n      tag_114\n      jump\t// in\n    tag_329:\n      mload(0x40)\n      dup1\n      swap2\n      sub\n      swap1\n      revert\n        /* \"@openzeppelin/contracts-upgradeable/token/ERC20/ERC20Upgradeable.sol\":6684:6770  if (from == address(0)) {... */\n    tag_328:\n        /* \"@openzeppelin/contracts-upgradeable/token/ERC20/ERC20Upgradeable.sol\":6797:6798  0 */\n      0x00\n        /* \"@openzeppelin/contracts-upgradeable/token/ERC20/ERC20Upgradeable.sol\":6783:6799  to == address(0) */\n      0xffffffffffffffffffffffffffffffffffffffff\n      and\n        /* \"@openzeppelin/contracts-upgradeable/token/ERC20/ERC20Upgradeable.sol\":6783:6785  to */\n      dup3\n        /* \"@openzeppelin/contracts-upgradeable/token/ERC20/ERC20Upgradeable.sol\":6783:6799  to == address(0) */\n      0xffffffffffffffffffffffffffffffffffffffff\n      and\n      sub\n        /* \"@openzeppelin/contracts-upgradeable/token/ERC20/ERC20Upgradeable.sol\":6779:6865  if (to == address(0)) {... */\n      tag_330\n      jumpi\n        /* \"@openzeppelin/contracts-upgradeable/token/ERC20/ERC20Upgradeable.sol\":6851:6852  0 */\n      0x00\n        /* \"@openzeppelin/contracts-upgradeable/token/ERC20/ERC20Upgradeable.sol\":6822:6854  ERC20InvalidReceiver(address(0)) */\n      mload(0x40)\n      0xec442f0500000000000000000000000000000000000000000000000000000000\n      dup2\n      mstore\n      0x04\n      add\n      tag_331\n      swap2\n      swap1\n      tag_114\n      jump\t// in\n    tag_331:\n      mload(0x40)\n      dup1\n      swap2\n      sub\n      swap1\n      revert\n        /* \"@openzeppelin/contracts-upgradeable/token/ERC20/ERC20Upgradeable.sol\":6779:6865  if (to == address(0)) {... */\n    tag_330:\n        /* \"@openzeppelin/contracts-upgradeable/token/ERC20/ERC20Upgradeable.sol\":6874:6898  _update(from, to, value) */\n      tag_332\n        /* \"@openzeppelin/contracts-upgradeable/token/ERC20/ERC20Upgradeable.sol\":6882:6886  from */\n      dup4\n        /* \"@openzeppelin/contracts-upgradeable/token/ERC20/ERC20Upgradeable.sol\":6888:6890  to */\n      dup4\n        /* \"@openzeppelin/contracts-upgradeable/token/ERC20/ERC20Upgradeable.sol\":6892:6897  value */\n      dup4\n        /* \"@openzeppelin/contracts-upgradeable/token/ERC20/ERC20Upgradeable.sol\":6874:6881  _update */\n      tag_333\n        /* \"@openzeppelin/contracts-upgradeable/token/ERC20/ERC20Upgradeable.sol\":6874:6898  _update(from, to, value) */\n      jump\t// in\n    tag_332:\n        /* \"@openzeppelin/contracts-upgradeable/token/ERC20/ERC20Upgradeable.sol\":6605:6905  function _transfer(address from, address to, uint256 value) internal {... */\n      pop\n      pop\n      pop\n      jump\t// out\n        /* \"@openzeppelin/contracts-upgradeable/security/PausableUpgradeable.sol\":2697:2814  function _unpause() internal virtual whenPaused {... */\n    tag_195:\n        /* \"@openzeppelin/contracts-upgradeable/security/PausableUpgradeable.sol\":1750:1766  _requirePaused() */\n      tag_335\n        /* \"@openzeppelin/contracts-upgradeable/security/PausableUpgradeable.sol\":1750:1764  _requirePaused */\n      tag_336\n        /* \"@openzeppelin/contracts-upgradeable/security/PausableUpgradeable.sol\":1750:1766  _requirePaused() */\n      jump\t// in\n    tag_335:\n        /* \"@openzeppelin/contracts-upgradeable/security/PausableUpgradeable.sol\":2765:2770  false */\n      0x00\n        /* \"@openzeppelin/contracts-upgradeable/security/PausableUpgradeable.sol\":2755:2762  _paused */\n      dup1\n      0x00\n        /* \"@openzeppelin/contracts-upgradeable/security/PausableUpgradeable.sol\":2755:2770  _paused = false */\n      0x0100\n      exp\n      dup2\n      sload\n      dup2\n      0xff\n      mul\n      not\n      and\n      swap1\n      dup4\n      iszero\n      iszero\n      mul\n      or\n      swap1\n      sstore\n      pop\n        /* \"@openzeppelin/contracts-upgradeable/security/PausableUpgradeable.sol\":2785:2807  Unpaused(_msgSender()) */\n      0x5db9ee0a495bf2e6ff9c91a7834c1ba4fdd244a5e8aa4e537bd38aeae4b073aa\n        /* \"@openzeppelin/contracts-upgradeable/security/PausableUpgradeable.sol\":2794:2806  _msgSender() */\n      tag_338\n        /* \"@openzeppelin/contracts-upgradeable/security/PausableUpgradeable.sol\":2794:2804  _msgSender */\n      tag_169\n        /* \"@openzeppelin/contracts-upgradeable/security/PausableUpgradeable.sol\":2794:2806  _msgSender() */\n      jump\t// in\n    tag_338:\n        /* \"@openzeppelin/contracts-upgradeable/security/PausableUpgradeable.sol\":2785:2807  Unpaused(_msgSender()) */\n      mload(0x40)\n      tag_339\n      swap2\n      swap1\n      tag_114\n      jump\t// in\n    tag_339:\n      mload(0x40)\n      dup1\n      swap2\n      sub\n      swap1\n      log1\n        /* \"@openzeppelin/contracts-upgradeable/security/PausableUpgradeable.sol\":2697:2814  function _unpause() internal virtual whenPaused {... */\n      jump\t// out\n        /* \"@openzeppelin/contracts-upgradeable/proxy/utils/UUPSUpgradeable.sol\":4603:4915  function _checkProxy() internal view virtual {... */\n    tag_198:\n        /* \"@openzeppelin/contracts-upgradeable/proxy/utils/UUPSUpgradeable.sol\":4692:4698  __self */\n      immutable(\"0x0b83f23a4eeb8c3f5f7d5934a2289bcf0186d09a12e1b7f20adf54e4b179db15\")\n        /* \"@openzeppelin/contracts-upgradeable/proxy/utils/UUPSUpgradeable.sol\":4675:4698  address(this) == __self */\n      0xffffffffffffffffffffffffffffffffffffffff\n      and\n        /* \"@openzeppelin/contracts-upgradeable/proxy/utils/UUPSUpgradeable.sol\":4683:4687  this */\n      address\n        /* \"@openzeppelin/contracts-upgradeable/proxy/utils/UUPSUpgradeable.sol\":4675:4698  address(this) == __self */\n      0xffffffffffffffffffffffffffffffffffffffff\n      and\n      eq\n        /* \"@openzeppelin/contracts-upgradeable/proxy/utils/UUPSUpgradeable.sol\":4675:4795  address(this) == __self || // Must be called through delegatecall... */\n      dup1\n      tag_341\n      jumpi\n      pop\n        /* \"@openzeppelin/contracts-upgradeable/proxy/utils/UUPSUpgradeable.sol\":4789:4795  __self */\n      immutable(\"0x0b83f23a4eeb8c3f5f7d5934a2289bcf0186d09a12e1b7f20adf54e4b179db15\")\n        /* \"@openzeppelin/contracts-upgradeable/proxy/utils/UUPSUpgradeable.sol\":4753:4795  ERC1967Utils.getImplementation() != __self */\n      0xffffffffffffffffffffffffffffffffffffffff\n      and\n        /* \"@openzeppelin/contracts-upgradeable/proxy/utils/UUPSUpgradeable.sol\":4753:4785  ERC1967Utils.getImplementation() */\n      tag_342\n        /* \"@openzeppelin/contracts-upgradeable/proxy/utils/UUPSUpgradeable.sol\":4753:4783  ERC1967Utils.getImplementation */\n      tag_343\n        /* \"@openzeppelin/contracts-upgradeable/proxy/utils/UUPSUpgradeable.sol\":4753:4785  ERC1967Utils.getImplementation() */\n      jump\t// in\n    tag_342:\n        /* \"@openzeppelin/contracts-upgradeable/proxy/utils/UUPSUpgradeable.sol\":4753:4795  ERC1967Utils.getImplementation() != __self */\n      0xffffffffffffffffffffffffffffffffffffffff\n      and\n      eq\n      iszero\n        /* \"@openzeppelin/contracts-upgradeable/proxy/utils/UUPSUpgradeable.sol\":4675:4795  address(this) == __self || // Must be called through delegatecall... */\n    tag_341:\n        /* \"@openzeppelin/contracts-upgradeable/proxy/utils/UUPSUpgradeable.sol\":4658:4909  if (... */\n      iszero\n      tag_344\n      jumpi\n        /* \"@openzeppelin/contracts-upgradeable/proxy/utils/UUPSUpgradeable.sol\":4869:4898  UUPSUnauthorizedCallContext() */\n      mload(0x40)\n      0xe07c8dba00000000000000000000000000000000000000000000000000000000\n      dup2\n      mstore\n      0x04\n      add\n      mload(0x40)\n      dup1\n      swap2\n      sub\n      swap1\n      revert\n        /* \"@openzeppelin/contracts-upgradeable/proxy/utils/UUPSUpgradeable.sol\":4658:4909  if (... */\n    tag_344:\n        /* \"@openzeppelin/contracts-upgradeable/proxy/utils/UUPSUpgradeable.sol\":4603:4915  function _checkProxy() internal view virtual {... */\n      jump\t// out\n        /* \"contracts/SocialToken.sol\":7350:7416  function _authorizeUpgrade(address) internal override onlyOwner {} */\n    tag_201:\n        /* \"@openzeppelin/contracts-upgradeable/access/OwnableUpgradeable.sol\":2334:2347  _checkOwner() */\n      tag_346\n        /* \"@openzeppelin/contracts-upgradeable/access/OwnableUpgradeable.sol\":2334:2345  _checkOwner */\n      tag_174\n        /* \"@openzeppelin/contracts-upgradeable/access/OwnableUpgradeable.sol\":2334:2347  _checkOwner() */\n      jump\t// in\n    tag_346:\n        /* \"contracts/SocialToken.sol\":7350:7416  function _authorizeUpgrade(address) internal override onlyOwner {} */\n      pop\n      jump\t// out\n        /* \"@openzeppelin/contracts-upgradeable/proxy/utils/UUPSUpgradeable.sol\":6057:6595  function _upgradeToAndCallUUPS(address newImplementation, bytes memory data) private {... */\n    tag_203:\n        /* \"@openzeppelin/contracts-upgradeable/proxy/utils/UUPSUpgradeable.sol\":6174:6191  newImplementation */\n      dup2\n        /* \"@openzeppelin/contracts-upgradeable/proxy/utils/UUPSUpgradeable.sol\":6156:6206  IERC1822Proxiable(newImplementation).proxiableUUID */\n      0xffffffffffffffffffffffffffffffffffffffff\n      and\n      0x52d1902d\n        /* \"@openzeppelin/contracts-upgradeable/proxy/utils/UUPSUpgradeable.sol\":6156:6208  IERC1822Proxiable(newImplementation).proxiableUUID() */\n      mload(0x40)\n      dup2\n      0xffffffff\n      and\n      0xe0\n      shl\n      dup2\n      mstore\n      0x04\n      add\n      0x20\n      mload(0x40)\n      dup1\n      dup4\n      sub\n      dup2\n      dup7\n      gas\n      staticcall\n      swap3\n      pop\n      pop\n      pop\n      dup1\n      iszero\n      tag_349\n      jumpi\n      pop\n      mload(0x40)\n      returndatasize\n      not(0x1f)\n      0x1f\n      dup3\n      add\n      and\n      dup3\n      add\n      dup1\n      0x40\n      mstore\n      pop\n      dup2\n      add\n      swap1\n      tag_350\n      swap2\n      swap1\n      tag_256\n      jump\t// in\n    tag_350:\n      0x01\n    tag_349:\n        /* \"@openzeppelin/contracts-upgradeable/proxy/utils/UUPSUpgradeable.sol\":6152:6589  try IERC1822Proxiable(newImplementation).proxiableUUID() returns (bytes32 slot) {... */\n      tag_351\n      jumpi\n        /* \"@openzeppelin/contracts-upgradeable/proxy/utils/UUPSUpgradeable.sol\":6560:6577  newImplementation */\n      dup2\n        /* \"@openzeppelin/contracts-upgradeable/proxy/utils/UUPSUpgradeable.sol\":6518:6578  ERC1967Utils.ERC1967InvalidImplementation(newImplementation) */\n      mload(0x40)\n      0x4c9c8ce300000000000000000000000000000000000000000000000000000000\n      dup2\n      mstore\n      0x04\n      add\n      tag_355\n      swap2\n      swap1\n      tag_114\n      jump\t// in\n    tag_355:\n      mload(0x40)\n      dup1\n      swap2\n      sub\n      swap1\n      revert\n        /* \"@openzeppelin/contracts-upgradeable/proxy/utils/UUPSUpgradeable.sol\":6152:6589  try IERC1822Proxiable(newImplementation).proxiableUUID() returns (bytes32 slot) {... */\n    tag_351:\n        /* \"@openzeppelin/contracts/proxy/ERC1967/ERC1967Utils.sol\":811:877  0x360894a13ba1a3210667c828492db98dca3e2076cc3735a920a3ca505d382bbc */\n      0x360894a13ba1a3210667c828492db98dca3e2076cc3735a920a3ca505d382bbc\n        /* \"@openzeppelin/contracts-upgradeable/proxy/utils/UUPSUpgradeable.sol\":6258:6290  ERC1967Utils.IMPLEMENTATION_SLOT */\n      0x00\n      shl\n        /* \"@openzeppelin/contracts-upgradeable/proxy/utils/UUPSUpgradeable.sol\":6250:6254  slot */\n      dup2\n        /* \"@openzeppelin/contracts-upgradeable/proxy/utils/UUPSUpgradeable.sol\":6250:6290  slot != ERC1967Utils.IMPLEMENTATION_SLOT */\n      eq\n        /* \"@openzeppelin/contracts-upgradeable/proxy/utils/UUPSUpgradeable.sol\":6246:6366  if (slot != ERC1967Utils.IMPLEMENTATION_SLOT) {... */\n      tag_357\n      jumpi\n        /* \"@openzeppelin/contracts-upgradeable/proxy/utils/UUPSUpgradeable.sol\":6346:6350  slot */\n      dup1\n        /* \"@openzeppelin/contracts-upgradeable/proxy/utils/UUPSUpgradeable.sol\":6317:6351  UUPSUnsupportedProxiableUUID(slot) */\n      mload(0x40)\n      0xaa1d49a400000000000000000000000000000000000000000000000000000000\n      dup2\n      mstore\n      0x04\n      add\n      tag_358\n      swap2\n      swap1\n      tag_89\n      jump\t// in\n    tag_358:\n      mload(0x40)\n      dup1\n      swap2\n      sub\n      swap1\n      revert\n        /* \"@openzeppelin/contracts-upgradeable/proxy/utils/UUPSUpgradeable.sol\":6246:6366  if (slot != ERC1967Utils.IMPLEMENTATION_SLOT) {... */\n    tag_357:\n        /* \"@openzeppelin/contracts-upgradeable/proxy/utils/UUPSUpgradeable.sol\":6379:6433  ERC1967Utils.upgradeToAndCall(newImplementation, data) */\n      tag_359\n        /* \"@openzeppelin/contracts-upgradeable/proxy/utils/UUPSUpgradeable.sol\":6409:6426  newImplementation */\n      dup4\n        /* \"@openzeppelin/contracts-upgradeable/proxy/utils/UUPSUpgradeable.sol\":6428:6432  data */\n      dup4\n        /* \"@openzeppelin/contracts-upgradeable/proxy/utils/UUPSUpgradeable.sol\":6379:6408  ERC1967Utils.upgradeToAndCall */\n      tag_360\n        /* \"@openzeppelin/contracts-upgradeable/proxy/utils/UUPSUpgradeable.sol\":6379:6433  ERC1967Utils.upgradeToAndCall(newImplementation, data) */\n      jump\t// in\n    tag_359:\n        /* \"@openzeppelin/contracts-upgradeable/proxy/utils/UUPSUpgradeable.sol\":6209:6444  returns (bytes32 slot) {... */\n      pop\n        /* \"@openzeppelin/contracts-upgradeable/proxy/utils/UUPSUpgradeable.sol\":6057:6595  function _upgradeToAndCallUUPS(address newImplementation, bytes memory data) private {... */\n      pop\n      pop\n      jump\t// out\n        /* \"@openzeppelin/contracts-upgradeable/proxy/utils/UUPSUpgradeable.sol\":5032:5245  function _checkNotDelegated() internal view virtual {... */\n    tag_206:\n        /* \"@openzeppelin/contracts-upgradeable/proxy/utils/UUPSUpgradeable.sol\":5115:5121  __self */\n      immutable(\"0x0b83f23a4eeb8c3f5f7d5934a2289bcf0186d09a12e1b7f20adf54e4b179db15\")\n        /* \"@openzeppelin/contracts-upgradeable/proxy/utils/UUPSUpgradeable.sol\":5098:5121  address(this) != __self */\n      0xffffffffffffffffffffffffffffffffffffffff\n      and\n        /* \"@openzeppelin/contracts-upgradeable/proxy/utils/UUPSUpgradeable.sol\":5106:5110  this */\n      address\n        /* \"@openzeppelin/contracts-upgradeable/proxy/utils/UUPSUpgradeable.sol\":5098:5121  address(this) != __self */\n      0xffffffffffffffffffffffffffffffffffffffff\n      and\n      eq\n        /* \"@openzeppelin/contracts-upgradeable/proxy/utils/UUPSUpgradeable.sol\":5094:5239  if (address(this) != __self) {... */\n      tag_362\n      jumpi\n        /* \"@openzeppelin/contracts-upgradeable/proxy/utils/UUPSUpgradeable.sol\":5199:5228  UUPSUnauthorizedCallContext() */\n      mload(0x40)\n      0xe07c8dba00000000000000000000000000000000000000000000000000000000\n      dup2\n      mstore\n      0x04\n      add\n      mload(0x40)\n      dup1\n      swap2\n      sub\n      swap1\n      revert\n        /* \"@openzeppelin/contracts-upgradeable/proxy/utils/UUPSUpgradeable.sol\":5094:5239  if (address(this) != __self) {... */\n    tag_362:\n        /* \"@openzeppelin/contracts-upgradeable/proxy/utils/UUPSUpgradeable.sol\":5032:5245  function _checkNotDelegated() internal view virtual {... */\n      jump\t// out\n        /* \"@openzeppelin/contracts-upgradeable/access/OwnableUpgradeable.sol\":3774:4022  function _transferOwnership(address newOwner) internal virtual {... */\n    tag_215:\n        /* \"@openzeppelin/contracts-upgradeable/access/OwnableUpgradeable.sol\":3847:3871  OwnableStorage storage $ */\n      0x00\n        /* \"@openzeppelin/contracts-upgradeable/access/OwnableUpgradeable.sol\":3874:3894  _getOwnableStorage() */\n      tag_364\n        /* \"@openzeppelin/contracts-upgradeable/access/OwnableUpgradeable.sol\":3874:3892  _getOwnableStorage */\n      tag_223\n        /* \"@openzeppelin/contracts-upgradeable/access/OwnableUpgradeable.sol\":3874:3894  _getOwnableStorage() */\n      jump\t// in\n    tag_364:\n        /* \"@openzeppelin/contracts-upgradeable/access/OwnableUpgradeable.sol\":3847:3894  OwnableStorage storage $ = _getOwnableStorage() */\n      swap1\n      pop\n        /* \"@openzeppelin/contracts-upgradeable/access/OwnableUpgradeable.sol\":3904:3920  address oldOwner */\n      0x00\n        /* \"@openzeppelin/contracts-upgradeable/access/OwnableUpgradeable.sol\":3923:3924  $ */\n      dup2\n        /* \"@openzeppelin/contracts-upgradeable/access/OwnableUpgradeable.sol\":3923:3931  $._owner */\n      0x00\n      add\n      0x00\n      swap1\n      sload\n      swap1\n      0x0100\n      exp\n      swap1\n      div\n      0xffffffffffffffffffffffffffffffffffffffff\n      and\n        /* \"@openzeppelin/contracts-upgradeable/access/OwnableUpgradeable.sol\":3904:3931  address oldOwner = $._owner */\n      swap1\n      pop\n        /* \"@openzeppelin/contracts-upgradeable/access/OwnableUpgradeable.sol\":3952:3960  newOwner */\n      dup3\n        /* \"@openzeppelin/contracts-upgradeable/access/OwnableUpgradeable.sol\":3941:3942  $ */\n      dup3\n        /* \"@openzeppelin/contracts-upgradeable/access/OwnableUpgradeable.sol\":3941:3949  $._owner */\n      0x00\n      add\n      0x00\n        /* \"@openzeppelin/contracts-upgradeable/access/OwnableUpgradeable.sol\":3941:3960  $._owner = newOwner */\n      0x0100\n      exp\n      dup2\n      sload\n      dup2\n      0xffffffffffffffffffffffffffffffffffffffff\n      mul\n      not\n      and\n      swap1\n      dup4\n      0xffffffffffffffffffffffffffffffffffffffff\n      and\n      mul\n      or\n      swap1\n      sstore\n      pop\n        /* \"@openzeppelin/contracts-upgradeable/access/OwnableUpgradeable.sol\":4006:4014  newOwner */\n      dup3\n        /* \"@openzeppelin/contracts-upgradeable/access/OwnableUpgradeable.sol\":3975:4015  OwnershipTransferred(oldOwner, newOwner) */\n      0xffffffffffffffffffffffffffffffffffffffff\n      and\n        /* \"@openzeppelin/contracts-upgradeable/access/OwnableUpgradeable.sol\":3996:4004  oldOwner */\n      dup2\n        /* \"@openzeppelin/contracts-upgradeable/access/OwnableUpgradeable.sol\":3975:4015  OwnershipTransferred(oldOwner, newOwner) */\n      0xffffffffffffffffffffffffffffffffffffffff\n      and\n      0x8be0079c531659141344cd1fd0a4f28419497f9722a3daafe3b4186f6b6457e0\n      mload(0x40)\n      mload(0x40)\n      dup1\n      swap2\n      sub\n      swap1\n      log3\n        /* \"@openzeppelin/contracts-upgradeable/access/OwnableUpgradeable.sol\":3837:4022  {... */\n      pop\n      pop\n        /* \"@openzeppelin/contracts-upgradeable/access/OwnableUpgradeable.sol\":3774:4022  function _transferOwnership(address newOwner) internal virtual {... */\n      pop\n      jump\t// out\n        /* \"@openzeppelin/contracts-upgradeable/security/PausableUpgradeable.sol\":2450:2565  function _pause() internal virtual whenNotPaused {... */\n    tag_220:\n        /* \"@openzeppelin/contracts-upgradeable/security/PausableUpgradeable.sol\":1503:1522  _requireNotPaused() */\n      tag_366\n        /* \"@openzeppelin/contracts-upgradeable/security/PausableUpgradeable.sol\":1503:1520  _requireNotPaused */\n      tag_233\n        /* \"@openzeppelin/contracts-upgradeable/security/PausableUpgradeable.sol\":1503:1522  _requireNotPaused() */\n      jump\t// in\n    tag_366:\n        /* \"@openzeppelin/contracts-upgradeable/security/PausableUpgradeable.sol\":2519:2523  true */\n      0x01\n        /* \"@openzeppelin/contracts-upgradeable/security/PausableUpgradeable.sol\":2509:2516  _paused */\n      0x00\n      dup1\n        /* \"@openzeppelin/contracts-upgradeable/security/PausableUpgradeable.sol\":2509:2523  _paused = true */\n      0x0100\n      exp\n      dup2\n      sload\n      dup2\n      0xff\n      mul\n      not\n      and\n      swap1\n      dup4\n      iszero\n      iszero\n      mul\n      or\n      swap1\n      sstore\n      pop\n        /* \"@openzeppelin/contracts-upgradeable/security/PausableUpgradeable.sol\":2538:2558  Paused(_msgSender()) */\n      0x62e78cea01bee320cd4e420270b5ea74000d11b0c9f74754ebdbfc544b05a258\n        /* \"@openzeppelin/contracts-upgradeable/security/PausableUpgradeable.sol\":2545:2557  _msgSender() */\n      tag_368\n        /* \"@openzeppelin/contracts-upgradeable/security/PausableUpgradeable.sol\":2545:2555  _msgSender */\n      tag_169\n        /* \"@openzeppelin/contracts-upgradeable/security/PausableUpgradeable.sol\":2545:2557  _msgSender() */\n      jump\t// in\n    tag_368:\n        /* \"@openzeppelin/contracts-upgradeable/security/PausableUpgradeable.sol\":2538:2558  Paused(_msgSender()) */\n      mload(0x40)\n      tag_369\n      swap2\n      swap1\n      tag_114\n      jump\t// in\n    tag_369:\n      mload(0x40)\n      dup1\n      swap2\n      sub\n      swap1\n      log1\n        /* \"@openzeppelin/contracts-upgradeable/security/PausableUpgradeable.sol\":2450:2565  function _pause() internal virtual whenNotPaused {... */\n      jump\t// out\n        /* \"@openzeppelin/contracts-upgradeable/access/OwnableUpgradeable.sol\":1192:1351  function _getOwnableStorage() private pure returns (OwnableStorage storage $) {... */\n    tag_223:\n        /* \"@openzeppelin/contracts-upgradeable/access/OwnableUpgradeable.sol\":1244:1268  OwnableStorage storage $ */\n      0x00\n        /* \"@openzeppelin/contracts-upgradeable/access/OwnableUpgradeable.sol\":1313:1335  OwnableStorageLocation */\n      0x9016d09d72d40fdae2fd8ceac6b6234c7706214fd39c1cd1e609a0528c199300\n        /* \"@openzeppelin/contracts-upgradeable/access/OwnableUpgradeable.sol\":1303:1335  $.slot := OwnableStorageLocation */\n      swap1\n      pop\n        /* \"@openzeppelin/contracts-upgradeable/access/OwnableUpgradeable.sol\":1192:1351  function _getOwnableStorage() private pure returns (OwnableStorage storage $) {... */\n      swap1\n      jump\t// out\n        /* \"@openzeppelin/contracts-upgradeable/security/PausableUpgradeable.sol\":2031:2137  function _requireNotPaused() internal view virtual {... */\n    tag_233:\n        /* \"@openzeppelin/contracts-upgradeable/security/PausableUpgradeable.sol\":2101:2109  paused() */\n      tag_372\n        /* \"@openzeppelin/contracts-upgradeable/security/PausableUpgradeable.sol\":2101:2107  paused */\n      tag_92\n        /* \"@openzeppelin/contracts-upgradeable/security/PausableUpgradeable.sol\":2101:2109  paused() */\n      jump\t// in\n    tag_372:\n        /* \"@openzeppelin/contracts-upgradeable/security/PausableUpgradeable.sol\":2100:2109  !paused() */\n      iszero\n        /* \"@openzeppelin/contracts-upgradeable/security/PausableUpgradeable.sol\":2092:2130  require(!paused(), \"Pausable: paused\") */\n      tag_373\n      jumpi\n      mload(0x40)\n      0x08c379a000000000000000000000000000000000000000000000000000000000\n      dup2\n      mstore\n      0x04\n      add\n      tag_374\n      swap1\n      tag_375\n      jump\t// in\n    tag_374:\n      mload(0x40)\n      dup1\n      swap2\n      sub\n      swap1\n      revert\n    tag_373:\n        /* \"@openzeppelin/contracts-upgradeable/security/PausableUpgradeable.sol\":2031:2137  function _requireNotPaused() internal view virtual {... */\n      jump\t// out\n        /* \"contracts/SocialToken.sol\":4541:4987  function _handlePositiveMetrics(ISocialMetricsOracle.SocialMetrics memory metrics) internal {... */\n    tag_249:\n        /* \"contracts/SocialToken.sol\":4643:4663  uint256 rewardAmount */\n      0x00\n        /* \"contracts/SocialToken.sol\":4666:4791  _calculateReward(... */\n      tag_377\n        /* \"contracts/SocialToken.sol\":4696:4703  metrics */\n      dup3\n        /* \"contracts/SocialToken.sol\":4696:4718  metrics.sentimentScore */\n      0x20\n      add\n      mload\n        /* \"contracts/SocialToken.sol\":4732:4739  metrics */\n      dup4\n        /* \"contracts/SocialToken.sol\":4732:4754  metrics.engagementRate */\n      0x40\n      add\n      mload\n        /* \"contracts/SocialToken.sol\":4768:4781  totalSupply() */\n      tag_378\n        /* \"contracts/SocialToken.sol\":4768:4779  totalSupply */\n      tag_54\n        /* \"contracts/SocialToken.sol\":4768:4781  totalSupply() */\n      jump\t// in\n    tag_378:\n        /* \"contracts/SocialToken.sol\":4666:4682  _calculateReward */\n      tag_298\n        /* \"contracts/SocialToken.sol\":4666:4791  _calculateReward(... */\n      jump\t// in\n    tag_377:\n        /* \"contracts/SocialToken.sol\":4643:4791  uint256 rewardAmount = _calculateReward(... */\n      swap1\n      pop\n        /* \"contracts/SocialToken.sol\":4821:4822  0 */\n      0x00\n        /* \"contracts/SocialToken.sol\":4806:4818  rewardAmount */\n      dup2\n        /* \"contracts/SocialToken.sol\":4806:4822  rewardAmount > 0 */\n      gt\n        /* \"contracts/SocialToken.sol\":4802:4981  if (rewardAmount > 0) {... */\n      iszero\n      tag_379\n      jumpi\n        /* \"contracts/SocialToken.sol\":4838:4872  _burn(address(this), rewardAmount) */\n      tag_380\n        /* \"contracts/SocialToken.sol\":4852:4856  this */\n      address\n        /* \"contracts/SocialToken.sol\":4859:4871  rewardAmount */\n      dup3\n        /* \"contracts/SocialToken.sol\":4838:4843  _burn */\n      tag_381\n        /* \"contracts/SocialToken.sol\":4838:4872  _burn(address(this), rewardAmount) */\n      jump\t// in\n    tag_380:\n        /* \"contracts/SocialToken.sol\":4891:4970  RewardDistributed(rewardAmount, metrics.sentimentScore, metrics.engagementRate) */\n      0xda04004d58812f3e164f58e498158acca1b0054d975fce0e3bafdf56f2e254ba\n        /* \"contracts/SocialToken.sol\":4909:4921  rewardAmount */\n      dup2\n        /* \"contracts/SocialToken.sol\":4923:4930  metrics */\n      dup4\n        /* \"contracts/SocialToken.sol\":4923:4945  metrics.sentimentScore */\n      0x20\n      add\n      mload\n        /* \"contracts/SocialToken.sol\":4947:4954  metrics */\n      dup5\n        /* \"contracts/SocialToken.sol\":4947:4969  metrics.engagementRate */\n      0x40\n      add\n      mload\n        /* \"contracts/SocialToken.sol\":4891:4970  RewardDistributed(rewardAmount, metrics.sentimentScore, metrics.engagementRate) */\n      mload(0x40)\n      tag_382\n      swap4\n      swap3\n      swap2\n      swap1\n      tag_383\n      jump\t// in\n    tag_382:\n      mload(0x40)\n      dup1\n      swap2\n      sub\n      swap1\n      log1\n        /* \"contracts/SocialToken.sol\":4802:4981  if (rewardAmount > 0) {... */\n    tag_379:\n        /* \"contracts/SocialToken.sol\":4633:4987  {... */\n      pop\n        /* \"contracts/SocialToken.sol\":4541:4987  function _handlePositiveMetrics(ISocialMetricsOracle.SocialMetrics memory metrics) internal {... */\n      pop\n      jump\t// out\n        /* \"contracts/SocialToken.sol\":4993:5441  function _handleNegativeMetrics(ISocialMetricsOracle.SocialMetrics memory metrics) internal {... */\n    tag_252:\n        /* \"contracts/SocialToken.sol\":5095:5116  uint256 penaltyAmount */\n      0x00\n        /* \"contracts/SocialToken.sol\":5119:5245  _calculatePenalty(... */\n      tag_385\n        /* \"contracts/SocialToken.sol\":5150:5157  metrics */\n      dup3\n        /* \"contracts/SocialToken.sol\":5150:5172  metrics.sentimentScore */\n      0x20\n      add\n      mload\n        /* \"contracts/SocialToken.sol\":5186:5193  metrics */\n      dup4\n        /* \"contracts/SocialToken.sol\":5186:5208  metrics.engagementRate */\n      0x40\n      add\n      mload\n        /* \"contracts/SocialToken.sol\":5222:5235  totalSupply() */\n      tag_386\n        /* \"contracts/SocialToken.sol\":5222:5233  totalSupply */\n      tag_54\n        /* \"contracts/SocialToken.sol\":5222:5235  totalSupply() */\n      jump\t// in\n    tag_386:\n        /* \"contracts/SocialToken.sol\":5119:5136  _calculatePenalty */\n      tag_387\n        /* \"contracts/SocialToken.sol\":5119:5245  _calculatePenalty(... */\n      jump\t// in\n    tag_385:\n        /* \"contracts/SocialToken.sol\":5095:5245  uint256 penaltyAmount = _calculatePenalty(... */\n      swap1\n      pop\n        /* \"contracts/SocialToken.sol\":5276:5277  0 */\n      0x00\n        /* \"contracts/SocialToken.sol\":5260:5273  penaltyAmount */\n      dup2\n        /* \"contracts/SocialToken.sol\":5260:5277  penaltyAmount > 0 */\n      gt\n        /* \"contracts/SocialToken.sol\":5256:5435  if (penaltyAmount > 0) {... */\n      iszero\n      tag_388\n      jumpi\n        /* \"contracts/SocialToken.sol\":5293:5328  _mint(address(this), penaltyAmount) */\n      tag_389\n        /* \"contracts/SocialToken.sol\":5307:5311  this */\n      address\n        /* \"contracts/SocialToken.sol\":5314:5327  penaltyAmount */\n      dup3\n        /* \"contracts/SocialToken.sol\":5293:5298  _mint */\n      tag_284\n        /* \"contracts/SocialToken.sol\":5293:5328  _mint(address(this), penaltyAmount) */\n      jump\t// in\n    tag_389:\n        /* \"contracts/SocialToken.sol\":5347:5424  PenaltyApplied(penaltyAmount, metrics.sentimentScore, metrics.engagementRate) */\n      0x0958e73d0165cd8413c567ddcfecfbdfb06498a561de5cd56849c2b463f66cdf\n        /* \"contracts/SocialToken.sol\":5362:5375  penaltyAmount */\n      dup2\n        /* \"contracts/SocialToken.sol\":5377:5384  metrics */\n      dup4\n        /* \"contracts/SocialToken.sol\":5377:5399  metrics.sentimentScore */\n      0x20\n      add\n      mload\n        /* \"contracts/SocialToken.sol\":5401:5408  metrics */\n      dup5\n        /* \"contracts/SocialToken.sol\":5401:5423  metrics.engagementRate */\n      0x40\n      add\n      mload\n        /* \"contracts/SocialToken.sol\":5347:5424  PenaltyApplied(penaltyAmount, metrics.sentimentScore, metrics.engagementRate) */\n      mload(0x40)\n      tag_390\n      swap4\n      swap3\n      swap2\n      swap1\n      tag_383\n      jump\t// in\n    tag_390:\n      mload(0x40)\n      dup1\n      swap2\n      sub\n      swap1\n      log1\n        /* \"contracts/SocialToken.sol\":5256:5435  if (penaltyAmount > 0) {... */\n    tag_388:\n        /* \"contracts/SocialToken.sol\":5085:5441  {... */\n      pop\n        /* \"contracts/SocialToken.sol\":4993:5441  function _handleNegativeMetrics(ISocialMetricsOracle.SocialMetrics memory metrics) internal {... */\n      pop\n      jump\t// out\n        /* \"@openzeppelin/contracts-upgradeable/proxy/utils/Initializable.sol\":8737:8907  function _getInitializableStorage() private pure returns (InitializableStorage storage $) {... */\n    tag_262:\n        /* \"@openzeppelin/contracts-upgradeable/proxy/utils/Initializable.sol\":8795:8825  InitializableStorage storage $ */\n      0x00\n        /* \"@openzeppelin/contracts-upgradeable/proxy/utils/Initializable.sol\":8870:8891  INITIALIZABLE_STORAGE */\n      0xf0c57e16840df040f15088dc2f81fe391c3923bec73e23a9662efc9c229c6a00\n        /* \"@openzeppelin/contracts-upgradeable/proxy/utils/Initializable.sol\":8860:8891  $.slot := INITIALIZABLE_STORAGE */\n      swap1\n      pop\n        /* \"@openzeppelin/contracts-upgradeable/proxy/utils/Initializable.sol\":8737:8907  function _getInitializableStorage() private pure returns (InitializableStorage storage $) {... */\n      swap1\n      jump\t// out\n        /* \"@openzeppelin/contracts-upgradeable/token/ERC20/ERC20Upgradeable.sol\":2282:2429  function __ERC20_init(string memory name_, string memory symbol_) internal onlyInitializing {... */\n    tag_270:\n        /* \"@openzeppelin/contracts-upgradeable/proxy/utils/Initializable.sol\":6931:6951  _checkInitializing() */\n      tag_393\n        /* \"@openzeppelin/contracts-upgradeable/proxy/utils/Initializable.sol\":6931:6949  _checkInitializing */\n      tag_394\n        /* \"@openzeppelin/contracts-upgradeable/proxy/utils/Initializable.sol\":6931:6951  _checkInitializing() */\n      jump\t// in\n    tag_393:\n        /* \"@openzeppelin/contracts-upgradeable/token/ERC20/ERC20Upgradeable.sol\":2384:2422  __ERC20_init_unchained(name_, symbol_) */\n      tag_396\n        /* \"@openzeppelin/contracts-upgradeable/token/ERC20/ERC20Upgradeable.sol\":2407:2412  name_ */\n      dup3\n        /* \"@openzeppelin/contracts-upgradeable/token/ERC20/ERC20Upgradeable.sol\":2414:2421  symbol_ */\n      dup3\n        /* \"@openzeppelin/contracts-upgradeable/token/ERC20/ERC20Upgradeable.sol\":2384:2406  __ERC20_init_unchained */\n      tag_397\n        /* \"@openzeppelin/contracts-upgradeable/token/ERC20/ERC20Upgradeable.sol\":2384:2422  __ERC20_init_unchained(name_, symbol_) */\n      jump\t// in\n    tag_396:\n        /* \"@openzeppelin/contracts-upgradeable/token/ERC20/ERC20Upgradeable.sol\":2282:2429  function __ERC20_init(string memory name_, string memory symbol_) internal onlyInitializing {... */\n      pop\n      pop\n      jump\t// out\n        /* \"@openzeppelin/contracts-upgradeable/access/OwnableUpgradeable.sol\":1847:1974  function __Ownable_init(address initialOwner) internal onlyInitializing {... */\n    tag_272:\n        /* \"@openzeppelin/contracts-upgradeable/proxy/utils/Initializable.sol\":6931:6951  _checkInitializing() */\n      tag_399\n        /* \"@openzeppelin/contracts-upgradeable/proxy/utils/Initializable.sol\":6931:6949  _checkInitializing */\n      tag_394\n        /* \"@openzeppelin/contracts-upgradeable/proxy/utils/Initializable.sol\":6931:6951  _checkInitializing() */\n      jump\t// in\n    tag_399:\n        /* \"@openzeppelin/contracts-upgradeable/access/OwnableUpgradeable.sol\":1929:1967  __Ownable_init_unchained(initialOwner) */\n      tag_401\n        /* \"@openzeppelin/contracts-upgradeable/access/OwnableUpgradeable.sol\":1954:1966  initialOwner */\n      dup2\n        /* \"@openzeppelin/contracts-upgradeable/access/OwnableUpgradeable.sol\":1929:1953  __Ownable_init_unchained */\n      tag_402\n        /* \"@openzeppelin/contracts-upgradeable/access/OwnableUpgradeable.sol\":1929:1967  __Ownable_init_unchained(initialOwner) */\n      jump\t// in\n    tag_401:\n        /* \"@openzeppelin/contracts-upgradeable/access/OwnableUpgradeable.sol\":1847:1974  function __Ownable_init(address initialOwner) internal onlyInitializing {... */\n      pop\n      jump\t// out\n        /* \"@openzeppelin/contracts-upgradeable/security/PausableUpgradeable.sol\":1084:1181  function __Pausable_init() internal onlyInitializing {... */\n    tag_274:\n        /* \"@openzeppelin/contracts-upgradeable/proxy/utils/Initializable.sol\":6931:6951  _checkInitializing() */\n      tag_404\n        /* \"@openzeppelin/contracts-upgradeable/proxy/utils/Initializable.sol\":6931:6949  _checkInitializing */\n      tag_394\n        /* \"@openzeppelin/contracts-upgradeable/proxy/utils/Initializable.sol\":6931:6951  _checkInitializing() */\n      jump\t// in\n    tag_404:\n        /* \"@openzeppelin/contracts-upgradeable/security/PausableUpgradeable.sol\":1147:1174  __Pausable_init_unchained() */\n      tag_406\n        /* \"@openzeppelin/contracts-upgradeable/security/PausableUpgradeable.sol\":1147:1172  __Pausable_init_unchained */\n      tag_407\n        /* \"@openzeppelin/contracts-upgradeable/security/PausableUpgradeable.sol\":1147:1174  __Pausable_init_unchained() */\n      jump\t// in\n    tag_406:\n        /* \"@openzeppelin/contracts-upgradeable/security/PausableUpgradeable.sol\":1084:1181  function __Pausable_init() internal onlyInitializing {... */\n      jump\t// out\n        /* \"@openzeppelin/contracts-upgradeable/proxy/utils/UUPSUpgradeable.sol\":2970:3037  function __UUPSUpgradeable_init() internal onlyInitializing {... */\n    tag_276:\n        /* \"@openzeppelin/contracts-upgradeable/proxy/utils/Initializable.sol\":6931:6951  _checkInitializing() */\n      tag_409\n        /* \"@openzeppelin/contracts-upgradeable/proxy/utils/Initializable.sol\":6931:6949  _checkInitializing */\n      tag_394\n        /* \"@openzeppelin/contracts-upgradeable/proxy/utils/Initializable.sol\":6931:6951  _checkInitializing() */\n      jump\t// in\n    tag_409:\n        /* \"@openzeppelin/contracts-upgradeable/proxy/utils/UUPSUpgradeable.sol\":2970:3037  function __UUPSUpgradeable_init() internal onlyInitializing {... */\n      jump\t// out\n        /* \"@openzeppelin/contracts-upgradeable/token/ERC20/ERC20Upgradeable.sol\":8733:8941  function _mint(address account, uint256 value) internal {... */\n    tag_284:\n        /* \"@openzeppelin/contracts-upgradeable/token/ERC20/ERC20Upgradeable.sol\":8822:8823  0 */\n      0x00\n        /* \"@openzeppelin/contracts-upgradeable/token/ERC20/ERC20Upgradeable.sol\":8803:8824  account == address(0) */\n      0xffffffffffffffffffffffffffffffffffffffff\n      and\n        /* \"@openzeppelin/contracts-upgradeable/token/ERC20/ERC20Upgradeable.sol\":8803:8810  account */\n      dup3\n        /* \"@openzeppelin/contracts-upgradeable/token/ERC20/ERC20Upgradeable.sol\":8803:8824  account == address(0) */\n      0xffffffffffffffffffffffffffffffffffffffff\n      and\n      sub\n        /* \"@openzeppelin/contracts-upgradeable/token/ERC20/ERC20Upgradeable.sol\":8799:8890  if (account == address(0)) {... */\n      tag_412\n      jumpi\n        /* \"@openzeppelin/contracts-upgradeable/token/ERC20/ERC20Upgradeable.sol\":8876:8877  0 */\n      0x00\n        /* \"@openzeppelin/contracts-upgradeable/token/ERC20/ERC20Upgradeable.sol\":8847:8879  ERC20InvalidReceiver(address(0)) */\n      mload(0x40)\n      0xec442f0500000000000000000000000000000000000000000000000000000000\n      dup2\n      mstore\n      0x04\n      add\n      tag_413\n      swap2\n      swap1\n      tag_114\n      jump\t// in\n    tag_413:\n      mload(0x40)\n      dup1\n      swap2\n      sub\n      swap1\n      revert\n        /* \"@openzeppelin/contracts-upgradeable/token/ERC20/ERC20Upgradeable.sol\":8799:8890  if (account == address(0)) {... */\n    tag_412:\n        /* \"@openzeppelin/contracts-upgradeable/token/ERC20/ERC20Upgradeable.sol\":8899:8934  _update(address(0), account, value) */\n      tag_414\n        /* \"@openzeppelin/contracts-upgradeable/token/ERC20/ERC20Upgradeable.sol\":8915:8916  0 */\n      0x00\n        /* \"@openzeppelin/contracts-upgradeable/token/ERC20/ERC20Upgradeable.sol\":8919:8926  account */\n      dup4\n        /* \"@openzeppelin/contracts-upgradeable/token/ERC20/ERC20Upgradeable.sol\":8928:8933  value */\n      dup4\n        /* \"@openzeppelin/contracts-upgradeable/token/ERC20/ERC20Upgradeable.sol\":8899:8906  _update */\n      tag_333\n        /* \"@openzeppelin/contracts-upgradeable/token/ERC20/ERC20Upgradeable.sol\":8899:8934  _update(address(0), account, value) */\n      jump\t// in\n    tag_414:\n        /* \"@openzeppelin/contracts-upgradeable/token/ERC20/ERC20Upgradeable.sol\":8733:8941  function _mint(address account, uint256 value) internal {... */\n      pop\n      pop\n      jump\t// out\n        /* \"contracts/SocialToken.sol\":5447:6040  function _calculateReward(... */\n    tag_298:\n        /* \"contracts/SocialToken.sol\":5594:5601  uint256 */\n      0x00\n        /* \"contracts/SocialToken.sol\":5613:5640  uint256 sentimentMultiplier */\n      dup1\n        /* \"contracts/SocialToken.sol\":5643:5690  sentimentScore.sub(mechanics.minSentimentScore) */\n      tag_416\n        /* \"contracts/SocialToken.sol\":5662:5671  mechanics */\n      0x33\n        /* \"contracts/SocialToken.sol\":5662:5689  mechanics.minSentimentScore */\n      0x00\n      add\n      sload\n        /* \"contracts/SocialToken.sol\":5643:5657  sentimentScore */\n      dup7\n        /* \"contracts/SocialToken.sol\":5643:5661  sentimentScore.sub */\n      tag_417\n      swap1\n        /* \"contracts/SocialToken.sol\":5643:5690  sentimentScore.sub(mechanics.minSentimentScore) */\n      swap2\n      swap1\n      0xffffffff\n      and\n      jump\t// in\n    tag_416:\n        /* \"contracts/SocialToken.sol\":5613:5690  uint256 sentimentMultiplier = sentimentScore.sub(mechanics.minSentimentScore) */\n      swap1\n      pop\n        /* \"contracts/SocialToken.sol\":5700:5728  uint256 engagementMultiplier */\n      0x00\n        /* \"contracts/SocialToken.sol\":5731:5778  engagementRate.sub(mechanics.minEngagementRate) */\n      tag_418\n        /* \"contracts/SocialToken.sol\":5750:5759  mechanics */\n      0x33\n        /* \"contracts/SocialToken.sol\":5750:5777  mechanics.minEngagementRate */\n      0x01\n      add\n      sload\n        /* \"contracts/SocialToken.sol\":5731:5745  engagementRate */\n      dup7\n        /* \"contracts/SocialToken.sol\":5731:5749  engagementRate.sub */\n      tag_417\n      swap1\n        /* \"contracts/SocialToken.sol\":5731:5778  engagementRate.sub(mechanics.minEngagementRate) */\n      swap2\n      swap1\n      0xffffffff\n      and\n      jump\t// in\n    tag_418:\n        /* \"contracts/SocialToken.sol\":5700:5778  uint256 engagementMultiplier = engagementRate.sub(mechanics.minEngagementRate) */\n      swap1\n      pop\n        /* \"contracts/SocialToken.sol\":5804:6006  mechanics.rewardBaseAmount... */\n      tag_419\n        /* \"contracts/SocialToken.sol\":6002:6005  100 */\n      0x64\n        /* \"contracts/SocialToken.sol\":5804:5960  mechanics.rewardBaseAmount... */\n      tag_420\n        /* \"contracts/SocialToken.sol\":5954:5959  10000 */\n      0x2710\n        /* \"contracts/SocialToken.sol\":5804:5936  mechanics.rewardBaseAmount... */\n      tag_421\n        /* \"contracts/SocialToken.sol\":5925:5935  baseAmount */\n      dup9\n        /* \"contracts/SocialToken.sol\":5804:5907  mechanics.rewardBaseAmount... */\n      tag_422\n        /* \"contracts/SocialToken.sol\":5886:5906  engagementMultiplier */\n      dup8\n        /* \"contracts/SocialToken.sol\":5804:5868  mechanics.rewardBaseAmount... */\n      tag_423\n        /* \"contracts/SocialToken.sol\":5848:5867  sentimentMultiplier */\n      dup11\n        /* \"contracts/SocialToken.sol\":5804:5813  mechanics */\n      0x33\n        /* \"contracts/SocialToken.sol\":5804:5830  mechanics.rewardBaseAmount */\n      0x03\n      add\n      sload\n        /* \"contracts/SocialToken.sol\":5804:5847  mechanics.rewardBaseAmount... */\n      tag_424\n      swap1\n        /* \"contracts/SocialToken.sol\":5804:5868  mechanics.rewardBaseAmount... */\n      swap2\n      swap1\n      0xffffffff\n      and\n      jump\t// in\n    tag_423:\n        /* \"contracts/SocialToken.sol\":5804:5885  mechanics.rewardBaseAmount... */\n      tag_424\n      swap1\n        /* \"contracts/SocialToken.sol\":5804:5907  mechanics.rewardBaseAmount... */\n      swap2\n      swap1\n      0xffffffff\n      and\n      jump\t// in\n    tag_422:\n        /* \"contracts/SocialToken.sol\":5804:5924  mechanics.rewardBaseAmount... */\n      tag_424\n      swap1\n        /* \"contracts/SocialToken.sol\":5804:5936  mechanics.rewardBaseAmount... */\n      swap2\n      swap1\n      0xffffffff\n      and\n      jump\t// in\n    tag_421:\n        /* \"contracts/SocialToken.sol\":5804:5953  mechanics.rewardBaseAmount... */\n      tag_425\n      swap1\n        /* \"contracts/SocialToken.sol\":5804:5960  mechanics.rewardBaseAmount... */\n      swap2\n      swap1\n      0xffffffff\n      and\n      jump\t// in\n    tag_420:\n        /* \"contracts/SocialToken.sol\":5804:6001  mechanics.rewardBaseAmount... */\n      tag_425\n      swap1\n        /* \"contracts/SocialToken.sol\":5804:6006  mechanics.rewardBaseAmount... */\n      swap2\n      swap1\n      0xffffffff\n      and\n      jump\t// in\n    tag_419:\n        /* \"contracts/SocialToken.sol\":5797:6006  return mechanics.rewardBaseAmount... */\n      swap3\n      pop\n      pop\n      pop\n        /* \"contracts/SocialToken.sol\":5447:6040  function _calculateReward(... */\n      swap4\n      swap3\n      pop\n      pop\n      pop\n      jump\t// out\n        /* \"@openzeppelin/contracts-upgradeable/token/ERC20/ERC20Upgradeable.sol\":10976:11463  function _approve(address owner, address spender, uint256 value, bool emitEvent) internal virtual {... */\n    tag_313:\n        /* \"@openzeppelin/contracts-upgradeable/token/ERC20/ERC20Upgradeable.sol\":11084:11106  ERC20Storage storage $ */\n      0x00\n        /* \"@openzeppelin/contracts-upgradeable/token/ERC20/ERC20Upgradeable.sol\":11109:11127  _getERC20Storage() */\n      tag_427\n        /* \"@openzeppelin/contracts-upgradeable/token/ERC20/ERC20Upgradeable.sol\":11109:11125  _getERC20Storage */\n      tag_160\n        /* \"@openzeppelin/contracts-upgradeable/token/ERC20/ERC20Upgradeable.sol\":11109:11127  _getERC20Storage() */\n      jump\t// in\n    tag_427:\n        /* \"@openzeppelin/contracts-upgradeable/token/ERC20/ERC20Upgradeable.sol\":11084:11127  ERC20Storage storage $ = _getERC20Storage() */\n      swap1\n      pop\n        /* \"@openzeppelin/contracts-upgradeable/token/ERC20/ERC20Upgradeable.sol\":11158:11159  0 */\n      0x00\n        /* \"@openzeppelin/contracts-upgradeable/token/ERC20/ERC20Upgradeable.sol\":11141:11160  owner == address(0) */\n      0xffffffffffffffffffffffffffffffffffffffff\n      and\n        /* \"@openzeppelin/contracts-upgradeable/token/ERC20/ERC20Upgradeable.sol\":11141:11146  owner */\n      dup6\n        /* \"@openzeppelin/contracts-upgradeable/token/ERC20/ERC20Upgradeable.sol\":11141:11160  owner == address(0) */\n      0xffffffffffffffffffffffffffffffffffffffff\n      and\n      sub\n        /* \"@openzeppelin/contracts-upgradeable/token/ERC20/ERC20Upgradeable.sol\":11137:11226  if (owner == address(0)) {... */\n      tag_428\n      jumpi\n        /* \"@openzeppelin/contracts-upgradeable/token/ERC20/ERC20Upgradeable.sol\":11212:11213  0 */\n      0x00\n        /* \"@openzeppelin/contracts-upgradeable/token/ERC20/ERC20Upgradeable.sol\":11183:11215  ERC20InvalidApprover(address(0)) */\n      mload(0x40)\n      0xe602df0500000000000000000000000000000000000000000000000000000000\n      dup2\n      mstore\n      0x04\n      add\n      tag_429\n      swap2\n      swap1\n      tag_114\n      jump\t// in\n    tag_429:\n      mload(0x40)\n      dup1\n      swap2\n      sub\n      swap1\n      revert\n        /* \"@openzeppelin/contracts-upgradeable/token/ERC20/ERC20Upgradeable.sol\":11137:11226  if (owner == address(0)) {... */\n    tag_428:\n        /* \"@openzeppelin/contracts-upgradeable/token/ERC20/ERC20Upgradeable.sol\":11258:11259  0 */\n      0x00\n        /* \"@openzeppelin/contracts-upgradeable/token/ERC20/ERC20Upgradeable.sol\":11239:11260  spender == address(0) */\n      0xffffffffffffffffffffffffffffffffffffffff\n      and\n        /* \"@openzeppelin/contracts-upgradeable/token/ERC20/ERC20Upgradeable.sol\":11239:11246  spender */\n      dup5\n        /* \"@openzeppelin/contracts-upgradeable/token/ERC20/ERC20Upgradeable.sol\":11239:11260  spender == address(0) */\n      0xffffffffffffffffffffffffffffffffffffffff\n      and\n      sub\n        /* \"@openzeppelin/contracts-upgradeable/token/ERC20/ERC20Upgradeable.sol\":11235:11325  if (spender == address(0)) {... */\n      tag_430\n      jumpi\n        /* \"@openzeppelin/contracts-upgradeable/token/ERC20/ERC20Upgradeable.sol\":11311:11312  0 */\n      0x00\n        /* \"@openzeppelin/contracts-upgradeable/token/ERC20/ERC20Upgradeable.sol\":11283:11314  ERC20InvalidSpender(address(0)) */\n      mload(0x40)\n      0x94280d6200000000000000000000000000000000000000000000000000000000\n      dup2\n      mstore\n      0x04\n      add\n      tag_431\n      swap2\n      swap1\n      tag_114\n      jump\t// in\n    tag_431:\n      mload(0x40)\n      dup1\n      swap2\n      sub\n      swap1\n      revert\n        /* \"@openzeppelin/contracts-upgradeable/token/ERC20/ERC20Upgradeable.sol\":11235:11325  if (spender == address(0)) {... */\n    tag_430:\n        /* \"@openzeppelin/contracts-upgradeable/token/ERC20/ERC20Upgradeable.sol\":11366:11371  value */\n      dup3\n        /* \"@openzeppelin/contracts-upgradeable/token/ERC20/ERC20Upgradeable.sol\":11334:11335  $ */\n      dup2\n        /* \"@openzeppelin/contracts-upgradeable/token/ERC20/ERC20Upgradeable.sol\":11334:11347  $._allowances */\n      0x01\n      add\n        /* \"@openzeppelin/contracts-upgradeable/token/ERC20/ERC20Upgradeable.sol\":11334:11354  $._allowances[owner] */\n      0x00\n        /* \"@openzeppelin/contracts-upgradeable/token/ERC20/ERC20Upgradeable.sol\":11348:11353  owner */\n      dup8\n        /* \"@openzeppelin/contracts-upgradeable/token/ERC20/ERC20Upgradeable.sol\":11334:11354  $._allowances[owner] */\n      0xffffffffffffffffffffffffffffffffffffffff\n      and\n      0xffffffffffffffffffffffffffffffffffffffff\n      and\n      dup2\n      mstore\n      0x20\n      add\n      swap1\n      dup2\n      mstore\n      0x20\n      add\n      0x00\n      keccak256\n        /* \"@openzeppelin/contracts-upgradeable/token/ERC20/ERC20Upgradeable.sol\":11334:11363  $._allowances[owner][spender] */\n      0x00\n        /* \"@openzeppelin/contracts-upgradeable/token/ERC20/ERC20Upgradeable.sol\":11355:11362  spender */\n      dup7\n        /* \"@openzeppelin/contracts-upgradeable/token/ERC20/ERC20Upgradeable.sol\":11334:11363  $._allowances[owner][spender] */\n      0xffffffffffffffffffffffffffffffffffffffff\n      and\n      0xffffffffffffffffffffffffffffffffffffffff\n      and\n      dup2\n      mstore\n      0x20\n      add\n      swap1\n      dup2\n      mstore\n      0x20\n      add\n      0x00\n      keccak256\n        /* \"@openzeppelin/contracts-upgradeable/token/ERC20/ERC20Upgradeable.sol\":11334:11371  $._allowances[owner][spender] = value */\n      dup2\n      swap1\n      sstore\n      pop\n        /* \"@openzeppelin/contracts-upgradeable/token/ERC20/ERC20Upgradeable.sol\":11385:11394  emitEvent */\n      dup2\n        /* \"@openzeppelin/contracts-upgradeable/token/ERC20/ERC20Upgradeable.sol\":11381:11457  if (emitEvent) {... */\n      iszero\n      tag_432\n      jumpi\n        /* \"@openzeppelin/contracts-upgradeable/token/ERC20/ERC20Upgradeable.sol\":11431:11438  spender */\n      dup4\n        /* \"@openzeppelin/contracts-upgradeable/token/ERC20/ERC20Upgradeable.sol\":11415:11446  Approval(owner, spender, value) */\n      0xffffffffffffffffffffffffffffffffffffffff\n      and\n        /* \"@openzeppelin/contracts-upgradeable/token/ERC20/ERC20Upgradeable.sol\":11424:11429  owner */\n      dup6\n        /* \"@openzeppelin/contracts-upgradeable/token/ERC20/ERC20Upgradeable.sol\":11415:11446  Approval(owner, spender, value) */\n      0xffffffffffffffffffffffffffffffffffffffff\n      and\n      0x8c5be1e5ebec7d5bd14f71427d1e84f3dd0314c0f7b2291e5b200ac8c7c3b925\n        /* \"@openzeppelin/contracts-upgradeable/token/ERC20/ERC20Upgradeable.sol\":11440:11445  value */\n      dup6\n        /* \"@openzeppelin/contracts-upgradeable/token/ERC20/ERC20Upgradeable.sol\":11415:11446  Approval(owner, spender, value) */\n      mload(0x40)\n      tag_433\n      swap2\n      swap1\n      tag_56\n      jump\t// in\n    tag_433:\n      mload(0x40)\n      dup1\n      swap2\n      sub\n      swap1\n      log3\n        /* \"@openzeppelin/contracts-upgradeable/token/ERC20/ERC20Upgradeable.sol\":11381:11457  if (emitEvent) {... */\n    tag_432:\n        /* \"@openzeppelin/contracts-upgradeable/token/ERC20/ERC20Upgradeable.sol\":11074:11463  {... */\n      pop\n        /* \"@openzeppelin/contracts-upgradeable/token/ERC20/ERC20Upgradeable.sol\":10976:11463  function _approve(address owner, address spender, uint256 value, bool emitEvent) internal virtual {... */\n      pop\n      pop\n      pop\n      pop\n      jump\t// out\n        /* \"@openzeppelin/contracts-upgradeable/token/ERC20/ERC20Upgradeable.sol\":7220:8390  function _update(address from, address to, uint256 value) internal virtual {... */\n    tag_333:\n        /* \"@openzeppelin/contracts-upgradeable/token/ERC20/ERC20Upgradeable.sol\":7305:7327  ERC20Storage storage $ */\n      0x00\n        /* \"@openzeppelin/contracts-upgradeable/token/ERC20/ERC20Upgradeable.sol\":7330:7348  _getERC20Storage() */\n      tag_435\n        /* \"@openzeppelin/contracts-upgradeable/token/ERC20/ERC20Upgradeable.sol\":7330:7346  _getERC20Storage */\n      tag_160\n        /* \"@openzeppelin/contracts-upgradeable/token/ERC20/ERC20Upgradeable.sol\":7330:7348  _getERC20Storage() */\n      jump\t// in\n    tag_435:\n        /* \"@openzeppelin/contracts-upgradeable/token/ERC20/ERC20Upgradeable.sol\":7305:7348  ERC20Storage storage $ = _getERC20Storage() */\n      swap1\n      pop\n        /* \"@openzeppelin/contracts-upgradeable/token/ERC20/ERC20Upgradeable.sol\":7378:7379  0 */\n      0x00\n        /* \"@openzeppelin/contracts-upgradeable/token/ERC20/ERC20Upgradeable.sol\":7362:7380  from == address(0) */\n      0xffffffffffffffffffffffffffffffffffffffff\n      and\n        /* \"@openzeppelin/contracts-upgradeable/token/ERC20/ERC20Upgradeable.sol\":7362:7366  from */\n      dup5\n        /* \"@openzeppelin/contracts-upgradeable/token/ERC20/ERC20Upgradeable.sol\":7362:7380  from == address(0) */\n      0xffffffffffffffffffffffffffffffffffffffff\n      and\n      sub\n        /* \"@openzeppelin/contracts-upgradeable/token/ERC20/ERC20Upgradeable.sol\":7358:7904  if (from == address(0)) {... */\n      tag_436\n      jumpi\n        /* \"@openzeppelin/contracts-upgradeable/token/ERC20/ERC20Upgradeable.sol\":7516:7521  value */\n      dup2\n        /* \"@openzeppelin/contracts-upgradeable/token/ERC20/ERC20Upgradeable.sol\":7498:7499  $ */\n      dup2\n        /* \"@openzeppelin/contracts-upgradeable/token/ERC20/ERC20Upgradeable.sol\":7498:7512  $._totalSupply */\n      0x02\n      add\n      0x00\n        /* \"@openzeppelin/contracts-upgradeable/token/ERC20/ERC20Upgradeable.sol\":7498:7521  $._totalSupply += value */\n      dup3\n      dup3\n      sload\n      tag_437\n      swap2\n      swap1\n      tag_236\n      jump\t// in\n    tag_437:\n      swap3\n      pop\n      pop\n      dup2\n      swap1\n      sstore\n      pop\n        /* \"@openzeppelin/contracts-upgradeable/token/ERC20/ERC20Upgradeable.sol\":7358:7904  if (from == address(0)) {... */\n      jump(tag_438)\n    tag_436:\n        /* \"@openzeppelin/contracts-upgradeable/token/ERC20/ERC20Upgradeable.sol\":7552:7571  uint256 fromBalance */\n      0x00\n        /* \"@openzeppelin/contracts-upgradeable/token/ERC20/ERC20Upgradeable.sol\":7574:7575  $ */\n      dup2\n        /* \"@openzeppelin/contracts-upgradeable/token/ERC20/ERC20Upgradeable.sol\":7574:7585  $._balances */\n      0x00\n      add\n        /* \"@openzeppelin/contracts-upgradeable/token/ERC20/ERC20Upgradeable.sol\":7574:7591  $._balances[from] */\n      0x00\n        /* \"@openzeppelin/contracts-upgradeable/token/ERC20/ERC20Upgradeable.sol\":7586:7590  from */\n      dup7\n        /* \"@openzeppelin/contracts-upgradeable/token/ERC20/ERC20Upgradeable.sol\":7574:7591  $._balances[from] */\n      0xffffffffffffffffffffffffffffffffffffffff\n      and\n      0xffffffffffffffffffffffffffffffffffffffff\n      and\n      dup2\n      mstore\n      0x20\n      add\n      swap1\n      dup2\n      mstore\n      0x20\n      add\n      0x00\n      keccak256\n      sload\n        /* \"@openzeppelin/contracts-upgradeable/token/ERC20/ERC20Upgradeable.sol\":7552:7591  uint256 fromBalance = $._balances[from] */\n      swap1\n      pop\n        /* \"@openzeppelin/contracts-upgradeable/token/ERC20/ERC20Upgradeable.sol\":7623:7628  value */\n      dup3\n        /* \"@openzeppelin/contracts-upgradeable/token/ERC20/ERC20Upgradeable.sol\":7609:7620  fromBalance */\n      dup2\n        /* \"@openzeppelin/contracts-upgradeable/token/ERC20/ERC20Upgradeable.sol\":7609:7628  fromBalance < value */\n      lt\n        /* \"@openzeppelin/contracts-upgradeable/token/ERC20/ERC20Upgradeable.sol\":7605:7720  if (fromBalance < value) {... */\n      iszero\n      tag_439\n      jumpi\n        /* \"@openzeppelin/contracts-upgradeable/token/ERC20/ERC20Upgradeable.sol\":7680:7684  from */\n      dup5\n        /* \"@openzeppelin/contracts-upgradeable/token/ERC20/ERC20Upgradeable.sol\":7686:7697  fromBalance */\n      dup2\n        /* \"@openzeppelin/contracts-upgradeable/token/ERC20/ERC20Upgradeable.sol\":7699:7704  value */\n      dup5\n        /* \"@openzeppelin/contracts-upgradeable/token/ERC20/ERC20Upgradeable.sol\":7655:7705  ERC20InsufficientBalance(from, fromBalance, value) */\n      mload(0x40)\n      0xe450d38c00000000000000000000000000000000000000000000000000000000\n      dup2\n      mstore\n      0x04\n      add\n      tag_440\n      swap4\n      swap3\n      swap2\n      swap1\n      tag_325\n      jump\t// in\n    tag_440:\n      mload(0x40)\n      dup1\n      swap2\n      sub\n      swap1\n      revert\n        /* \"@openzeppelin/contracts-upgradeable/token/ERC20/ERC20Upgradeable.sol\":7605:7720  if (fromBalance < value) {... */\n    tag_439:\n        /* \"@openzeppelin/contracts-upgradeable/token/ERC20/ERC20Upgradeable.sol\":7874:7879  value */\n      dup3\n        /* \"@openzeppelin/contracts-upgradeable/token/ERC20/ERC20Upgradeable.sol\":7860:7871  fromBalance */\n      dup2\n        /* \"@openzeppelin/contracts-upgradeable/token/ERC20/ERC20Upgradeable.sol\":7860:7879  fromBalance - value */\n      sub\n        /* \"@openzeppelin/contracts-upgradeable/token/ERC20/ERC20Upgradeable.sol\":7840:7841  $ */\n      dup3\n        /* \"@openzeppelin/contracts-upgradeable/token/ERC20/ERC20Upgradeable.sol\":7840:7851  $._balances */\n      0x00\n      add\n        /* \"@openzeppelin/contracts-upgradeable/token/ERC20/ERC20Upgradeable.sol\":7840:7857  $._balances[from] */\n      0x00\n        /* \"@openzeppelin/contracts-upgradeable/token/ERC20/ERC20Upgradeable.sol\":7852:7856  from */\n      dup8\n        /* \"@openzeppelin/contracts-upgradeable/token/ERC20/ERC20Upgradeable.sol\":7840:7857  $._balances[from] */\n      0xffffffffffffffffffffffffffffffffffffffff\n      and\n      0xffffffffffffffffffffffffffffffffffffffff\n      and\n      dup2\n      mstore\n      0x20\n      add\n      swap1\n      dup2\n      mstore\n      0x20\n      add\n      0x00\n      keccak256\n        /* \"@openzeppelin/contracts-upgradeable/token/ERC20/ERC20Upgradeable.sol\":7840:7879  $._balances[from] = fromBalance - value */\n      dup2\n      swap1\n      sstore\n      pop\n        /* \"@openzeppelin/contracts-upgradeable/token/ERC20/ERC20Upgradeable.sol\":7538:7904  {... */\n      pop\n        /* \"@openzeppelin/contracts-upgradeable/token/ERC20/ERC20Upgradeable.sol\":7358:7904  if (from == address(0)) {... */\n    tag_438:\n        /* \"@openzeppelin/contracts-upgradeable/token/ERC20/ERC20Upgradeable.sol\":7932:7933  0 */\n      0x00\n        /* \"@openzeppelin/contracts-upgradeable/token/ERC20/ERC20Upgradeable.sol\":7918:7934  to == address(0) */\n      0xffffffffffffffffffffffffffffffffffffffff\n      and\n        /* \"@openzeppelin/contracts-upgradeable/token/ERC20/ERC20Upgradeable.sol\":7918:7920  to */\n      dup4\n        /* \"@openzeppelin/contracts-upgradeable/token/ERC20/ERC20Upgradeable.sol\":7918:7934  to == address(0) */\n      0xffffffffffffffffffffffffffffffffffffffff\n      and\n      sub\n        /* \"@openzeppelin/contracts-upgradeable/token/ERC20/ERC20Upgradeable.sol\":7914:8343  if (to == address(0)) {... */\n      tag_441\n      jumpi\n        /* \"@openzeppelin/contracts-upgradeable/token/ERC20/ERC20Upgradeable.sol\":8099:8104  value */\n      dup2\n        /* \"@openzeppelin/contracts-upgradeable/token/ERC20/ERC20Upgradeable.sol\":8081:8082  $ */\n      dup2\n        /* \"@openzeppelin/contracts-upgradeable/token/ERC20/ERC20Upgradeable.sol\":8081:8095  $._totalSupply */\n      0x02\n      add\n      0x00\n        /* \"@openzeppelin/contracts-upgradeable/token/ERC20/ERC20Upgradeable.sol\":8081:8104  $._totalSupply -= value */\n      dup3\n      dup3\n      sload\n      sub\n      swap3\n      pop\n      pop\n      dup2\n      swap1\n      sstore\n      pop\n        /* \"@openzeppelin/contracts-upgradeable/token/ERC20/ERC20Upgradeable.sol\":7914:8343  if (to == address(0)) {... */\n      jump(tag_442)\n    tag_441:\n        /* \"@openzeppelin/contracts-upgradeable/token/ERC20/ERC20Upgradeable.sol\":8313:8318  value */\n      dup2\n        /* \"@openzeppelin/contracts-upgradeable/token/ERC20/ERC20Upgradeable.sol\":8294:8295  $ */\n      dup2\n        /* \"@openzeppelin/contracts-upgradeable/token/ERC20/ERC20Upgradeable.sol\":8294:8305  $._balances */\n      0x00\n      add\n        /* \"@openzeppelin/contracts-upgradeable/token/ERC20/ERC20Upgradeable.sol\":8294:8309  $._balances[to] */\n      0x00\n        /* \"@openzeppelin/contracts-upgradeable/token/ERC20/ERC20Upgradeable.sol\":8306:8308  to */\n      dup6\n        /* \"@openzeppelin/contracts-upgradeable/token/ERC20/ERC20Upgradeable.sol\":8294:8309  $._balances[to] */\n      0xffffffffffffffffffffffffffffffffffffffff\n      and\n      0xffffffffffffffffffffffffffffffffffffffff\n      and\n      dup2\n      mstore\n      0x20\n      add\n      swap1\n      dup2\n      mstore\n      0x20\n      add\n      0x00\n      keccak256\n      0x00\n        /* \"@openzeppelin/contracts-upgradeable/token/ERC20/ERC20Upgradeable.sol\":8294:8318  $._balances[to] += value */\n      dup3\n      dup3\n      sload\n      add\n      swap3\n      pop\n      pop\n      dup2\n      swap1\n      sstore\n      pop\n        /* \"@openzeppelin/contracts-upgradeable/token/ERC20/ERC20Upgradeable.sol\":7914:8343  if (to == address(0)) {... */\n    tag_442:\n        /* \"@openzeppelin/contracts-upgradeable/token/ERC20/ERC20Upgradeable.sol\":8373:8375  to */\n      dup3\n        /* \"@openzeppelin/contracts-upgradeable/token/ERC20/ERC20Upgradeable.sol\":8358:8383  Transfer(from, to, value) */\n      0xffffffffffffffffffffffffffffffffffffffff\n      and\n        /* \"@openzeppelin/contracts-upgradeable/token/ERC20/ERC20Upgradeable.sol\":8367:8371  from */\n      dup5\n        /* \"@openzeppelin/contracts-upgradeable/token/ERC20/ERC20Upgradeable.sol\":8358:8383  Transfer(from, to, value) */\n      0xffffffffffffffffffffffffffffffffffffffff\n      and\n      0xddf252ad1be2c89b69c2b068fc378daa952ba7f163c4a11628f55a4df523b3ef\n        /* \"@openzeppelin/contracts-upgradeable/token/ERC20/ERC20Upgradeable.sol\":8377:8382  value */\n      dup5\n        /* \"@openzeppelin/contracts-upgradeable/token/ERC20/ERC20Upgradeable.sol\":8358:8383  Transfer(from, to, value) */\n      mload(0x40)\n      tag_443\n      swap2\n      swap1\n      tag_56\n      jump\t// in\n    tag_443:\n      mload(0x40)\n      dup1\n      swap2\n      sub\n      swap1\n      log3\n        /* \"@openzeppelin/contracts-upgradeable/token/ERC20/ERC20Upgradeable.sol\":7295:8390  {... */\n      pop\n        /* \"@openzeppelin/contracts-upgradeable/token/ERC20/ERC20Upgradeable.sol\":7220:8390  function _update(address from, address to, uint256 value) internal virtual {... */\n      pop\n      pop\n      pop\n      jump\t// out\n        /* \"@openzeppelin/contracts-upgradeable/security/PausableUpgradeable.sol\":2209:2315  function _requirePaused() internal view virtual {... */\n    tag_336:\n        /* \"@openzeppelin/contracts-upgradeable/security/PausableUpgradeable.sol\":2275:2283  paused() */\n      tag_445\n        /* \"@openzeppelin/contracts-upgradeable/security/PausableUpgradeable.sol\":2275:2281  paused */\n      tag_92\n        /* \"@openzeppelin/contracts-upgradeable/security/PausableUpgradeable.sol\":2275:2283  paused() */\n      jump\t// in\n    tag_445:\n        /* \"@openzeppelin/contracts-upgradeable/security/PausableUpgradeable.sol\":2267:2308  require(paused(), \"Pausable: not paused\") */\n      tag_446\n      jumpi\n      mload(0x40)\n      0x08c379a000000000000000000000000000000000000000000000000000000000\n      dup2\n      mstore\n      0x04\n      add\n      tag_447\n      swap1\n      tag_448\n      jump\t// in\n    tag_447:\n      mload(0x40)\n      dup1\n      swap2\n      sub\n      swap1\n      revert\n    tag_446:\n        /* \"@openzeppelin/contracts-upgradeable/security/PausableUpgradeable.sol\":2209:2315  function _requirePaused() internal view virtual {... */\n      jump\t// out\n        /* \"@openzeppelin/contracts/proxy/ERC1967/ERC1967Utils.sol\":1441:1579  function getImplementation() internal view returns (address) {... */\n    tag_343:\n        /* \"@openzeppelin/contracts/proxy/ERC1967/ERC1967Utils.sol\":1493:1500  address */\n      0x00\n        /* \"@openzeppelin/contracts/proxy/ERC1967/ERC1967Utils.sol\":1519:1566  StorageSlot.getAddressSlot(IMPLEMENTATION_SLOT) */\n      tag_450\n        /* \"@openzeppelin/contracts/proxy/ERC1967/ERC1967Utils.sol\":811:877  0x360894a13ba1a3210667c828492db98dca3e2076cc3735a920a3ca505d382bbc */\n      0x360894a13ba1a3210667c828492db98dca3e2076cc3735a920a3ca505d382bbc\n        /* \"@openzeppelin/contracts/proxy/ERC1967/ERC1967Utils.sol\":1546:1565  IMPLEMENTATION_SLOT */\n      0x00\n      shl\n        /* \"@openzeppelin/contracts/proxy/ERC1967/ERC1967Utils.sol\":1519:1545  StorageSlot.getAddressSlot */\n      tag_451\n        /* \"@openzeppelin/contracts/proxy/ERC1967/ERC1967Utils.sol\":1519:1566  StorageSlot.getAddressSlot(IMPLEMENTATION_SLOT) */\n      jump\t// in\n    tag_450:\n        /* \"@openzeppelin/contracts/proxy/ERC1967/ERC1967Utils.sol\":1519:1572  StorageSlot.getAddressSlot(IMPLEMENTATION_SLOT).value */\n      0x00\n      add\n      0x00\n      swap1\n      sload\n      swap1\n      0x0100\n      exp\n      swap1\n      div\n      0xffffffffffffffffffffffffffffffffffffffff\n      and\n        /* \"@openzeppelin/contracts/proxy/ERC1967/ERC1967Utils.sol\":1512:1572  return StorageSlot.getAddressSlot(IMPLEMENTATION_SLOT).value */\n      swap1\n      pop\n        /* \"@openzeppelin/contracts/proxy/ERC1967/ERC1967Utils.sol\":1441:1579  function getImplementation() internal view returns (address) {... */\n      swap1\n      jump\t// out\n        /* \"@openzeppelin/contracts/proxy/ERC1967/ERC1967Utils.sol\":2264:2608  function upgradeToAndCall(address newImplementation, bytes memory data) internal {... */\n    tag_360:\n        /* \"@openzeppelin/contracts/proxy/ERC1967/ERC1967Utils.sol\":2355:2392  _setImplementation(newImplementation) */\n      tag_453\n        /* \"@openzeppelin/contracts/proxy/ERC1967/ERC1967Utils.sol\":2374:2391  newImplementation */\n      dup3\n        /* \"@openzeppelin/contracts/proxy/ERC1967/ERC1967Utils.sol\":2355:2373  _setImplementation */\n      tag_454\n        /* \"@openzeppelin/contracts/proxy/ERC1967/ERC1967Utils.sol\":2355:2392  _setImplementation(newImplementation) */\n      jump\t// in\n    tag_453:\n        /* \"@openzeppelin/contracts/proxy/ERC1967/ERC1967Utils.sol\":2425:2442  newImplementation */\n      dup2\n        /* \"@openzeppelin/contracts/proxy/ERC1967/ERC1967Utils.sol\":2407:2443  IERC1967.Upgraded(newImplementation) */\n      0xffffffffffffffffffffffffffffffffffffffff\n      and\n      0xbc7cd75a20ee27fd9adebab32041f755214dbc6bffa90cc0225b39da2e5c2d3b\n      mload(0x40)\n      mload(0x40)\n      dup1\n      swap2\n      sub\n      swap1\n      log2\n        /* \"@openzeppelin/contracts/proxy/ERC1967/ERC1967Utils.sol\":2472:2473  0 */\n      0x00\n        /* \"@openzeppelin/contracts/proxy/ERC1967/ERC1967Utils.sol\":2458:2462  data */\n      dup2\n        /* \"@openzeppelin/contracts/proxy/ERC1967/ERC1967Utils.sol\":2458:2469  data.length */\n      mload\n        /* \"@openzeppelin/contracts/proxy/ERC1967/ERC1967Utils.sol\":2458:2473  data.length > 0 */\n      gt\n        /* \"@openzeppelin/contracts/proxy/ERC1967/ERC1967Utils.sol\":2454:2602  if (data.length > 0) {... */\n      iszero\n      tag_455\n      jumpi\n        /* \"@openzeppelin/contracts/proxy/ERC1967/ERC1967Utils.sol\":2489:2542  Address.functionDelegateCall(newImplementation, data) */\n      tag_456\n        /* \"@openzeppelin/contracts/proxy/ERC1967/ERC1967Utils.sol\":2518:2535  newImplementation */\n      dup3\n        /* \"@openzeppelin/contracts/proxy/ERC1967/ERC1967Utils.sol\":2537:2541  data */\n      dup3\n        /* \"@openzeppelin/contracts/proxy/ERC1967/ERC1967Utils.sol\":2489:2517  Address.functionDelegateCall */\n      tag_457\n        /* \"@openzeppelin/contracts/proxy/ERC1967/ERC1967Utils.sol\":2489:2542  Address.functionDelegateCall(newImplementation, data) */\n      jump\t// in\n    tag_456:\n      pop\n        /* \"@openzeppelin/contracts/proxy/ERC1967/ERC1967Utils.sol\":2454:2602  if (data.length > 0) {... */\n      jump(tag_458)\n    tag_455:\n        /* \"@openzeppelin/contracts/proxy/ERC1967/ERC1967Utils.sol\":2573:2591  _checkNonPayable() */\n      tag_459\n        /* \"@openzeppelin/contracts/proxy/ERC1967/ERC1967Utils.sol\":2573:2589  _checkNonPayable */\n      tag_460\n        /* \"@openzeppelin/contracts/proxy/ERC1967/ERC1967Utils.sol\":2573:2591  _checkNonPayable() */\n      jump\t// in\n    tag_459:\n        /* \"@openzeppelin/contracts/proxy/ERC1967/ERC1967Utils.sol\":2454:2602  if (data.length > 0) {... */\n    tag_458:\n        /* \"@openzeppelin/contracts/proxy/ERC1967/ERC1967Utils.sol\":2264:2608  function upgradeToAndCall(address newImplementation, bytes memory data) internal {... */\n      pop\n      pop\n      jump\t// out\n        /* \"@openzeppelin/contracts-upgradeable/token/ERC20/ERC20Upgradeable.sol\":9259:9465  function _burn(address account, uint256 value) internal {... */\n    tag_381:\n        /* \"@openzeppelin/contracts-upgradeable/token/ERC20/ERC20Upgradeable.sol\":9348:9349  0 */\n      0x00\n        /* \"@openzeppelin/contracts-upgradeable/token/ERC20/ERC20Upgradeable.sol\":9329:9350  account == address(0) */\n      0xffffffffffffffffffffffffffffffffffffffff\n      and\n        /* \"@openzeppelin/contracts-upgradeable/token/ERC20/ERC20Upgradeable.sol\":9329:9336  account */\n      dup3\n        /* \"@openzeppelin/contracts-upgradeable/token/ERC20/ERC20Upgradeable.sol\":9329:9350  account == address(0) */\n      0xffffffffffffffffffffffffffffffffffffffff\n      and\n      sub\n        /* \"@openzeppelin/contracts-upgradeable/token/ERC20/ERC20Upgradeable.sol\":9325:9414  if (account == address(0)) {... */\n      tag_462\n      jumpi\n        /* \"@openzeppelin/contracts-upgradeable/token/ERC20/ERC20Upgradeable.sol\":9400:9401  0 */\n      0x00\n        /* \"@openzeppelin/contracts-upgradeable/token/ERC20/ERC20Upgradeable.sol\":9373:9403  ERC20InvalidSender(address(0)) */\n      mload(0x40)\n      0x96c6fd1e00000000000000000000000000000000000000000000000000000000\n      dup2\n      mstore\n      0x04\n      add\n      tag_463\n      swap2\n      swap1\n      tag_114\n      jump\t// in\n    tag_463:\n      mload(0x40)\n      dup1\n      swap2\n      sub\n      swap1\n      revert\n        /* \"@openzeppelin/contracts-upgradeable/token/ERC20/ERC20Upgradeable.sol\":9325:9414  if (account == address(0)) {... */\n    tag_462:\n        /* \"@openzeppelin/contracts-upgradeable/token/ERC20/ERC20Upgradeable.sol\":9423:9458  _update(account, address(0), value) */\n      tag_464\n        /* \"@openzeppelin/contracts-upgradeable/token/ERC20/ERC20Upgradeable.sol\":9431:9438  account */\n      dup3\n        /* \"@openzeppelin/contracts-upgradeable/token/ERC20/ERC20Upgradeable.sol\":9448:9449  0 */\n      0x00\n        /* \"@openzeppelin/contracts-upgradeable/token/ERC20/ERC20Upgradeable.sol\":9452:9457  value */\n      dup4\n        /* \"@openzeppelin/contracts-upgradeable/token/ERC20/ERC20Upgradeable.sol\":9423:9430  _update */\n      tag_333\n        /* \"@openzeppelin/contracts-upgradeable/token/ERC20/ERC20Upgradeable.sol\":9423:9458  _update(account, address(0), value) */\n      jump\t// in\n    tag_464:\n        /* \"@openzeppelin/contracts-upgradeable/token/ERC20/ERC20Upgradeable.sol\":9259:9465  function _burn(address account, uint256 value) internal {... */\n      pop\n      pop\n      jump\t// out\n        /* \"contracts/SocialToken.sol\":6046:6745  function _calculatePenalty(... */\n    tag_387:\n        /* \"contracts/SocialToken.sol\":6194:6201  uint256 */\n      0x00\n        /* \"contracts/SocialToken.sol\":6213:6234  uint256 sentimentDiff */\n      dup1\n        /* \"contracts/SocialToken.sol\":6267:6281  sentimentScore */\n      dup5\n        /* \"contracts/SocialToken.sol\":6237:6246  mechanics */\n      0x33\n        /* \"contracts/SocialToken.sol\":6237:6264  mechanics.minSentimentScore */\n      0x00\n      add\n      sload\n        /* \"contracts/SocialToken.sol\":6237:6281  mechanics.minSentimentScore > sentimentScore */\n      gt\n        /* \"contracts/SocialToken.sol\":6237:6348  mechanics.minSentimentScore > sentimentScore ? ... */\n      tag_466\n      jumpi\n        /* \"contracts/SocialToken.sol\":6347:6348  0 */\n      0x00\n        /* \"contracts/SocialToken.sol\":6237:6348  mechanics.minSentimentScore > sentimentScore ? ... */\n      jump(tag_467)\n    tag_466:\n        /* \"contracts/SocialToken.sol\":6297:6344  mechanics.minSentimentScore.sub(sentimentScore) */\n      tag_468\n        /* \"contracts/SocialToken.sol\":6329:6343  sentimentScore */\n      dup6\n        /* \"contracts/SocialToken.sol\":6297:6306  mechanics */\n      0x33\n        /* \"contracts/SocialToken.sol\":6297:6324  mechanics.minSentimentScore */\n      0x00\n      add\n      sload\n        /* \"contracts/SocialToken.sol\":6297:6328  mechanics.minSentimentScore.sub */\n      tag_417\n      swap1\n        /* \"contracts/SocialToken.sol\":6297:6344  mechanics.minSentimentScore.sub(sentimentScore) */\n      swap2\n      swap1\n      0xffffffff\n      and\n      jump\t// in\n    tag_468:\n        /* \"contracts/SocialToken.sol\":6237:6348  mechanics.minSentimentScore > sentimentScore ? ... */\n    tag_467:\n        /* \"contracts/SocialToken.sol\":6213:6348  uint256 sentimentDiff = mechanics.minSentimentScore > sentimentScore ? ... */\n      swap1\n      pop\n        /* \"contracts/SocialToken.sol\":6358:6380  uint256 engagementDiff */\n      0x00\n        /* \"contracts/SocialToken.sol\":6413:6427  engagementRate */\n      dup5\n        /* \"contracts/SocialToken.sol\":6383:6392  mechanics */\n      0x33\n        /* \"contracts/SocialToken.sol\":6383:6410  mechanics.minEngagementRate */\n      0x01\n      add\n      sload\n        /* \"contracts/SocialToken.sol\":6383:6427  mechanics.minEngagementRate > engagementRate */\n      gt\n        /* \"contracts/SocialToken.sol\":6383:6494  mechanics.minEngagementRate > engagementRate ? ... */\n      tag_469\n      jumpi\n        /* \"contracts/SocialToken.sol\":6493:6494  0 */\n      0x00\n        /* \"contracts/SocialToken.sol\":6383:6494  mechanics.minEngagementRate > engagementRate ? ... */\n      jump(tag_470)\n    tag_469:\n        /* \"contracts/SocialToken.sol\":6443:6490  mechanics.minEngagementRate.sub(engagementRate) */\n      tag_471\n        /* \"contracts/SocialToken.sol\":6475:6489  engagementRate */\n      dup6\n        /* \"contracts/SocialToken.sol\":6443:6452  mechanics */\n      0x33\n        /* \"contracts/SocialToken.sol\":6443:6470  mechanics.minEngagementRate */\n      0x01\n      add\n      sload\n        /* \"contracts/SocialToken.sol\":6443:6474  mechanics.minEngagementRate.sub */\n      tag_417\n      swap1\n        /* \"contracts/SocialToken.sol\":6443:6490  mechanics.minEngagementRate.sub(engagementRate) */\n      swap2\n      swap1\n      0xffffffff\n      and\n      jump\t// in\n    tag_471:\n        /* \"contracts/SocialToken.sol\":6383:6494  mechanics.minEngagementRate > engagementRate ? ... */\n    tag_470:\n        /* \"contracts/SocialToken.sol\":6358:6494  uint256 engagementDiff = mechanics.minEngagementRate > engagementRate ? ... */\n      swap1\n      pop\n        /* \"contracts/SocialToken.sol\":6520:6711  mechanics.penaltyBaseAmount... */\n      tag_472\n        /* \"contracts/SocialToken.sol\":6707:6710  100 */\n      0x64\n        /* \"contracts/SocialToken.sol\":6520:6665  mechanics.penaltyBaseAmount... */\n      tag_473\n        /* \"contracts/SocialToken.sol\":6659:6664  10000 */\n      0x2710\n        /* \"contracts/SocialToken.sol\":6520:6641  mechanics.penaltyBaseAmount... */\n      tag_474\n        /* \"contracts/SocialToken.sol\":6630:6640  baseAmount */\n      dup9\n        /* \"contracts/SocialToken.sol\":6520:6612  mechanics.penaltyBaseAmount... */\n      tag_475\n        /* \"contracts/SocialToken.sol\":6597:6611  engagementDiff */\n      dup8\n        /* \"contracts/SocialToken.sol\":6520:6579  mechanics.penaltyBaseAmount... */\n      tag_476\n        /* \"contracts/SocialToken.sol\":6565:6578  sentimentDiff */\n      dup11\n        /* \"contracts/SocialToken.sol\":6520:6529  mechanics */\n      0x33\n        /* \"contracts/SocialToken.sol\":6520:6547  mechanics.penaltyBaseAmount */\n      0x04\n      add\n      sload\n        /* \"contracts/SocialToken.sol\":6520:6564  mechanics.penaltyBaseAmount... */\n      tag_424\n      swap1\n        /* \"contracts/SocialToken.sol\":6520:6579  mechanics.penaltyBaseAmount... */\n      swap2\n      swap1\n      0xffffffff\n      and\n      jump\t// in\n    tag_476:\n        /* \"contracts/SocialToken.sol\":6520:6596  mechanics.penaltyBaseAmount... */\n      tag_424\n      swap1\n        /* \"contracts/SocialToken.sol\":6520:6612  mechanics.penaltyBaseAmount... */\n      swap2\n      swap1\n      0xffffffff\n      and\n      jump\t// in\n    tag_475:\n        /* \"contracts/SocialToken.sol\":6520:6629  mechanics.penaltyBaseAmount... */\n      tag_424\n      swap1\n        /* \"contracts/SocialToken.sol\":6520:6641  mechanics.penaltyBaseAmount... */\n      swap2\n      swap1\n      0xffffffff\n      and\n      jump\t// in\n    tag_474:\n        /* \"contracts/SocialToken.sol\":6520:6658  mechanics.penaltyBaseAmount... */\n      tag_425\n      swap1\n        /* \"contracts/SocialToken.sol\":6520:6665  mechanics.penaltyBaseAmount... */\n      swap2\n      swap1\n      0xffffffff\n      and\n      jump\t// in\n    tag_473:\n        /* \"contracts/SocialToken.sol\":6520:6706  mechanics.penaltyBaseAmount... */\n      tag_425\n      swap1\n        /* \"contracts/SocialToken.sol\":6520:6711  mechanics.penaltyBaseAmount... */\n      swap2\n      swap1\n      0xffffffff\n      and\n      jump\t// in\n    tag_472:\n        /* \"contracts/SocialToken.sol\":6513:6711  return mechanics.penaltyBaseAmount... */\n      swap3\n      pop\n      pop\n      pop\n        /* \"contracts/SocialToken.sol\":6046:6745  function _calculatePenalty(... */\n      swap4\n      swap3\n      pop\n      pop\n      pop\n      jump\t// out\n        /* \"@openzeppelin/contracts-upgradeable/proxy/utils/Initializable.sol\":7084:7225  function _checkInitializing() internal view virtual {... */\n    tag_394:\n        /* \"@openzeppelin/contracts-upgradeable/proxy/utils/Initializable.sol\":7151:7168  _isInitializing() */\n      tag_478\n        /* \"@openzeppelin/contracts-upgradeable/proxy/utils/Initializable.sol\":7151:7166  _isInitializing */\n      tag_479\n        /* \"@openzeppelin/contracts-upgradeable/proxy/utils/Initializable.sol\":7151:7168  _isInitializing() */\n      jump\t// in\n    tag_478:\n        /* \"@openzeppelin/contracts-upgradeable/proxy/utils/Initializable.sol\":7146:7219  if (!_isInitializing()) {... */\n      tag_480\n      jumpi\n        /* \"@openzeppelin/contracts-upgradeable/proxy/utils/Initializable.sol\":7191:7208  NotInitializing() */\n      mload(0x40)\n      0xd7e6bcf800000000000000000000000000000000000000000000000000000000\n      dup2\n      mstore\n      0x04\n      add\n      mload(0x40)\n      dup1\n      swap2\n      sub\n      swap1\n      revert\n        /* \"@openzeppelin/contracts-upgradeable/proxy/utils/Initializable.sol\":7146:7219  if (!_isInitializing()) {... */\n    tag_480:\n        /* \"@openzeppelin/contracts-upgradeable/proxy/utils/Initializable.sol\":7084:7225  function _checkInitializing() internal view virtual {... */\n      jump\t// out\n        /* \"@openzeppelin/contracts-upgradeable/token/ERC20/ERC20Upgradeable.sol\":2435:2651  function __ERC20_init_unchained(string memory name_, string memory symbol_) internal onlyInitializing {... */\n    tag_397:\n        /* \"@openzeppelin/contracts-upgradeable/proxy/utils/Initializable.sol\":6931:6951  _checkInitializing() */\n      tag_482\n        /* \"@openzeppelin/contracts-upgradeable/proxy/utils/Initializable.sol\":6931:6949  _checkInitializing */\n      tag_394\n        /* \"@openzeppelin/contracts-upgradeable/proxy/utils/Initializable.sol\":6931:6951  _checkInitializing() */\n      jump\t// in\n    tag_482:\n        /* \"@openzeppelin/contracts-upgradeable/token/ERC20/ERC20Upgradeable.sol\":2547:2569  ERC20Storage storage $ */\n      0x00\n        /* \"@openzeppelin/contracts-upgradeable/token/ERC20/ERC20Upgradeable.sol\":2572:2590  _getERC20Storage() */\n      tag_484\n        /* \"@openzeppelin/contracts-upgradeable/token/ERC20/ERC20Upgradeable.sol\":2572:2588  _getERC20Storage */\n      tag_160\n        /* \"@openzeppelin/contracts-upgradeable/token/ERC20/ERC20Upgradeable.sol\":2572:2590  _getERC20Storage() */\n      jump\t// in\n    tag_484:\n        /* \"@openzeppelin/contracts-upgradeable/token/ERC20/ERC20Upgradeable.sol\":2547:2590  ERC20Storage storage $ = _getERC20Storage() */\n      swap1\n      pop\n        /* \"@openzeppelin/contracts-upgradeable/token/ERC20/ERC20Upgradeable.sol\":2610:2615  name_ */\n      dup3\n        /* \"@openzeppelin/contracts-upgradeable/token/ERC20/ERC20Upgradeable.sol\":2600:2601  $ */\n      dup2\n        /* \"@openzeppelin/contracts-upgradeable/token/ERC20/ERC20Upgradeable.sol\":2600:2607  $._name */\n      0x03\n      add\n        /* \"@openzeppelin/contracts-upgradeable/token/ERC20/ERC20Upgradeable.sol\":2600:2615  $._name = name_ */\n      swap1\n      dup2\n      tag_485\n      swap2\n      swap1\n      tag_486\n      jump\t// in\n    tag_485:\n      pop\n        /* \"@openzeppelin/contracts-upgradeable/token/ERC20/ERC20Upgradeable.sol\":2637:2644  symbol_ */\n      dup2\n        /* \"@openzeppelin/contracts-upgradeable/token/ERC20/ERC20Upgradeable.sol\":2625:2626  $ */\n      dup2\n        /* \"@openzeppelin/contracts-upgradeable/token/ERC20/ERC20Upgradeable.sol\":2625:2634  $._symbol */\n      0x04\n      add\n        /* \"@openzeppelin/contracts-upgradeable/token/ERC20/ERC20Upgradeable.sol\":2625:2644  $._symbol = symbol_ */\n      swap1\n      dup2\n      tag_487\n      swap2\n      swap1\n      tag_486\n      jump\t// in\n    tag_487:\n      pop\n        /* \"@openzeppelin/contracts-upgradeable/token/ERC20/ERC20Upgradeable.sol\":2537:2651  {... */\n      pop\n        /* \"@openzeppelin/contracts-upgradeable/token/ERC20/ERC20Upgradeable.sol\":2435:2651  function __ERC20_init_unchained(string memory name_, string memory symbol_) internal onlyInitializing {... */\n      pop\n      pop\n      jump\t// out\n        /* \"@openzeppelin/contracts-upgradeable/access/OwnableUpgradeable.sol\":1980:2215  function __Ownable_init_unchained(address initialOwner) internal onlyInitializing {... */\n    tag_402:\n        /* \"@openzeppelin/contracts-upgradeable/proxy/utils/Initializable.sol\":6931:6951  _checkInitializing() */\n      tag_489\n        /* \"@openzeppelin/contracts-upgradeable/proxy/utils/Initializable.sol\":6931:6949  _checkInitializing */\n      tag_394\n        /* \"@openzeppelin/contracts-upgradeable/proxy/utils/Initializable.sol\":6931:6951  _checkInitializing() */\n      jump\t// in\n    tag_489:\n        /* \"@openzeppelin/contracts-upgradeable/access/OwnableUpgradeable.sol\":2100:2101  0 */\n      0x00\n        /* \"@openzeppelin/contracts-upgradeable/access/OwnableUpgradeable.sol\":2076:2102  initialOwner == address(0) */\n      0xffffffffffffffffffffffffffffffffffffffff\n      and\n        /* \"@openzeppelin/contracts-upgradeable/access/OwnableUpgradeable.sol\":2076:2088  initialOwner */\n      dup2\n        /* \"@openzeppelin/contracts-upgradeable/access/OwnableUpgradeable.sol\":2076:2102  initialOwner == address(0) */\n      0xffffffffffffffffffffffffffffffffffffffff\n      and\n      sub\n        /* \"@openzeppelin/contracts-upgradeable/access/OwnableUpgradeable.sol\":2072:2167  if (initialOwner == address(0)) {... */\n      tag_491\n      jumpi\n        /* \"@openzeppelin/contracts-upgradeable/access/OwnableUpgradeable.sol\":2153:2154  0 */\n      0x00\n        /* \"@openzeppelin/contracts-upgradeable/access/OwnableUpgradeable.sol\":2125:2156  OwnableInvalidOwner(address(0)) */\n      mload(0x40)\n      0x1e4fbdf700000000000000000000000000000000000000000000000000000000\n      dup2\n      mstore\n      0x04\n      add\n      tag_492\n      swap2\n      swap1\n      tag_114\n      jump\t// in\n    tag_492:\n      mload(0x40)\n      dup1\n      swap2\n      sub\n      swap1\n      revert\n        /* \"@openzeppelin/contracts-upgradeable/access/OwnableUpgradeable.sol\":2072:2167  if (initialOwner == address(0)) {... */\n    tag_491:\n        /* \"@openzeppelin/contracts-upgradeable/access/OwnableUpgradeable.sol\":2176:2208  _transferOwnership(initialOwner) */\n      tag_493\n        /* \"@openzeppelin/contracts-upgradeable/access/OwnableUpgradeable.sol\":2195:2207  initialOwner */\n      dup2\n        /* \"@openzeppelin/contracts-upgradeable/access/OwnableUpgradeable.sol\":2176:2194  _transferOwnership */\n      tag_215\n        /* \"@openzeppelin/contracts-upgradeable/access/OwnableUpgradeable.sol\":2176:2208  _transferOwnership(initialOwner) */\n      jump\t// in\n    tag_493:\n        /* \"@openzeppelin/contracts-upgradeable/access/OwnableUpgradeable.sol\":1980:2215  function __Ownable_init_unchained(address initialOwner) internal onlyInitializing {... */\n      pop\n      jump\t// out\n        /* \"@openzeppelin/contracts-upgradeable/security/PausableUpgradeable.sol\":1187:1282  function __Pausable_init_unchained() internal onlyInitializing {... */\n    tag_407:\n        /* \"@openzeppelin/contracts-upgradeable/proxy/utils/Initializable.sol\":6931:6951  _checkInitializing() */\n      tag_495\n        /* \"@openzeppelin/contracts-upgradeable/proxy/utils/Initializable.sol\":6931:6949  _checkInitializing */\n      tag_394\n        /* \"@openzeppelin/contracts-upgradeable/proxy/utils/Initializable.sol\":6931:6951  _checkInitializing() */\n      jump\t// in\n    tag_495:\n        /* \"@openzeppelin/contracts-upgradeable/security/PausableUpgradeable.sol\":1270:1275  false */\n      0x00\n        /* \"@openzeppelin/contracts-upgradeable/security/PausableUpgradeable.sol\":1260:1267  _paused */\n      dup1\n      0x00\n        /* \"@openzeppelin/contracts-upgradeable/security/PausableUpgradeable.sol\":1260:1275  _paused = false */\n      0x0100\n      exp\n      dup2\n      sload\n      dup2\n      0xff\n      mul\n      not\n      and\n      swap1\n      dup4\n      iszero\n      iszero\n      mul\n      or\n      swap1\n      sstore\n      pop\n        /* \"@openzeppelin/contracts-upgradeable/security/PausableUpgradeable.sol\":1187:1282  function __Pausable_init_unchained() internal onlyInitializing {... */\n      jump\t// out\n        /* \"@openzeppelin/contracts/utils/math/SafeMath.sol\":3122:3218  function sub(uint256 a, uint256 b) internal pure returns (uint256) {... */\n    tag_417:\n        /* \"@openzeppelin/contracts/utils/math/SafeMath.sol\":3180:3187  uint256 */\n      0x00\n        /* \"@openzeppelin/contracts/utils/math/SafeMath.sol\":3210:3211  b */\n      dup2\n        /* \"@openzeppelin/contracts/utils/math/SafeMath.sol\":3206:3207  a */\n      dup4\n        /* \"@openzeppelin/contracts/utils/math/SafeMath.sol\":3206:3211  a - b */\n      tag_498\n      swap2\n      swap1\n      tag_243\n      jump\t// in\n    tag_498:\n        /* \"@openzeppelin/contracts/utils/math/SafeMath.sol\":3199:3211  return a - b */\n      swap1\n      pop\n        /* \"@openzeppelin/contracts/utils/math/SafeMath.sol\":3122:3218  function sub(uint256 a, uint256 b) internal pure returns (uint256) {... */\n      swap3\n      swap2\n      pop\n      pop\n      jump\t// out\n        /* \"@openzeppelin/contracts/utils/math/SafeMath.sol\":3465:3561  function mul(uint256 a, uint256 b) internal pure returns (uint256) {... */\n    tag_424:\n        /* \"@openzeppelin/contracts/utils/math/SafeMath.sol\":3523:3530  uint256 */\n      0x00\n        /* \"@openzeppelin/contracts/utils/math/SafeMath.sol\":3553:3554  b */\n      dup2\n        /* \"@openzeppelin/contracts/utils/math/SafeMath.sol\":3549:3550  a */\n      dup4\n        /* \"@openzeppelin/contracts/utils/math/SafeMath.sol\":3549:3554  a * b */\n      tag_500\n      swap2\n      swap1\n      tag_283\n      jump\t// in\n    tag_500:\n        /* \"@openzeppelin/contracts/utils/math/SafeMath.sol\":3542:3554  return a * b */\n      swap1\n      pop\n        /* \"@openzeppelin/contracts/utils/math/SafeMath.sol\":3465:3561  function mul(uint256 a, uint256 b) internal pure returns (uint256) {... */\n      swap3\n      swap2\n      pop\n      pop\n      jump\t// out\n        /* \"@openzeppelin/contracts/utils/math/SafeMath.sol\":3850:3946  function div(uint256 a, uint256 b) internal pure returns (uint256) {... */\n    tag_425:\n        /* \"@openzeppelin/contracts/utils/math/SafeMath.sol\":3908:3915  uint256 */\n      0x00\n        /* \"@openzeppelin/contracts/utils/math/SafeMath.sol\":3938:3939  b */\n      dup2\n        /* \"@openzeppelin/contracts/utils/math/SafeMath.sol\":3934:3935  a */\n      dup4\n        /* \"@openzeppelin/contracts/utils/math/SafeMath.sol\":3934:3939  a / b */\n      tag_502\n      swap2\n      swap1\n      tag_503\n      jump\t// in\n    tag_502:\n        /* \"@openzeppelin/contracts/utils/math/SafeMath.sol\":3927:3939  return a / b */\n      swap1\n      pop\n        /* \"@openzeppelin/contracts/utils/math/SafeMath.sol\":3850:3946  function div(uint256 a, uint256 b) internal pure returns (uint256) {... */\n      swap3\n      swap2\n      pop\n      pop\n      jump\t// out\n        /* \"@openzeppelin/contracts/utils/StorageSlot.sol\":1899:2062  function getAddressSlot(bytes32 slot) internal pure returns (AddressSlot storage r) {... */\n    tag_451:\n        /* \"@openzeppelin/contracts/utils/StorageSlot.sol\":1960:1981  AddressSlot storage r */\n      0x00\n        /* \"@openzeppelin/contracts/utils/StorageSlot.sol\":2042:2046  slot */\n      dup2\n        /* \"@openzeppelin/contracts/utils/StorageSlot.sol\":2032:2046  r.slot := slot */\n      swap1\n      pop\n        /* \"@openzeppelin/contracts/utils/StorageSlot.sol\":1899:2062  function getAddressSlot(bytes32 slot) internal pure returns (AddressSlot storage r) {... */\n      swap2\n      swap1\n      pop\n      jump\t// out\n        /* \"@openzeppelin/contracts/proxy/ERC1967/ERC1967Utils.sol\":1671:1952  function _setImplementation(address newImplementation) private {... */\n    tag_454:\n        /* \"@openzeppelin/contracts/proxy/ERC1967/ERC1967Utils.sol\":1781:1782  0 */\n      0x00\n        /* \"@openzeppelin/contracts/proxy/ERC1967/ERC1967Utils.sol\":1748:1765  newImplementation */\n      dup2\n        /* \"@openzeppelin/contracts/proxy/ERC1967/ERC1967Utils.sol\":1748:1777  newImplementation.code.length */\n      0xffffffffffffffffffffffffffffffffffffffff\n      and\n      extcodesize\n        /* \"@openzeppelin/contracts/proxy/ERC1967/ERC1967Utils.sol\":1748:1782  newImplementation.code.length == 0 */\n      sub\n        /* \"@openzeppelin/contracts/proxy/ERC1967/ERC1967Utils.sol\":1744:1863  if (newImplementation.code.length == 0) {... */\n      tag_506\n      jumpi\n        /* \"@openzeppelin/contracts/proxy/ERC1967/ERC1967Utils.sol\":1834:1851  newImplementation */\n      dup1\n        /* \"@openzeppelin/contracts/proxy/ERC1967/ERC1967Utils.sol\":1805:1852  ERC1967InvalidImplementation(newImplementation) */\n      mload(0x40)\n      0x4c9c8ce300000000000000000000000000000000000000000000000000000000\n      dup2\n      mstore\n      0x04\n      add\n      tag_507\n      swap2\n      swap1\n      tag_114\n      jump\t// in\n    tag_507:\n      mload(0x40)\n      dup1\n      swap2\n      sub\n      swap1\n      revert\n        /* \"@openzeppelin/contracts/proxy/ERC1967/ERC1967Utils.sol\":1744:1863  if (newImplementation.code.length == 0) {... */\n    tag_506:\n        /* \"@openzeppelin/contracts/proxy/ERC1967/ERC1967Utils.sol\":1928:1945  newImplementation */\n      dup1\n        /* \"@openzeppelin/contracts/proxy/ERC1967/ERC1967Utils.sol\":1872:1919  StorageSlot.getAddressSlot(IMPLEMENTATION_SLOT) */\n      tag_508\n        /* \"@openzeppelin/contracts/proxy/ERC1967/ERC1967Utils.sol\":811:877  0x360894a13ba1a3210667c828492db98dca3e2076cc3735a920a3ca505d382bbc */\n      0x360894a13ba1a3210667c828492db98dca3e2076cc3735a920a3ca505d382bbc\n        /* \"@openzeppelin/contracts/proxy/ERC1967/ERC1967Utils.sol\":1899:1918  IMPLEMENTATION_SLOT */\n      0x00\n      shl\n        /* \"@openzeppelin/contracts/proxy/ERC1967/ERC1967Utils.sol\":1872:1898  StorageSlot.getAddressSlot */\n      tag_451\n        /* \"@openzeppelin/contracts/proxy/ERC1967/ERC1967Utils.sol\":1872:1919  StorageSlot.getAddressSlot(IMPLEMENTATION_SLOT) */\n      jump\t// in\n    tag_508:\n        /* \"@openzeppelin/contracts/proxy/ERC1967/ERC1967Utils.sol\":1872:1925  StorageSlot.getAddressSlot(IMPLEMENTATION_SLOT).value */\n      0x00\n      add\n      0x00\n        /* \"@openzeppelin/contracts/proxy/ERC1967/ERC1967Utils.sol\":1872:1945  StorageSlot.getAddressSlot(IMPLEMENTATION_SLOT).value = newImplementation */\n      0x0100\n      exp\n      dup2\n      sload\n      dup2\n      0xffffffffffffffffffffffffffffffffffffffff\n      mul\n      not\n      and\n      swap1\n      dup4\n      0xffffffffffffffffffffffffffffffffffffffff\n      and\n      mul\n      or\n      swap1\n      sstore\n      pop\n        /* \"@openzeppelin/contracts/proxy/ERC1967/ERC1967Utils.sol\":1671:1952  function _setImplementation(address newImplementation) private {... */\n      pop\n      jump\t// out\n        /* \"@openzeppelin/contracts/utils/Address.sol\":3900:4153  function functionDelegateCall(address target, bytes memory data) internal returns (bytes memory) {... */\n    tag_457:\n        /* \"@openzeppelin/contracts/utils/Address.sol\":3983:3995  bytes memory */\n      0x60\n        /* \"@openzeppelin/contracts/utils/Address.sol\":4008:4020  bool success */\n      0x00\n        /* \"@openzeppelin/contracts/utils/Address.sol\":4022:4045  bytes memory returndata */\n      dup1\n        /* \"@openzeppelin/contracts/utils/Address.sol\":4049:4055  target */\n      dup5\n        /* \"@openzeppelin/contracts/utils/Address.sol\":4049:4068  target.delegatecall */\n      0xffffffffffffffffffffffffffffffffffffffff\n      and\n        /* \"@openzeppelin/contracts/utils/Address.sol\":4069:4073  data */\n      dup5\n        /* \"@openzeppelin/contracts/utils/Address.sol\":4049:4074  target.delegatecall(data) */\n      mload(0x40)\n      tag_510\n      swap2\n      swap1\n      tag_511\n      jump\t// in\n    tag_510:\n      0x00\n      mload(0x40)\n      dup1\n      dup4\n      sub\n      dup2\n      dup6\n      gas\n      delegatecall\n      swap2\n      pop\n      pop\n      returndatasize\n      dup1\n      0x00\n      dup2\n      eq\n      tag_514\n      jumpi\n      mload(0x40)\n      swap2\n      pop\n      and(add(returndatasize, 0x3f), not(0x1f))\n      dup3\n      add\n      0x40\n      mstore\n      returndatasize\n      dup3\n      mstore\n      returndatasize\n      0x00\n      0x20\n      dup5\n      add\n      returndatacopy\n      jump(tag_513)\n    tag_514:\n      0x60\n      swap2\n      pop\n    tag_513:\n      pop\n        /* \"@openzeppelin/contracts/utils/Address.sol\":4007:4074  (bool success, bytes memory returndata) = target.delegatecall(data) */\n      swap2\n      pop\n      swap2\n      pop\n        /* \"@openzeppelin/contracts/utils/Address.sol\":4091:4146  verifyCallResultFromTarget(target, success, returndata) */\n      tag_515\n        /* \"@openzeppelin/contracts/utils/Address.sol\":4118:4124  target */\n      dup6\n        /* \"@openzeppelin/contracts/utils/Address.sol\":4126:4133  success */\n      dup4\n        /* \"@openzeppelin/contracts/utils/Address.sol\":4135:4145  returndata */\n      dup4\n        /* \"@openzeppelin/contracts/utils/Address.sol\":4091:4117  verifyCallResultFromTarget */\n      tag_516\n        /* \"@openzeppelin/contracts/utils/Address.sol\":4091:4146  verifyCallResultFromTarget(target, success, returndata) */\n      jump\t// in\n    tag_515:\n        /* \"@openzeppelin/contracts/utils/Address.sol\":4084:4146  return verifyCallResultFromTarget(target, success, returndata) */\n      swap3\n      pop\n      pop\n      pop\n        /* \"@openzeppelin/contracts/utils/Address.sol\":3900:4153  function functionDelegateCall(address target, bytes memory data) internal returns (bytes memory) {... */\n      swap3\n      swap2\n      pop\n      pop\n      jump\t// out\n        /* \"@openzeppelin/contracts/proxy/ERC1967/ERC1967Utils.sol\":6113:6235  function _checkNonPayable() private {... */\n    tag_460:\n        /* \"@openzeppelin/contracts/proxy/ERC1967/ERC1967Utils.sol\":6175:6176  0 */\n      0x00\n        /* \"@openzeppelin/contracts/proxy/ERC1967/ERC1967Utils.sol\":6163:6172  msg.value */\n      callvalue\n        /* \"@openzeppelin/contracts/proxy/ERC1967/ERC1967Utils.sol\":6163:6176  msg.value > 0 */\n      gt\n        /* \"@openzeppelin/contracts/proxy/ERC1967/ERC1967Utils.sol\":6159:6229  if (msg.value > 0) {... */\n      iszero\n      tag_518\n      jumpi\n        /* \"@openzeppelin/contracts/proxy/ERC1967/ERC1967Utils.sol\":6199:6218  ERC1967NonPayable() */\n      mload(0x40)\n      0xb398979f00000000000000000000000000000000000000000000000000000000\n      dup2\n      mstore\n      0x04\n      add\n      mload(0x40)\n      dup1\n      swap2\n      sub\n      swap1\n      revert\n        /* \"@openzeppelin/contracts/proxy/ERC1967/ERC1967Utils.sol\":6159:6229  if (msg.value > 0) {... */\n    tag_518:\n        /* \"@openzeppelin/contracts/proxy/ERC1967/ERC1967Utils.sol\":6113:6235  function _checkNonPayable() private {... */\n      jump\t// out\n        /* \"@openzeppelin/contracts-upgradeable/proxy/utils/Initializable.sol\":8487:8607  function _isInitializing() internal view returns (bool) {... */\n    tag_479:\n        /* \"@openzeppelin/contracts-upgradeable/proxy/utils/Initializable.sol\":8537:8541  bool */\n      0x00\n        /* \"@openzeppelin/contracts-upgradeable/proxy/utils/Initializable.sol\":8560:8586  _getInitializableStorage() */\n      tag_520\n        /* \"@openzeppelin/contracts-upgradeable/proxy/utils/Initializable.sol\":8560:8584  _getInitializableStorage */\n      tag_262\n        /* \"@openzeppelin/contracts-upgradeable/proxy/utils/Initializable.sol\":8560:8586  _getInitializableStorage() */\n      jump\t// in\n    tag_520:\n        /* \"@openzeppelin/contracts-upgradeable/proxy/utils/Initializable.sol\":8560:8600  _getInitializableStorage()._initializing */\n      0x00\n      add\n      0x08\n      swap1\n      sload\n      swap1\n      0x0100\n      exp\n      swap1\n      div\n      0xff\n      and\n        /* \"@openzeppelin/contracts-upgradeable/proxy/utils/Initializable.sol\":8553:8600  return _getInitializableStorage()._initializing */\n      swap1\n      pop\n        /* \"@openzeppelin/contracts-upgradeable/proxy/utils/Initializable.sol\":8487:8607  function _isInitializing() internal view returns (bool) {... */\n      swap1\n      jump\t// out\n        /* \"@openzeppelin/contracts/utils/Address.sol\":4421:5003  function verifyCallResultFromTarget(... */\n    tag_516:\n        /* \"@openzeppelin/contracts/utils/Address.sol\":4565:4577  bytes memory */\n      0x60\n        /* \"@openzeppelin/contracts/utils/Address.sol\":4594:4601  success */\n      dup3\n        /* \"@openzeppelin/contracts/utils/Address.sol\":4589:4997  if (!success) {... */\n      tag_522\n      jumpi\n        /* \"@openzeppelin/contracts/utils/Address.sol\":4617:4636  _revert(returndata) */\n      tag_523\n        /* \"@openzeppelin/contracts/utils/Address.sol\":4625:4635  returndata */\n      dup3\n        /* \"@openzeppelin/contracts/utils/Address.sol\":4617:4624  _revert */\n      tag_524\n        /* \"@openzeppelin/contracts/utils/Address.sol\":4617:4636  _revert(returndata) */\n      jump\t// in\n    tag_523:\n        /* \"@openzeppelin/contracts/utils/Address.sol\":4589:4997  if (!success) {... */\n      jump(tag_525)\n    tag_522:\n        /* \"@openzeppelin/contracts/utils/Address.sol\":4862:4863  0 */\n      0x00\n        /* \"@openzeppelin/contracts/utils/Address.sol\":4841:4851  returndata */\n      dup3\n        /* \"@openzeppelin/contracts/utils/Address.sol\":4841:4858  returndata.length */\n      mload\n        /* \"@openzeppelin/contracts/utils/Address.sol\":4841:4863  returndata.length == 0 */\n      eq\n        /* \"@openzeppelin/contracts/utils/Address.sol\":4841:4890  returndata.length == 0 && target.code.length == 0 */\n      dup1\n      iszero\n      tag_526\n      jumpi\n      pop\n        /* \"@openzeppelin/contracts/utils/Address.sol\":4889:4890  0 */\n      0x00\n        /* \"@openzeppelin/contracts/utils/Address.sol\":4867:4873  target */\n      dup5\n        /* \"@openzeppelin/contracts/utils/Address.sol\":4867:4885  target.code.length */\n      0xffffffffffffffffffffffffffffffffffffffff\n      and\n      extcodesize\n        /* \"@openzeppelin/contracts/utils/Address.sol\":4867:4890  target.code.length == 0 */\n      eq\n        /* \"@openzeppelin/contracts/utils/Address.sol\":4841:4890  returndata.length == 0 && target.code.length == 0 */\n    tag_526:\n        /* \"@openzeppelin/contracts/utils/Address.sol\":4837:4956  if (returndata.length == 0 && target.code.length == 0) {... */\n      iszero\n      tag_527\n      jumpi\n        /* \"@openzeppelin/contracts/utils/Address.sol\":4934:4940  target */\n      dup4\n        /* \"@openzeppelin/contracts/utils/Address.sol\":4917:4941  AddressEmptyCode(target) */\n      mload(0x40)\n      0x9996b31500000000000000000000000000000000000000000000000000000000\n      dup2\n      mstore\n      0x04\n      add\n      tag_528\n      swap2\n      swap1\n      tag_114\n      jump\t// in\n    tag_528:\n      mload(0x40)\n      dup1\n      swap2\n      sub\n      swap1\n      revert\n        /* \"@openzeppelin/contracts/utils/Address.sol\":4837:4956  if (returndata.length == 0 && target.code.length == 0) {... */\n    tag_527:\n        /* \"@openzeppelin/contracts/utils/Address.sol\":4976:4986  returndata */\n      dup2\n        /* \"@openzeppelin/contracts/utils/Address.sol\":4969:4986  return returndata */\n      swap1\n      pop\n      jump(tag_521)\n        /* \"@openzeppelin/contracts/utils/Address.sol\":4589:4997  if (!success) {... */\n    tag_525:\n        /* \"@openzeppelin/contracts/utils/Address.sol\":4421:5003  function verifyCallResultFromTarget(... */\n    tag_521:\n      swap4\n      swap3\n      pop\n      pop\n      pop\n      jump\t// out\n        /* \"@openzeppelin/contracts/utils/Address.sol\":5543:6030  function _revert(bytes memory returndata) private pure {... */\n    tag_524:\n        /* \"@openzeppelin/contracts/utils/Address.sol\":5694:5695  0 */\n      0x00\n        /* \"@openzeppelin/contracts/utils/Address.sol\":5674:5684  returndata */\n      dup2\n        /* \"@openzeppelin/contracts/utils/Address.sol\":5674:5691  returndata.length */\n      mload\n        /* \"@openzeppelin/contracts/utils/Address.sol\":5674:5695  returndata.length > 0 */\n      gt\n        /* \"@openzeppelin/contracts/utils/Address.sol\":5670:6024  if (returndata.length > 0) {... */\n      iszero\n      tag_530\n      jumpi\n        /* \"@openzeppelin/contracts/utils/Address.sol\":5871:5881  returndata */\n      dup1\n        /* \"@openzeppelin/contracts/utils/Address.sol\":5865:5882  mload(returndata) */\n      mload\n        /* \"@openzeppelin/contracts/utils/Address.sol\":5927:5942  returndata_size */\n      dup1\n        /* \"@openzeppelin/contracts/utils/Address.sol\":5914:5924  returndata */\n      dup3\n        /* \"@openzeppelin/contracts/utils/Address.sol\":5910:5912  32 */\n      0x20\n        /* \"@openzeppelin/contracts/utils/Address.sol\":5906:5925  add(32, returndata) */\n      add\n        /* \"@openzeppelin/contracts/utils/Address.sol\":5899:5943  revert(add(32, returndata), returndata_size) */\n      revert\n        /* \"@openzeppelin/contracts/utils/Address.sol\":5670:6024  if (returndata.length > 0) {... */\n    tag_530:\n        /* \"@openzeppelin/contracts/utils/Address.sol\":5994:6013  Errors.FailedCall() */\n      mload(0x40)\n      0xd6bda27500000000000000000000000000000000000000000000000000000000\n      dup2\n      mstore\n      0x04\n      add\n      mload(0x40)\n      dup1\n      swap2\n      sub\n      swap1\n      revert\n        /* \"#utility.yul\":7:106   */\n    tag_532:\n        /* \"#utility.yul\":59:65   */\n      0x00\n        /* \"#utility.yul\":93:98   */\n      dup2\n        /* \"#utility.yul\":87:99   */\n      mload\n        /* \"#utility.yul\":77:99   */\n      swap1\n      pop\n        /* \"#utility.yul\":7:106   */\n      swap2\n      swap1\n      pop\n      jump\t// out\n        /* \"#utility.yul\":112:281   */\n    tag_533:\n        /* \"#utility.yul\":196:207   */\n      0x00\n        /* \"#utility.yul\":230:236   */\n      dup3\n        /* \"#utility.yul\":225:228   */\n      dup3\n        /* \"#utility.yul\":218:237   */\n      mstore\n        /* \"#utility.yul\":270:274   */\n      0x20\n        /* \"#utility.yul\":265:268   */\n      dup3\n        /* \"#utility.yul\":261:275   */\n      add\n        /* \"#utility.yul\":246:275   */\n      swap1\n      pop\n        /* \"#utility.yul\":112:281   */\n      swap3\n      swap2\n      pop\n      pop\n      jump\t// out\n        /* \"#utility.yul\":287:426   */\n    tag_534:\n        /* \"#utility.yul\":376:382   */\n      dup3\n        /* \"#utility.yul\":371:374   */\n      dup2\n        /* \"#utility.yul\":366:369   */\n      dup4\n        /* \"#utility.yul\":360:383   */\n      mcopy\n        /* \"#utility.yul\":417:418   */\n      0x00\n        /* \"#utility.yul\":408:414   */\n      dup4\n        /* \"#utility.yul\":403:406   */\n      dup4\n        /* \"#utility.yul\":399:415   */\n      add\n        /* \"#utility.yul\":392:419   */\n      mstore\n        /* \"#utility.yul\":287:426   */\n      pop\n      pop\n      pop\n      jump\t// out\n        /* \"#utility.yul\":432:534   */\n    tag_535:\n        /* \"#utility.yul\":473:479   */\n      0x00\n        /* \"#utility.yul\":524:526   */\n      0x1f\n        /* \"#utility.yul\":520:527   */\n      not\n        /* \"#utility.yul\":515:517   */\n      0x1f\n        /* \"#utility.yul\":508:513   */\n      dup4\n        /* \"#utility.yul\":504:518   */\n      add\n        /* \"#utility.yul\":500:528   */\n      and\n        /* \"#utility.yul\":490:528   */\n      swap1\n      pop\n        /* \"#utility.yul\":432:534   */\n      swap2\n      swap1\n      pop\n      jump\t// out\n        /* \"#utility.yul\":540:917   */\n    tag_536:\n        /* \"#utility.yul\":628:631   */\n      0x00\n        /* \"#utility.yul\":656:695   */\n      tag_618\n        /* \"#utility.yul\":689:694   */\n      dup3\n        /* \"#utility.yul\":656:695   */\n      tag_532\n      jump\t// in\n    tag_618:\n        /* \"#utility.yul\":711:782   */\n      tag_619\n        /* \"#utility.yul\":775:781   */\n      dup2\n        /* \"#utility.yul\":770:773   */\n      dup6\n        /* \"#utility.yul\":711:782   */\n      tag_533\n      jump\t// in\n    tag_619:\n        /* \"#utility.yul\":704:782   */\n      swap4\n      pop\n        /* \"#utility.yul\":791:856   */\n      tag_620\n        /* \"#utility.yul\":849:855   */\n      dup2\n        /* \"#utility.yul\":844:847   */\n      dup6\n        /* \"#utility.yul\":837:841   */\n      0x20\n        /* \"#utility.yul\":830:835   */\n      dup7\n        /* \"#utility.yul\":826:842   */\n      add\n        /* \"#utility.yul\":791:856   */\n      tag_534\n      jump\t// in\n    tag_620:\n        /* \"#utility.yul\":881:910   */\n      tag_621\n        /* \"#utility.yul\":903:909   */\n      dup2\n        /* \"#utility.yul\":881:910   */\n      tag_535\n      jump\t// in\n    tag_621:\n        /* \"#utility.yul\":876:879   */\n      dup5\n        /* \"#utility.yul\":872:911   */\n      add\n        /* \"#utility.yul\":865:911   */\n      swap2\n      pop\n        /* \"#utility.yul\":632:917   */\n      pop\n        /* \"#utility.yul\":540:917   */\n      swap3\n      swap2\n      pop\n      pop\n      jump\t// out\n        /* \"#utility.yul\":923:1236   */\n    tag_39:\n        /* \"#utility.yul\":1036:1040   */\n      0x00\n        /* \"#utility.yul\":1074:1076   */\n      0x20\n        /* \"#utility.yul\":1063:1072   */\n      dup3\n        /* \"#utility.yul\":1059:1077   */\n      add\n        /* \"#utility.yul\":1051:1077   */\n      swap1\n      pop\n        /* \"#utility.yul\":1123:1132   */\n      dup2\n        /* \"#utility.yul\":1117:1121   */\n      dup2\n        /* \"#utility.yul\":1113:1133   */\n      sub\n        /* \"#utility.yul\":1109:1110   */\n      0x00\n        /* \"#utility.yul\":1098:1107   */\n      dup4\n        /* \"#utility.yul\":1094:1111   */\n      add\n        /* \"#utility.yul\":1087:1134   */\n      mstore\n        /* \"#utility.yul\":1151:1229   */\n      tag_623\n        /* \"#utility.yul\":1224:1228   */\n      dup2\n        /* \"#utility.yul\":1215:1221   */\n      dup5\n        /* \"#utility.yul\":1151:1229   */\n      tag_536\n      jump\t// in\n    tag_623:\n        /* \"#utility.yul\":1143:1229   */\n      swap1\n      pop\n        /* \"#utility.yul\":923:1236   */\n      swap3\n      swap2\n      pop\n      pop\n      jump\t// out\n        /* \"#utility.yul\":1242:1317   */\n    tag_537:\n        /* \"#utility.yul\":1275:1281   */\n      0x00\n        /* \"#utility.yul\":1308:1310   */\n      0x40\n        /* \"#utility.yul\":1302:1311   */\n      mload\n        /* \"#utility.yul\":1292:1311   */\n      swap1\n      pop\n        /* \"#utility.yul\":1242:1317   */\n      swap1\n      jump\t// out\n        /* \"#utility.yul\":1323:1440   */\n    tag_538:\n        /* \"#utility.yul\":1432:1433   */\n      0x00\n        /* \"#utility.yul\":1429:1430   */\n      dup1\n        /* \"#utility.yul\":1422:1434   */\n      revert\n        /* \"#utility.yul\":1446:1563   */\n    tag_539:\n        /* \"#utility.yul\":1555:1556   */\n      0x00\n        /* \"#utility.yul\":1552:1553   */\n      dup1\n        /* \"#utility.yul\":1545:1557   */\n      revert\n        /* \"#utility.yul\":1569:1695   */\n    tag_540:\n        /* \"#utility.yul\":1606:1613   */\n      0x00\n        /* \"#utility.yul\":1646:1688   */\n      0xffffffffffffffffffffffffffffffffffffffff\n        /* \"#utility.yul\":1639:1644   */\n      dup3\n        /* \"#utility.yul\":1635:1689   */\n      and\n        /* \"#utility.yul\":1624:1689   */\n      swap1\n      pop\n        /* \"#utility.yul\":1569:1695   */\n      swap2\n      swap1\n      pop\n      jump\t// out\n        /* \"#utility.yul\":1701:1797   */\n    tag_541:\n        /* \"#utility.yul\":1738:1745   */\n      0x00\n        /* \"#utility.yul\":1767:1791   */\n      tag_629\n        /* \"#utility.yul\":1785:1790   */\n      dup3\n        /* \"#utility.yul\":1767:1791   */\n      tag_540\n      jump\t// in\n    tag_629:\n        /* \"#utility.yul\":1756:1791   */\n      swap1\n      pop\n        /* \"#utility.yul\":1701:1797   */\n      swap2\n      swap1\n      pop\n      jump\t// out\n        /* \"#utility.yul\":1803:1925   */\n    tag_542:\n        /* \"#utility.yul\":1876:1900   */\n      tag_631\n        /* \"#utility.yul\":1894:1899   */\n      dup2\n        /* \"#utility.yul\":1876:1900   */\n      tag_541\n      jump\t// in\n    tag_631:\n        /* \"#utility.yul\":1869:1874   */\n      dup2\n        /* \"#utility.yul\":1866:1901   */\n      eq\n        /* \"#utility.yul\":1856:1919   */\n      tag_632\n      jumpi\n        /* \"#utility.yul\":1915:1916   */\n      0x00\n        /* \"#utility.yul\":1912:1913   */\n      dup1\n        /* \"#utility.yul\":1905:1917   */\n      revert\n        /* \"#utility.yul\":1856:1919   */\n    tag_632:\n        /* \"#utility.yul\":1803:1925   */\n      pop\n      jump\t// out\n        /* \"#utility.yul\":1931:2070   */\n    tag_543:\n        /* \"#utility.yul\":1977:1982   */\n      0x00\n        /* \"#utility.yul\":2015:2021   */\n      dup2\n        /* \"#utility.yul\":2002:2022   */\n      calldataload\n        /* \"#utility.yul\":1993:2022   */\n      swap1\n      pop\n        /* \"#utility.yul\":2031:2064   */\n      tag_634\n        /* \"#utility.yul\":2058:2063   */\n      dup2\n        /* \"#utility.yul\":2031:2064   */\n      tag_542\n      jump\t// in\n    tag_634:\n        /* \"#utility.yul\":1931:2070   */\n      swap3\n      swap2\n      pop\n      pop\n      jump\t// out\n        /* \"#utility.yul\":2076:2153   */\n    tag_544:\n        /* \"#utility.yul\":2113:2120   */\n      0x00\n        /* \"#utility.yul\":2142:2147   */\n      dup2\n        /* \"#utility.yul\":2131:2147   */\n      swap1\n      pop\n        /* \"#utility.yul\":2076:2153   */\n      swap2\n      swap1\n      pop\n      jump\t// out\n        /* \"#utility.yul\":2159:2281   */\n    tag_545:\n        /* \"#utility.yul\":2232:2256   */\n      tag_637\n        /* \"#utility.yul\":2250:2255   */\n      dup2\n        /* \"#utility.yul\":2232:2256   */\n      tag_544\n      jump\t// in\n    tag_637:\n        /* \"#utility.yul\":2225:2230   */\n      dup2\n        /* \"#utility.yul\":2222:2257   */\n      eq\n        /* \"#utility.yul\":2212:2275   */\n      tag_638\n      jumpi\n        /* \"#utility.yul\":2271:2272   */\n      0x00\n        /* \"#utility.yul\":2268:2269   */\n      dup1\n        /* \"#utility.yul\":2261:2273   */\n      revert\n        /* \"#utility.yul\":2212:2275   */\n    tag_638:\n        /* \"#utility.yul\":2159:2281   */\n      pop\n      jump\t// out\n        /* \"#utility.yul\":2287:2426   */\n    tag_546:\n        /* \"#utility.yul\":2333:2338   */\n      0x00\n        /* \"#utility.yul\":2371:2377   */\n      dup2\n        /* \"#utility.yul\":2358:2378   */\n      calldataload\n        /* \"#utility.yul\":2349:2378   */\n      swap1\n      pop\n        /* \"#utility.yul\":2387:2420   */\n      tag_640\n        /* \"#utility.yul\":2414:2419   */\n      dup2\n        /* \"#utility.yul\":2387:2420   */\n      tag_545\n      jump\t// in\n    tag_640:\n        /* \"#utility.yul\":2287:2426   */\n      swap3\n      swap2\n      pop\n      pop\n      jump\t// out\n        /* \"#utility.yul\":2432:2906   */\n    tag_43:\n        /* \"#utility.yul\":2500:2506   */\n      0x00\n        /* \"#utility.yul\":2508:2514   */\n      dup1\n        /* \"#utility.yul\":2557:2559   */\n      0x40\n        /* \"#utility.yul\":2545:2554   */\n      dup4\n        /* \"#utility.yul\":2536:2543   */\n      dup6\n        /* \"#utility.yul\":2532:2555   */\n      sub\n        /* \"#utility.yul\":2528:2560   */\n      slt\n        /* \"#utility.yul\":2525:2644   */\n      iszero\n      tag_642\n      jumpi\n        /* \"#utility.yul\":2563:2642   */\n      tag_643\n      tag_538\n      jump\t// in\n    tag_643:\n        /* \"#utility.yul\":2525:2644   */\n    tag_642:\n        /* \"#utility.yul\":2683:2684   */\n      0x00\n        /* \"#utility.yul\":2708:2761   */\n      tag_644\n        /* \"#utility.yul\":2753:2760   */\n      dup6\n        /* \"#utility.yul\":2744:2750   */\n      dup3\n        /* \"#utility.yul\":2733:2742   */\n      dup7\n        /* \"#utility.yul\":2729:2751   */\n      add\n        /* \"#utility.yul\":2708:2761   */\n      tag_543\n      jump\t// in\n    tag_644:\n        /* \"#utility.yul\":2698:2761   */\n      swap3\n      pop\n        /* \"#utility.yul\":2654:2771   */\n      pop\n        /* \"#utility.yul\":2810:2812   */\n      0x20\n        /* \"#utility.yul\":2836:2889   */\n      tag_645\n        /* \"#utility.yul\":2881:2888   */\n      dup6\n        /* \"#utility.yul\":2872:2878   */\n      dup3\n        /* \"#utility.yul\":2861:2870   */\n      dup7\n        /* \"#utility.yul\":2857:2879   */\n      add\n        /* \"#utility.yul\":2836:2889   */\n      tag_546\n      jump\t// in\n    tag_645:\n        /* \"#utility.yul\":2826:2889   */\n      swap2\n      pop\n        /* \"#utility.yul\":2781:2899   */\n      pop\n        /* \"#utility.yul\":2432:2906   */\n      swap3\n      pop\n      swap3\n      swap1\n      pop\n      jump\t// out\n        /* \"#utility.yul\":2912:3002   */\n    tag_547:\n        /* \"#utility.yul\":2946:2953   */\n      0x00\n        /* \"#utility.yul\":2989:2994   */\n      dup2\n        /* \"#utility.yul\":2982:2995   */\n      iszero\n        /* \"#utility.yul\":2975:2996   */\n      iszero\n        /* \"#utility.yul\":2964:2996   */\n      swap1\n      pop\n        /* \"#utility.yul\":2912:3002   */\n      swap2\n      swap1\n      pop\n      jump\t// out\n        /* \"#utility.yul\":3008:3117   */\n    tag_548:\n        /* \"#utility.yul\":3089:3110   */\n      tag_648\n        /* \"#utility.yul\":3104:3109   */\n      dup2\n        /* \"#utility.yul\":3089:3110   */\n      tag_547\n      jump\t// in\n    tag_648:\n        /* \"#utility.yul\":3084:3087   */\n      dup3\n        /* \"#utility.yul\":3077:3111   */\n      mstore\n        /* \"#utility.yul\":3008:3117   */\n      pop\n      pop\n      jump\t// out\n        /* \"#utility.yul\":3123:3333   */\n    tag_46:\n        /* \"#utility.yul\":3210:3214   */\n      0x00\n        /* \"#utility.yul\":3248:3250   */\n      0x20\n        /* \"#utility.yul\":3237:3246   */\n      dup3\n        /* \"#utility.yul\":3233:3251   */\n      add\n        /* \"#utility.yul\":3225:3251   */\n      swap1\n      pop\n        /* \"#utility.yul\":3261:3326   */\n      tag_650\n        /* \"#utility.yul\":3323:3324   */\n      0x00\n        /* \"#utility.yul\":3312:3321   */\n      dup4\n        /* \"#utility.yul\":3308:3325   */\n      add\n        /* \"#utility.yul\":3299:3305   */\n      dup5\n        /* \"#utility.yul\":3261:3326   */\n      tag_548\n      jump\t// in\n    tag_650:\n        /* \"#utility.yul\":3123:3333   */\n      swap3\n      swap2\n      pop\n      pop\n      jump\t// out\n        /* \"#utility.yul\":3339:3456   */\n    tag_549:\n        /* \"#utility.yul\":3448:3449   */\n      0x00\n        /* \"#utility.yul\":3445:3446   */\n      dup1\n        /* \"#utility.yul\":3438:3450   */\n      revert\n        /* \"#utility.yul\":3462:3642   */\n    tag_550:\n        /* \"#utility.yul\":3510:3587   */\n      0x4e487b7100000000000000000000000000000000000000000000000000000000\n        /* \"#utility.yul\":3507:3508   */\n      0x00\n        /* \"#utility.yul\":3500:3588   */\n      mstore\n        /* \"#utility.yul\":3607:3611   */\n      0x41\n        /* \"#utility.yul\":3604:3605   */\n      0x04\n        /* \"#utility.yul\":3597:3612   */\n      mstore\n        /* \"#utility.yul\":3631:3635   */\n      0x24\n        /* \"#utility.yul\":3628:3629   */\n      0x00\n        /* \"#utility.yul\":3621:3636   */\n      revert\n        /* \"#utility.yul\":3648:3929   */\n    tag_551:\n        /* \"#utility.yul\":3731:3758   */\n      tag_654\n        /* \"#utility.yul\":3753:3757   */\n      dup3\n        /* \"#utility.yul\":3731:3758   */\n      tag_535\n      jump\t// in\n    tag_654:\n        /* \"#utility.yul\":3723:3729   */\n      dup2\n        /* \"#utility.yul\":3719:3759   */\n      add\n        /* \"#utility.yul\":3861:3867   */\n      dup2\n        /* \"#utility.yul\":3849:3859   */\n      dup2\n        /* \"#utility.yul\":3846:3868   */\n      lt\n        /* \"#utility.yul\":3825:3843   */\n      0xffffffffffffffff\n        /* \"#utility.yul\":3813:3823   */\n      dup3\n        /* \"#utility.yul\":3810:3844   */\n      gt\n        /* \"#utility.yul\":3807:3869   */\n      or\n        /* \"#utility.yul\":3804:3892   */\n      iszero\n      tag_655\n      jumpi\n        /* \"#utility.yul\":3872:3890   */\n      tag_656\n      tag_550\n      jump\t// in\n    tag_656:\n        /* \"#utility.yul\":3804:3892   */\n    tag_655:\n        /* \"#utility.yul\":3912:3922   */\n      dup1\n        /* \"#utility.yul\":3908:3910   */\n      0x40\n        /* \"#utility.yul\":3901:3923   */\n      mstore\n        /* \"#utility.yul\":3691:3929   */\n      pop\n        /* \"#utility.yul\":3648:3929   */\n      pop\n      pop\n      jump\t// out\n        /* \"#utility.yul\":3935:4064   */\n    tag_552:\n        /* \"#utility.yul\":3969:3975   */\n      0x00\n        /* \"#utility.yul\":3996:4016   */\n      tag_658\n      tag_537\n      jump\t// in\n    tag_658:\n        /* \"#utility.yul\":3986:4016   */\n      swap1\n      pop\n        /* \"#utility.yul\":4025:4058   */\n      tag_659\n        /* \"#utility.yul\":4053:4057   */\n      dup3\n        /* \"#utility.yul\":4045:4051   */\n      dup3\n        /* \"#utility.yul\":4025:4058   */\n      tag_551\n      jump\t// in\n    tag_659:\n        /* \"#utility.yul\":3935:4064   */\n      swap2\n      swap1\n      pop\n      jump\t// out\n        /* \"#utility.yul\":4234:5531   */\n    tag_554:\n        /* \"#utility.yul\":4315:4320   */\n      0x00\n        /* \"#utility.yul\":4359:4363   */\n      0xc0\n        /* \"#utility.yul\":4347:4356   */\n      dup3\n        /* \"#utility.yul\":4342:4345   */\n      dup5\n        /* \"#utility.yul\":4338:4357   */\n      sub\n        /* \"#utility.yul\":4334:4364   */\n      slt\n        /* \"#utility.yul\":4331:4448   */\n      iszero\n      tag_662\n      jumpi\n        /* \"#utility.yul\":4367:4446   */\n      tag_663\n      tag_549\n      jump\t// in\n    tag_663:\n        /* \"#utility.yul\":4331:4448   */\n    tag_662:\n        /* \"#utility.yul\":4466:4487   */\n      tag_664\n        /* \"#utility.yul\":4482:4486   */\n      0xc0\n        /* \"#utility.yul\":4466:4487   */\n      tag_552\n      jump\t// in\n    tag_664:\n        /* \"#utility.yul\":4457:4487   */\n      swap1\n      pop\n        /* \"#utility.yul\":4559:4560   */\n      0x00\n        /* \"#utility.yul\":4599:4648   */\n      tag_665\n        /* \"#utility.yul\":4644:4647   */\n      dup5\n        /* \"#utility.yul\":4635:4641   */\n      dup3\n        /* \"#utility.yul\":4624:4633   */\n      dup6\n        /* \"#utility.yul\":4620:4642   */\n      add\n        /* \"#utility.yul\":4599:4648   */\n      tag_546\n      jump\t// in\n    tag_665:\n        /* \"#utility.yul\":4592:4596   */\n      0x00\n        /* \"#utility.yul\":4585:4590   */\n      dup4\n        /* \"#utility.yul\":4581:4597   */\n      add\n        /* \"#utility.yul\":4574:4649   */\n      mstore\n        /* \"#utility.yul\":4497:4660   */\n      pop\n        /* \"#utility.yul\":4732:4734   */\n      0x20\n        /* \"#utility.yul\":4773:4822   */\n      tag_666\n        /* \"#utility.yul\":4818:4821   */\n      dup5\n        /* \"#utility.yul\":4809:4815   */\n      dup3\n        /* \"#utility.yul\":4798:4807   */\n      dup6\n        /* \"#utility.yul\":4794:4816   */\n      add\n        /* \"#utility.yul\":4773:4822   */\n      tag_546\n      jump\t// in\n    tag_666:\n        /* \"#utility.yul\":4766:4770   */\n      0x20\n        /* \"#utility.yul\":4759:4764   */\n      dup4\n        /* \"#utility.yul\":4755:4771   */\n      add\n        /* \"#utility.yul\":4748:4823   */\n      mstore\n        /* \"#utility.yul\":4670:4834   */\n      pop\n        /* \"#utility.yul\":4902:4904   */\n      0x40\n        /* \"#utility.yul\":4943:4992   */\n      tag_667\n        /* \"#utility.yul\":4988:4991   */\n      dup5\n        /* \"#utility.yul\":4979:4985   */\n      dup3\n        /* \"#utility.yul\":4968:4977   */\n      dup6\n        /* \"#utility.yul\":4964:4986   */\n      add\n        /* \"#utility.yul\":4943:4992   */\n      tag_546\n      jump\t// in\n    tag_667:\n        /* \"#utility.yul\":4936:4940   */\n      0x40\n        /* \"#utility.yul\":4929:4934   */\n      dup4\n        /* \"#utility.yul\":4925:4941   */\n      add\n        /* \"#utility.yul\":4918:4993   */\n      mstore\n        /* \"#utility.yul\":4844:5004   */\n      pop\n        /* \"#utility.yul\":5075:5077   */\n      0x60\n        /* \"#utility.yul\":5116:5165   */\n      tag_668\n        /* \"#utility.yul\":5161:5164   */\n      dup5\n        /* \"#utility.yul\":5152:5158   */\n      dup3\n        /* \"#utility.yul\":5141:5150   */\n      dup6\n        /* \"#utility.yul\":5137:5159   */\n      add\n        /* \"#utility.yul\":5116:5165   */\n      tag_546\n      jump\t// in\n    tag_668:\n        /* \"#utility.yul\":5109:5113   */\n      0x60\n        /* \"#utility.yul\":5102:5107   */\n      dup4\n        /* \"#utility.yul\":5098:5114   */\n      add\n        /* \"#utility.yul\":5091:5166   */\n      mstore\n        /* \"#utility.yul\":5014:5177   */\n      pop\n        /* \"#utility.yul\":5249:5252   */\n      0x80\n        /* \"#utility.yul\":5291:5340   */\n      tag_669\n        /* \"#utility.yul\":5336:5339   */\n      dup5\n        /* \"#utility.yul\":5327:5333   */\n      dup3\n        /* \"#utility.yul\":5316:5325   */\n      dup6\n        /* \"#utility.yul\":5312:5334   */\n      add\n        /* \"#utility.yul\":5291:5340   */\n      tag_546\n      jump\t// in\n    tag_669:\n        /* \"#utility.yul\":5284:5288   */\n      0x80\n        /* \"#utility.yul\":5277:5282   */\n      dup4\n        /* \"#utility.yul\":5273:5289   */\n      add\n        /* \"#utility.yul\":5266:5341   */\n      mstore\n        /* \"#utility.yul\":5187:5352   */\n      pop\n        /* \"#utility.yul\":5421:5424   */\n      0xa0\n        /* \"#utility.yul\":5463:5512   */\n      tag_670\n        /* \"#utility.yul\":5508:5511   */\n      dup5\n        /* \"#utility.yul\":5499:5505   */\n      dup3\n        /* \"#utility.yul\":5488:5497   */\n      dup6\n        /* \"#utility.yul\":5484:5506   */\n      add\n        /* \"#utility.yul\":5463:5512   */\n      tag_546\n      jump\t// in\n    tag_670:\n        /* \"#utility.yul\":5456:5460   */\n      0xa0\n        /* \"#utility.yul\":5449:5454   */\n      dup4\n        /* \"#utility.yul\":5445:5461   */\n      add\n        /* \"#utility.yul\":5438:5513   */\n      mstore\n        /* \"#utility.yul\":5362:5524   */\n      pop\n        /* \"#utility.yul\":4234:5531   */\n      swap3\n      swap2\n      pop\n      pop\n      jump\t// out\n        /* \"#utility.yul\":5537:5931   */\n    tag_50:\n        /* \"#utility.yul\":5628:5634   */\n      0x00\n        /* \"#utility.yul\":5677:5680   */\n      0xc0\n        /* \"#utility.yul\":5665:5674   */\n      dup3\n        /* \"#utility.yul\":5656:5663   */\n      dup5\n        /* \"#utility.yul\":5652:5675   */\n      sub\n        /* \"#utility.yul\":5648:5681   */\n      slt\n        /* \"#utility.yul\":5645:5765   */\n      iszero\n      tag_672\n      jumpi\n        /* \"#utility.yul\":5684:5763   */\n      tag_673\n      tag_538\n      jump\t// in\n    tag_673:\n        /* \"#utility.yul\":5645:5765   */\n    tag_672:\n        /* \"#utility.yul\":5804:5805   */\n      0x00\n        /* \"#utility.yul\":5829:5914   */\n      tag_674\n        /* \"#utility.yul\":5906:5913   */\n      dup5\n        /* \"#utility.yul\":5897:5903   */\n      dup3\n        /* \"#utility.yul\":5886:5895   */\n      dup6\n        /* \"#utility.yul\":5882:5904   */\n      add\n        /* \"#utility.yul\":5829:5914   */\n      tag_554\n      jump\t// in\n    tag_674:\n        /* \"#utility.yul\":5819:5914   */\n      swap2\n      pop\n        /* \"#utility.yul\":5775:5924   */\n      pop\n        /* \"#utility.yul\":5537:5931   */\n      swap3\n      swap2\n      pop\n      pop\n      jump\t// out\n        /* \"#utility.yul\":5937:6055   */\n    tag_555:\n        /* \"#utility.yul\":6024:6048   */\n      tag_676\n        /* \"#utility.yul\":6042:6047   */\n      dup2\n        /* \"#utility.yul\":6024:6048   */\n      tag_544\n      jump\t// in\n    tag_676:\n        /* \"#utility.yul\":6019:6022   */\n      dup3\n        /* \"#utility.yul\":6012:6049   */\n      mstore\n        /* \"#utility.yul\":5937:6055   */\n      pop\n      pop\n      jump\t// out\n        /* \"#utility.yul\":6061:6283   */\n    tag_56:\n        /* \"#utility.yul\":6154:6158   */\n      0x00\n        /* \"#utility.yul\":6192:6194   */\n      0x20\n        /* \"#utility.yul\":6181:6190   */\n      dup3\n        /* \"#utility.yul\":6177:6195   */\n      add\n        /* \"#utility.yul\":6169:6195   */\n      swap1\n      pop\n        /* \"#utility.yul\":6205:6276   */\n      tag_678\n        /* \"#utility.yul\":6273:6274   */\n      0x00\n        /* \"#utility.yul\":6262:6271   */\n      dup4\n        /* \"#utility.yul\":6258:6275   */\n      add\n        /* \"#utility.yul\":6249:6255   */\n      dup5\n        /* \"#utility.yul\":6205:6276   */\n      tag_555\n      jump\t// in\n    tag_678:\n        /* \"#utility.yul\":6061:6283   */\n      swap3\n      swap2\n      pop\n      pop\n      jump\t// out\n        /* \"#utility.yul\":6289:6618   */\n    tag_60:\n        /* \"#utility.yul\":6348:6354   */\n      0x00\n        /* \"#utility.yul\":6397:6399   */\n      0x20\n        /* \"#utility.yul\":6385:6394   */\n      dup3\n        /* \"#utility.yul\":6376:6383   */\n      dup5\n        /* \"#utility.yul\":6372:6395   */\n      sub\n        /* \"#utility.yul\":6368:6400   */\n      slt\n        /* \"#utility.yul\":6365:6484   */\n      iszero\n      tag_680\n      jumpi\n        /* \"#utility.yul\":6403:6482   */\n      tag_681\n      tag_538\n      jump\t// in\n    tag_681:\n        /* \"#utility.yul\":6365:6484   */\n    tag_680:\n        /* \"#utility.yul\":6523:6524   */\n      0x00\n        /* \"#utility.yul\":6548:6601   */\n      tag_682\n        /* \"#utility.yul\":6593:6600   */\n      dup5\n        /* \"#utility.yul\":6584:6590   */\n      dup3\n        /* \"#utility.yul\":6573:6582   */\n      dup6\n        /* \"#utility.yul\":6569:6591   */\n      add\n        /* \"#utility.yul\":6548:6601   */\n      tag_543\n      jump\t// in\n    tag_682:\n        /* \"#utility.yul\":6538:6601   */\n      swap2\n      pop\n        /* \"#utility.yul\":6494:6611   */\n      pop\n        /* \"#utility.yul\":6289:6618   */\n      swap3\n      swap2\n      pop\n      pop\n      jump\t// out\n        /* \"#utility.yul\":6624:7243   */\n    tag_65:\n        /* \"#utility.yul\":6701:6707   */\n      0x00\n        /* \"#utility.yul\":6709:6715   */\n      dup1\n        /* \"#utility.yul\":6717:6723   */\n      0x00\n        /* \"#utility.yul\":6766:6768   */\n      0x60\n        /* \"#utility.yul\":6754:6763   */\n      dup5\n        /* \"#utility.yul\":6745:6752   */\n      dup7\n        /* \"#utility.yul\":6741:6764   */\n      sub\n        /* \"#utility.yul\":6737:6769   */\n      slt\n        /* \"#utility.yul\":6734:6853   */\n      iszero\n      tag_684\n      jumpi\n        /* \"#utility.yul\":6772:6851   */\n      tag_685\n      tag_538\n      jump\t// in\n    tag_685:\n        /* \"#utility.yul\":6734:6853   */\n    tag_684:\n        /* \"#utility.yul\":6892:6893   */\n      0x00\n        /* \"#utility.yul\":6917:6970   */\n      tag_686\n        /* \"#utility.yul\":6962:6969   */\n      dup7\n        /* \"#utility.yul\":6953:6959   */\n      dup3\n        /* \"#utility.yul\":6942:6951   */\n      dup8\n        /* \"#utility.yul\":6938:6960   */\n      add\n        /* \"#utility.yul\":6917:6970   */\n      tag_543\n      jump\t// in\n    tag_686:\n        /* \"#utility.yul\":6907:6970   */\n      swap4\n      pop\n        /* \"#utility.yul\":6863:6980   */\n      pop\n        /* \"#utility.yul\":7019:7021   */\n      0x20\n        /* \"#utility.yul\":7045:7098   */\n      tag_687\n        /* \"#utility.yul\":7090:7097   */\n      dup7\n        /* \"#utility.yul\":7081:7087   */\n      dup3\n        /* \"#utility.yul\":7070:7079   */\n      dup8\n        /* \"#utility.yul\":7066:7088   */\n      add\n        /* \"#utility.yul\":7045:7098   */\n      tag_543\n      jump\t// in\n    tag_687:\n        /* \"#utility.yul\":7035:7098   */\n      swap3\n      pop\n        /* \"#utility.yul\":6990:7108   */\n      pop\n        /* \"#utility.yul\":7147:7149   */\n      0x40\n        /* \"#utility.yul\":7173:7226   */\n      tag_688\n        /* \"#utility.yul\":7218:7225   */\n      dup7\n        /* \"#utility.yul\":7209:7215   */\n      dup3\n        /* \"#utility.yul\":7198:7207   */\n      dup8\n        /* \"#utility.yul\":7194:7216   */\n      add\n        /* \"#utility.yul\":7173:7226   */\n      tag_546\n      jump\t// in\n    tag_688:\n        /* \"#utility.yul\":7163:7226   */\n      swap2\n      pop\n        /* \"#utility.yul\":7118:7236   */\n      pop\n        /* \"#utility.yul\":6624:7243   */\n      swap3\n      pop\n      swap3\n      pop\n      swap3\n      jump\t// out\n        /* \"#utility.yul\":7249:7335   */\n    tag_556:\n        /* \"#utility.yul\":7284:7291   */\n      0x00\n        /* \"#utility.yul\":7324:7328   */\n      0xff\n        /* \"#utility.yul\":7317:7322   */\n      dup3\n        /* \"#utility.yul\":7313:7329   */\n      and\n        /* \"#utility.yul\":7302:7329   */\n      swap1\n      pop\n        /* \"#utility.yul\":7249:7335   */\n      swap2\n      swap1\n      pop\n      jump\t// out\n        /* \"#utility.yul\":7341:7453   */\n    tag_557:\n        /* \"#utility.yul\":7424:7446   */\n      tag_691\n        /* \"#utility.yul\":7440:7445   */\n      dup2\n        /* \"#utility.yul\":7424:7446   */\n      tag_556\n      jump\t// in\n    tag_691:\n        /* \"#utility.yul\":7419:7422   */\n      dup3\n        /* \"#utility.yul\":7412:7447   */\n      mstore\n        /* \"#utility.yul\":7341:7453   */\n      pop\n      pop\n      jump\t// out\n        /* \"#utility.yul\":7459:7673   */\n    tag_72:\n        /* \"#utility.yul\":7548:7552   */\n      0x00\n        /* \"#utility.yul\":7586:7588   */\n      0x20\n        /* \"#utility.yul\":7575:7584   */\n      dup3\n        /* \"#utility.yul\":7571:7589   */\n      add\n        /* \"#utility.yul\":7563:7589   */\n      swap1\n      pop\n        /* \"#utility.yul\":7599:7666   */\n      tag_693\n        /* \"#utility.yul\":7663:7664   */\n      0x00\n        /* \"#utility.yul\":7652:7661   */\n      dup4\n        /* \"#utility.yul\":7648:7665   */\n      add\n        /* \"#utility.yul\":7639:7645   */\n      dup5\n        /* \"#utility.yul\":7599:7666   */\n      tag_557\n      jump\t// in\n    tag_693:\n        /* \"#utility.yul\":7459:7673   */\n      swap3\n      swap2\n      pop\n      pop\n      jump\t// out\n        /* \"#utility.yul\":7679:8454   */\n    tag_77:\n        /* \"#utility.yul\":7912:7916   */\n      0x00\n        /* \"#utility.yul\":7950:7953   */\n      0xc0\n        /* \"#utility.yul\":7939:7948   */\n      dup3\n        /* \"#utility.yul\":7935:7954   */\n      add\n        /* \"#utility.yul\":7927:7954   */\n      swap1\n      pop\n        /* \"#utility.yul\":7964:8035   */\n      tag_695\n        /* \"#utility.yul\":8032:8033   */\n      0x00\n        /* \"#utility.yul\":8021:8030   */\n      dup4\n        /* \"#utility.yul\":8017:8034   */\n      add\n        /* \"#utility.yul\":8008:8014   */\n      dup10\n        /* \"#utility.yul\":7964:8035   */\n      tag_555\n      jump\t// in\n    tag_695:\n        /* \"#utility.yul\":8045:8117   */\n      tag_696\n        /* \"#utility.yul\":8113:8115   */\n      0x20\n        /* \"#utility.yul\":8102:8111   */\n      dup4\n        /* \"#utility.yul\":8098:8116   */\n      add\n        /* \"#utility.yul\":8089:8095   */\n      dup9\n        /* \"#utility.yul\":8045:8117   */\n      tag_555\n      jump\t// in\n    tag_696:\n        /* \"#utility.yul\":8127:8199   */\n      tag_697\n        /* \"#utility.yul\":8195:8197   */\n      0x40\n        /* \"#utility.yul\":8184:8193   */\n      dup4\n        /* \"#utility.yul\":8180:8198   */\n      add\n        /* \"#utility.yul\":8171:8177   */\n      dup8\n        /* \"#utility.yul\":8127:8199   */\n      tag_555\n      jump\t// in\n    tag_697:\n        /* \"#utility.yul\":8209:8281   */\n      tag_698\n        /* \"#utility.yul\":8277:8279   */\n      0x60\n        /* \"#utility.yul\":8266:8275   */\n      dup4\n        /* \"#utility.yul\":8262:8280   */\n      add\n        /* \"#utility.yul\":8253:8259   */\n      dup7\n        /* \"#utility.yul\":8209:8281   */\n      tag_555\n      jump\t// in\n    tag_698:\n        /* \"#utility.yul\":8291:8364   */\n      tag_699\n        /* \"#utility.yul\":8359:8362   */\n      0x80\n        /* \"#utility.yul\":8348:8357   */\n      dup4\n        /* \"#utility.yul\":8344:8363   */\n      add\n        /* \"#utility.yul\":8335:8341   */\n      dup6\n        /* \"#utility.yul\":8291:8364   */\n      tag_555\n      jump\t// in\n    tag_699:\n        /* \"#utility.yul\":8374:8447   */\n      tag_700\n        /* \"#utility.yul\":8442:8445   */\n      0xa0\n        /* \"#utility.yul\":8431:8440   */\n      dup4\n        /* \"#utility.yul\":8427:8446   */\n      add\n        /* \"#utility.yul\":8418:8424   */\n      dup5\n        /* \"#utility.yul\":8374:8447   */\n      tag_555\n      jump\t// in\n    tag_700:\n        /* \"#utility.yul\":7679:8454   */\n      swap8\n      swap7\n      pop\n      pop\n      pop\n      pop\n      pop\n      pop\n      pop\n      jump\t// out\n        /* \"#utility.yul\":8460:8577   */\n    tag_558:\n        /* \"#utility.yul\":8569:8570   */\n      0x00\n        /* \"#utility.yul\":8566:8567   */\n      dup1\n        /* \"#utility.yul\":8559:8571   */\n      revert\n        /* \"#utility.yul\":8583:8700   */\n    tag_559:\n        /* \"#utility.yul\":8692:8693   */\n      0x00\n        /* \"#utility.yul\":8689:8690   */\n      dup1\n        /* \"#utility.yul\":8682:8694   */\n      revert\n        /* \"#utility.yul\":8706:9013   */\n    tag_560:\n        /* \"#utility.yul\":8767:8771   */\n      0x00\n        /* \"#utility.yul\":8857:8875   */\n      0xffffffffffffffff\n        /* \"#utility.yul\":8849:8855   */\n      dup3\n        /* \"#utility.yul\":8846:8876   */\n      gt\n        /* \"#utility.yul\":8843:8899   */\n      iszero\n      tag_704\n      jumpi\n        /* \"#utility.yul\":8879:8897   */\n      tag_705\n      tag_550\n      jump\t// in\n    tag_705:\n        /* \"#utility.yul\":8843:8899   */\n    tag_704:\n        /* \"#utility.yul\":8917:8946   */\n      tag_706\n        /* \"#utility.yul\":8939:8945   */\n      dup3\n        /* \"#utility.yul\":8917:8946   */\n      tag_535\n      jump\t// in\n    tag_706:\n        /* \"#utility.yul\":8909:8946   */\n      swap1\n      pop\n        /* \"#utility.yul\":9001:9005   */\n      0x20\n        /* \"#utility.yul\":8995:8999   */\n      dup2\n        /* \"#utility.yul\":8991:9006   */\n      add\n        /* \"#utility.yul\":8983:9006   */\n      swap1\n      pop\n        /* \"#utility.yul\":8706:9013   */\n      swap2\n      swap1\n      pop\n      jump\t// out\n        /* \"#utility.yul\":9019:9167   */\n    tag_561:\n        /* \"#utility.yul\":9117:9123   */\n      dup3\n        /* \"#utility.yul\":9112:9115   */\n      dup2\n        /* \"#utility.yul\":9107:9110   */\n      dup4\n        /* \"#utility.yul\":9094:9124   */\n      calldatacopy\n        /* \"#utility.yul\":9158:9159   */\n      0x00\n        /* \"#utility.yul\":9149:9155   */\n      dup4\n        /* \"#utility.yul\":9144:9147   */\n      dup4\n        /* \"#utility.yul\":9140:9156   */\n      add\n        /* \"#utility.yul\":9133:9160   */\n      mstore\n        /* \"#utility.yul\":9019:9167   */\n      pop\n      pop\n      pop\n      jump\t// out\n        /* \"#utility.yul\":9173:9596   */\n    tag_562:\n        /* \"#utility.yul\":9250:9255   */\n      0x00\n        /* \"#utility.yul\":9275:9340   */\n      tag_709\n        /* \"#utility.yul\":9291:9339   */\n      tag_710\n        /* \"#utility.yul\":9332:9338   */\n      dup5\n        /* \"#utility.yul\":9291:9339   */\n      tag_560\n      jump\t// in\n    tag_710:\n        /* \"#utility.yul\":9275:9340   */\n      tag_552\n      jump\t// in\n    tag_709:\n        /* \"#utility.yul\":9266:9340   */\n      swap1\n      pop\n        /* \"#utility.yul\":9363:9369   */\n      dup3\n        /* \"#utility.yul\":9356:9361   */\n      dup2\n        /* \"#utility.yul\":9349:9370   */\n      mstore\n        /* \"#utility.yul\":9401:9405   */\n      0x20\n        /* \"#utility.yul\":9394:9399   */\n      dup2\n        /* \"#utility.yul\":9390:9406   */\n      add\n        /* \"#utility.yul\":9439:9442   */\n      dup5\n        /* \"#utility.yul\":9430:9436   */\n      dup5\n        /* \"#utility.yul\":9425:9428   */\n      dup5\n        /* \"#utility.yul\":9421:9437   */\n      add\n        /* \"#utility.yul\":9418:9443   */\n      gt\n        /* \"#utility.yul\":9415:9527   */\n      iszero\n      tag_711\n      jumpi\n        /* \"#utility.yul\":9446:9525   */\n      tag_712\n      tag_559\n      jump\t// in\n    tag_712:\n        /* \"#utility.yul\":9415:9527   */\n    tag_711:\n        /* \"#utility.yul\":9536:9590   */\n      tag_713\n        /* \"#utility.yul\":9583:9589   */\n      dup5\n        /* \"#utility.yul\":9578:9581   */\n      dup3\n        /* \"#utility.yul\":9573:9576   */\n      dup6\n        /* \"#utility.yul\":9536:9590   */\n      tag_561\n      jump\t// in\n    tag_713:\n        /* \"#utility.yul\":9256:9596   */\n      pop\n        /* \"#utility.yul\":9173:9596   */\n      swap4\n      swap3\n      pop\n      pop\n      pop\n      jump\t// out\n        /* \"#utility.yul\":9615:9953   */\n    tag_563:\n        /* \"#utility.yul\":9670:9675   */\n      0x00\n        /* \"#utility.yul\":9719:9722   */\n      dup3\n        /* \"#utility.yul\":9712:9716   */\n      0x1f\n        /* \"#utility.yul\":9704:9710   */\n      dup4\n        /* \"#utility.yul\":9700:9717   */\n      add\n        /* \"#utility.yul\":9696:9723   */\n      slt\n        /* \"#utility.yul\":9686:9808   */\n      tag_715\n      jumpi\n        /* \"#utility.yul\":9727:9806   */\n      tag_716\n      tag_558\n      jump\t// in\n    tag_716:\n        /* \"#utility.yul\":9686:9808   */\n    tag_715:\n        /* \"#utility.yul\":9844:9850   */\n      dup2\n        /* \"#utility.yul\":9831:9851   */\n      calldataload\n        /* \"#utility.yul\":9869:9947   */\n      tag_717\n        /* \"#utility.yul\":9943:9946   */\n      dup5\n        /* \"#utility.yul\":9935:9941   */\n      dup3\n        /* \"#utility.yul\":9928:9932   */\n      0x20\n        /* \"#utility.yul\":9920:9926   */\n      dup7\n        /* \"#utility.yul\":9916:9933   */\n      add\n        /* \"#utility.yul\":9869:9947   */\n      tag_562\n      jump\t// in\n    tag_717:\n        /* \"#utility.yul\":9860:9947   */\n      swap2\n      pop\n        /* \"#utility.yul\":9676:9953   */\n      pop\n        /* \"#utility.yul\":9615:9953   */\n      swap3\n      swap2\n      pop\n      pop\n      jump\t// out\n        /* \"#utility.yul\":9959:10611   */\n    tag_83:\n        /* \"#utility.yul\":10036:10042   */\n      0x00\n        /* \"#utility.yul\":10044:10050   */\n      dup1\n        /* \"#utility.yul\":10093:10095   */\n      0x40\n        /* \"#utility.yul\":10081:10090   */\n      dup4\n        /* \"#utility.yul\":10072:10079   */\n      dup6\n        /* \"#utility.yul\":10068:10091   */\n      sub\n        /* \"#utility.yul\":10064:10096   */\n      slt\n        /* \"#utility.yul\":10061:10180   */\n      iszero\n      tag_719\n      jumpi\n        /* \"#utility.yul\":10099:10178   */\n      tag_720\n      tag_538\n      jump\t// in\n    tag_720:\n        /* \"#utility.yul\":10061:10180   */\n    tag_719:\n        /* \"#utility.yul\":10219:10220   */\n      0x00\n        /* \"#utility.yul\":10244:10297   */\n      tag_721\n        /* \"#utility.yul\":10289:10296   */\n      dup6\n        /* \"#utility.yul\":10280:10286   */\n      dup3\n        /* \"#utility.yul\":10269:10278   */\n      dup7\n        /* \"#utility.yul\":10265:10287   */\n      add\n        /* \"#utility.yul\":10244:10297   */\n      tag_543\n      jump\t// in\n    tag_721:\n        /* \"#utility.yul\":10234:10297   */\n      swap3\n      pop\n        /* \"#utility.yul\":10190:10307   */\n      pop\n        /* \"#utility.yul\":10374:10376   */\n      0x20\n        /* \"#utility.yul\":10363:10372   */\n      dup4\n        /* \"#utility.yul\":10359:10377   */\n      add\n        /* \"#utility.yul\":10346:10378   */\n      calldataload\n        /* \"#utility.yul\":10405:10423   */\n      0xffffffffffffffff\n        /* \"#utility.yul\":10397:10403   */\n      dup2\n        /* \"#utility.yul\":10394:10424   */\n      gt\n        /* \"#utility.yul\":10391:10508   */\n      iszero\n      tag_722\n      jumpi\n        /* \"#utility.yul\":10427:10506   */\n      tag_723\n      tag_539\n      jump\t// in\n    tag_723:\n        /* \"#utility.yul\":10391:10508   */\n    tag_722:\n        /* \"#utility.yul\":10532:10594   */\n      tag_724\n        /* \"#utility.yul\":10586:10593   */\n      dup6\n        /* \"#utility.yul\":10577:10583   */\n      dup3\n        /* \"#utility.yul\":10566:10575   */\n      dup7\n        /* \"#utility.yul\":10562:10584   */\n      add\n        /* \"#utility.yul\":10532:10594   */\n      tag_563\n      jump\t// in\n    tag_724:\n        /* \"#utility.yul\":10522:10594   */\n      swap2\n      pop\n        /* \"#utility.yul\":10317:10604   */\n      pop\n        /* \"#utility.yul\":9959:10611   */\n      swap3\n      pop\n      swap3\n      swap1\n      pop\n      jump\t// out\n        /* \"#utility.yul\":10617:10694   */\n    tag_564:\n        /* \"#utility.yul\":10654:10661   */\n      0x00\n        /* \"#utility.yul\":10683:10688   */\n      dup2\n        /* \"#utility.yul\":10672:10688   */\n      swap1\n      pop\n        /* \"#utility.yul\":10617:10694   */\n      swap2\n      swap1\n      pop\n      jump\t// out\n        /* \"#utility.yul\":10700:10818   */\n    tag_565:\n        /* \"#utility.yul\":10787:10811   */\n      tag_727\n        /* \"#utility.yul\":10805:10810   */\n      dup2\n        /* \"#utility.yul\":10787:10811   */\n      tag_564\n      jump\t// in\n    tag_727:\n        /* \"#utility.yul\":10782:10785   */\n      dup3\n        /* \"#utility.yul\":10775:10812   */\n      mstore\n        /* \"#utility.yul\":10700:10818   */\n      pop\n      pop\n      jump\t// out\n        /* \"#utility.yul\":10824:11046   */\n    tag_89:\n        /* \"#utility.yul\":10917:10921   */\n      0x00\n        /* \"#utility.yul\":10955:10957   */\n      0x20\n        /* \"#utility.yul\":10944:10953   */\n      dup3\n        /* \"#utility.yul\":10940:10958   */\n      add\n        /* \"#utility.yul\":10932:10958   */\n      swap1\n      pop\n        /* \"#utility.yul\":10968:11039   */\n      tag_729\n        /* \"#utility.yul\":11036:11037   */\n      0x00\n        /* \"#utility.yul\":11025:11034   */\n      dup4\n        /* \"#utility.yul\":11021:11038   */\n      add\n        /* \"#utility.yul\":11012:11018   */\n      dup5\n        /* \"#utility.yul\":10968:11039   */\n      tag_565\n      jump\t// in\n    tag_729:\n        /* \"#utility.yul\":10824:11046   */\n      swap3\n      swap2\n      pop\n      pop\n      jump\t// out\n        /* \"#utility.yul\":11052:11112   */\n    tag_566:\n        /* \"#utility.yul\":11080:11083   */\n      0x00\n        /* \"#utility.yul\":11101:11106   */\n      dup2\n        /* \"#utility.yul\":11094:11106   */\n      swap1\n      pop\n        /* \"#utility.yul\":11052:11112   */\n      swap2\n      swap1\n      pop\n      jump\t// out\n        /* \"#utility.yul\":11118:11260   */\n    tag_567:\n        /* \"#utility.yul\":11168:11177   */\n      0x00\n        /* \"#utility.yul\":11201:11254   */\n      tag_732\n        /* \"#utility.yul\":11219:11253   */\n      tag_733\n        /* \"#utility.yul\":11228:11252   */\n      tag_734\n        /* \"#utility.yul\":11246:11251   */\n      dup5\n        /* \"#utility.yul\":11228:11252   */\n      tag_540\n      jump\t// in\n    tag_734:\n        /* \"#utility.yul\":11219:11253   */\n      tag_566\n      jump\t// in\n    tag_733:\n        /* \"#utility.yul\":11201:11254   */\n      tag_540\n      jump\t// in\n    tag_732:\n        /* \"#utility.yul\":11188:11254   */\n      swap1\n      pop\n        /* \"#utility.yul\":11118:11260   */\n      swap2\n      swap1\n      pop\n      jump\t// out\n        /* \"#utility.yul\":11266:11392   */\n    tag_568:\n        /* \"#utility.yul\":11316:11325   */\n      0x00\n        /* \"#utility.yul\":11349:11386   */\n      tag_736\n        /* \"#utility.yul\":11380:11385   */\n      dup3\n        /* \"#utility.yul\":11349:11386   */\n      tag_567\n      jump\t// in\n    tag_736:\n        /* \"#utility.yul\":11336:11386   */\n      swap1\n      pop\n        /* \"#utility.yul\":11266:11392   */\n      swap2\n      swap1\n      pop\n      jump\t// out\n        /* \"#utility.yul\":11398:11553   */\n    tag_569:\n        /* \"#utility.yul\":11477:11486   */\n      0x00\n        /* \"#utility.yul\":11510:11547   */\n      tag_738\n        /* \"#utility.yul\":11541:11546   */\n      dup3\n        /* \"#utility.yul\":11510:11547   */\n      tag_568\n      jump\t// in\n    tag_738:\n        /* \"#utility.yul\":11497:11547   */\n      swap1\n      pop\n        /* \"#utility.yul\":11398:11553   */\n      swap2\n      swap1\n      pop\n      jump\t// out\n        /* \"#utility.yul\":11559:11748   */\n    tag_570:\n        /* \"#utility.yul\":11675:11741   */\n      tag_740\n        /* \"#utility.yul\":11735:11740   */\n      dup2\n        /* \"#utility.yul\":11675:11741   */\n      tag_569\n      jump\t// in\n    tag_740:\n        /* \"#utility.yul\":11670:11673   */\n      dup3\n        /* \"#utility.yul\":11663:11742   */\n      mstore\n        /* \"#utility.yul\":11559:11748   */\n      pop\n      pop\n      jump\t// out\n        /* \"#utility.yul\":11754:12034   */\n    tag_106:\n        /* \"#utility.yul\":11876:11880   */\n      0x00\n        /* \"#utility.yul\":11914:11916   */\n      0x20\n        /* \"#utility.yul\":11903:11912   */\n      dup3\n        /* \"#utility.yul\":11899:11917   */\n      add\n        /* \"#utility.yul\":11891:11917   */\n      swap1\n      pop\n        /* \"#utility.yul\":11927:12027   */\n      tag_742\n        /* \"#utility.yul\":12024:12025   */\n      0x00\n        /* \"#utility.yul\":12013:12022   */\n      dup4\n        /* \"#utility.yul\":12009:12026   */\n      add\n        /* \"#utility.yul\":12000:12006   */\n      dup5\n        /* \"#utility.yul\":11927:12027   */\n      tag_570\n      jump\t// in\n    tag_742:\n        /* \"#utility.yul\":11754:12034   */\n      swap3\n      swap2\n      pop\n      pop\n      jump\t// out\n        /* \"#utility.yul\":12040:12158   */\n    tag_571:\n        /* \"#utility.yul\":12127:12151   */\n      tag_744\n        /* \"#utility.yul\":12145:12150   */\n      dup2\n        /* \"#utility.yul\":12127:12151   */\n      tag_541\n      jump\t// in\n    tag_744:\n        /* \"#utility.yul\":12122:12125   */\n      dup3\n        /* \"#utility.yul\":12115:12152   */\n      mstore\n        /* \"#utility.yul\":12040:12158   */\n      pop\n      pop\n      jump\t// out\n        /* \"#utility.yul\":12164:12386   */\n    tag_114:\n        /* \"#utility.yul\":12257:12261   */\n      0x00\n        /* \"#utility.yul\":12295:12297   */\n      0x20\n        /* \"#utility.yul\":12284:12293   */\n      dup3\n        /* \"#utility.yul\":12280:12298   */\n      add\n        /* \"#utility.yul\":12272:12298   */\n      swap1\n      pop\n        /* \"#utility.yul\":12308:12379   */\n      tag_746\n        /* \"#utility.yul\":12376:12377   */\n      0x00\n        /* \"#utility.yul\":12365:12374   */\n      dup4\n        /* \"#utility.yul\":12361:12378   */\n      add\n        /* \"#utility.yul\":12352:12358   */\n      dup5\n        /* \"#utility.yul\":12308:12379   */\n      tag_571\n      jump\t// in\n    tag_746:\n        /* \"#utility.yul\":12164:12386   */\n      swap3\n      swap2\n      pop\n      pop\n      jump\t// out\n        /* \"#utility.yul\":12392:12700   */\n    tag_572:\n        /* \"#utility.yul\":12454:12458   */\n      0x00\n        /* \"#utility.yul\":12544:12562   */\n      0xffffffffffffffff\n        /* \"#utility.yul\":12536:12542   */\n      dup3\n        /* \"#utility.yul\":12533:12563   */\n      gt\n        /* \"#utility.yul\":12530:12586   */\n      iszero\n      tag_748\n      jumpi\n        /* \"#utility.yul\":12566:12584   */\n      tag_749\n      tag_550\n      jump\t// in\n    tag_749:\n        /* \"#utility.yul\":12530:12586   */\n    tag_748:\n        /* \"#utility.yul\":12604:12633   */\n      tag_750\n        /* \"#utility.yul\":12626:12632   */\n      dup3\n        /* \"#utility.yul\":12604:12633   */\n      tag_535\n      jump\t// in\n    tag_750:\n        /* \"#utility.yul\":12596:12633   */\n      swap1\n      pop\n        /* \"#utility.yul\":12688:12692   */\n      0x20\n        /* \"#utility.yul\":12682:12686   */\n      dup2\n        /* \"#utility.yul\":12678:12693   */\n      add\n        /* \"#utility.yul\":12670:12693   */\n      swap1\n      pop\n        /* \"#utility.yul\":12392:12700   */\n      swap2\n      swap1\n      pop\n      jump\t// out\n        /* \"#utility.yul\":12706:13131   */\n    tag_573:\n        /* \"#utility.yul\":12784:12789   */\n      0x00\n        /* \"#utility.yul\":12809:12875   */\n      tag_752\n        /* \"#utility.yul\":12825:12874   */\n      tag_753\n        /* \"#utility.yul\":12867:12873   */\n      dup5\n        /* \"#utility.yul\":12825:12874   */\n      tag_572\n      jump\t// in\n    tag_753:\n        /* \"#utility.yul\":12809:12875   */\n      tag_552\n      jump\t// in\n    tag_752:\n        /* \"#utility.yul\":12800:12875   */\n      swap1\n      pop\n        /* \"#utility.yul\":12898:12904   */\n      dup3\n        /* \"#utility.yul\":12891:12896   */\n      dup2\n        /* \"#utility.yul\":12884:12905   */\n      mstore\n        /* \"#utility.yul\":12936:12940   */\n      0x20\n        /* \"#utility.yul\":12929:12934   */\n      dup2\n        /* \"#utility.yul\":12925:12941   */\n      add\n        /* \"#utility.yul\":12974:12977   */\n      dup5\n        /* \"#utility.yul\":12965:12971   */\n      dup5\n        /* \"#utility.yul\":12960:12963   */\n      dup5\n        /* \"#utility.yul\":12956:12972   */\n      add\n        /* \"#utility.yul\":12953:12978   */\n      gt\n        /* \"#utility.yul\":12950:13062   */\n      iszero\n      tag_754\n      jumpi\n        /* \"#utility.yul\":12981:13060   */\n      tag_755\n      tag_559\n      jump\t// in\n    tag_755:\n        /* \"#utility.yul\":12950:13062   */\n    tag_754:\n        /* \"#utility.yul\":13071:13125   */\n      tag_756\n        /* \"#utility.yul\":13118:13124   */\n      dup5\n        /* \"#utility.yul\":13113:13116   */\n      dup3\n        /* \"#utility.yul\":13108:13111   */\n      dup6\n        /* \"#utility.yul\":13071:13125   */\n      tag_561\n      jump\t// in\n    tag_756:\n        /* \"#utility.yul\":12790:13131   */\n      pop\n        /* \"#utility.yul\":12706:13131   */\n      swap4\n      swap3\n      pop\n      pop\n      pop\n      jump\t// out\n        /* \"#utility.yul\":13151:13491   */\n    tag_574:\n        /* \"#utility.yul\":13207:13212   */\n      0x00\n        /* \"#utility.yul\":13256:13259   */\n      dup3\n        /* \"#utility.yul\":13249:13253   */\n      0x1f\n        /* \"#utility.yul\":13241:13247   */\n      dup4\n        /* \"#utility.yul\":13237:13254   */\n      add\n        /* \"#utility.yul\":13233:13260   */\n      slt\n        /* \"#utility.yul\":13223:13345   */\n      tag_758\n      jumpi\n        /* \"#utility.yul\":13264:13343   */\n      tag_759\n      tag_558\n      jump\t// in\n    tag_759:\n        /* \"#utility.yul\":13223:13345   */\n    tag_758:\n        /* \"#utility.yul\":13381:13387   */\n      dup2\n        /* \"#utility.yul\":13368:13388   */\n      calldataload\n        /* \"#utility.yul\":13406:13485   */\n      tag_760\n        /* \"#utility.yul\":13481:13484   */\n      dup5\n        /* \"#utility.yul\":13473:13479   */\n      dup3\n        /* \"#utility.yul\":13466:13470   */\n      0x20\n        /* \"#utility.yul\":13458:13464   */\n      dup7\n        /* \"#utility.yul\":13454:13471   */\n      add\n        /* \"#utility.yul\":13406:13485   */\n      tag_573\n      jump\t// in\n    tag_760:\n        /* \"#utility.yul\":13397:13485   */\n      swap2\n      pop\n        /* \"#utility.yul\":13213:13491   */\n      pop\n        /* \"#utility.yul\":13151:13491   */\n      swap3\n      swap2\n      pop\n      pop\n      jump\t// out\n        /* \"#utility.yul\":13497:14686   */\n    tag_138:\n        /* \"#utility.yul\":13635:13641   */\n      0x00\n        /* \"#utility.yul\":13643:13649   */\n      dup1\n        /* \"#utility.yul\":13651:13657   */\n      0x00\n        /* \"#utility.yul\":13659:13665   */\n      dup1\n        /* \"#utility.yul\":13708:13711   */\n      0x0120\n        /* \"#utility.yul\":13696:13705   */\n      dup6\n        /* \"#utility.yul\":13687:13694   */\n      dup8\n        /* \"#utility.yul\":13683:13706   */\n      sub\n        /* \"#utility.yul\":13679:13712   */\n      slt\n        /* \"#utility.yul\":13676:13796   */\n      iszero\n      tag_762\n      jumpi\n        /* \"#utility.yul\":13715:13794   */\n      tag_763\n      tag_538\n      jump\t// in\n    tag_763:\n        /* \"#utility.yul\":13676:13796   */\n    tag_762:\n        /* \"#utility.yul\":13863:13864   */\n      0x00\n        /* \"#utility.yul\":13852:13861   */\n      dup6\n        /* \"#utility.yul\":13848:13865   */\n      add\n        /* \"#utility.yul\":13835:13866   */\n      calldataload\n        /* \"#utility.yul\":13893:13911   */\n      0xffffffffffffffff\n        /* \"#utility.yul\":13885:13891   */\n      dup2\n        /* \"#utility.yul\":13882:13912   */\n      gt\n        /* \"#utility.yul\":13879:13996   */\n      iszero\n      tag_764\n      jumpi\n        /* \"#utility.yul\":13915:13994   */\n      tag_765\n      tag_539\n      jump\t// in\n    tag_765:\n        /* \"#utility.yul\":13879:13996   */\n    tag_764:\n        /* \"#utility.yul\":14020:14083   */\n      tag_766\n        /* \"#utility.yul\":14075:14082   */\n      dup8\n        /* \"#utility.yul\":14066:14072   */\n      dup3\n        /* \"#utility.yul\":14055:14064   */\n      dup9\n        /* \"#utility.yul\":14051:14073   */\n      add\n        /* \"#utility.yul\":14020:14083   */\n      tag_574\n      jump\t// in\n    tag_766:\n        /* \"#utility.yul\":14010:14083   */\n      swap5\n      pop\n        /* \"#utility.yul\":13806:14093   */\n      pop\n        /* \"#utility.yul\":14160:14162   */\n      0x20\n        /* \"#utility.yul\":14149:14158   */\n      dup6\n        /* \"#utility.yul\":14145:14163   */\n      add\n        /* \"#utility.yul\":14132:14164   */\n      calldataload\n        /* \"#utility.yul\":14191:14209   */\n      0xffffffffffffffff\n        /* \"#utility.yul\":14183:14189   */\n      dup2\n        /* \"#utility.yul\":14180:14210   */\n      gt\n        /* \"#utility.yul\":14177:14294   */\n      iszero\n      tag_767\n      jumpi\n        /* \"#utility.yul\":14213:14292   */\n      tag_768\n      tag_539\n      jump\t// in\n    tag_768:\n        /* \"#utility.yul\":14177:14294   */\n    tag_767:\n        /* \"#utility.yul\":14318:14381   */\n      tag_769\n        /* \"#utility.yul\":14373:14380   */\n      dup8\n        /* \"#utility.yul\":14364:14370   */\n      dup3\n        /* \"#utility.yul\":14353:14362   */\n      dup9\n        /* \"#utility.yul\":14349:14371   */\n      add\n        /* \"#utility.yul\":14318:14381   */\n      tag_574\n      jump\t// in\n    tag_769:\n        /* \"#utility.yul\":14308:14381   */\n      swap4\n      pop\n        /* \"#utility.yul\":14103:14391   */\n      pop\n        /* \"#utility.yul\":14430:14432   */\n      0x40\n        /* \"#utility.yul\":14456:14509   */\n      tag_770\n        /* \"#utility.yul\":14501:14508   */\n      dup8\n        /* \"#utility.yul\":14492:14498   */\n      dup3\n        /* \"#utility.yul\":14481:14490   */\n      dup9\n        /* \"#utility.yul\":14477:14499   */\n      add\n        /* \"#utility.yul\":14456:14509   */\n      tag_543\n      jump\t// in\n    tag_770:\n        /* \"#utility.yul\":14446:14509   */\n      swap3\n      pop\n        /* \"#utility.yul\":14401:14519   */\n      pop\n        /* \"#utility.yul\":14558:14560   */\n      0x60\n        /* \"#utility.yul\":14584:14669   */\n      tag_771\n        /* \"#utility.yul\":14661:14668   */\n      dup8\n        /* \"#utility.yul\":14652:14658   */\n      dup3\n        /* \"#utility.yul\":14641:14650   */\n      dup9\n        /* \"#utility.yul\":14637:14659   */\n      add\n        /* \"#utility.yul\":14584:14669   */\n      tag_554\n      jump\t// in\n    tag_771:\n        /* \"#utility.yul\":14574:14669   */\n      swap2\n      pop\n        /* \"#utility.yul\":14529:14679   */\n      pop\n        /* \"#utility.yul\":13497:14686   */\n      swap3\n      swap6\n      swap2\n      swap5\n      pop\n      swap3\n      pop\n      jump\t// out\n        /* \"#utility.yul\":14692:15166   */\n    tag_151:\n        /* \"#utility.yul\":14760:14766   */\n      0x00\n        /* \"#utility.yul\":14768:14774   */\n      dup1\n        /* \"#utility.yul\":14817:14819   */\n      0x40\n        /* \"#utility.yul\":14805:14814   */\n      dup4\n        /* \"#utility.yul\":14796:14803   */\n      dup6\n        /* \"#utility.yul\":14792:14815   */\n      sub\n        /* \"#utility.yul\":14788:14820   */\n      slt\n        /* \"#utility.yul\":14785:14904   */\n      iszero\n      tag_773\n      jumpi\n        /* \"#utility.yul\":14823:14902   */\n      tag_774\n      tag_538\n      jump\t// in\n    tag_774:\n        /* \"#utility.yul\":14785:14904   */\n    tag_773:\n        /* \"#utility.yul\":14943:14944   */\n      0x00\n        /* \"#utility.yul\":14968:15021   */\n      tag_775\n        /* \"#utility.yul\":15013:15020   */\n      dup6\n        /* \"#utility.yul\":15004:15010   */\n      dup3\n        /* \"#utility.yul\":14993:15002   */\n      dup7\n        /* \"#utility.yul\":14989:15011   */\n      add\n        /* \"#utility.yul\":14968:15021   */\n      tag_543\n      jump\t// in\n    tag_775:\n        /* \"#utility.yul\":14958:15021   */\n      swap3\n      pop\n        /* \"#utility.yul\":14914:15031   */\n      pop\n        /* \"#utility.yul\":15070:15072   */\n      0x20\n        /* \"#utility.yul\":15096:15149   */\n      tag_776\n        /* \"#utility.yul\":15141:15148   */\n      dup6\n        /* \"#utility.yul\":15132:15138   */\n      dup3\n        /* \"#utility.yul\":15121:15130   */\n      dup7\n        /* \"#utility.yul\":15117:15139   */\n      add\n        /* \"#utility.yul\":15096:15149   */\n      tag_543\n      jump\t// in\n    tag_776:\n        /* \"#utility.yul\":15086:15149   */\n      swap2\n      pop\n        /* \"#utility.yul\":15041:15159   */\n      pop\n        /* \"#utility.yul\":14692:15166   */\n      swap3\n      pop\n      swap3\n      swap1\n      pop\n      jump\t// out\n        /* \"#utility.yul\":15172:15352   */\n    tag_575:\n        /* \"#utility.yul\":15220:15297   */\n      0x4e487b7100000000000000000000000000000000000000000000000000000000\n        /* \"#utility.yul\":15217:15218   */\n      0x00\n        /* \"#utility.yul\":15210:15298   */\n      mstore\n        /* \"#utility.yul\":15317:15321   */\n      0x22\n        /* \"#utility.yul\":15314:15315   */\n      0x04\n        /* \"#utility.yul\":15307:15322   */\n      mstore\n        /* \"#utility.yul\":15341:15345   */\n      0x24\n        /* \"#utility.yul\":15338:15339   */\n      0x00\n        /* \"#utility.yul\":15331:15346   */\n      revert\n        /* \"#utility.yul\":15358:15678   */\n    tag_162:\n        /* \"#utility.yul\":15402:15408   */\n      0x00\n        /* \"#utility.yul\":15439:15440   */\n      0x02\n        /* \"#utility.yul\":15433:15437   */\n      dup3\n        /* \"#utility.yul\":15429:15441   */\n      div\n        /* \"#utility.yul\":15419:15441   */\n      swap1\n      pop\n        /* \"#utility.yul\":15486:15487   */\n      0x01\n        /* \"#utility.yul\":15480:15484   */\n      dup3\n        /* \"#utility.yul\":15476:15488   */\n      and\n        /* \"#utility.yul\":15507:15525   */\n      dup1\n        /* \"#utility.yul\":15497:15578   */\n      tag_779\n      jumpi\n        /* \"#utility.yul\":15563:15567   */\n      0x7f\n        /* \"#utility.yul\":15555:15561   */\n      dup3\n        /* \"#utility.yul\":15551:15568   */\n      and\n        /* \"#utility.yul\":15541:15568   */\n      swap2\n      pop\n        /* \"#utility.yul\":15497:15578   */\n    tag_779:\n        /* \"#utility.yul\":15625:15627   */\n      0x20\n        /* \"#utility.yul\":15617:15623   */\n      dup3\n        /* \"#utility.yul\":15614:15628   */\n      lt\n        /* \"#utility.yul\":15594:15612   */\n      dup2\n        /* \"#utility.yul\":15591:15629   */\n      sub\n        /* \"#utility.yul\":15588:15672   */\n      tag_780\n      jumpi\n        /* \"#utility.yul\":15644:15662   */\n      tag_781\n      tag_575\n      jump\t// in\n    tag_781:\n        /* \"#utility.yul\":15588:15672   */\n    tag_780:\n        /* \"#utility.yul\":15409:15678   */\n      pop\n        /* \"#utility.yul\":15358:15678   */\n      swap2\n      swap1\n      pop\n      jump\t// out\n        /* \"#utility.yul\":15684:15792   */\n    tag_576:\n        /* \"#utility.yul\":15761:15785   */\n      tag_783\n        /* \"#utility.yul\":15779:15784   */\n      dup2\n        /* \"#utility.yul\":15761:15785   */\n      tag_544\n      jump\t// in\n    tag_783:\n        /* \"#utility.yul\":15756:15759   */\n      dup3\n        /* \"#utility.yul\":15749:15786   */\n      mstore\n        /* \"#utility.yul\":15684:15792   */\n      pop\n      pop\n      jump\t// out\n        /* \"#utility.yul\":15876:17163   */\n    tag_577:\n        /* \"#utility.yul\":16037:16041   */\n      0xc0\n        /* \"#utility.yul\":16032:16035   */\n      dup3\n        /* \"#utility.yul\":16028:16042   */\n      add\n        /* \"#utility.yul\":16137:16141   */\n      0x00\n        /* \"#utility.yul\":16130:16135   */\n      dup3\n        /* \"#utility.yul\":16126:16142   */\n      add\n        /* \"#utility.yul\":16120:16143   */\n      mload\n        /* \"#utility.yul\":16156:16219   */\n      tag_785\n        /* \"#utility.yul\":16213:16217   */\n      0x00\n        /* \"#utility.yul\":16208:16211   */\n      dup6\n        /* \"#utility.yul\":16204:16218   */\n      add\n        /* \"#utility.yul\":16190:16202   */\n      dup3\n        /* \"#utility.yul\":16156:16219   */\n      tag_576\n      jump\t// in\n    tag_785:\n        /* \"#utility.yul\":16052:16229   */\n      pop\n        /* \"#utility.yul\":16324:16328   */\n      0x20\n        /* \"#utility.yul\":16317:16322   */\n      dup3\n        /* \"#utility.yul\":16313:16329   */\n      add\n        /* \"#utility.yul\":16307:16330   */\n      mload\n        /* \"#utility.yul\":16343:16406   */\n      tag_786\n        /* \"#utility.yul\":16400:16404   */\n      0x20\n        /* \"#utility.yul\":16395:16398   */\n      dup6\n        /* \"#utility.yul\":16391:16405   */\n      add\n        /* \"#utility.yul\":16377:16389   */\n      dup3\n        /* \"#utility.yul\":16343:16406   */\n      tag_576\n      jump\t// in\n    tag_786:\n        /* \"#utility.yul\":16239:16416   */\n      pop\n        /* \"#utility.yul\":16507:16511   */\n      0x40\n        /* \"#utility.yul\":16500:16505   */\n      dup3\n        /* \"#utility.yul\":16496:16512   */\n      add\n        /* \"#utility.yul\":16490:16513   */\n      mload\n        /* \"#utility.yul\":16526:16589   */\n      tag_787\n        /* \"#utility.yul\":16583:16587   */\n      0x40\n        /* \"#utility.yul\":16578:16581   */\n      dup6\n        /* \"#utility.yul\":16574:16588   */\n      add\n        /* \"#utility.yul\":16560:16572   */\n      dup3\n        /* \"#utility.yul\":16526:16589   */\n      tag_576\n      jump\t// in\n    tag_787:\n        /* \"#utility.yul\":16426:16599   */\n      pop\n        /* \"#utility.yul\":16693:16697   */\n      0x60\n        /* \"#utility.yul\":16686:16691   */\n      dup3\n        /* \"#utility.yul\":16682:16698   */\n      add\n        /* \"#utility.yul\":16676:16699   */\n      mload\n        /* \"#utility.yul\":16712:16775   */\n      tag_788\n        /* \"#utility.yul\":16769:16773   */\n      0x60\n        /* \"#utility.yul\":16764:16767   */\n      dup6\n        /* \"#utility.yul\":16760:16774   */\n      add\n        /* \"#utility.yul\":16746:16758   */\n      dup3\n        /* \"#utility.yul\":16712:16775   */\n      tag_576\n      jump\t// in\n    tag_788:\n        /* \"#utility.yul\":16609:16785   */\n      pop\n        /* \"#utility.yul\":16880:16884   */\n      0x80\n        /* \"#utility.yul\":16873:16878   */\n      dup3\n        /* \"#utility.yul\":16869:16885   */\n      add\n        /* \"#utility.yul\":16863:16886   */\n      mload\n        /* \"#utility.yul\":16899:16962   */\n      tag_789\n        /* \"#utility.yul\":16956:16960   */\n      0x80\n        /* \"#utility.yul\":16951:16954   */\n      dup6\n        /* \"#utility.yul\":16947:16961   */\n      add\n        /* \"#utility.yul\":16933:16945   */\n      dup3\n        /* \"#utility.yul\":16899:16962   */\n      tag_576\n      jump\t// in\n    tag_789:\n        /* \"#utility.yul\":16795:16972   */\n      pop\n        /* \"#utility.yul\":17064:17068   */\n      0xa0\n        /* \"#utility.yul\":17057:17062   */\n      dup3\n        /* \"#utility.yul\":17053:17069   */\n      add\n        /* \"#utility.yul\":17047:17070   */\n      mload\n        /* \"#utility.yul\":17083:17146   */\n      tag_790\n        /* \"#utility.yul\":17140:17144   */\n      0xa0\n        /* \"#utility.yul\":17135:17138   */\n      dup6\n        /* \"#utility.yul\":17131:17145   */\n      add\n        /* \"#utility.yul\":17117:17129   */\n      dup3\n        /* \"#utility.yul\":17083:17146   */\n      tag_576\n      jump\t// in\n    tag_790:\n        /* \"#utility.yul\":16982:17156   */\n      pop\n        /* \"#utility.yul\":16006:17163   */\n      pop\n        /* \"#utility.yul\":15876:17163   */\n      pop\n      pop\n      jump\t// out\n        /* \"#utility.yul\":17169:17520   */\n    tag_177:\n        /* \"#utility.yul\":17326:17330   */\n      0x00\n        /* \"#utility.yul\":17364:17367   */\n      0xc0\n        /* \"#utility.yul\":17353:17362   */\n      dup3\n        /* \"#utility.yul\":17349:17368   */\n      add\n        /* \"#utility.yul\":17341:17368   */\n      swap1\n      pop\n        /* \"#utility.yul\":17378:17513   */\n      tag_792\n        /* \"#utility.yul\":17510:17511   */\n      0x00\n        /* \"#utility.yul\":17499:17508   */\n      dup4\n        /* \"#utility.yul\":17495:17512   */\n      add\n        /* \"#utility.yul\":17486:17492   */\n      dup5\n        /* \"#utility.yul\":17378:17513   */\n      tag_577\n      jump\t// in\n    tag_792:\n        /* \"#utility.yul\":17169:17520   */\n      swap3\n      swap2\n      pop\n      pop\n      jump\t// out\n        /* \"#utility.yul\":17526:17706   */\n    tag_578:\n        /* \"#utility.yul\":17574:17651   */\n      0x4e487b7100000000000000000000000000000000000000000000000000000000\n        /* \"#utility.yul\":17571:17572   */\n      0x00\n        /* \"#utility.yul\":17564:17652   */\n      mstore\n        /* \"#utility.yul\":17671:17675   */\n      0x11\n        /* \"#utility.yul\":17668:17669   */\n      0x04\n        /* \"#utility.yul\":17661:17676   */\n      mstore\n        /* \"#utility.yul\":17695:17699   */\n      0x24\n        /* \"#utility.yul\":17692:17693   */\n      0x00\n        /* \"#utility.yul\":17685:17700   */\n      revert\n        /* \"#utility.yul\":17712:17903   */\n    tag_236:\n        /* \"#utility.yul\":17752:17755   */\n      0x00\n        /* \"#utility.yul\":17771:17791   */\n      tag_795\n        /* \"#utility.yul\":17789:17790   */\n      dup3\n        /* \"#utility.yul\":17771:17791   */\n      tag_544\n      jump\t// in\n    tag_795:\n        /* \"#utility.yul\":17766:17791   */\n      swap2\n      pop\n        /* \"#utility.yul\":17805:17825   */\n      tag_796\n        /* \"#utility.yul\":17823:17824   */\n      dup4\n        /* \"#utility.yul\":17805:17825   */\n      tag_544\n      jump\t// in\n    tag_796:\n        /* \"#utility.yul\":17800:17825   */\n      swap3\n      pop\n        /* \"#utility.yul\":17848:17849   */\n      dup3\n        /* \"#utility.yul\":17845:17846   */\n      dup3\n        /* \"#utility.yul\":17841:17850   */\n      add\n        /* \"#utility.yul\":17834:17850   */\n      swap1\n      pop\n        /* \"#utility.yul\":17869:17872   */\n      dup1\n        /* \"#utility.yul\":17866:17867   */\n      dup3\n        /* \"#utility.yul\":17863:17873   */\n      gt\n        /* \"#utility.yul\":17860:17896   */\n      iszero\n      tag_797\n      jumpi\n        /* \"#utility.yul\":17876:17894   */\n      tag_798\n      tag_578\n      jump\t// in\n    tag_798:\n        /* \"#utility.yul\":17860:17896   */\n    tag_797:\n        /* \"#utility.yul\":17712:17903   */\n      swap3\n      swap2\n      pop\n      pop\n      jump\t// out\n        /* \"#utility.yul\":17909:18052   */\n    tag_579:\n        /* \"#utility.yul\":17966:17971   */\n      0x00\n        /* \"#utility.yul\":17997:18003   */\n      dup2\n        /* \"#utility.yul\":17991:18004   */\n      mload\n        /* \"#utility.yul\":17982:18004   */\n      swap1\n      pop\n        /* \"#utility.yul\":18013:18046   */\n      tag_800\n        /* \"#utility.yul\":18040:18045   */\n      dup2\n        /* \"#utility.yul\":18013:18046   */\n      tag_545\n      jump\t// in\n    tag_800:\n        /* \"#utility.yul\":17909:18052   */\n      swap3\n      swap2\n      pop\n      pop\n      jump\t// out\n        /* \"#utility.yul\":18107:19095   */\n    tag_580:\n        /* \"#utility.yul\":18198:18203   */\n      0x00\n        /* \"#utility.yul\":18242:18246   */\n      0x80\n        /* \"#utility.yul\":18230:18239   */\n      dup3\n        /* \"#utility.yul\":18225:18228   */\n      dup5\n        /* \"#utility.yul\":18221:18240   */\n      sub\n        /* \"#utility.yul\":18217:18247   */\n      slt\n        /* \"#utility.yul\":18214:18331   */\n      iszero\n      tag_802\n      jumpi\n        /* \"#utility.yul\":18250:18329   */\n      tag_803\n      tag_549\n      jump\t// in\n    tag_803:\n        /* \"#utility.yul\":18214:18331   */\n    tag_802:\n        /* \"#utility.yul\":18349:18370   */\n      tag_804\n        /* \"#utility.yul\":18365:18369   */\n      0x80\n        /* \"#utility.yul\":18349:18370   */\n      tag_552\n      jump\t// in\n    tag_804:\n        /* \"#utility.yul\":18340:18370   */\n      swap1\n      pop\n        /* \"#utility.yul\":18435:18436   */\n      0x00\n        /* \"#utility.yul\":18475:18535   */\n      tag_805\n        /* \"#utility.yul\":18531:18534   */\n      dup5\n        /* \"#utility.yul\":18522:18528   */\n      dup3\n        /* \"#utility.yul\":18511:18520   */\n      dup6\n        /* \"#utility.yul\":18507:18529   */\n      add\n        /* \"#utility.yul\":18475:18535   */\n      tag_579\n      jump\t// in\n    tag_805:\n        /* \"#utility.yul\":18468:18472   */\n      0x00\n        /* \"#utility.yul\":18461:18466   */\n      dup4\n        /* \"#utility.yul\":18457:18473   */\n      add\n        /* \"#utility.yul\":18450:18536   */\n      mstore\n        /* \"#utility.yul\":18380:18547   */\n      pop\n        /* \"#utility.yul\":18616:18618   */\n      0x20\n        /* \"#utility.yul\":18657:18717   */\n      tag_806\n        /* \"#utility.yul\":18713:18716   */\n      dup5\n        /* \"#utility.yul\":18704:18710   */\n      dup3\n        /* \"#utility.yul\":18693:18702   */\n      dup6\n        /* \"#utility.yul\":18689:18711   */\n      add\n        /* \"#utility.yul\":18657:18717   */\n      tag_579\n      jump\t// in\n    tag_806:\n        /* \"#utility.yul\":18650:18654   */\n      0x20\n        /* \"#utility.yul\":18643:18648   */\n      dup4\n        /* \"#utility.yul\":18639:18655   */\n      add\n        /* \"#utility.yul\":18632:18718   */\n      mstore\n        /* \"#utility.yul\":18557:18729   */\n      pop\n        /* \"#utility.yul\":18798:18800   */\n      0x40\n        /* \"#utility.yul\":18839:18899   */\n      tag_807\n        /* \"#utility.yul\":18895:18898   */\n      dup5\n        /* \"#utility.yul\":18886:18892   */\n      dup3\n        /* \"#utility.yul\":18875:18884   */\n      dup6\n        /* \"#utility.yul\":18871:18893   */\n      add\n        /* \"#utility.yul\":18839:18899   */\n      tag_579\n      jump\t// in\n    tag_807:\n        /* \"#utility.yul\":18832:18836   */\n      0x40\n        /* \"#utility.yul\":18825:18830   */\n      dup4\n        /* \"#utility.yul\":18821:18837   */\n      add\n        /* \"#utility.yul\":18814:18900   */\n      mstore\n        /* \"#utility.yul\":18739:18911   */\n      pop\n        /* \"#utility.yul\":18975:18977   */\n      0x60\n        /* \"#utility.yul\":19016:19076   */\n      tag_808\n        /* \"#utility.yul\":19072:19075   */\n      dup5\n        /* \"#utility.yul\":19063:19069   */\n      dup3\n        /* \"#utility.yul\":19052:19061   */\n      dup6\n        /* \"#utility.yul\":19048:19070   */\n      add\n        /* \"#utility.yul\":19016:19076   */\n      tag_579\n      jump\t// in\n    tag_808:\n        /* \"#utility.yul\":19009:19013   */\n      0x60\n        /* \"#utility.yul\":19002:19007   */\n      dup4\n        /* \"#utility.yul\":18998:19014   */\n      add\n        /* \"#utility.yul\":18991:19077   */\n      mstore\n        /* \"#utility.yul\":18921:19088   */\n      pop\n        /* \"#utility.yul\":18107:19095   */\n      swap3\n      swap2\n      pop\n      pop\n      jump\t// out\n        /* \"#utility.yul\":19101:19515   */\n    tag_241:\n        /* \"#utility.yul\":19202:19208   */\n      0x00\n        /* \"#utility.yul\":19251:19254   */\n      0x80\n        /* \"#utility.yul\":19239:19248   */\n      dup3\n        /* \"#utility.yul\":19230:19237   */\n      dup5\n        /* \"#utility.yul\":19226:19249   */\n      sub\n        /* \"#utility.yul\":19222:19255   */\n      slt\n        /* \"#utility.yul\":19219:19339   */\n      iszero\n      tag_810\n      jumpi\n        /* \"#utility.yul\":19258:19337   */\n      tag_811\n      tag_538\n      jump\t// in\n    tag_811:\n        /* \"#utility.yul\":19219:19339   */\n    tag_810:\n        /* \"#utility.yul\":19378:19379   */\n      0x00\n        /* \"#utility.yul\":19403:19498   */\n      tag_812\n        /* \"#utility.yul\":19490:19497   */\n      dup5\n        /* \"#utility.yul\":19481:19487   */\n      dup3\n        /* \"#utility.yul\":19470:19479   */\n      dup6\n        /* \"#utility.yul\":19466:19488   */\n      add\n        /* \"#utility.yul\":19403:19498   */\n      tag_580\n      jump\t// in\n    tag_812:\n        /* \"#utility.yul\":19393:19498   */\n      swap2\n      pop\n        /* \"#utility.yul\":19349:19508   */\n      pop\n        /* \"#utility.yul\":19101:19515   */\n      swap3\n      swap2\n      pop\n      pop\n      jump\t// out\n        /* \"#utility.yul\":19521:19715   */\n    tag_243:\n        /* \"#utility.yul\":19561:19565   */\n      0x00\n        /* \"#utility.yul\":19581:19601   */\n      tag_814\n        /* \"#utility.yul\":19599:19600   */\n      dup3\n        /* \"#utility.yul\":19581:19601   */\n      tag_544\n      jump\t// in\n    tag_814:\n        /* \"#utility.yul\":19576:19601   */\n      swap2\n      pop\n        /* \"#utility.yul\":19615:19635   */\n      tag_815\n        /* \"#utility.yul\":19633:19634   */\n      dup4\n        /* \"#utility.yul\":19615:19635   */\n      tag_544\n      jump\t// in\n    tag_815:\n        /* \"#utility.yul\":19610:19635   */\n      swap3\n      pop\n        /* \"#utility.yul\":19659:19660   */\n      dup3\n        /* \"#utility.yul\":19656:19657   */\n      dup3\n        /* \"#utility.yul\":19652:19661   */\n      sub\n        /* \"#utility.yul\":19644:19661   */\n      swap1\n      pop\n        /* \"#utility.yul\":19683:19684   */\n      dup2\n        /* \"#utility.yul\":19677:19681   */\n      dup2\n        /* \"#utility.yul\":19674:19685   */\n      gt\n        /* \"#utility.yul\":19671:19708   */\n      iszero\n      tag_816\n      jumpi\n        /* \"#utility.yul\":19688:19706   */\n      tag_817\n      tag_578\n      jump\t// in\n    tag_817:\n        /* \"#utility.yul\":19671:19708   */\n    tag_816:\n        /* \"#utility.yul\":19521:19715   */\n      swap3\n      swap2\n      pop\n      pop\n      jump\t// out\n        /* \"#utility.yul\":19721:19843   */\n    tag_581:\n        /* \"#utility.yul\":19794:19818   */\n      tag_819\n        /* \"#utility.yul\":19812:19817   */\n      dup2\n        /* \"#utility.yul\":19794:19818   */\n      tag_564\n      jump\t// in\n    tag_819:\n        /* \"#utility.yul\":19787:19792   */\n      dup2\n        /* \"#utility.yul\":19784:19819   */\n      eq\n        /* \"#utility.yul\":19774:19837   */\n      tag_820\n      jumpi\n        /* \"#utility.yul\":19833:19834   */\n      0x00\n        /* \"#utility.yul\":19830:19831   */\n      dup1\n        /* \"#utility.yul\":19823:19835   */\n      revert\n        /* \"#utility.yul\":19774:19837   */\n    tag_820:\n        /* \"#utility.yul\":19721:19843   */\n      pop\n      jump\t// out\n        /* \"#utility.yul\":19849:19992   */\n    tag_582:\n        /* \"#utility.yul\":19906:19911   */\n      0x00\n        /* \"#utility.yul\":19937:19943   */\n      dup2\n        /* \"#utility.yul\":19931:19944   */\n      mload\n        /* \"#utility.yul\":19922:19944   */\n      swap1\n      pop\n        /* \"#utility.yul\":19953:19986   */\n      tag_822\n        /* \"#utility.yul\":19980:19985   */\n      dup2\n        /* \"#utility.yul\":19953:19986   */\n      tag_581\n      jump\t// in\n    tag_822:\n        /* \"#utility.yul\":19849:19992   */\n      swap3\n      swap2\n      pop\n      pop\n      jump\t// out\n        /* \"#utility.yul\":19998:20349   */\n    tag_256:\n        /* \"#utility.yul\":20068:20074   */\n      0x00\n        /* \"#utility.yul\":20117:20119   */\n      0x20\n        /* \"#utility.yul\":20105:20114   */\n      dup3\n        /* \"#utility.yul\":20096:20103   */\n      dup5\n        /* \"#utility.yul\":20092:20115   */\n      sub\n        /* \"#utility.yul\":20088:20120   */\n      slt\n        /* \"#utility.yul\":20085:20204   */\n      iszero\n      tag_824\n      jumpi\n        /* \"#utility.yul\":20123:20202   */\n      tag_825\n      tag_538\n      jump\t// in\n    tag_825:\n        /* \"#utility.yul\":20085:20204   */\n    tag_824:\n        /* \"#utility.yul\":20243:20244   */\n      0x00\n        /* \"#utility.yul\":20268:20332   */\n      tag_826\n        /* \"#utility.yul\":20324:20331   */\n      dup5\n        /* \"#utility.yul\":20315:20321   */\n      dup3\n        /* \"#utility.yul\":20304:20313   */\n      dup6\n        /* \"#utility.yul\":20300:20322   */\n      add\n        /* \"#utility.yul\":20268:20332   */\n      tag_582\n      jump\t// in\n    tag_826:\n        /* \"#utility.yul\":20258:20332   */\n      swap2\n      pop\n        /* \"#utility.yul\":20214:20342   */\n      pop\n        /* \"#utility.yul\":19998:20349   */\n      swap3\n      swap2\n      pop\n      pop\n      jump\t// out\n        /* \"#utility.yul\":20355:20457   */\n    tag_583:\n        /* \"#utility.yul\":20397:20405   */\n      0x00\n        /* \"#utility.yul\":20444:20449   */\n      dup2\n        /* \"#utility.yul\":20441:20442   */\n      0x01\n        /* \"#utility.yul\":20437:20450   */\n      shr\n        /* \"#utility.yul\":20416:20450   */\n      swap1\n      pop\n        /* \"#utility.yul\":20355:20457   */\n      swap2\n      swap1\n      pop\n      jump\t// out\n        /* \"#utility.yul\":20463:21311   */\n    tag_584:\n        /* \"#utility.yul\":20524:20529   */\n      0x00\n        /* \"#utility.yul\":20531:20535   */\n      dup1\n        /* \"#utility.yul\":20555:20561   */\n      dup3\n        /* \"#utility.yul\":20546:20561   */\n      swap2\n      pop\n        /* \"#utility.yul\":20579:20584   */\n      dup4\n        /* \"#utility.yul\":20570:20584   */\n      swap1\n      pop\n        /* \"#utility.yul\":20593:21305   */\n    tag_829:\n        /* \"#utility.yul\":20614:20615   */\n      0x01\n        /* \"#utility.yul\":20604:20612   */\n      dup6\n        /* \"#utility.yul\":20601:20616   */\n      gt\n        /* \"#utility.yul\":20593:21305   */\n      iszero\n      tag_831\n      jumpi\n        /* \"#utility.yul\":20709:20713   */\n      dup1\n        /* \"#utility.yul\":20704:20707   */\n      dup7\n        /* \"#utility.yul\":20700:20714   */\n      div\n        /* \"#utility.yul\":20694:20698   */\n      dup2\n        /* \"#utility.yul\":20691:20715   */\n      gt\n        /* \"#utility.yul\":20688:20738   */\n      iszero\n      tag_832\n      jumpi\n        /* \"#utility.yul\":20718:20736   */\n      tag_833\n      tag_578\n      jump\t// in\n    tag_833:\n        /* \"#utility.yul\":20688:20738   */\n    tag_832:\n        /* \"#utility.yul\":20768:20769   */\n      0x01\n        /* \"#utility.yul\":20758:20766   */\n      dup6\n        /* \"#utility.yul\":20754:20770   */\n      and\n        /* \"#utility.yul\":20751:21202   */\n      iszero\n      tag_834\n      jumpi\n        /* \"#utility.yul\":21183:21187   */\n      dup1\n        /* \"#utility.yul\":21176:21181   */\n      dup3\n        /* \"#utility.yul\":21172:21188   */\n      mul\n        /* \"#utility.yul\":21163:21188   */\n      swap2\n      pop\n        /* \"#utility.yul\":20751:21202   */\n    tag_834:\n        /* \"#utility.yul\":21233:21237   */\n      dup1\n        /* \"#utility.yul\":21227:21231   */\n      dup2\n        /* \"#utility.yul\":21223:21238   */\n      mul\n        /* \"#utility.yul\":21215:21238   */\n      swap1\n      pop\n        /* \"#utility.yul\":21263:21295   */\n      tag_835\n        /* \"#utility.yul\":21286:21294   */\n      dup6\n        /* \"#utility.yul\":21263:21295   */\n      tag_583\n      jump\t// in\n    tag_835:\n        /* \"#utility.yul\":21251:21295   */\n      swap5\n      pop\n        /* \"#utility.yul\":20593:21305   */\n      jump(tag_829)\n    tag_831:\n        /* \"#utility.yul\":20463:21311   */\n      swap5\n      pop\n      swap5\n      swap3\n      pop\n      pop\n      pop\n      jump\t// out\n        /* \"#utility.yul\":21317:22390   */\n    tag_585:\n        /* \"#utility.yul\":21371:21376   */\n      0x00\n        /* \"#utility.yul\":21562:21570   */\n      dup3\n        /* \"#utility.yul\":21552:21592   */\n      tag_837\n      jumpi\n        /* \"#utility.yul\":21583:21584   */\n      0x01\n        /* \"#utility.yul\":21574:21584   */\n      swap1\n      pop\n        /* \"#utility.yul\":21585:21590   */\n      jump(tag_836)\n        /* \"#utility.yul\":21552:21592   */\n    tag_837:\n        /* \"#utility.yul\":21611:21615   */\n      dup2\n        /* \"#utility.yul\":21601:21637   */\n      tag_838\n      jumpi\n        /* \"#utility.yul\":21628:21629   */\n      0x00\n        /* \"#utility.yul\":21619:21629   */\n      swap1\n      pop\n        /* \"#utility.yul\":21630:21635   */\n      jump(tag_836)\n        /* \"#utility.yul\":21601:21637   */\n    tag_838:\n        /* \"#utility.yul\":21697:21701   */\n      dup2\n        /* \"#utility.yul\":21745:21746   */\n      0x01\n        /* \"#utility.yul\":21740:21767   */\n      dup2\n      eq\n      tag_840\n      jumpi\n        /* \"#utility.yul\":21781:21782   */\n      0x02\n        /* \"#utility.yul\":21776:21967   */\n      dup2\n      eq\n      tag_841\n      jumpi\n        /* \"#utility.yul\":21690:21967   */\n      jump(tag_839)\n        /* \"#utility.yul\":21740:21767   */\n    tag_840:\n        /* \"#utility.yul\":21758:21759   */\n      0x01\n        /* \"#utility.yul\":21749:21759   */\n      swap2\n      pop\n        /* \"#utility.yul\":21760:21765   */\n      pop\n      jump(tag_836)\n        /* \"#utility.yul\":21776:21967   */\n    tag_841:\n        /* \"#utility.yul\":21821:21824   */\n      0xff\n        /* \"#utility.yul\":21811:21819   */\n      dup5\n        /* \"#utility.yul\":21808:21825   */\n      gt\n        /* \"#utility.yul\":21805:21848   */\n      iszero\n      tag_842\n      jumpi\n        /* \"#utility.yul\":21828:21846   */\n      tag_843\n      tag_578\n      jump\t// in\n    tag_843:\n        /* \"#utility.yul\":21805:21848   */\n    tag_842:\n        /* \"#utility.yul\":21877:21885   */\n      dup4\n        /* \"#utility.yul\":21874:21875   */\n      0x02\n        /* \"#utility.yul\":21870:21886   */\n      exp\n        /* \"#utility.yul\":21861:21886   */\n      swap2\n      pop\n        /* \"#utility.yul\":21912:21915   */\n      dup5\n        /* \"#utility.yul\":21905:21910   */\n      dup3\n        /* \"#utility.yul\":21902:21916   */\n      gt\n        /* \"#utility.yul\":21899:21939   */\n      iszero\n      tag_844\n      jumpi\n        /* \"#utility.yul\":21919:21937   */\n      tag_845\n      tag_578\n      jump\t// in\n    tag_845:\n        /* \"#utility.yul\":21899:21939   */\n    tag_844:\n        /* \"#utility.yul\":21952:21957   */\n      pop\n      jump(tag_836)\n        /* \"#utility.yul\":21690:21967   */\n    tag_839:\n      pop\n        /* \"#utility.yul\":22076:22078   */\n      0x20\n        /* \"#utility.yul\":22066:22074   */\n      dup4\n        /* \"#utility.yul\":22063:22079   */\n      lt\n        /* \"#utility.yul\":22057:22060   */\n      0x0133\n        /* \"#utility.yul\":22051:22055   */\n      dup4\n        /* \"#utility.yul\":22048:22061   */\n      lt\n        /* \"#utility.yul\":22044:22080   */\n      and\n        /* \"#utility.yul\":22026:22028   */\n      0x4e\n        /* \"#utility.yul\":22016:22024   */\n      dup5\n        /* \"#utility.yul\":22013:22029   */\n      lt\n        /* \"#utility.yul\":22008:22010   */\n      0x0b\n        /* \"#utility.yul\":22002:22006   */\n      dup5\n        /* \"#utility.yul\":21999:22011   */\n      lt\n        /* \"#utility.yul\":21995:22030   */\n      and\n        /* \"#utility.yul\":21979:22090   */\n      or\n        /* \"#utility.yul\":21976:22222   */\n      iszero\n      tag_846\n      jumpi\n        /* \"#utility.yul\":22132:22140   */\n      dup3\n        /* \"#utility.yul\":22126:22130   */\n      dup3\n        /* \"#utility.yul\":22122:22141   */\n      exp\n        /* \"#utility.yul\":22113:22141   */\n      swap1\n      pop\n        /* \"#utility.yul\":22167:22170   */\n      dup4\n        /* \"#utility.yul\":22160:22165   */\n      dup2\n        /* \"#utility.yul\":22157:22171   */\n      gt\n        /* \"#utility.yul\":22154:22194   */\n      iszero\n      tag_847\n      jumpi\n        /* \"#utility.yul\":22174:22192   */\n      tag_848\n      tag_578\n      jump\t// in\n    tag_848:\n        /* \"#utility.yul\":22154:22194   */\n    tag_847:\n        /* \"#utility.yul\":22207:22212   */\n      jump(tag_836)\n        /* \"#utility.yul\":21976:22222   */\n    tag_846:\n        /* \"#utility.yul\":22247:22289   */\n      tag_849\n        /* \"#utility.yul\":22285:22288   */\n      dup5\n        /* \"#utility.yul\":22275:22283   */\n      dup5\n        /* \"#utility.yul\":22269:22273   */\n      dup5\n        /* \"#utility.yul\":22266:22267   */\n      0x01\n        /* \"#utility.yul\":22247:22289   */\n      tag_584\n      jump\t// in\n    tag_849:\n        /* \"#utility.yul\":22232:22289   */\n      swap3\n      pop\n      swap1\n      pop\n        /* \"#utility.yul\":22321:22325   */\n      dup2\n        /* \"#utility.yul\":22316:22319   */\n      dup5\n        /* \"#utility.yul\":22312:22326   */\n      div\n        /* \"#utility.yul\":22305:22310   */\n      dup2\n        /* \"#utility.yul\":22302:22327   */\n      gt\n        /* \"#utility.yul\":22299:22350   */\n      iszero\n      tag_850\n      jumpi\n        /* \"#utility.yul\":22330:22348   */\n      tag_851\n      tag_578\n      jump\t// in\n    tag_851:\n        /* \"#utility.yul\":22299:22350   */\n    tag_850:\n        /* \"#utility.yul\":22379:22383   */\n      dup2\n        /* \"#utility.yul\":22372:22377   */\n      dup2\n        /* \"#utility.yul\":22368:22384   */\n      mul\n        /* \"#utility.yul\":22359:22384   */\n      swap1\n      pop\n        /* \"#utility.yul\":21317:22390   */\n    tag_836:\n      swap4\n      swap3\n      pop\n      pop\n      pop\n      jump\t// out\n        /* \"#utility.yul\":22396:22677   */\n    tag_281:\n        /* \"#utility.yul\":22454:22459   */\n      0x00\n        /* \"#utility.yul\":22478:22501   */\n      tag_853\n        /* \"#utility.yul\":22496:22500   */\n      dup3\n        /* \"#utility.yul\":22478:22501   */\n      tag_544\n      jump\t// in\n    tag_853:\n        /* \"#utility.yul\":22470:22501   */\n      swap2\n      pop\n        /* \"#utility.yul\":22522:22547   */\n      tag_854\n        /* \"#utility.yul\":22538:22546   */\n      dup4\n        /* \"#utility.yul\":22522:22547   */\n      tag_556\n      jump\t// in\n    tag_854:\n        /* \"#utility.yul\":22510:22547   */\n      swap3\n      pop\n        /* \"#utility.yul\":22566:22670   */\n      tag_855\n        /* \"#utility.yul\":22603:22669   */\n      0xffffffffffffffffffffffffffffffffffffffffffffffffffffffffffffffff\n        /* \"#utility.yul\":22593:22601   */\n      dup5\n        /* \"#utility.yul\":22587:22591   */\n      dup5\n        /* \"#utility.yul\":22566:22670   */\n      tag_585\n      jump\t// in\n    tag_855:\n        /* \"#utility.yul\":22557:22670   */\n      swap1\n      pop\n        /* \"#utility.yul\":22396:22677   */\n      swap3\n      swap2\n      pop\n      pop\n      jump\t// out\n        /* \"#utility.yul\":22683:23093   */\n    tag_283:\n        /* \"#utility.yul\":22723:22730   */\n      0x00\n        /* \"#utility.yul\":22746:22766   */\n      tag_857\n        /* \"#utility.yul\":22764:22765   */\n      dup3\n        /* \"#utility.yul\":22746:22766   */\n      tag_544\n      jump\t// in\n    tag_857:\n        /* \"#utility.yul\":22741:22766   */\n      swap2\n      pop\n        /* \"#utility.yul\":22780:22800   */\n      tag_858\n        /* \"#utility.yul\":22798:22799   */\n      dup4\n        /* \"#utility.yul\":22780:22800   */\n      tag_544\n      jump\t// in\n    tag_858:\n        /* \"#utility.yul\":22775:22800   */\n      swap3\n      pop\n        /* \"#utility.yul\":22835:22836   */\n      dup3\n        /* \"#utility.yul\":22832:22833   */\n      dup3\n        /* \"#utility.yul\":22828:22837   */\n      mul\n        /* \"#utility.yul\":22857:22887   */\n      tag_859\n        /* \"#utility.yul\":22875:22886   */\n      dup2\n        /* \"#utility.yul\":22857:22887   */\n      tag_544\n      jump\t// in\n    tag_859:\n        /* \"#utility.yul\":22846:22887   */\n      swap2\n      pop\n        /* \"#utility.yul\":23036:23037   */\n      dup3\n        /* \"#utility.yul\":23027:23034   */\n      dup3\n        /* \"#utility.yul\":23023:23038   */\n      div\n        /* \"#utility.yul\":23020:23021   */\n      dup5\n        /* \"#utility.yul\":23017:23039   */\n      eq\n        /* \"#utility.yul\":22997:22998   */\n      dup4\n        /* \"#utility.yul\":22990:22999   */\n      iszero\n        /* \"#utility.yul\":22970:23053   */\n      or\n        /* \"#utility.yul\":22947:23086   */\n      tag_860\n      jumpi\n        /* \"#utility.yul\":23066:23084   */\n      tag_861\n      tag_578\n      jump\t// in\n    tag_861:\n        /* \"#utility.yul\":22947:23086   */\n    tag_860:\n        /* \"#utility.yul\":22731:23093   */\n      pop\n        /* \"#utility.yul\":22683:23093   */\n      swap3\n      swap2\n      pop\n      pop\n      jump\t// out\n        /* \"#utility.yul\":23099:23184   */\n    tag_586:\n        /* \"#utility.yul\":23144:23151   */\n      0x00\n        /* \"#utility.yul\":23173:23178   */\n      dup2\n        /* \"#utility.yul\":23162:23178   */\n      swap1\n      pop\n        /* \"#utility.yul\":23099:23184   */\n      swap2\n      swap1\n      pop\n      jump\t// out\n        /* \"#utility.yul\":23190:23291   */\n    tag_587:\n        /* \"#utility.yul\":23226:23233   */\n      0x00\n        /* \"#utility.yul\":23266:23284   */\n      0xffffffffffffffff\n        /* \"#utility.yul\":23259:23264   */\n      dup3\n        /* \"#utility.yul\":23255:23285   */\n      and\n        /* \"#utility.yul\":23244:23285   */\n      swap1\n      pop\n        /* \"#utility.yul\":23190:23291   */\n      swap2\n      swap1\n      pop\n      jump\t// out\n        /* \"#utility.yul\":23297:23453   */\n    tag_588:\n        /* \"#utility.yul\":23354:23363   */\n      0x00\n        /* \"#utility.yul\":23387:23447   */\n      tag_865\n        /* \"#utility.yul\":23404:23446   */\n      tag_866\n        /* \"#utility.yul\":23413:23445   */\n      tag_867\n        /* \"#utility.yul\":23439:23444   */\n      dup5\n        /* \"#utility.yul\":23413:23445   */\n      tag_586\n      jump\t// in\n    tag_867:\n        /* \"#utility.yul\":23404:23446   */\n      tag_566\n      jump\t// in\n    tag_866:\n        /* \"#utility.yul\":23387:23447   */\n      tag_587\n      jump\t// in\n    tag_865:\n        /* \"#utility.yul\":23374:23447   */\n      swap1\n      pop\n        /* \"#utility.yul\":23297:23453   */\n      swap2\n      swap1\n      pop\n      jump\t// out\n        /* \"#utility.yul\":23459:23604   */\n    tag_589:\n        /* \"#utility.yul\":23553:23597   */\n      tag_869\n        /* \"#utility.yul\":23591:23596   */\n      dup2\n        /* \"#utility.yul\":23553:23597   */\n      tag_588\n      jump\t// in\n    tag_869:\n        /* \"#utility.yul\":23548:23551   */\n      dup3\n        /* \"#utility.yul\":23541:23598   */\n      mstore\n        /* \"#utility.yul\":23459:23604   */\n      pop\n      pop\n      jump\t// out\n        /* \"#utility.yul\":23610:23846   */\n    tag_287:\n        /* \"#utility.yul\":23710:23714   */\n      0x00\n        /* \"#utility.yul\":23748:23750   */\n      0x20\n        /* \"#utility.yul\":23737:23746   */\n      dup3\n        /* \"#utility.yul\":23733:23751   */\n      add\n        /* \"#utility.yul\":23725:23751   */\n      swap1\n      pop\n        /* \"#utility.yul\":23761:23839   */\n      tag_871\n        /* \"#utility.yul\":23836:23837   */\n      0x00\n        /* \"#utility.yul\":23825:23834   */\n      dup4\n        /* \"#utility.yul\":23821:23838   */\n      add\n        /* \"#utility.yul\":23812:23818   */\n      dup5\n        /* \"#utility.yul\":23761:23839   */\n      tag_589\n      jump\t// in\n    tag_871:\n        /* \"#utility.yul\":23610:23846   */\n      swap3\n      swap2\n      pop\n      pop\n      jump\t// out\n        /* \"#utility.yul\":23852:24294   */\n    tag_325:\n        /* \"#utility.yul\":24001:24005   */\n      0x00\n        /* \"#utility.yul\":24039:24041   */\n      0x60\n        /* \"#utility.yul\":24028:24037   */\n      dup3\n        /* \"#utility.yul\":24024:24042   */\n      add\n        /* \"#utility.yul\":24016:24042   */\n      swap1\n      pop\n        /* \"#utility.yul\":24052:24123   */\n      tag_873\n        /* \"#utility.yul\":24120:24121   */\n      0x00\n        /* \"#utility.yul\":24109:24118   */\n      dup4\n        /* \"#utility.yul\":24105:24122   */\n      add\n        /* \"#utility.yul\":24096:24102   */\n      dup7\n        /* \"#utility.yul\":24052:24123   */\n      tag_571\n      jump\t// in\n    tag_873:\n        /* \"#utility.yul\":24133:24205   */\n      tag_874\n        /* \"#utility.yul\":24201:24203   */\n      0x20\n        /* \"#utility.yul\":24190:24199   */\n      dup4\n        /* \"#utility.yul\":24186:24204   */\n      add\n        /* \"#utility.yul\":24177:24183   */\n      dup6\n        /* \"#utility.yul\":24133:24205   */\n      tag_555\n      jump\t// in\n    tag_874:\n        /* \"#utility.yul\":24215:24287   */\n      tag_875\n        /* \"#utility.yul\":24283:24285   */\n      0x40\n        /* \"#utility.yul\":24272:24281   */\n      dup4\n        /* \"#utility.yul\":24268:24286   */\n      add\n        /* \"#utility.yul\":24259:24265   */\n      dup5\n        /* \"#utility.yul\":24215:24287   */\n      tag_555\n      jump\t// in\n    tag_875:\n        /* \"#utility.yul\":23852:24294   */\n      swap5\n      swap4\n      pop\n      pop\n      pop\n      pop\n      jump\t// out\n        /* \"#utility.yul\":24300:24466   */\n    tag_590:\n        /* \"#utility.yul\":24440:24458   */\n      0x5061757361626c653a2070617573656400000000000000000000000000000000\n        /* \"#utility.yul\":24436:24437   */\n      0x00\n        /* \"#utility.yul\":24428:24434   */\n      dup3\n        /* \"#utility.yul\":24424:24438   */\n      add\n        /* \"#utility.yul\":24417:24459   */\n      mstore\n        /* \"#utility.yul\":24300:24466   */\n      pop\n      jump\t// out\n        /* \"#utility.yul\":24472:24838   */\n    tag_591:\n        /* \"#utility.yul\":24614:24617   */\n      0x00\n        /* \"#utility.yul\":24635:24702   */\n      tag_878\n        /* \"#utility.yul\":24699:24701   */\n      0x10\n        /* \"#utility.yul\":24694:24697   */\n      dup4\n        /* \"#utility.yul\":24635:24702   */\n      tag_533\n      jump\t// in\n    tag_878:\n        /* \"#utility.yul\":24628:24702   */\n      swap2\n      pop\n        /* \"#utility.yul\":24711:24804   */\n      tag_879\n        /* \"#utility.yul\":24800:24803   */\n      dup3\n        /* \"#utility.yul\":24711:24804   */\n      tag_590\n      jump\t// in\n    tag_879:\n        /* \"#utility.yul\":24829:24831   */\n      0x20\n        /* \"#utility.yul\":24824:24827   */\n      dup3\n        /* \"#utility.yul\":24820:24832   */\n      add\n        /* \"#utility.yul\":24813:24832   */\n      swap1\n      pop\n        /* \"#utility.yul\":24472:24838   */\n      swap2\n      swap1\n      pop\n      jump\t// out\n        /* \"#utility.yul\":24844:25263   */\n    tag_375:\n        /* \"#utility.yul\":25010:25014   */\n      0x00\n        /* \"#utility.yul\":25048:25050   */\n      0x20\n        /* \"#utility.yul\":25037:25046   */\n      dup3\n        /* \"#utility.yul\":25033:25051   */\n      add\n        /* \"#utility.yul\":25025:25051   */\n      swap1\n      pop\n        /* \"#utility.yul\":25097:25106   */\n      dup2\n        /* \"#utility.yul\":25091:25095   */\n      dup2\n        /* \"#utility.yul\":25087:25107   */\n      sub\n        /* \"#utility.yul\":25083:25084   */\n      0x00\n        /* \"#utility.yul\":25072:25081   */\n      dup4\n        /* \"#utility.yul\":25068:25085   */\n      add\n        /* \"#utility.yul\":25061:25108   */\n      mstore\n        /* \"#utility.yul\":25125:25256   */\n      tag_881\n        /* \"#utility.yul\":25251:25255   */\n      dup2\n        /* \"#utility.yul\":25125:25256   */\n      tag_591\n      jump\t// in\n    tag_881:\n        /* \"#utility.yul\":25117:25256   */\n      swap1\n      pop\n        /* \"#utility.yul\":24844:25263   */\n      swap2\n      swap1\n      pop\n      jump\t// out\n        /* \"#utility.yul\":25269:25711   */\n    tag_383:\n        /* \"#utility.yul\":25418:25422   */\n      0x00\n        /* \"#utility.yul\":25456:25458   */\n      0x60\n        /* \"#utility.yul\":25445:25454   */\n      dup3\n        /* \"#utility.yul\":25441:25459   */\n      add\n        /* \"#utility.yul\":25433:25459   */\n      swap1\n      pop\n        /* \"#utility.yul\":25469:25540   */\n      tag_883\n        /* \"#utility.yul\":25537:25538   */\n      0x00\n        /* \"#utility.yul\":25526:25535   */\n      dup4\n        /* \"#utility.yul\":25522:25539   */\n      add\n        /* \"#utility.yul\":25513:25519   */\n      dup7\n        /* \"#utility.yul\":25469:25540   */\n      tag_555\n      jump\t// in\n    tag_883:\n        /* \"#utility.yul\":25550:25622   */\n      tag_884\n        /* \"#utility.yul\":25618:25620   */\n      0x20\n        /* \"#utility.yul\":25607:25616   */\n      dup4\n        /* \"#utility.yul\":25603:25621   */\n      add\n        /* \"#utility.yul\":25594:25600   */\n      dup6\n        /* \"#utility.yul\":25550:25622   */\n      tag_555\n      jump\t// in\n    tag_884:\n        /* \"#utility.yul\":25632:25704   */\n      tag_885\n        /* \"#utility.yul\":25700:25702   */\n      0x40\n        /* \"#utility.yul\":25689:25698   */\n      dup4\n        /* \"#utility.yul\":25685:25703   */\n      add\n        /* \"#utility.yul\":25676:25682   */\n      dup5\n        /* \"#utility.yul\":25632:25704   */\n      tag_555\n      jump\t// in\n    tag_885:\n        /* \"#utility.yul\":25269:25711   */\n      swap5\n      swap4\n      pop\n      pop\n      pop\n      pop\n      jump\t// out\n        /* \"#utility.yul\":25717:25887   */\n    tag_592:\n        /* \"#utility.yul\":25857:25879   */\n      0x5061757361626c653a206e6f7420706175736564000000000000000000000000\n        /* \"#utility.yul\":25853:25854   */\n      0x00\n        /* \"#utility.yul\":25845:25851   */\n      dup3\n        /* \"#utility.yul\":25841:25855   */\n      add\n        /* \"#utility.yul\":25834:25880   */\n      mstore\n        /* \"#utility.yul\":25717:25887   */\n      pop\n      jump\t// out\n        /* \"#utility.yul\":25893:26259   */\n    tag_593:\n        /* \"#utility.yul\":26035:26038   */\n      0x00\n        /* \"#utility.yul\":26056:26123   */\n      tag_888\n        /* \"#utility.yul\":26120:26122   */\n      0x14\n        /* \"#utility.yul\":26115:26118   */\n      dup4\n        /* \"#utility.yul\":26056:26123   */\n      tag_533\n      jump\t// in\n    tag_888:\n        /* \"#utility.yul\":26049:26123   */\n      swap2\n      pop\n        /* \"#utility.yul\":26132:26225   */\n      tag_889\n        /* \"#utility.yul\":26221:26224   */\n      dup3\n        /* \"#utility.yul\":26132:26225   */\n      tag_592\n      jump\t// in\n    tag_889:\n        /* \"#utility.yul\":26250:26252   */\n      0x20\n        /* \"#utility.yul\":26245:26248   */\n      dup3\n        /* \"#utility.yul\":26241:26253   */\n      add\n        /* \"#utility.yul\":26234:26253   */\n      swap1\n      pop\n        /* \"#utility.yul\":25893:26259   */\n      swap2\n      swap1\n      pop\n      jump\t// out\n        /* \"#utility.yul\":26265:26684   */\n    tag_448:\n        /* \"#utility.yul\":26431:26435   */\n      0x00\n        /* \"#utility.yul\":26469:26471   */\n      0x20\n        /* \"#utility.yul\":26458:26467   */\n      dup3\n        /* \"#utility.yul\":26454:26472   */\n      add\n        /* \"#utility.yul\":26446:26472   */\n      swap1\n      pop\n        /* \"#utility.yul\":26518:26527   */\n      dup2\n        /* \"#utility.yul\":26512:26516   */\n      dup2\n        /* \"#utility.yul\":26508:26528   */\n      sub\n        /* \"#utility.yul\":26504:26505   */\n      0x00\n        /* \"#utility.yul\":26493:26502   */\n      dup4\n        /* \"#utility.yul\":26489:26506   */\n      add\n        /* \"#utility.yul\":26482:26529   */\n      mstore\n        /* \"#utility.yul\":26546:26677   */\n      tag_891\n        /* \"#utility.yul\":26672:26676   */\n      dup2\n        /* \"#utility.yul\":26546:26677   */\n      tag_593\n      jump\t// in\n    tag_891:\n        /* \"#utility.yul\":26538:26677   */\n      swap1\n      pop\n        /* \"#utility.yul\":26265:26684   */\n      swap2\n      swap1\n      pop\n      jump\t// out\n        /* \"#utility.yul\":26690:26831   */\n    tag_594:\n        /* \"#utility.yul\":26739:26743   */\n      0x00\n        /* \"#utility.yul\":26762:26765   */\n      dup2\n        /* \"#utility.yul\":26754:26765   */\n      swap1\n      pop\n        /* \"#utility.yul\":26785:26788   */\n      dup2\n        /* \"#utility.yul\":26782:26783   */\n      0x00\n        /* \"#utility.yul\":26775:26789   */\n      mstore\n        /* \"#utility.yul\":26819:26823   */\n      0x20\n        /* \"#utility.yul\":26816:26817   */\n      0x00\n        /* \"#utility.yul\":26806:26824   */\n      keccak256\n        /* \"#utility.yul\":26798:26824   */\n      swap1\n      pop\n        /* \"#utility.yul\":26690:26831   */\n      swap2\n      swap1\n      pop\n      jump\t// out\n        /* \"#utility.yul\":26837:26930   */\n    tag_595:\n        /* \"#utility.yul\":26874:26880   */\n      0x00\n        /* \"#utility.yul\":26921:26923   */\n      0x20\n        /* \"#utility.yul\":26916:26918   */\n      0x1f\n        /* \"#utility.yul\":26909:26914   */\n      dup4\n        /* \"#utility.yul\":26905:26919   */\n      add\n        /* \"#utility.yul\":26901:26924   */\n      div\n        /* \"#utility.yul\":26891:26924   */\n      swap1\n      pop\n        /* \"#utility.yul\":26837:26930   */\n      swap2\n      swap1\n      pop\n      jump\t// out\n        /* \"#utility.yul\":26936:27043   */\n    tag_596:\n        /* \"#utility.yul\":26980:26988   */\n      0x00\n        /* \"#utility.yul\":27030:27035   */\n      dup3\n        /* \"#utility.yul\":27024:27028   */\n      dup3\n        /* \"#utility.yul\":27020:27036   */\n      shl\n        /* \"#utility.yul\":26999:27036   */\n      swap1\n      pop\n        /* \"#utility.yul\":26936:27043   */\n      swap3\n      swap2\n      pop\n      pop\n      jump\t// out\n        /* \"#utility.yul\":27049:27442   */\n    tag_597:\n        /* \"#utility.yul\":27118:27124   */\n      0x00\n        /* \"#utility.yul\":27168:27169   */\n      0x08\n        /* \"#utility.yul\":27156:27166   */\n      dup4\n        /* \"#utility.yul\":27152:27170   */\n      mul\n        /* \"#utility.yul\":27191:27288   */\n      tag_896\n        /* \"#utility.yul\":27221:27287   */\n      0xffffffffffffffffffffffffffffffffffffffffffffffffffffffffffffffff\n        /* \"#utility.yul\":27210:27219   */\n      dup3\n        /* \"#utility.yul\":27191:27288   */\n      tag_596\n      jump\t// in\n    tag_896:\n        /* \"#utility.yul\":27309:27348   */\n      tag_897\n        /* \"#utility.yul\":27339:27347   */\n      dup7\n        /* \"#utility.yul\":27328:27337   */\n      dup4\n        /* \"#utility.yul\":27309:27348   */\n      tag_596\n      jump\t// in\n    tag_897:\n        /* \"#utility.yul\":27297:27348   */\n      swap6\n      pop\n        /* \"#utility.yul\":27381:27385   */\n      dup1\n        /* \"#utility.yul\":27377:27386   */\n      not\n        /* \"#utility.yul\":27370:27375   */\n      dup5\n        /* \"#utility.yul\":27366:27387   */\n      and\n        /* \"#utility.yul\":27357:27387   */\n      swap4\n      pop\n        /* \"#utility.yul\":27430:27434   */\n      dup1\n        /* \"#utility.yul\":27420:27428   */\n      dup7\n        /* \"#utility.yul\":27416:27435   */\n      and\n        /* \"#utility.yul\":27409:27414   */\n      dup5\n        /* \"#utility.yul\":27406:27436   */\n      or\n        /* \"#utility.yul\":27396:27436   */\n      swap3\n      pop\n        /* \"#utility.yul\":27125:27442   */\n      pop\n      pop\n        /* \"#utility.yul\":27049:27442   */\n      swap4\n      swap3\n      pop\n      pop\n      pop\n      jump\t// out\n        /* \"#utility.yul\":27448:27590   */\n    tag_598:\n        /* \"#utility.yul\":27498:27507   */\n      0x00\n        /* \"#utility.yul\":27531:27584   */\n      tag_899\n        /* \"#utility.yul\":27549:27583   */\n      tag_900\n        /* \"#utility.yul\":27558:27582   */\n      tag_901\n        /* \"#utility.yul\":27576:27581   */\n      dup5\n        /* \"#utility.yul\":27558:27582   */\n      tag_544\n      jump\t// in\n    tag_901:\n        /* \"#utility.yul\":27549:27583   */\n      tag_566\n      jump\t// in\n    tag_900:\n        /* \"#utility.yul\":27531:27584   */\n      tag_544\n      jump\t// in\n    tag_899:\n        /* \"#utility.yul\":27518:27584   */\n      swap1\n      pop\n        /* \"#utility.yul\":27448:27590   */\n      swap2\n      swap1\n      pop\n      jump\t// out\n        /* \"#utility.yul\":27596:27671   */\n    tag_599:\n        /* \"#utility.yul\":27639:27642   */\n      0x00\n        /* \"#utility.yul\":27660:27665   */\n      dup2\n        /* \"#utility.yul\":27653:27665   */\n      swap1\n      pop\n        /* \"#utility.yul\":27596:27671   */\n      swap2\n      swap1\n      pop\n      jump\t// out\n        /* \"#utility.yul\":27677:27946   */\n    tag_600:\n        /* \"#utility.yul\":27787:27826   */\n      tag_904\n        /* \"#utility.yul\":27818:27825   */\n      dup4\n        /* \"#utility.yul\":27787:27826   */\n      tag_598\n      jump\t// in\n    tag_904:\n        /* \"#utility.yul\":27848:27939   */\n      tag_905\n        /* \"#utility.yul\":27897:27938   */\n      tag_906\n        /* \"#utility.yul\":27921:27937   */\n      dup3\n        /* \"#utility.yul\":27897:27938   */\n      tag_599\n      jump\t// in\n    tag_906:\n        /* \"#utility.yul\":27889:27895   */\n      dup5\n        /* \"#utility.yul\":27882:27886   */\n      dup5\n        /* \"#utility.yul\":27876:27887   */\n      sload\n        /* \"#utility.yul\":27848:27939   */\n      tag_597\n      jump\t// in\n    tag_905:\n        /* \"#utility.yul\":27842:27846   */\n      dup3\n        /* \"#utility.yul\":27835:27940   */\n      sstore\n        /* \"#utility.yul\":27753:27946   */\n      pop\n        /* \"#utility.yul\":27677:27946   */\n      pop\n      pop\n      pop\n      jump\t// out\n        /* \"#utility.yul\":27952:28025   */\n    tag_601:\n        /* \"#utility.yul\":27997:28000   */\n      0x00\n        /* \"#utility.yul\":27952:28025   */\n      swap1\n      jump\t// out\n        /* \"#utility.yul\":28031:28220   */\n    tag_602:\n        /* \"#utility.yul\":28108:28140   */\n      tag_909\n      tag_601\n      jump\t// in\n    tag_909:\n        /* \"#utility.yul\":28149:28214   */\n      tag_910\n        /* \"#utility.yul\":28207:28213   */\n      dup2\n        /* \"#utility.yul\":28199:28205   */\n      dup5\n        /* \"#utility.yul\":28193:28197   */\n      dup5\n        /* \"#utility.yul\":28149:28214   */\n      tag_600\n      jump\t// in\n    tag_910:\n        /* \"#utility.yul\":28084:28220   */\n      pop\n        /* \"#utility.yul\":28031:28220   */\n      pop\n      pop\n      jump\t// out\n        /* \"#utility.yul\":28226:28412   */\n    tag_603:\n        /* \"#utility.yul\":28286:28406   */\n    tag_912:\n        /* \"#utility.yul\":28303:28306   */\n      dup2\n        /* \"#utility.yul\":28296:28301   */\n      dup2\n        /* \"#utility.yul\":28293:28307   */\n      lt\n        /* \"#utility.yul\":28286:28406   */\n      iszero\n      tag_914\n      jumpi\n        /* \"#utility.yul\":28357:28396   */\n      tag_915\n        /* \"#utility.yul\":28394:28395   */\n      0x00\n        /* \"#utility.yul\":28387:28392   */\n      dup3\n        /* \"#utility.yul\":28357:28396   */\n      tag_602\n      jump\t// in\n    tag_915:\n        /* \"#utility.yul\":28330:28331   */\n      0x01\n        /* \"#utility.yul\":28323:28328   */\n      dup2\n        /* \"#utility.yul\":28319:28332   */\n      add\n        /* \"#utility.yul\":28310:28332   */\n      swap1\n      pop\n        /* \"#utility.yul\":28286:28406   */\n      jump(tag_912)\n    tag_914:\n        /* \"#utility.yul\":28226:28412   */\n      pop\n      pop\n      jump\t// out\n        /* \"#utility.yul\":28418:28961   */\n    tag_604:\n        /* \"#utility.yul\":28519:28521   */\n      0x1f\n        /* \"#utility.yul\":28514:28517   */\n      dup3\n        /* \"#utility.yul\":28511:28522   */\n      gt\n        /* \"#utility.yul\":28508:28954   */\n      iszero\n      tag_917\n      jumpi\n        /* \"#utility.yul\":28553:28591   */\n      tag_918\n        /* \"#utility.yul\":28585:28590   */\n      dup2\n        /* \"#utility.yul\":28553:28591   */\n      tag_594\n      jump\t// in\n    tag_918:\n        /* \"#utility.yul\":28637:28666   */\n      tag_919\n        /* \"#utility.yul\":28655:28665   */\n      dup5\n        /* \"#utility.yul\":28637:28666   */\n      tag_595\n      jump\t// in\n    tag_919:\n        /* \"#utility.yul\":28627:28635   */\n      dup2\n        /* \"#utility.yul\":28623:28667   */\n      add\n        /* \"#utility.yul\":28820:28822   */\n      0x20\n        /* \"#utility.yul\":28808:28818   */\n      dup6\n        /* \"#utility.yul\":28805:28823   */\n      lt\n        /* \"#utility.yul\":28802:28851   */\n      iszero\n      tag_920\n      jumpi\n        /* \"#utility.yul\":28841:28849   */\n      dup2\n        /* \"#utility.yul\":28826:28849   */\n      swap1\n      pop\n        /* \"#utility.yul\":28802:28851   */\n    tag_920:\n        /* \"#utility.yul\":28864:28944   */\n      tag_921\n        /* \"#utility.yul\":28920:28942   */\n      tag_922\n        /* \"#utility.yul\":28938:28941   */\n      dup6\n        /* \"#utility.yul\":28920:28942   */\n      tag_595\n      jump\t// in\n    tag_922:\n        /* \"#utility.yul\":28910:28918   */\n      dup4\n        /* \"#utility.yul\":28906:28943   */\n      add\n        /* \"#utility.yul\":28893:28904   */\n      dup3\n        /* \"#utility.yul\":28864:28944   */\n      tag_603\n      jump\t// in\n    tag_921:\n        /* \"#utility.yul\":28523:28954   */\n      pop\n      pop\n        /* \"#utility.yul\":28508:28954   */\n    tag_917:\n        /* \"#utility.yul\":28418:28961   */\n      pop\n      pop\n      pop\n      jump\t// out\n        /* \"#utility.yul\":28967:29084   */\n    tag_605:\n        /* \"#utility.yul\":29021:29029   */\n      0x00\n        /* \"#utility.yul\":29071:29076   */\n      dup3\n        /* \"#utility.yul\":29065:29069   */\n      dup3\n        /* \"#utility.yul\":29061:29077   */\n      shr\n        /* \"#utility.yul\":29040:29077   */\n      swap1\n      pop\n        /* \"#utility.yul\":28967:29084   */\n      swap3\n      swap2\n      pop\n      pop\n      jump\t// out\n        /* \"#utility.yul\":29090:29259   */\n    tag_606:\n        /* \"#utility.yul\":29134:29140   */\n      0x00\n        /* \"#utility.yul\":29167:29218   */\n      tag_925\n        /* \"#utility.yul\":29215:29216   */\n      0x00\n        /* \"#utility.yul\":29211:29217   */\n      not\n        /* \"#utility.yul\":29203:29208   */\n      dup5\n        /* \"#utility.yul\":29200:29201   */\n      0x08\n        /* \"#utility.yul\":29196:29209   */\n      mul\n        /* \"#utility.yul\":29167:29218   */\n      tag_605\n      jump\t// in\n    tag_925:\n        /* \"#utility.yul\":29163:29219   */\n      not\n        /* \"#utility.yul\":29248:29252   */\n      dup1\n        /* \"#utility.yul\":29242:29246   */\n      dup4\n        /* \"#utility.yul\":29238:29253   */\n      and\n        /* \"#utility.yul\":29228:29253   */\n      swap2\n      pop\n        /* \"#utility.yul\":29141:29259   */\n      pop\n        /* \"#utility.yul\":29090:29259   */\n      swap3\n      swap2\n      pop\n      pop\n      jump\t// out\n        /* \"#utility.yul\":29264:29559   */\n    tag_607:\n        /* \"#utility.yul\":29340:29344   */\n      0x00\n        /* \"#utility.yul\":29486:29515   */\n      tag_927\n        /* \"#utility.yul\":29511:29514   */\n      dup4\n        /* \"#utility.yul\":29505:29509   */\n      dup4\n        /* \"#utility.yul\":29486:29515   */\n      tag_606\n      jump\t// in\n    tag_927:\n        /* \"#utility.yul\":29478:29515   */\n      swap2\n      pop\n        /* \"#utility.yul\":29548:29551   */\n      dup3\n        /* \"#utility.yul\":29545:29546   */\n      0x02\n        /* \"#utility.yul\":29541:29552   */\n      mul\n        /* \"#utility.yul\":29535:29539   */\n      dup3\n        /* \"#utility.yul\":29532:29553   */\n      or\n        /* \"#utility.yul\":29524:29553   */\n      swap1\n      pop\n        /* \"#utility.yul\":29264:29559   */\n      swap3\n      swap2\n      pop\n      pop\n      jump\t// out\n        /* \"#utility.yul\":29564:30959   */\n    tag_486:\n        /* \"#utility.yul\":29681:29718   */\n      tag_929\n        /* \"#utility.yul\":29714:29717   */\n      dup3\n        /* \"#utility.yul\":29681:29718   */\n      tag_532\n      jump\t// in\n    tag_929:\n        /* \"#utility.yul\":29783:29801   */\n      0xffffffffffffffff\n        /* \"#utility.yul\":29775:29781   */\n      dup2\n        /* \"#utility.yul\":29772:29802   */\n      gt\n        /* \"#utility.yul\":29769:29825   */\n      iszero\n      tag_930\n      jumpi\n        /* \"#utility.yul\":29805:29823   */\n      tag_931\n      tag_550\n      jump\t// in\n    tag_931:\n        /* \"#utility.yul\":29769:29825   */\n    tag_930:\n        /* \"#utility.yul\":29849:29887   */\n      tag_932\n        /* \"#utility.yul\":29881:29885   */\n      dup3\n        /* \"#utility.yul\":29875:29886   */\n      sload\n        /* \"#utility.yul\":29849:29887   */\n      tag_162\n      jump\t// in\n    tag_932:\n        /* \"#utility.yul\":29934:30001   */\n      tag_933\n        /* \"#utility.yul\":29994:30000   */\n      dup3\n        /* \"#utility.yul\":29986:29992   */\n      dup3\n        /* \"#utility.yul\":29980:29984   */\n      dup6\n        /* \"#utility.yul\":29934:30001   */\n      tag_604\n      jump\t// in\n    tag_933:\n        /* \"#utility.yul\":30028:30029   */\n      0x00\n        /* \"#utility.yul\":30052:30056   */\n      0x20\n        /* \"#utility.yul\":30039:30056   */\n      swap1\n      pop\n        /* \"#utility.yul\":30084:30086   */\n      0x1f\n        /* \"#utility.yul\":30076:30082   */\n      dup4\n        /* \"#utility.yul\":30073:30087   */\n      gt\n        /* \"#utility.yul\":30101:30102   */\n      0x01\n        /* \"#utility.yul\":30096:30714   */\n      dup2\n      eq\n      tag_935\n      jumpi\n        /* \"#utility.yul\":30758:30759   */\n      0x00\n        /* \"#utility.yul\":30775:30781   */\n      dup5\n        /* \"#utility.yul\":30772:30849   */\n      iszero\n      tag_936\n      jumpi\n        /* \"#utility.yul\":30824:30833   */\n      dup3\n        /* \"#utility.yul\":30819:30822   */\n      dup8\n        /* \"#utility.yul\":30815:30834   */\n      add\n        /* \"#utility.yul\":30809:30835   */\n      mload\n        /* \"#utility.yul\":30800:30835   */\n      swap1\n      pop\n        /* \"#utility.yul\":30772:30849   */\n    tag_936:\n        /* \"#utility.yul\":30875:30942   */\n      tag_937\n        /* \"#utility.yul\":30935:30941   */\n      dup6\n        /* \"#utility.yul\":30928:30933   */\n      dup3\n        /* \"#utility.yul\":30875:30942   */\n      tag_607\n      jump\t// in\n    tag_937:\n        /* \"#utility.yul\":30869:30873   */\n      dup7\n        /* \"#utility.yul\":30862:30943   */\n      sstore\n        /* \"#utility.yul\":30731:30953   */\n      pop\n        /* \"#utility.yul\":30066:30953   */\n      jump(tag_934)\n        /* \"#utility.yul\":30096:30714   */\n    tag_935:\n        /* \"#utility.yul\":30148:30152   */\n      0x1f\n        /* \"#utility.yul\":30144:30153   */\n      not\n        /* \"#utility.yul\":30136:30142   */\n      dup5\n        /* \"#utility.yul\":30132:30154   */\n      and\n        /* \"#utility.yul\":30182:30219   */\n      tag_938\n        /* \"#utility.yul\":30214:30218   */\n      dup7\n        /* \"#utility.yul\":30182:30219   */\n      tag_594\n      jump\t// in\n    tag_938:\n        /* \"#utility.yul\":30241:30242   */\n      0x00\n        /* \"#utility.yul\":30255:30463   */\n    tag_939:\n        /* \"#utility.yul\":30269:30276   */\n      dup3\n        /* \"#utility.yul\":30266:30267   */\n      dup2\n        /* \"#utility.yul\":30263:30277   */\n      lt\n        /* \"#utility.yul\":30255:30463   */\n      iszero\n      tag_941\n      jumpi\n        /* \"#utility.yul\":30348:30357   */\n      dup5\n        /* \"#utility.yul\":30343:30346   */\n      dup10\n        /* \"#utility.yul\":30339:30358   */\n      add\n        /* \"#utility.yul\":30333:30359   */\n      mload\n        /* \"#utility.yul\":30325:30331   */\n      dup3\n        /* \"#utility.yul\":30318:30360   */\n      sstore\n        /* \"#utility.yul\":30399:30400   */\n      0x01\n        /* \"#utility.yul\":30391:30397   */\n      dup3\n        /* \"#utility.yul\":30387:30401   */\n      add\n        /* \"#utility.yul\":30377:30401   */\n      swap2\n      pop\n        /* \"#utility.yul\":30446:30448   */\n      0x20\n        /* \"#utility.yul\":30435:30444   */\n      dup6\n        /* \"#utility.yul\":30431:30449   */\n      add\n        /* \"#utility.yul\":30418:30449   */\n      swap5\n      pop\n        /* \"#utility.yul\":30292:30296   */\n      0x20\n        /* \"#utility.yul\":30289:30290   */\n      dup2\n        /* \"#utility.yul\":30285:30297   */\n      add\n        /* \"#utility.yul\":30280:30297   */\n      swap1\n      pop\n        /* \"#utility.yul\":30255:30463   */\n      jump(tag_939)\n    tag_941:\n        /* \"#utility.yul\":30491:30497   */\n      dup7\n        /* \"#utility.yul\":30482:30489   */\n      dup4\n        /* \"#utility.yul\":30479:30498   */\n      lt\n        /* \"#utility.yul\":30476:30655   */\n      iszero\n      tag_942\n      jumpi\n        /* \"#utility.yul\":30549:30558   */\n      dup5\n        /* \"#utility.yul\":30544:30547   */\n      dup10\n        /* \"#utility.yul\":30540:30559   */\n      add\n        /* \"#utility.yul\":30534:30560   */\n      mload\n        /* \"#utility.yul\":30592:30640   */\n      tag_943\n        /* \"#utility.yul\":30634:30638   */\n      0x1f\n        /* \"#utility.yul\":30626:30632   */\n      dup10\n        /* \"#utility.yul\":30622:30639   */\n      and\n        /* \"#utility.yul\":30611:30620   */\n      dup3\n        /* \"#utility.yul\":30592:30640   */\n      tag_606\n      jump\t// in\n    tag_943:\n        /* \"#utility.yul\":30584:30590   */\n      dup4\n        /* \"#utility.yul\":30577:30641   */\n      sstore\n        /* \"#utility.yul\":30499:30655   */\n      pop\n        /* \"#utility.yul\":30476:30655   */\n    tag_942:\n        /* \"#utility.yul\":30701:30702   */\n      0x01\n        /* \"#utility.yul\":30697:30698   */\n      0x02\n        /* \"#utility.yul\":30689:30695   */\n      dup9\n        /* \"#utility.yul\":30685:30699   */\n      mul\n        /* \"#utility.yul\":30681:30703   */\n      add\n        /* \"#utility.yul\":30675:30679   */\n      dup9\n        /* \"#utility.yul\":30668:30704   */\n      sstore\n        /* \"#utility.yul\":30103:30714   */\n      pop\n      pop\n      pop\n        /* \"#utility.yul\":30066:30953   */\n    tag_934:\n      pop\n        /* \"#utility.yul\":29656:30959   */\n      pop\n      pop\n      pop\n        /* \"#utility.yul\":29564:30959   */\n      pop\n      pop\n      jump\t// out\n        /* \"#utility.yul\":30965:31145   */\n    tag_608:\n        /* \"#utility.yul\":31013:31090   */\n      0x4e487b7100000000000000000000000000000000000000000000000000000000\n        /* \"#utility.yul\":31010:31011   */\n      0x00\n        /* \"#utility.yul\":31003:31091   */\n      mstore\n        /* \"#utility.yul\":31110:31114   */\n      0x12\n        /* \"#utility.yul\":31107:31108   */\n      0x04\n        /* \"#utility.yul\":31100:31115   */\n      mstore\n        /* \"#utility.yul\":31134:31138   */\n      0x24\n        /* \"#utility.yul\":31131:31132   */\n      0x00\n        /* \"#utility.yul\":31124:31139   */\n      revert\n        /* \"#utility.yul\":31151:31336   */\n    tag_503:\n        /* \"#utility.yul\":31191:31192   */\n      0x00\n        /* \"#utility.yul\":31208:31228   */\n      tag_946\n        /* \"#utility.yul\":31226:31227   */\n      dup3\n        /* \"#utility.yul\":31208:31228   */\n      tag_544\n      jump\t// in\n    tag_946:\n        /* \"#utility.yul\":31203:31228   */\n      swap2\n      pop\n        /* \"#utility.yul\":31242:31262   */\n      tag_947\n        /* \"#utility.yul\":31260:31261   */\n      dup4\n        /* \"#utility.yul\":31242:31262   */\n      tag_544\n      jump\t// in\n    tag_947:\n        /* \"#utility.yul\":31237:31262   */\n      swap3\n      pop\n        /* \"#utility.yul\":31281:31282   */\n      dup3\n        /* \"#utility.yul\":31271:31306   */\n      tag_948\n      jumpi\n        /* \"#utility.yul\":31286:31304   */\n      tag_949\n      tag_608\n      jump\t// in\n    tag_949:\n        /* \"#utility.yul\":31271:31306   */\n    tag_948:\n        /* \"#utility.yul\":31328:31329   */\n      dup3\n        /* \"#utility.yul\":31325:31326   */\n      dup3\n        /* \"#utility.yul\":31321:31330   */\n      div\n        /* \"#utility.yul\":31316:31330   */\n      swap1\n      pop\n        /* \"#utility.yul\":31151:31336   */\n      swap3\n      swap2\n      pop\n      pop\n      jump\t// out\n        /* \"#utility.yul\":31342:31440   */\n    tag_609:\n        /* \"#utility.yul\":31393:31399   */\n      0x00\n        /* \"#utility.yul\":31427:31432   */\n      dup2\n        /* \"#utility.yul\":31421:31433   */\n      mload\n        /* \"#utility.yul\":31411:31433   */\n      swap1\n      pop\n        /* \"#utility.yul\":31342:31440   */\n      swap2\n      swap1\n      pop\n      jump\t// out\n        /* \"#utility.yul\":31446:31593   */\n    tag_610:\n        /* \"#utility.yul\":31547:31558   */\n      0x00\n        /* \"#utility.yul\":31584:31587   */\n      dup2\n        /* \"#utility.yul\":31569:31587   */\n      swap1\n      pop\n        /* \"#utility.yul\":31446:31593   */\n      swap3\n      swap2\n      pop\n      pop\n      jump\t// out\n        /* \"#utility.yul\":31599:31985   */\n    tag_611:\n        /* \"#utility.yul\":31703:31706   */\n      0x00\n        /* \"#utility.yul\":31731:31769   */\n      tag_953\n        /* \"#utility.yul\":31763:31768   */\n      dup3\n        /* \"#utility.yul\":31731:31769   */\n      tag_609\n      jump\t// in\n    tag_953:\n        /* \"#utility.yul\":31785:31873   */\n      tag_954\n        /* \"#utility.yul\":31866:31872   */\n      dup2\n        /* \"#utility.yul\":31861:31864   */\n      dup6\n        /* \"#utility.yul\":31785:31873   */\n      tag_610\n      jump\t// in\n    tag_954:\n        /* \"#utility.yul\":31778:31873   */\n      swap4\n      pop\n        /* \"#utility.yul\":31882:31947   */\n      tag_955\n        /* \"#utility.yul\":31940:31946   */\n      dup2\n        /* \"#utility.yul\":31935:31938   */\n      dup6\n        /* \"#utility.yul\":31928:31932   */\n      0x20\n        /* \"#utility.yul\":31921:31926   */\n      dup7\n        /* \"#utility.yul\":31917:31933   */\n      add\n        /* \"#utility.yul\":31882:31947   */\n      tag_534\n      jump\t// in\n    tag_955:\n        /* \"#utility.yul\":31972:31978   */\n      dup1\n        /* \"#utility.yul\":31967:31970   */\n      dup5\n        /* \"#utility.yul\":31963:31979   */\n      add\n        /* \"#utility.yul\":31956:31979   */\n      swap2\n      pop\n        /* \"#utility.yul\":31707:31985   */\n      pop\n        /* \"#utility.yul\":31599:31985   */\n      swap3\n      swap2\n      pop\n      pop\n      jump\t// out\n        /* \"#utility.yul\":31991:32262   */\n    tag_511:\n        /* \"#utility.yul\":32121:32124   */\n      0x00\n        /* \"#utility.yul\":32143:32236   */\n      tag_957\n        /* \"#utility.yul\":32232:32235   */\n      dup3\n        /* \"#utility.yul\":32223:32229   */\n      dup5\n        /* \"#utility.yul\":32143:32236   */\n      tag_611\n      jump\t// in\n    tag_957:\n        /* \"#utility.yul\":32136:32236   */\n      swap2\n      pop\n        /* \"#utility.yul\":32253:32256   */\n      dup2\n        /* \"#utility.yul\":32246:32256   */\n      swap1\n      pop\n        /* \"#utility.yul\":31991:32262   */\n      swap3\n      swap2\n      pop\n      pop\n      jump\t// out\n\n    auxdata: 0xa26469706673582212203406afcfbef0cc43887d8e4bdcf1a33f1a2c81e6f089e3f0f05a18f9b7b0174b64736f6c634300081a0033\n}\n",
				"bytecode": {
					"linkReferences": {},
					"object": "60a06040523073ffffffffffffffffffffffffffffffffffffffff1660809073ffffffffffffffffffffffffffffffffffffffff16815250348015610042575f80fd5b5061005161005660201b60201c565b6101b6565b5f61006561015460201b60201c565b9050805f0160089054906101000a900460ff16156100af576040517ff92ee8a900000000000000000000000000000000000000000000000000000000815260040160405180910390fd5b67ffffffffffffffff8016815f015f9054906101000a900467ffffffffffffffff1667ffffffffffffffff16146101515767ffffffffffffffff815f015f6101000a81548167ffffffffffffffff021916908367ffffffffffffffff1602179055507fc7f505b2f371ae2175ee4913f4499e1f2633a7b5936321eed1cdaeb6115181d267ffffffffffffffff604051610148919061019d565b60405180910390a15b50565b5f7ff0c57e16840df040f15088dc2f81fe391c3923bec73e23a9662efc9c229c6a00905090565b5f67ffffffffffffffff82169050919050565b6101978161017b565b82525050565b5f6020820190506101b05f83018461018e565b92915050565b6080516136fe6101dc5f395f8181611559015281816115ae015261176801526136fe5ff3fe60806040526004361061019b575f3560e01c8063715018a6116100eb578063a9059cbb11610089578063b88a802f11610063578063b88a802f1461054e578063d8ad523114610564578063dd62ed3e146105a0578063f2fde38b146105dc5761019b565b8063a9059cbb146104c0578063ad3cb1cc146104fc578063af9dcc2c146105265761019b565b80638da5cb5b116100c55780638da5cb5b1461042c57806395d89b41146104565780639e24f23614610480578063a7892c11146104aa5761019b565b8063715018a6146103d657806378f3c4b6146103ec5780638456cb59146104165761019b565b8063313ce567116101585780634f1ef286116101325780634f1ef2861461032a57806352d1902d146103465780635c975abb1461037057806370a082311461039a5761019b565b8063313ce567146102bb57806338b42785146102e55780633f4ba83a146103145761019b565b806306fdde031461019f578063095ea7b3146101c95780630b5940361461020557806318160ddd1461022d5780631cb44dfc1461025757806323b872dd1461027f575b5f80fd5b3480156101aa575f80fd5b506101b3610604565b6040516101c091906126be565b60405180910390f35b3480156101d4575f80fd5b506101ef60048036038101906101ea919061277c565b6106a2565b6040516101fc91906127d4565b60405180910390f35b348015610210575f80fd5b5061022b60048036038101906102269190612906565b6106c4565b005b348015610238575f80fd5b50610241610746565b60405161024e9190612940565b60405180910390f35b348015610262575f80fd5b5061027d60048036038101906102789190612959565b61075d565b005b34801561028a575f80fd5b506102a560048036038101906102a09190612984565b610850565b6040516102b291906127d4565b60405180910390f35b3480156102c6575f80fd5b506102cf61087e565b6040516102dc91906129ef565b60405180910390f35b3480156102f0575f80fd5b506102f9610886565b60405161030b96959493929190612a08565b60405180910390f35b34801561031f575f80fd5b506103286108af565b005b610344600480360381019061033f9190612b1b565b6108c1565b005b348015610351575f80fd5b5061035a6108e0565b6040516103679190612b8d565b60405180910390f35b34801561037b575f80fd5b50610384610911565b60405161039191906127d4565b60405180910390f35b3480156103a5575f80fd5b506103c060048036038101906103bb9190612959565b610925565b6040516103cd9190612940565b60405180910390f35b3480156103e1575f80fd5b506103ea610978565b005b3480156103f7575f80fd5b5061040061098b565b60405161040d9190612c01565b60405180910390f35b348015610421575f80fd5b5061042a6109b0565b005b348015610437575f80fd5b506104406109c2565b60405161044d9190612c29565b60405180910390f35b348015610461575f80fd5b5061046a6109f7565b60405161047791906126be565b60405180910390f35b34801561048b575f80fd5b50610494610a95565b6040516104a19190612940565b60405180910390f35b3480156104b5575f80fd5b506104be610a9b565b005b3480156104cb575f80fd5b506104e660048036038101906104e1919061277c565b610ce5565b6040516104f391906127d4565b60405180910390f35b348015610507575f80fd5b50610510610d07565b60405161051d91906126be565b60405180910390f35b348015610531575f80fd5b5061054c60048036038101906105479190612ce0565b610d40565b005b348015610559575f80fd5b50610562610fee565b005b34801561056f575f80fd5b5061058a60048036038101906105859190612959565b611185565b6040516105979190612940565b60405180910390f35b3480156105ab575f80fd5b506105c660048036038101906105c19190612d7d565b61119a565b6040516105d39190612940565b60405180910390f35b3480156105e7575f80fd5b5061060260048036038101906105fd9190612959565b61122a565b005b60605f61060f6112ae565b905080600301805461062090612de8565b80601f016020809104026020016040519081016040528092919081815260200182805461064c90612de8565b80156106975780601f1061066e57610100808354040283529160200191610697565b820191905f5260205f20905b81548152906001019060200180831161067a57829003601f168201915b505050505091505090565b5f806106ac6112d5565b90506106b98185856112dc565b600191505092915050565b6106cc6112ee565b8060335f820151815f01556020820151816001015560408201518160020155606082015181600301556080820151816004015560a082015181600501559050507f367b6b00685ae263e44e2231e399d2e112eac1979516a9e0e1069d7cd4ac3a2d8160405161073b9190612ea0565b60405180910390a150565b5f806107506112ae565b9050806002015491505090565b6107656112ee565b5f73ffffffffffffffffffffffffffffffffffffffff168173ffffffffffffffffffffffffffffffffffffffff16036107ca576040517f5521068100000000000000000000000000000000000000000000000000000000815260040160405180910390fd5b8060325f6101000a81548173ffffffffffffffffffffffffffffffffffffffff021916908373ffffffffffffffffffffffffffffffffffffffff1602179055508073ffffffffffffffffffffffffffffffffffffffff167f3df77beb5db05fcdd70a30fc8adf3f83f9501b68579455adbd100b818094039460405160405180910390a250565b5f8061085a6112d5565b9050610867858285611375565b610872858585611407565b60019150509392505050565b5f6012905090565b6033805f0154908060010154908060020154908060030154908060040154908060050154905086565b6108b76112ee565b6108bf6114f7565b565b6108c9611557565b6108d28261163d565b6108dc8282611648565b5050565b5f6108e9611766565b7f360894a13ba1a3210667c828492db98dca3e2076cc3735a920a3ca505d382bbc5f1b905090565b5f805f9054906101000a900460ff16905090565b5f8061092f6112ae565b9050805f015f8473ffffffffffffffffffffffffffffffffffffffff1673ffffffffffffffffffffffffffffffffffffffff1681526020019081526020015f2054915050919050565b6109806112ee565b6109895f6117ed565b565b60325f9054906101000a900473ffffffffffffffffffffffffffffffffffffffff1681565b6109b86112ee565b6109c06118be565b565b5f806109cc61191f565b9050805f015f9054906101000a900473ffffffffffffffffffffffffffffffffffffffff1691505090565b60605f610a026112ae565b9050806004018054610a1390612de8565b80601f0160208091040260200160405190810160405280929190818152602001828054610a3f90612de8565b8015610a8a5780601f10610a6157610100808354040283529160200191610a8a565b820191905f5260205f20905b815481529060010190602001808311610a6d57829003601f168201915b505050505091505090565b60395481565b610aa3611946565b603360050154603954610ab69190612ee6565b421015610aef576040517f4a448f3700000000000000000000000000000000000000000000000000000000815260040160405180910390fd5b5f60325f9054906101000a900473ffffffffffffffffffffffffffffffffffffffff1673ffffffffffffffffffffffffffffffffffffffff1663395924dc6040518163ffffffff1660e01b8152600401608060405180830381865afa158015610b5a573d5f803e3d5ffd5b505050506040513d601f19601f82011682018060405250810190610b7e9190612fa2565b9050610e10816060015142610b939190612fcd565b1115610bcb576040517f7428474c00000000000000000000000000000000000000000000000000000000815260040160405180910390fd5b603360020154815f01511015610c0d576040517fda2029d100000000000000000000000000000000000000000000000000000000815260040160405180910390fd5b60335f0154816020015110158015610c2e5750603360010154816040015110155b15610c4157610c3c81611990565b610c4b565b610c4a81611a07565b5b4260398190555060325f9054906101000a900473ffffffffffffffffffffffffffffffffffffffff1673ffffffffffffffffffffffffffffffffffffffff166309c22c5d6040518163ffffffff1660e01b81526004016020604051808303815f875af1158015610cbd573d5f803e3d5ffd5b505050506040513d601f19601f82011682018060405250810190610ce1919061302a565b5050565b5f80610cef6112d5565b9050610cfc818585611407565b600191505092915050565b6040518060400160405280600581526020017f352e302e3000000000000000000000000000000000000000000000000000000081525081565b5f610d49611a7e565b90505f815f0160089054906101000a900460ff161590505f825f015f9054906101000a900467ffffffffffffffff1690505f808267ffffffffffffffff16148015610d915750825b90505f60018367ffffffffffffffff16148015610dc457505f3073ffffffffffffffffffffffffffffffffffffffff163b145b905081158015610dd2575080155b15610e09576040517ff92ee8a900000000000000000000000000000000000000000000000000000000815260040160405180910390fd5b6001855f015f6101000a81548167ffffffffffffffff021916908367ffffffffffffffff1602179055508315610e56576001855f0160086101000a81548160ff0219169083151502179055505b610e608989611aa5565b610e6933611abb565b610e71611acf565b610e79611ae1565b5f73ffffffffffffffffffffffffffffffffffffffff168773ffffffffffffffffffffffffffffffffffffffff1603610ede576040517f5521068100000000000000000000000000000000000000000000000000000000815260040160405180910390fd5b8660325f6101000a81548173ffffffffffffffffffffffffffffffffffffffff021916908373ffffffffffffffffffffffffffffffffffffffff1602179055508560335f820151815f01556020820151816001015560408201518160020155606082015181600301556080820151816004015560a08201518160050155905050610f8933610f6a61087e565b600a610f769190613184565b620f4240610f8491906131ce565b611aeb565b8315610fe3575f855f0160086101000a81548160ff0219169083151502179055507fc7f505b2f371ae2175ee4913f4499e1f2633a7b5936321eed1cdaeb6115181d26001604051610fda919061325b565b60405180910390a15b505050505050505050565b610ff6611946565b603360050154603a5f3373ffffffffffffffffffffffffffffffffffffffff1673ffffffffffffffffffffffffffffffffffffffff1681526020019081526020015f20546110449190612ee6565b42101561107d576040517f2bc08a7300000000000000000000000000000000000000000000000000000000815260040160405180910390fd5b5f60325f9054906101000a900473ffffffffffffffffffffffffffffffffffffffff1673ffffffffffffffffffffffffffffffffffffffff1663395924dc6040518163ffffffff1660e01b8152600401608060405180830381865afa1580156110e8573d5f803e3d5ffd5b505050506040513d601f19601f8201168201806040525081019061110c9190612fa2565b90505f61112a8260200151836040015161112533610925565b611b6a565b90505f8111156111815761113e3382611aeb565b42603a5f3373ffffffffffffffffffffffffffffffffffffffff1673ffffffffffffffffffffffffffffffffffffffff1681526020019081526020015f20819055505b5050565b603a602052805f5260405f205f915090505481565b5f806111a46112ae565b9050806001015f8573ffffffffffffffffffffffffffffffffffffffff1673ffffffffffffffffffffffffffffffffffffffff1681526020019081526020015f205f8473ffffffffffffffffffffffffffffffffffffffff1673ffffffffffffffffffffffffffffffffffffffff1681526020019081526020015f205491505092915050565b6112326112ee565b5f73ffffffffffffffffffffffffffffffffffffffff168173ffffffffffffffffffffffffffffffffffffffff16036112a2575f6040517f1e4fbdf70000000000000000000000000000000000000000000000000000000081526004016112999190612c29565b60405180910390fd5b6112ab816117ed565b50565b5f7f52c63247e1f47db19d5ce0460030c497f067ca4cebf71ba98eeadabe20bace00905090565b5f33905090565b6112e98383836001611c0e565b505050565b6112f66112d5565b73ffffffffffffffffffffffffffffffffffffffff166113146109c2565b73ffffffffffffffffffffffffffffffffffffffff1614611373576113376112d5565b6040517f118cdaa700000000000000000000000000000000000000000000000000000000815260040161136a9190612c29565b60405180910390fd5b565b5f611380848461119a565b90507fffffffffffffffffffffffffffffffffffffffffffffffffffffffffffffffff811461140157818110156113f2578281836040517ffb8f41b20000000000000000000000000000000000000000000000000000000081526004016113e993929190613274565b60405180910390fd5b61140084848484035f611c0e565b5b50505050565b5f73ffffffffffffffffffffffffffffffffffffffff168373ffffffffffffffffffffffffffffffffffffffff1603611477575f6040517f96c6fd1e00000000000000000000000000000000000000000000000000000000815260040161146e9190612c29565b60405180910390fd5b5f73ffffffffffffffffffffffffffffffffffffffff168273ffffffffffffffffffffffffffffffffffffffff16036114e7575f6040517fec442f050000000000000000000000000000000000000000000000000000000081526004016114de9190612c29565b60405180910390fd5b6114f2838383611deb565b505050565b6114ff61201a565b5f805f6101000a81548160ff0219169083151502179055507f5db9ee0a495bf2e6ff9c91a7834c1ba4fdd244a5e8aa4e537bd38aeae4b073aa6115406112d5565b60405161154d9190612c29565b60405180910390a1565b7f000000000000000000000000000000000000000000000000000000000000000073ffffffffffffffffffffffffffffffffffffffff163073ffffffffffffffffffffffffffffffffffffffff16148061160457507f000000000000000000000000000000000000000000000000000000000000000073ffffffffffffffffffffffffffffffffffffffff166115eb612063565b73ffffffffffffffffffffffffffffffffffffffff1614155b1561163b576040517fe07c8dba00000000000000000000000000000000000000000000000000000000815260040160405180910390fd5b565b6116456112ee565b50565b8173ffffffffffffffffffffffffffffffffffffffff166352d1902d6040518163ffffffff1660e01b8152600401602060405180830381865afa9250505080156116b057506040513d601f19601f820116820180604052508101906116ad919061302a565b60015b6116f157816040517f4c9c8ce30000000000000000000000000000000000000000000000000000000081526004016116e89190612c29565b60405180910390fd5b7f360894a13ba1a3210667c828492db98dca3e2076cc3735a920a3ca505d382bbc5f1b811461175757806040517faa1d49a400000000000000000000000000000000000000000000000000000000815260040161174e9190612b8d565b60405180910390fd5b61176183836120b6565b505050565b7f000000000000000000000000000000000000000000000000000000000000000073ffffffffffffffffffffffffffffffffffffffff163073ffffffffffffffffffffffffffffffffffffffff16146117eb576040517fe07c8dba00000000000000000000000000000000000000000000000000000000815260040160405180910390fd5b565b5f6117f661191f565b90505f815f015f9054906101000a900473ffffffffffffffffffffffffffffffffffffffff16905082825f015f6101000a81548173ffffffffffffffffffffffffffffffffffffffff021916908373ffffffffffffffffffffffffffffffffffffffff1602179055508273ffffffffffffffffffffffffffffffffffffffff168173ffffffffffffffffffffffffffffffffffffffff167f8be0079c531659141344cd1fd0a4f28419497f9722a3daafe3b4186f6b6457e060405160405180910390a3505050565b6118c6611946565b60015f806101000a81548160ff0219169083151502179055507f62e78cea01bee320cd4e420270b5ea74000d11b0c9f74754ebdbfc544b05a2586119086112d5565b6040516119159190612c29565b60405180910390a1565b5f7f9016d09d72d40fdae2fd8ceac6b6234c7706214fd39c1cd1e609a0528c199300905090565b61194e610911565b1561198e576040517f08c379a0000000000000000000000000000000000000000000000000000000008152600401611985906132f3565b60405180910390fd5b565b5f6119ab826020015183604001516119a6610746565b611b6a565b90505f811115611a03576119bf3082612128565b7fda04004d58812f3e164f58e498158acca1b0054d975fce0e3bafdf56f2e254ba81836020015184604001516040516119fa93929190613311565b60405180910390a15b5050565b5f611a2282602001518360400151611a1d610746565b6121a7565b90505f811115611a7a57611a363082611aeb565b7f0958e73d0165cd8413c567ddcfecfbdfb06498a561de5cd56849c2b463f66cdf8183602001518460400151604051611a7193929190613311565b60405180910390a15b5050565b5f7ff0c57e16840df040f15088dc2f81fe391c3923bec73e23a9662efc9c229c6a00905090565b611aad612270565b611ab782826122b0565b5050565b611ac3612270565b611acc816122ec565b50565b611ad7612270565b611adf612370565b565b611ae9612270565b565b5f73ffffffffffffffffffffffffffffffffffffffff168273ffffffffffffffffffffffffffffffffffffffff1603611b5b575f6040517fec442f05000000000000000000000000000000000000000000000000000000008152600401611b529190612c29565b60405180910390fd5b611b665f8383611deb565b5050565b5f80611b8360335f01548661239290919063ffffffff16565b90505f611b9e6033600101548661239290919063ffffffff16565b9050611c036064611bf5612710611be788611bd987611bcb8a6033600301546123a790919063ffffffff16565b6123a790919063ffffffff16565b6123a790919063ffffffff16565b6123bc90919063ffffffff16565b6123bc90919063ffffffff16565b925050509392505050565b5f611c176112ae565b90505f73ffffffffffffffffffffffffffffffffffffffff168573ffffffffffffffffffffffffffffffffffffffff1603611c89575f6040517fe602df05000000000000000000000000000000000000000000000000000000008152600401611c809190612c29565b60405180910390fd5b5f73ffffffffffffffffffffffffffffffffffffffff168473ffffffffffffffffffffffffffffffffffffffff1603611cf9575f6040517f94280d62000000000000000000000000000000000000000000000000000000008152600401611cf09190612c29565b60405180910390fd5b82816001015f8773ffffffffffffffffffffffffffffffffffffffff1673ffffffffffffffffffffffffffffffffffffffff1681526020019081526020015f205f8673ffffffffffffffffffffffffffffffffffffffff1673ffffffffffffffffffffffffffffffffffffffff1681526020019081526020015f20819055508115611de4578373ffffffffffffffffffffffffffffffffffffffff168573ffffffffffffffffffffffffffffffffffffffff167f8c5be1e5ebec7d5bd14f71427d1e84f3dd0314c0f7b2291e5b200ac8c7c3b92585604051611ddb9190612940565b60405180910390a35b5050505050565b5f611df46112ae565b90505f73ffffffffffffffffffffffffffffffffffffffff168473ffffffffffffffffffffffffffffffffffffffff1603611e485781816002015f828254611e3c9190612ee6565b92505081905550611f1a565b5f815f015f8673ffffffffffffffffffffffffffffffffffffffff1673ffffffffffffffffffffffffffffffffffffffff1681526020019081526020015f2054905082811015611ed3578481846040517fe450d38c000000000000000000000000000000000000000000000000000000008152600401611eca93929190613274565b60405180910390fd5b828103825f015f8773ffffffffffffffffffffffffffffffffffffffff1673ffffffffffffffffffffffffffffffffffffffff1681526020019081526020015f2081905550505b5f73ffffffffffffffffffffffffffffffffffffffff168373ffffffffffffffffffffffffffffffffffffffff1603611f635781816002015f8282540392505081905550611faf565b81815f015f8573ffffffffffffffffffffffffffffffffffffffff1673ffffffffffffffffffffffffffffffffffffffff1681526020019081526020015f205f82825401925050819055505b8273ffffffffffffffffffffffffffffffffffffffff168473ffffffffffffffffffffffffffffffffffffffff167fddf252ad1be2c89b69c2b068fc378daa952ba7f163c4a11628f55a4df523b3ef8460405161200c9190612940565b60405180910390a350505050565b612022610911565b612061576040517f08c379a000000000000000000000000000000000000000000000000000000000815260040161205890613390565b60405180910390fd5b565b5f61208f7f360894a13ba1a3210667c828492db98dca3e2076cc3735a920a3ca505d382bbc5f1b6123d1565b5f015f9054906101000a900473ffffffffffffffffffffffffffffffffffffffff16905090565b6120bf826123da565b8173ffffffffffffffffffffffffffffffffffffffff167fbc7cd75a20ee27fd9adebab32041f755214dbc6bffa90cc0225b39da2e5c2d3b60405160405180910390a25f8151111561211b5761211582826124a3565b50612124565b612123612523565b5b5050565b5f73ffffffffffffffffffffffffffffffffffffffff168273ffffffffffffffffffffffffffffffffffffffff1603612198575f6040517f96c6fd1e00000000000000000000000000000000000000000000000000000000815260040161218f9190612c29565b60405180910390fd5b6121a3825f83611deb565b5050565b5f808460335f0154116121ba575f6121d2565b6121d18560335f015461239290919063ffffffff16565b5b90505f84603360010154116121e7575f612200565b6121ff8560336001015461239290919063ffffffff16565b5b905061226560646122576127106122498861223b8761222d8a6033600401546123a790919063ffffffff16565b6123a790919063ffffffff16565b6123a790919063ffffffff16565b6123bc90919063ffffffff16565b6123bc90919063ffffffff16565b925050509392505050565b61227861255f565b6122ae576040517fd7e6bcf800000000000000000000000000000000000000000000000000000000815260040160405180910390fd5b565b6122b8612270565b5f6122c16112ae565b9050828160030190816122d49190613542565b50818160040190816122e69190613542565b50505050565b6122f4612270565b5f73ffffffffffffffffffffffffffffffffffffffff168173ffffffffffffffffffffffffffffffffffffffff1603612364575f6040517f1e4fbdf700000000000000000000000000000000000000000000000000000000815260040161235b9190612c29565b60405180910390fd5b61236d816117ed565b50565b612378612270565b5f805f6101000a81548160ff021916908315150217905550565b5f818361239f9190612fcd565b905092915050565b5f81836123b491906131ce565b905092915050565b5f81836123c9919061363e565b905092915050565b5f819050919050565b5f8173ffffffffffffffffffffffffffffffffffffffff163b0361243557806040517f4c9c8ce300000000000000000000000000000000000000000000000000000000815260040161242c9190612c29565b60405180910390fd5b806124617f360894a13ba1a3210667c828492db98dca3e2076cc3735a920a3ca505d382bbc5f1b6123d1565b5f015f6101000a81548173ffffffffffffffffffffffffffffffffffffffff021916908373ffffffffffffffffffffffffffffffffffffffff16021790555050565b60605f808473ffffffffffffffffffffffffffffffffffffffff16846040516124cc91906136b2565b5f60405180830381855af49150503d805f8114612504576040519150601f19603f3d011682016040523d82523d5f602084013e612509565b606091505b509150915061251985838361257d565b9250505092915050565b5f34111561255d576040517fb398979f00000000000000000000000000000000000000000000000000000000815260040160405180910390fd5b565b5f612568611a7e565b5f0160089054906101000a900460ff16905090565b6060826125925761258d8261260a565b612602565b5f82511480156125b857505f8473ffffffffffffffffffffffffffffffffffffffff163b145b156125fa57836040517f9996b3150000000000000000000000000000000000000000000000000000000081526004016125f19190612c29565b60405180910390fd5b819050612603565b5b9392505050565b5f8151111561261c5780518082602001fd5b6040517fd6bda27500000000000000000000000000000000000000000000000000000000815260040160405180910390fd5b5f81519050919050565b5f82825260208201905092915050565b8281835e5f83830152505050565b5f601f19601f8301169050919050565b5f6126908261264e565b61269a8185612658565b93506126aa818560208601612668565b6126b381612676565b840191505092915050565b5f6020820190508181035f8301526126d68184612686565b905092915050565b5f604051905090565b5f80fd5b5f80fd5b5f73ffffffffffffffffffffffffffffffffffffffff82169050919050565b5f612718826126ef565b9050919050565b6127288161270e565b8114612732575f80fd5b50565b5f813590506127438161271f565b92915050565b5f819050919050565b61275b81612749565b8114612765575f80fd5b50565b5f8135905061277681612752565b92915050565b5f8060408385031215612792576127916126e7565b5b5f61279f85828601612735565b92505060206127b085828601612768565b9150509250929050565b5f8115159050919050565b6127ce816127ba565b82525050565b5f6020820190506127e75f8301846127c5565b92915050565b5f80fd5b7f4e487b71000000000000000000000000000000000000000000000000000000005f52604160045260245ffd5b61282782612676565b810181811067ffffffffffffffff82111715612846576128456127f1565b5b80604052505050565b5f6128586126de565b9050612864828261281e565b919050565b5f60c0828403121561287e5761287d6127ed565b5b61288860c061284f565b90505f61289784828501612768565b5f8301525060206128aa84828501612768565b60208301525060406128be84828501612768565b60408301525060606128d284828501612768565b60608301525060806128e684828501612768565b60808301525060a06128fa84828501612768565b60a08301525092915050565b5f60c0828403121561291b5761291a6126e7565b5b5f61292884828501612869565b91505092915050565b61293a81612749565b82525050565b5f6020820190506129535f830184612931565b92915050565b5f6020828403121561296e5761296d6126e7565b5b5f61297b84828501612735565b91505092915050565b5f805f6060848603121561299b5761299a6126e7565b5b5f6129a886828701612735565b93505060206129b986828701612735565b92505060406129ca86828701612768565b9150509250925092565b5f60ff82169050919050565b6129e9816129d4565b82525050565b5f602082019050612a025f8301846129e0565b92915050565b5f60c082019050612a1b5f830189612931565b612a286020830188612931565b612a356040830187612931565b612a426060830186612931565b612a4f6080830185612931565b612a5c60a0830184612931565b979650505050505050565b5f80fd5b5f80fd5b5f67ffffffffffffffff821115612a8957612a886127f1565b5b612a9282612676565b9050602081019050919050565b828183375f83830152505050565b5f612abf612aba84612a6f565b61284f565b905082815260208101848484011115612adb57612ada612a6b565b5b612ae6848285612a9f565b509392505050565b5f82601f830112612b0257612b01612a67565b5b8135612b12848260208601612aad565b91505092915050565b5f8060408385031215612b3157612b306126e7565b5b5f612b3e85828601612735565b925050602083013567ffffffffffffffff811115612b5f57612b5e6126eb565b5b612b6b85828601612aee565b9150509250929050565b5f819050919050565b612b8781612b75565b82525050565b5f602082019050612ba05f830184612b7e565b92915050565b5f819050919050565b5f612bc9612bc4612bbf846126ef565b612ba6565b6126ef565b9050919050565b5f612bda82612baf565b9050919050565b5f612beb82612bd0565b9050919050565b612bfb81612be1565b82525050565b5f602082019050612c145f830184612bf2565b92915050565b612c238161270e565b82525050565b5f602082019050612c3c5f830184612c1a565b92915050565b5f67ffffffffffffffff821115612c5c57612c5b6127f1565b5b612c6582612676565b9050602081019050919050565b5f612c84612c7f84612c42565b61284f565b905082815260208101848484011115612ca057612c9f612a6b565b5b612cab848285612a9f565b509392505050565b5f82601f830112612cc757612cc6612a67565b5b8135612cd7848260208601612c72565b91505092915050565b5f805f806101208587031215612cf957612cf86126e7565b5b5f85013567ffffffffffffffff811115612d1657612d156126eb565b5b612d2287828801612cb3565b945050602085013567ffffffffffffffff811115612d4357612d426126eb565b5b612d4f87828801612cb3565b9350506040612d6087828801612735565b9250506060612d7187828801612869565b91505092959194509250565b5f8060408385031215612d9357612d926126e7565b5b5f612da085828601612735565b9250506020612db185828601612735565b9150509250929050565b7f4e487b71000000000000000000000000000000000000000000000000000000005f52602260045260245ffd5b5f6002820490506001821680612dff57607f821691505b602082108103612e1257612e11612dbb565b5b50919050565b612e2181612749565b82525050565b60c082015f820151612e3b5f850182612e18565b506020820151612e4e6020850182612e18565b506040820151612e616040850182612e18565b506060820151612e746060850182612e18565b506080820151612e876080850182612e18565b5060a0820151612e9a60a0850182612e18565b50505050565b5f60c082019050612eb35f830184612e27565b92915050565b7f4e487b71000000000000000000000000000000000000000000000000000000005f52601160045260245ffd5b5f612ef082612749565b9150612efb83612749565b9250828201905080821115612f1357612f12612eb9565b5b92915050565b5f81519050612f2781612752565b92915050565b5f60808284031215612f4257612f416127ed565b5b612f4c608061284f565b90505f612f5b84828501612f19565b5f830152506020612f6e84828501612f19565b6020830152506040612f8284828501612f19565b6040830152506060612f9684828501612f19565b60608301525092915050565b5f60808284031215612fb757612fb66126e7565b5b5f612fc484828501612f2d565b91505092915050565b5f612fd782612749565b9150612fe283612749565b9250828203905081811115612ffa57612ff9612eb9565b5b92915050565b61300981612b75565b8114613013575f80fd5b50565b5f8151905061302481613000565b92915050565b5f6020828403121561303f5761303e6126e7565b5b5f61304c84828501613016565b91505092915050565b5f8160011c9050919050565b5f808291508390505b60018511156130aa5780860481111561308657613085612eb9565b5b60018516156130955780820291505b80810290506130a385613055565b945061306a565b94509492505050565b5f826130c2576001905061317d565b816130cf575f905061317d565b81600181146130e557600281146130ef5761311e565b600191505061317d565b60ff84111561310157613100612eb9565b5b8360020a91508482111561311857613117612eb9565b5b5061317d565b5060208310610133831016604e8410600b84101617156131535782820a90508381111561314e5761314d612eb9565b5b61317d565b6131608484846001613061565b9250905081840481111561317757613176612eb9565b5b81810290505b9392505050565b5f61318e82612749565b9150613199836129d4565b92506131c67fffffffffffffffffffffffffffffffffffffffffffffffffffffffffffffffff84846130b3565b905092915050565b5f6131d882612749565b91506131e383612749565b92508282026131f181612749565b9150828204841483151761320857613207612eb9565b5b5092915050565b5f819050919050565b5f67ffffffffffffffff82169050919050565b5f61324561324061323b8461320f565b612ba6565b613218565b9050919050565b6132558161322b565b82525050565b5f60208201905061326e5f83018461324c565b92915050565b5f6060820190506132875f830186612c1a565b6132946020830185612931565b6132a16040830184612931565b949350505050565b7f5061757361626c653a20706175736564000000000000000000000000000000005f82015250565b5f6132dd601083612658565b91506132e8826132a9565b602082019050919050565b5f6020820190508181035f83015261330a816132d1565b9050919050565b5f6060820190506133245f830186612931565b6133316020830185612931565b61333e6040830184612931565b949350505050565b7f5061757361626c653a206e6f74207061757365640000000000000000000000005f82015250565b5f61337a601483612658565b915061338582613346565b602082019050919050565b5f6020820190508181035f8301526133a78161336e565b9050919050565b5f819050815f5260205f209050919050565b5f6020601f8301049050919050565b5f82821b905092915050565b5f6008830261340a7fffffffffffffffffffffffffffffffffffffffffffffffffffffffffffffffff826133cf565b61341486836133cf565b95508019841693508086168417925050509392505050565b5f61344661344161343c84612749565b612ba6565b612749565b9050919050565b5f819050919050565b61345f8361342c565b61347361346b8261344d565b8484546133db565b825550505050565b5f90565b61348761347b565b613492818484613456565b505050565b5b818110156134b5576134aa5f8261347f565b600181019050613498565b5050565b601f8211156134fa576134cb816133ae565b6134d4846133c0565b810160208510156134e3578190505b6134f76134ef856133c0565b830182613497565b50505b505050565b5f82821c905092915050565b5f61351a5f19846008026134ff565b1980831691505092915050565b5f613532838361350b565b9150826002028217905092915050565b61354b8261264e565b67ffffffffffffffff811115613564576135636127f1565b5b61356e8254612de8565b6135798282856134b9565b5f60209050601f8311600181146135aa575f8415613598578287015190505b6135a28582613527565b865550613609565b601f1984166135b8866133ae565b5f5b828110156135df578489015182556001820191506020850194506020810190506135ba565b868310156135fc57848901516135f8601f89168261350b565b8355505b6001600288020188555050505b505050505050565b7f4e487b71000000000000000000000000000000000000000000000000000000005f52601260045260245ffd5b5f61364882612749565b915061365383612749565b92508261366357613662613611565b5b828204905092915050565b5f81519050919050565b5f81905092915050565b5f61368c8261366e565b6136968185613678565b93506136a6818560208601612668565b80840191505092915050565b5f6136bd8284613682565b91508190509291505056fea26469706673582212203406afcfbef0cc43887d8e4bdcf1a33f1a2c81e6f089e3f0f05a18f9b7b0174b64736f6c634300081a0033",
					"opcodes": "PUSH1 0xA0 PUSH1 0x40 MSTORE ADDRESS PUSH20 0xFFFFFFFFFFFFFFFFFFFFFFFFFFFFFFFFFFFFFFFF AND PUSH1 0x80 SWAP1 PUSH20 0xFFFFFFFFFFFFFFFFFFFFFFFFFFFFFFFFFFFFFFFF AND DUP2 MSTORE POP CALLVALUE DUP1 ISZERO PUSH2 0x42 JUMPI PUSH0 DUP1 REVERT JUMPDEST POP PUSH2 0x51 PUSH2 0x56 PUSH1 0x20 SHL PUSH1 0x20 SHR JUMP JUMPDEST PUSH2 0x1B6 JUMP JUMPDEST PUSH0 PUSH2 0x65 PUSH2 0x154 PUSH1 0x20 SHL PUSH1 0x20 SHR JUMP JUMPDEST SWAP1 POP DUP1 PUSH0 ADD PUSH1 0x8 SWAP1 SLOAD SWAP1 PUSH2 0x100 EXP SWAP1 DIV PUSH1 0xFF AND ISZERO PUSH2 0xAF JUMPI PUSH1 0x40 MLOAD PUSH32 0xF92EE8A900000000000000000000000000000000000000000000000000000000 DUP2 MSTORE PUSH1 0x4 ADD PUSH1 0x40 MLOAD DUP1 SWAP2 SUB SWAP1 REVERT JUMPDEST PUSH8 0xFFFFFFFFFFFFFFFF DUP1 AND DUP2 PUSH0 ADD PUSH0 SWAP1 SLOAD SWAP1 PUSH2 0x100 EXP SWAP1 DIV PUSH8 0xFFFFFFFFFFFFFFFF AND PUSH8 0xFFFFFFFFFFFFFFFF AND EQ PUSH2 0x151 JUMPI PUSH8 0xFFFFFFFFFFFFFFFF DUP2 PUSH0 ADD PUSH0 PUSH2 0x100 EXP DUP2 SLOAD DUP2 PUSH8 0xFFFFFFFFFFFFFFFF MUL NOT AND SWAP1 DUP4 PUSH8 0xFFFFFFFFFFFFFFFF AND MUL OR SWAP1 SSTORE POP PUSH32 0xC7F505B2F371AE2175EE4913F4499E1F2633A7B5936321EED1CDAEB6115181D2 PUSH8 0xFFFFFFFFFFFFFFFF PUSH1 0x40 MLOAD PUSH2 0x148 SWAP2 SWAP1 PUSH2 0x19D JUMP JUMPDEST PUSH1 0x40 MLOAD DUP1 SWAP2 SUB SWAP1 LOG1 JUMPDEST POP JUMP JUMPDEST PUSH0 PUSH32 0xF0C57E16840DF040F15088DC2F81FE391C3923BEC73E23A9662EFC9C229C6A00 SWAP1 POP SWAP1 JUMP JUMPDEST PUSH0 PUSH8 0xFFFFFFFFFFFFFFFF DUP3 AND SWAP1 POP SWAP2 SWAP1 POP JUMP JUMPDEST PUSH2 0x197 DUP2 PUSH2 0x17B JUMP JUMPDEST DUP3 MSTORE POP POP JUMP JUMPDEST PUSH0 PUSH1 0x20 DUP3 ADD SWAP1 POP PUSH2 0x1B0 PUSH0 DUP4 ADD DUP5 PUSH2 0x18E JUMP JUMPDEST SWAP3 SWAP2 POP POP JUMP JUMPDEST PUSH1 0x80 MLOAD PUSH2 0x36FE PUSH2 0x1DC PUSH0 CODECOPY PUSH0 DUP2 DUP2 PUSH2 0x1559 ADD MSTORE DUP2 DUP2 PUSH2 0x15AE ADD MSTORE PUSH2 0x1768 ADD MSTORE PUSH2 0x36FE PUSH0 RETURN INVALID PUSH1 0x80 PUSH1 0x40 MSTORE PUSH1 0x4 CALLDATASIZE LT PUSH2 0x19B JUMPI PUSH0 CALLDATALOAD PUSH1 0xE0 SHR DUP1 PUSH4 0x715018A6 GT PUSH2 0xEB JUMPI DUP1 PUSH4 0xA9059CBB GT PUSH2 0x89 JUMPI DUP1 PUSH4 0xB88A802F GT PUSH2 0x63 JUMPI DUP1 PUSH4 0xB88A802F EQ PUSH2 0x54E JUMPI DUP1 PUSH4 0xD8AD5231 EQ PUSH2 0x564 JUMPI DUP1 PUSH4 0xDD62ED3E EQ PUSH2 0x5A0 JUMPI DUP1 PUSH4 0xF2FDE38B EQ PUSH2 0x5DC JUMPI PUSH2 0x19B JUMP JUMPDEST DUP1 PUSH4 0xA9059CBB EQ PUSH2 0x4C0 JUMPI DUP1 PUSH4 0xAD3CB1CC EQ PUSH2 0x4FC JUMPI DUP1 PUSH4 0xAF9DCC2C EQ PUSH2 0x526 JUMPI PUSH2 0x19B JUMP JUMPDEST DUP1 PUSH4 0x8DA5CB5B GT PUSH2 0xC5 JUMPI DUP1 PUSH4 0x8DA5CB5B EQ PUSH2 0x42C JUMPI DUP1 PUSH4 0x95D89B41 EQ PUSH2 0x456 JUMPI DUP1 PUSH4 0x9E24F236 EQ PUSH2 0x480 JUMPI DUP1 PUSH4 0xA7892C11 EQ PUSH2 0x4AA JUMPI PUSH2 0x19B JUMP JUMPDEST DUP1 PUSH4 0x715018A6 EQ PUSH2 0x3D6 JUMPI DUP1 PUSH4 0x78F3C4B6 EQ PUSH2 0x3EC JUMPI DUP1 PUSH4 0x8456CB59 EQ PUSH2 0x416 JUMPI PUSH2 0x19B JUMP JUMPDEST DUP1 PUSH4 0x313CE567 GT PUSH2 0x158 JUMPI DUP1 PUSH4 0x4F1EF286 GT PUSH2 0x132 JUMPI DUP1 PUSH4 0x4F1EF286 EQ PUSH2 0x32A JUMPI DUP1 PUSH4 0x52D1902D EQ PUSH2 0x346 JUMPI DUP1 PUSH4 0x5C975ABB EQ PUSH2 0x370 JUMPI DUP1 PUSH4 0x70A08231 EQ PUSH2 0x39A JUMPI PUSH2 0x19B JUMP JUMPDEST DUP1 PUSH4 0x313CE567 EQ PUSH2 0x2BB JUMPI DUP1 PUSH4 0x38B42785 EQ PUSH2 0x2E5 JUMPI DUP1 PUSH4 0x3F4BA83A EQ PUSH2 0x314 JUMPI PUSH2 0x19B JUMP JUMPDEST DUP1 PUSH4 0x6FDDE03 EQ PUSH2 0x19F JUMPI DUP1 PUSH4 0x95EA7B3 EQ PUSH2 0x1C9 JUMPI DUP1 PUSH4 0xB594036 EQ PUSH2 0x205 JUMPI DUP1 PUSH4 0x18160DDD EQ PUSH2 0x22D JUMPI DUP1 PUSH4 0x1CB44DFC EQ PUSH2 0x257 JUMPI DUP1 PUSH4 0x23B872DD EQ PUSH2 0x27F JUMPI JUMPDEST PUSH0 DUP1 REVERT JUMPDEST CALLVALUE DUP1 ISZERO PUSH2 0x1AA JUMPI PUSH0 DUP1 REVERT JUMPDEST POP PUSH2 0x1B3 PUSH2 0x604 JUMP JUMPDEST PUSH1 0x40 MLOAD PUSH2 0x1C0 SWAP2 SWAP1 PUSH2 0x26BE JUMP JUMPDEST PUSH1 0x40 MLOAD DUP1 SWAP2 SUB SWAP1 RETURN JUMPDEST CALLVALUE DUP1 ISZERO PUSH2 0x1D4 JUMPI PUSH0 DUP1 REVERT JUMPDEST POP PUSH2 0x1EF PUSH1 0x4 DUP1 CALLDATASIZE SUB DUP2 ADD SWAP1 PUSH2 0x1EA SWAP2 SWAP1 PUSH2 0x277C JUMP JUMPDEST PUSH2 0x6A2 JUMP JUMPDEST PUSH1 0x40 MLOAD PUSH2 0x1FC SWAP2 SWAP1 PUSH2 0x27D4 JUMP JUMPDEST PUSH1 0x40 MLOAD DUP1 SWAP2 SUB SWAP1 RETURN JUMPDEST CALLVALUE DUP1 ISZERO PUSH2 0x210 JUMPI PUSH0 DUP1 REVERT JUMPDEST POP PUSH2 0x22B PUSH1 0x4 DUP1 CALLDATASIZE SUB DUP2 ADD SWAP1 PUSH2 0x226 SWAP2 SWAP1 PUSH2 0x2906 JUMP JUMPDEST PUSH2 0x6C4 JUMP JUMPDEST STOP JUMPDEST CALLVALUE DUP1 ISZERO PUSH2 0x238 JUMPI PUSH0 DUP1 REVERT JUMPDEST POP PUSH2 0x241 PUSH2 0x746 JUMP JUMPDEST PUSH1 0x40 MLOAD PUSH2 0x24E SWAP2 SWAP1 PUSH2 0x2940 JUMP JUMPDEST PUSH1 0x40 MLOAD DUP1 SWAP2 SUB SWAP1 RETURN JUMPDEST CALLVALUE DUP1 ISZERO PUSH2 0x262 JUMPI PUSH0 DUP1 REVERT JUMPDEST POP PUSH2 0x27D PUSH1 0x4 DUP1 CALLDATASIZE SUB DUP2 ADD SWAP1 PUSH2 0x278 SWAP2 SWAP1 PUSH2 0x2959 JUMP JUMPDEST PUSH2 0x75D JUMP JUMPDEST STOP JUMPDEST CALLVALUE DUP1 ISZERO PUSH2 0x28A JUMPI PUSH0 DUP1 REVERT JUMPDEST POP PUSH2 0x2A5 PUSH1 0x4 DUP1 CALLDATASIZE SUB DUP2 ADD SWAP1 PUSH2 0x2A0 SWAP2 SWAP1 PUSH2 0x2984 JUMP JUMPDEST PUSH2 0x850 JUMP JUMPDEST PUSH1 0x40 MLOAD PUSH2 0x2B2 SWAP2 SWAP1 PUSH2 0x27D4 JUMP JUMPDEST PUSH1 0x40 MLOAD DUP1 SWAP2 SUB SWAP1 RETURN JUMPDEST CALLVALUE DUP1 ISZERO PUSH2 0x2C6 JUMPI PUSH0 DUP1 REVERT JUMPDEST POP PUSH2 0x2CF PUSH2 0x87E JUMP JUMPDEST PUSH1 0x40 MLOAD PUSH2 0x2DC SWAP2 SWAP1 PUSH2 0x29EF JUMP JUMPDEST PUSH1 0x40 MLOAD DUP1 SWAP2 SUB SWAP1 RETURN JUMPDEST CALLVALUE DUP1 ISZERO PUSH2 0x2F0 JUMPI PUSH0 DUP1 REVERT JUMPDEST POP PUSH2 0x2F9 PUSH2 0x886 JUMP JUMPDEST PUSH1 0x40 MLOAD PUSH2 0x30B SWAP7 SWAP6 SWAP5 SWAP4 SWAP3 SWAP2 SWAP1 PUSH2 0x2A08 JUMP JUMPDEST PUSH1 0x40 MLOAD DUP1 SWAP2 SUB SWAP1 RETURN JUMPDEST CALLVALUE DUP1 ISZERO PUSH2 0x31F JUMPI PUSH0 DUP1 REVERT JUMPDEST POP PUSH2 0x328 PUSH2 0x8AF JUMP JUMPDEST STOP JUMPDEST PUSH2 0x344 PUSH1 0x4 DUP1 CALLDATASIZE SUB DUP2 ADD SWAP1 PUSH2 0x33F SWAP2 SWAP1 PUSH2 0x2B1B JUMP JUMPDEST PUSH2 0x8C1 JUMP JUMPDEST STOP JUMPDEST CALLVALUE DUP1 ISZERO PUSH2 0x351 JUMPI PUSH0 DUP1 REVERT JUMPDEST POP PUSH2 0x35A PUSH2 0x8E0 JUMP JUMPDEST PUSH1 0x40 MLOAD PUSH2 0x367 SWAP2 SWAP1 PUSH2 0x2B8D JUMP JUMPDEST PUSH1 0x40 MLOAD DUP1 SWAP2 SUB SWAP1 RETURN JUMPDEST CALLVALUE DUP1 ISZERO PUSH2 0x37B JUMPI PUSH0 DUP1 REVERT JUMPDEST POP PUSH2 0x384 PUSH2 0x911 JUMP JUMPDEST PUSH1 0x40 MLOAD PUSH2 0x391 SWAP2 SWAP1 PUSH2 0x27D4 JUMP JUMPDEST PUSH1 0x40 MLOAD DUP1 SWAP2 SUB SWAP1 RETURN JUMPDEST CALLVALUE DUP1 ISZERO PUSH2 0x3A5 JUMPI PUSH0 DUP1 REVERT JUMPDEST POP PUSH2 0x3C0 PUSH1 0x4 DUP1 CALLDATASIZE SUB DUP2 ADD SWAP1 PUSH2 0x3BB SWAP2 SWAP1 PUSH2 0x2959 JUMP JUMPDEST PUSH2 0x925 JUMP JUMPDEST PUSH1 0x40 MLOAD PUSH2 0x3CD SWAP2 SWAP1 PUSH2 0x2940 JUMP JUMPDEST PUSH1 0x40 MLOAD DUP1 SWAP2 SUB SWAP1 RETURN JUMPDEST CALLVALUE DUP1 ISZERO PUSH2 0x3E1 JUMPI PUSH0 DUP1 REVERT JUMPDEST POP PUSH2 0x3EA PUSH2 0x978 JUMP JUMPDEST STOP JUMPDEST CALLVALUE DUP1 ISZERO PUSH2 0x3F7 JUMPI PUSH0 DUP1 REVERT JUMPDEST POP PUSH2 0x400 PUSH2 0x98B JUMP JUMPDEST PUSH1 0x40 MLOAD PUSH2 0x40D SWAP2 SWAP1 PUSH2 0x2C01 JUMP JUMPDEST PUSH1 0x40 MLOAD DUP1 SWAP2 SUB SWAP1 RETURN JUMPDEST CALLVALUE DUP1 ISZERO PUSH2 0x421 JUMPI PUSH0 DUP1 REVERT JUMPDEST POP PUSH2 0x42A PUSH2 0x9B0 JUMP JUMPDEST STOP JUMPDEST CALLVALUE DUP1 ISZERO PUSH2 0x437 JUMPI PUSH0 DUP1 REVERT JUMPDEST POP PUSH2 0x440 PUSH2 0x9C2 JUMP JUMPDEST PUSH1 0x40 MLOAD PUSH2 0x44D SWAP2 SWAP1 PUSH2 0x2C29 JUMP JUMPDEST PUSH1 0x40 MLOAD DUP1 SWAP2 SUB SWAP1 RETURN JUMPDEST CALLVALUE DUP1 ISZERO PUSH2 0x461 JUMPI PUSH0 DUP1 REVERT JUMPDEST POP PUSH2 0x46A PUSH2 0x9F7 JUMP JUMPDEST PUSH1 0x40 MLOAD PUSH2 0x477 SWAP2 SWAP1 PUSH2 0x26BE JUMP JUMPDEST PUSH1 0x40 MLOAD DUP1 SWAP2 SUB SWAP1 RETURN JUMPDEST CALLVALUE DUP1 ISZERO PUSH2 0x48B JUMPI PUSH0 DUP1 REVERT JUMPDEST POP PUSH2 0x494 PUSH2 0xA95 JUMP JUMPDEST PUSH1 0x40 MLOAD PUSH2 0x4A1 SWAP2 SWAP1 PUSH2 0x2940 JUMP JUMPDEST PUSH1 0x40 MLOAD DUP1 SWAP2 SUB SWAP1 RETURN JUMPDEST CALLVALUE DUP1 ISZERO PUSH2 0x4B5 JUMPI PUSH0 DUP1 REVERT JUMPDEST POP PUSH2 0x4BE PUSH2 0xA9B JUMP JUMPDEST STOP JUMPDEST CALLVALUE DUP1 ISZERO PUSH2 0x4CB JUMPI PUSH0 DUP1 REVERT JUMPDEST POP PUSH2 0x4E6 PUSH1 0x4 DUP1 CALLDATASIZE SUB DUP2 ADD SWAP1 PUSH2 0x4E1 SWAP2 SWAP1 PUSH2 0x277C JUMP JUMPDEST PUSH2 0xCE5 JUMP JUMPDEST PUSH1 0x40 MLOAD PUSH2 0x4F3 SWAP2 SWAP1 PUSH2 0x27D4 JUMP JUMPDEST PUSH1 0x40 MLOAD DUP1 SWAP2 SUB SWAP1 RETURN JUMPDEST CALLVALUE DUP1 ISZERO PUSH2 0x507 JUMPI PUSH0 DUP1 REVERT JUMPDEST POP PUSH2 0x510 PUSH2 0xD07 JUMP JUMPDEST PUSH1 0x40 MLOAD PUSH2 0x51D SWAP2 SWAP1 PUSH2 0x26BE JUMP JUMPDEST PUSH1 0x40 MLOAD DUP1 SWAP2 SUB SWAP1 RETURN JUMPDEST CALLVALUE DUP1 ISZERO PUSH2 0x531 JUMPI PUSH0 DUP1 REVERT JUMPDEST POP PUSH2 0x54C PUSH1 0x4 DUP1 CALLDATASIZE SUB DUP2 ADD SWAP1 PUSH2 0x547 SWAP2 SWAP1 PUSH2 0x2CE0 JUMP JUMPDEST PUSH2 0xD40 JUMP JUMPDEST STOP JUMPDEST CALLVALUE DUP1 ISZERO PUSH2 0x559 JUMPI PUSH0 DUP1 REVERT JUMPDEST POP PUSH2 0x562 PUSH2 0xFEE JUMP JUMPDEST STOP JUMPDEST CALLVALUE DUP1 ISZERO PUSH2 0x56F JUMPI PUSH0 DUP1 REVERT JUMPDEST POP PUSH2 0x58A PUSH1 0x4 DUP1 CALLDATASIZE SUB DUP2 ADD SWAP1 PUSH2 0x585 SWAP2 SWAP1 PUSH2 0x2959 JUMP JUMPDEST PUSH2 0x1185 JUMP JUMPDEST PUSH1 0x40 MLOAD PUSH2 0x597 SWAP2 SWAP1 PUSH2 0x2940 JUMP JUMPDEST PUSH1 0x40 MLOAD DUP1 SWAP2 SUB SWAP1 RETURN JUMPDEST CALLVALUE DUP1 ISZERO PUSH2 0x5AB JUMPI PUSH0 DUP1 REVERT JUMPDEST POP PUSH2 0x5C6 PUSH1 0x4 DUP1 CALLDATASIZE SUB DUP2 ADD SWAP1 PUSH2 0x5C1 SWAP2 SWAP1 PUSH2 0x2D7D JUMP JUMPDEST PUSH2 0x119A JUMP JUMPDEST PUSH1 0x40 MLOAD PUSH2 0x5D3 SWAP2 SWAP1 PUSH2 0x2940 JUMP JUMPDEST PUSH1 0x40 MLOAD DUP1 SWAP2 SUB SWAP1 RETURN JUMPDEST CALLVALUE DUP1 ISZERO PUSH2 0x5E7 JUMPI PUSH0 DUP1 REVERT JUMPDEST POP PUSH2 0x602 PUSH1 0x4 DUP1 CALLDATASIZE SUB DUP2 ADD SWAP1 PUSH2 0x5FD SWAP2 SWAP1 PUSH2 0x2959 JUMP JUMPDEST PUSH2 0x122A JUMP JUMPDEST STOP JUMPDEST PUSH1 0x60 PUSH0 PUSH2 0x60F PUSH2 0x12AE JUMP JUMPDEST SWAP1 POP DUP1 PUSH1 0x3 ADD DUP1 SLOAD PUSH2 0x620 SWAP1 PUSH2 0x2DE8 JUMP JUMPDEST DUP1 PUSH1 0x1F ADD PUSH1 0x20 DUP1 SWAP2 DIV MUL PUSH1 0x20 ADD PUSH1 0x40 MLOAD SWAP1 DUP2 ADD PUSH1 0x40 MSTORE DUP1 SWAP3 SWAP2 SWAP1 DUP2 DUP2 MSTORE PUSH1 0x20 ADD DUP3 DUP1 SLOAD PUSH2 0x64C SWAP1 PUSH2 0x2DE8 JUMP JUMPDEST DUP1 ISZERO PUSH2 0x697 JUMPI DUP1 PUSH1 0x1F LT PUSH2 0x66E JUMPI PUSH2 0x100 DUP1 DUP4 SLOAD DIV MUL DUP4 MSTORE SWAP2 PUSH1 0x20 ADD SWAP2 PUSH2 0x697 JUMP JUMPDEST DUP3 ADD SWAP2 SWAP1 PUSH0 MSTORE PUSH1 0x20 PUSH0 KECCAK256 SWAP1 JUMPDEST DUP2 SLOAD DUP2 MSTORE SWAP1 PUSH1 0x1 ADD SWAP1 PUSH1 0x20 ADD DUP1 DUP4 GT PUSH2 0x67A JUMPI DUP3 SWAP1 SUB PUSH1 0x1F AND DUP3 ADD SWAP2 JUMPDEST POP POP POP POP POP SWAP2 POP POP SWAP1 JUMP JUMPDEST PUSH0 DUP1 PUSH2 0x6AC PUSH2 0x12D5 JUMP JUMPDEST SWAP1 POP PUSH2 0x6B9 DUP2 DUP6 DUP6 PUSH2 0x12DC JUMP JUMPDEST PUSH1 0x1 SWAP2 POP POP SWAP3 SWAP2 POP POP JUMP JUMPDEST PUSH2 0x6CC PUSH2 0x12EE JUMP JUMPDEST DUP1 PUSH1 0x33 PUSH0 DUP3 ADD MLOAD DUP2 PUSH0 ADD SSTORE PUSH1 0x20 DUP3 ADD MLOAD DUP2 PUSH1 0x1 ADD SSTORE PUSH1 0x40 DUP3 ADD MLOAD DUP2 PUSH1 0x2 ADD SSTORE PUSH1 0x60 DUP3 ADD MLOAD DUP2 PUSH1 0x3 ADD SSTORE PUSH1 0x80 DUP3 ADD MLOAD DUP2 PUSH1 0x4 ADD SSTORE PUSH1 0xA0 DUP3 ADD MLOAD DUP2 PUSH1 0x5 ADD SSTORE SWAP1 POP POP PUSH32 0x367B6B00685AE263E44E2231E399D2E112EAC1979516A9E0E1069D7CD4AC3A2D DUP2 PUSH1 0x40 MLOAD PUSH2 0x73B SWAP2 SWAP1 PUSH2 0x2EA0 JUMP JUMPDEST PUSH1 0x40 MLOAD DUP1 SWAP2 SUB SWAP1 LOG1 POP JUMP JUMPDEST PUSH0 DUP1 PUSH2 0x750 PUSH2 0x12AE JUMP JUMPDEST SWAP1 POP DUP1 PUSH1 0x2 ADD SLOAD SWAP2 POP POP SWAP1 JUMP JUMPDEST PUSH2 0x765 PUSH2 0x12EE JUMP JUMPDEST PUSH0 PUSH20 0xFFFFFFFFFFFFFFFFFFFFFFFFFFFFFFFFFFFFFFFF AND DUP2 PUSH20 0xFFFFFFFFFFFFFFFFFFFFFFFFFFFFFFFFFFFFFFFF AND SUB PUSH2 0x7CA JUMPI PUSH1 0x40 MLOAD PUSH32 0x5521068100000000000000000000000000000000000000000000000000000000 DUP2 MSTORE PUSH1 0x4 ADD PUSH1 0x40 MLOAD DUP1 SWAP2 SUB SWAP1 REVERT JUMPDEST DUP1 PUSH1 0x32 PUSH0 PUSH2 0x100 EXP DUP2 SLOAD DUP2 PUSH20 0xFFFFFFFFFFFFFFFFFFFFFFFFFFFFFFFFFFFFFFFF MUL NOT AND SWAP1 DUP4 PUSH20 0xFFFFFFFFFFFFFFFFFFFFFFFFFFFFFFFFFFFFFFFF AND MUL OR SWAP1 SSTORE POP DUP1 PUSH20 0xFFFFFFFFFFFFFFFFFFFFFFFFFFFFFFFFFFFFFFFF AND PUSH32 0x3DF77BEB5DB05FCDD70A30FC8ADF3F83F9501B68579455ADBD100B8180940394 PUSH1 0x40 MLOAD PUSH1 0x40 MLOAD DUP1 SWAP2 SUB SWAP1 LOG2 POP JUMP JUMPDEST PUSH0 DUP1 PUSH2 0x85A PUSH2 0x12D5 JUMP JUMPDEST SWAP1 POP PUSH2 0x867 DUP6 DUP3 DUP6 PUSH2 0x1375 JUMP JUMPDEST PUSH2 0x872 DUP6 DUP6 DUP6 PUSH2 0x1407 JUMP JUMPDEST PUSH1 0x1 SWAP2 POP POP SWAP4 SWAP3 POP POP POP JUMP JUMPDEST PUSH0 PUSH1 0x12 SWAP1 POP SWAP1 JUMP JUMPDEST PUSH1 0x33 DUP1 PUSH0 ADD SLOAD SWAP1 DUP1 PUSH1 0x1 ADD SLOAD SWAP1 DUP1 PUSH1 0x2 ADD SLOAD SWAP1 DUP1 PUSH1 0x3 ADD SLOAD SWAP1 DUP1 PUSH1 0x4 ADD SLOAD SWAP1 DUP1 PUSH1 0x5 ADD SLOAD SWAP1 POP DUP7 JUMP JUMPDEST PUSH2 0x8B7 PUSH2 0x12EE JUMP JUMPDEST PUSH2 0x8BF PUSH2 0x14F7 JUMP JUMPDEST JUMP JUMPDEST PUSH2 0x8C9 PUSH2 0x1557 JUMP JUMPDEST PUSH2 0x8D2 DUP3 PUSH2 0x163D JUMP JUMPDEST PUSH2 0x8DC DUP3 DUP3 PUSH2 0x1648 JUMP JUMPDEST POP POP JUMP JUMPDEST PUSH0 PUSH2 0x8E9 PUSH2 0x1766 JUMP JUMPDEST PUSH32 0x360894A13BA1A3210667C828492DB98DCA3E2076CC3735A920A3CA505D382BBC PUSH0 SHL SWAP1 POP SWAP1 JUMP JUMPDEST PUSH0 DUP1 PUSH0 SWAP1 SLOAD SWAP1 PUSH2 0x100 EXP SWAP1 DIV PUSH1 0xFF AND SWAP1 POP SWAP1 JUMP JUMPDEST PUSH0 DUP1 PUSH2 0x92F PUSH2 0x12AE JUMP JUMPDEST SWAP1 POP DUP1 PUSH0 ADD PUSH0 DUP5 PUSH20 0xFFFFFFFFFFFFFFFFFFFFFFFFFFFFFFFFFFFFFFFF AND PUSH20 0xFFFFFFFFFFFFFFFFFFFFFFFFFFFFFFFFFFFFFFFF AND DUP2 MSTORE PUSH1 0x20 ADD SWAP1 DUP2 MSTORE PUSH1 0x20 ADD PUSH0 KECCAK256 SLOAD SWAP2 POP POP SWAP2 SWAP1 POP JUMP JUMPDEST PUSH2 0x980 PUSH2 0x12EE JUMP JUMPDEST PUSH2 0x989 PUSH0 PUSH2 0x17ED JUMP JUMPDEST JUMP JUMPDEST PUSH1 0x32 PUSH0 SWAP1 SLOAD SWAP1 PUSH2 0x100 EXP SWAP1 DIV PUSH20 0xFFFFFFFFFFFFFFFFFFFFFFFFFFFFFFFFFFFFFFFF AND DUP2 JUMP JUMPDEST PUSH2 0x9B8 PUSH2 0x12EE JUMP JUMPDEST PUSH2 0x9C0 PUSH2 0x18BE JUMP JUMPDEST JUMP JUMPDEST PUSH0 DUP1 PUSH2 0x9CC PUSH2 0x191F JUMP JUMPDEST SWAP1 POP DUP1 PUSH0 ADD PUSH0 SWAP1 SLOAD SWAP1 PUSH2 0x100 EXP SWAP1 DIV PUSH20 0xFFFFFFFFFFFFFFFFFFFFFFFFFFFFFFFFFFFFFFFF AND SWAP2 POP POP SWAP1 JUMP JUMPDEST PUSH1 0x60 PUSH0 PUSH2 0xA02 PUSH2 0x12AE JUMP JUMPDEST SWAP1 POP DUP1 PUSH1 0x4 ADD DUP1 SLOAD PUSH2 0xA13 SWAP1 PUSH2 0x2DE8 JUMP JUMPDEST DUP1 PUSH1 0x1F ADD PUSH1 0x20 DUP1 SWAP2 DIV MUL PUSH1 0x20 ADD PUSH1 0x40 MLOAD SWAP1 DUP2 ADD PUSH1 0x40 MSTORE DUP1 SWAP3 SWAP2 SWAP1 DUP2 DUP2 MSTORE PUSH1 0x20 ADD DUP3 DUP1 SLOAD PUSH2 0xA3F SWAP1 PUSH2 0x2DE8 JUMP JUMPDEST DUP1 ISZERO PUSH2 0xA8A JUMPI DUP1 PUSH1 0x1F LT PUSH2 0xA61 JUMPI PUSH2 0x100 DUP1 DUP4 SLOAD DIV MUL DUP4 MSTORE SWAP2 PUSH1 0x20 ADD SWAP2 PUSH2 0xA8A JUMP JUMPDEST DUP3 ADD SWAP2 SWAP1 PUSH0 MSTORE PUSH1 0x20 PUSH0 KECCAK256 SWAP1 JUMPDEST DUP2 SLOAD DUP2 MSTORE SWAP1 PUSH1 0x1 ADD SWAP1 PUSH1 0x20 ADD DUP1 DUP4 GT PUSH2 0xA6D JUMPI DUP3 SWAP1 SUB PUSH1 0x1F AND DUP3 ADD SWAP2 JUMPDEST POP POP POP POP POP SWAP2 POP POP SWAP1 JUMP JUMPDEST PUSH1 0x39 SLOAD DUP2 JUMP JUMPDEST PUSH2 0xAA3 PUSH2 0x1946 JUMP JUMPDEST PUSH1 0x33 PUSH1 0x5 ADD SLOAD PUSH1 0x39 SLOAD PUSH2 0xAB6 SWAP2 SWAP1 PUSH2 0x2EE6 JUMP JUMPDEST TIMESTAMP LT ISZERO PUSH2 0xAEF JUMPI PUSH1 0x40 MLOAD PUSH32 0x4A448F3700000000000000000000000000000000000000000000000000000000 DUP2 MSTORE PUSH1 0x4 ADD PUSH1 0x40 MLOAD DUP1 SWAP2 SUB SWAP1 REVERT JUMPDEST PUSH0 PUSH1 0x32 PUSH0 SWAP1 SLOAD SWAP1 PUSH2 0x100 EXP SWAP1 DIV PUSH20 0xFFFFFFFFFFFFFFFFFFFFFFFFFFFFFFFFFFFFFFFF AND PUSH20 0xFFFFFFFFFFFFFFFFFFFFFFFFFFFFFFFFFFFFFFFF AND PUSH4 0x395924DC PUSH1 0x40 MLOAD DUP2 PUSH4 0xFFFFFFFF AND PUSH1 0xE0 SHL DUP2 MSTORE PUSH1 0x4 ADD PUSH1 0x80 PUSH1 0x40 MLOAD DUP1 DUP4 SUB DUP2 DUP7 GAS STATICCALL ISZERO DUP1 ISZERO PUSH2 0xB5A JUMPI RETURNDATASIZE PUSH0 DUP1 RETURNDATACOPY RETURNDATASIZE PUSH0 REVERT JUMPDEST POP POP POP POP PUSH1 0x40 MLOAD RETURNDATASIZE PUSH1 0x1F NOT PUSH1 0x1F DUP3 ADD AND DUP3 ADD DUP1 PUSH1 0x40 MSTORE POP DUP2 ADD SWAP1 PUSH2 0xB7E SWAP2 SWAP1 PUSH2 0x2FA2 JUMP JUMPDEST SWAP1 POP PUSH2 0xE10 DUP2 PUSH1 0x60 ADD MLOAD TIMESTAMP PUSH2 0xB93 SWAP2 SWAP1 PUSH2 0x2FCD JUMP JUMPDEST GT ISZERO PUSH2 0xBCB JUMPI PUSH1 0x40 MLOAD PUSH32 0x7428474C00000000000000000000000000000000000000000000000000000000 DUP2 MSTORE PUSH1 0x4 ADD PUSH1 0x40 MLOAD DUP1 SWAP2 SUB SWAP1 REVERT JUMPDEST PUSH1 0x33 PUSH1 0x2 ADD SLOAD DUP2 PUSH0 ADD MLOAD LT ISZERO PUSH2 0xC0D JUMPI PUSH1 0x40 MLOAD PUSH32 0xDA2029D100000000000000000000000000000000000000000000000000000000 DUP2 MSTORE PUSH1 0x4 ADD PUSH1 0x40 MLOAD DUP1 SWAP2 SUB SWAP1 REVERT JUMPDEST PUSH1 0x33 PUSH0 ADD SLOAD DUP2 PUSH1 0x20 ADD MLOAD LT ISZERO DUP1 ISZERO PUSH2 0xC2E JUMPI POP PUSH1 0x33 PUSH1 0x1 ADD SLOAD DUP2 PUSH1 0x40 ADD MLOAD LT ISZERO JUMPDEST ISZERO PUSH2 0xC41 JUMPI PUSH2 0xC3C DUP2 PUSH2 0x1990 JUMP JUMPDEST PUSH2 0xC4B JUMP JUMPDEST PUSH2 0xC4A DUP2 PUSH2 0x1A07 JUMP JUMPDEST JUMPDEST TIMESTAMP PUSH1 0x39 DUP2 SWAP1 SSTORE POP PUSH1 0x32 PUSH0 SWAP1 SLOAD SWAP1 PUSH2 0x100 EXP SWAP1 DIV PUSH20 0xFFFFFFFFFFFFFFFFFFFFFFFFFFFFFFFFFFFFFFFF AND PUSH20 0xFFFFFFFFFFFFFFFFFFFFFFFFFFFFFFFFFFFFFFFF AND PUSH4 0x9C22C5D PUSH1 0x40 MLOAD DUP2 PUSH4 0xFFFFFFFF AND PUSH1 0xE0 SHL DUP2 MSTORE PUSH1 0x4 ADD PUSH1 0x20 PUSH1 0x40 MLOAD DUP1 DUP4 SUB DUP2 PUSH0 DUP8 GAS CALL ISZERO DUP1 ISZERO PUSH2 0xCBD JUMPI RETURNDATASIZE PUSH0 DUP1 RETURNDATACOPY RETURNDATASIZE PUSH0 REVERT JUMPDEST POP POP POP POP PUSH1 0x40 MLOAD RETURNDATASIZE PUSH1 0x1F NOT PUSH1 0x1F DUP3 ADD AND DUP3 ADD DUP1 PUSH1 0x40 MSTORE POP DUP2 ADD SWAP1 PUSH2 0xCE1 SWAP2 SWAP1 PUSH2 0x302A JUMP JUMPDEST POP POP JUMP JUMPDEST PUSH0 DUP1 PUSH2 0xCEF PUSH2 0x12D5 JUMP JUMPDEST SWAP1 POP PUSH2 0xCFC DUP2 DUP6 DUP6 PUSH2 0x1407 JUMP JUMPDEST PUSH1 0x1 SWAP2 POP POP SWAP3 SWAP2 POP POP JUMP JUMPDEST PUSH1 0x40 MLOAD DUP1 PUSH1 0x40 ADD PUSH1 0x40 MSTORE DUP1 PUSH1 0x5 DUP2 MSTORE PUSH1 0x20 ADD PUSH32 0x352E302E30000000000000000000000000000000000000000000000000000000 DUP2 MSTORE POP DUP2 JUMP JUMPDEST PUSH0 PUSH2 0xD49 PUSH2 0x1A7E JUMP JUMPDEST SWAP1 POP PUSH0 DUP2 PUSH0 ADD PUSH1 0x8 SWAP1 SLOAD SWAP1 PUSH2 0x100 EXP SWAP1 DIV PUSH1 0xFF AND ISZERO SWAP1 POP PUSH0 DUP3 PUSH0 ADD PUSH0 SWAP1 SLOAD SWAP1 PUSH2 0x100 EXP SWAP1 DIV PUSH8 0xFFFFFFFFFFFFFFFF AND SWAP1 POP PUSH0 DUP1 DUP3 PUSH8 0xFFFFFFFFFFFFFFFF AND EQ DUP1 ISZERO PUSH2 0xD91 JUMPI POP DUP3 JUMPDEST SWAP1 POP PUSH0 PUSH1 0x1 DUP4 PUSH8 0xFFFFFFFFFFFFFFFF AND EQ DUP1 ISZERO PUSH2 0xDC4 JUMPI POP PUSH0 ADDRESS PUSH20 0xFFFFFFFFFFFFFFFFFFFFFFFFFFFFFFFFFFFFFFFF AND EXTCODESIZE EQ JUMPDEST SWAP1 POP DUP2 ISZERO DUP1 ISZERO PUSH2 0xDD2 JUMPI POP DUP1 ISZERO JUMPDEST ISZERO PUSH2 0xE09 JUMPI PUSH1 0x40 MLOAD PUSH32 0xF92EE8A900000000000000000000000000000000000000000000000000000000 DUP2 MSTORE PUSH1 0x4 ADD PUSH1 0x40 MLOAD DUP1 SWAP2 SUB SWAP1 REVERT JUMPDEST PUSH1 0x1 DUP6 PUSH0 ADD PUSH0 PUSH2 0x100 EXP DUP2 SLOAD DUP2 PUSH8 0xFFFFFFFFFFFFFFFF MUL NOT AND SWAP1 DUP4 PUSH8 0xFFFFFFFFFFFFFFFF AND MUL OR SWAP1 SSTORE POP DUP4 ISZERO PUSH2 0xE56 JUMPI PUSH1 0x1 DUP6 PUSH0 ADD PUSH1 0x8 PUSH2 0x100 EXP DUP2 SLOAD DUP2 PUSH1 0xFF MUL NOT AND SWAP1 DUP4 ISZERO ISZERO MUL OR SWAP1 SSTORE POP JUMPDEST PUSH2 0xE60 DUP10 DUP10 PUSH2 0x1AA5 JUMP JUMPDEST PUSH2 0xE69 CALLER PUSH2 0x1ABB JUMP JUMPDEST PUSH2 0xE71 PUSH2 0x1ACF JUMP JUMPDEST PUSH2 0xE79 PUSH2 0x1AE1 JUMP JUMPDEST PUSH0 PUSH20 0xFFFFFFFFFFFFFFFFFFFFFFFFFFFFFFFFFFFFFFFF AND DUP8 PUSH20 0xFFFFFFFFFFFFFFFFFFFFFFFFFFFFFFFFFFFFFFFF AND SUB PUSH2 0xEDE JUMPI PUSH1 0x40 MLOAD PUSH32 0x5521068100000000000000000000000000000000000000000000000000000000 DUP2 MSTORE PUSH1 0x4 ADD PUSH1 0x40 MLOAD DUP1 SWAP2 SUB SWAP1 REVERT JUMPDEST DUP7 PUSH1 0x32 PUSH0 PUSH2 0x100 EXP DUP2 SLOAD DUP2 PUSH20 0xFFFFFFFFFFFFFFFFFFFFFFFFFFFFFFFFFFFFFFFF MUL NOT AND SWAP1 DUP4 PUSH20 0xFFFFFFFFFFFFFFFFFFFFFFFFFFFFFFFFFFFFFFFF AND MUL OR SWAP1 SSTORE POP DUP6 PUSH1 0x33 PUSH0 DUP3 ADD MLOAD DUP2 PUSH0 ADD SSTORE PUSH1 0x20 DUP3 ADD MLOAD DUP2 PUSH1 0x1 ADD SSTORE PUSH1 0x40 DUP3 ADD MLOAD DUP2 PUSH1 0x2 ADD SSTORE PUSH1 0x60 DUP3 ADD MLOAD DUP2 PUSH1 0x3 ADD SSTORE PUSH1 0x80 DUP3 ADD MLOAD DUP2 PUSH1 0x4 ADD SSTORE PUSH1 0xA0 DUP3 ADD MLOAD DUP2 PUSH1 0x5 ADD SSTORE SWAP1 POP POP PUSH2 0xF89 CALLER PUSH2 0xF6A PUSH2 0x87E JUMP JUMPDEST PUSH1 0xA PUSH2 0xF76 SWAP2 SWAP1 PUSH2 0x3184 JUMP JUMPDEST PUSH3 0xF4240 PUSH2 0xF84 SWAP2 SWAP1 PUSH2 0x31CE JUMP JUMPDEST PUSH2 0x1AEB JUMP JUMPDEST DUP4 ISZERO PUSH2 0xFE3 JUMPI PUSH0 DUP6 PUSH0 ADD PUSH1 0x8 PUSH2 0x100 EXP DUP2 SLOAD DUP2 PUSH1 0xFF MUL NOT AND SWAP1 DUP4 ISZERO ISZERO MUL OR SWAP1 SSTORE POP PUSH32 0xC7F505B2F371AE2175EE4913F4499E1F2633A7B5936321EED1CDAEB6115181D2 PUSH1 0x1 PUSH1 0x40 MLOAD PUSH2 0xFDA SWAP2 SWAP1 PUSH2 0x325B JUMP JUMPDEST PUSH1 0x40 MLOAD DUP1 SWAP2 SUB SWAP1 LOG1 JUMPDEST POP POP POP POP POP POP POP POP POP JUMP JUMPDEST PUSH2 0xFF6 PUSH2 0x1946 JUMP JUMPDEST PUSH1 0x33 PUSH1 0x5 ADD SLOAD PUSH1 0x3A PUSH0 CALLER PUSH20 0xFFFFFFFFFFFFFFFFFFFFFFFFFFFFFFFFFFFFFFFF AND PUSH20 0xFFFFFFFFFFFFFFFFFFFFFFFFFFFFFFFFFFFFFFFF AND DUP2 MSTORE PUSH1 0x20 ADD SWAP1 DUP2 MSTORE PUSH1 0x20 ADD PUSH0 KECCAK256 SLOAD PUSH2 0x1044 SWAP2 SWAP1 PUSH2 0x2EE6 JUMP JUMPDEST TIMESTAMP LT ISZERO PUSH2 0x107D JUMPI PUSH1 0x40 MLOAD PUSH32 0x2BC08A7300000000000000000000000000000000000000000000000000000000 DUP2 MSTORE PUSH1 0x4 ADD PUSH1 0x40 MLOAD DUP1 SWAP2 SUB SWAP1 REVERT JUMPDEST PUSH0 PUSH1 0x32 PUSH0 SWAP1 SLOAD SWAP1 PUSH2 0x100 EXP SWAP1 DIV PUSH20 0xFFFFFFFFFFFFFFFFFFFFFFFFFFFFFFFFFFFFFFFF AND PUSH20 0xFFFFFFFFFFFFFFFFFFFFFFFFFFFFFFFFFFFFFFFF AND PUSH4 0x395924DC PUSH1 0x40 MLOAD DUP2 PUSH4 0xFFFFFFFF AND PUSH1 0xE0 SHL DUP2 MSTORE PUSH1 0x4 ADD PUSH1 0x80 PUSH1 0x40 MLOAD DUP1 DUP4 SUB DUP2 DUP7 GAS STATICCALL ISZERO DUP1 ISZERO PUSH2 0x10E8 JUMPI RETURNDATASIZE PUSH0 DUP1 RETURNDATACOPY RETURNDATASIZE PUSH0 REVERT JUMPDEST POP POP POP POP PUSH1 0x40 MLOAD RETURNDATASIZE PUSH1 0x1F NOT PUSH1 0x1F DUP3 ADD AND DUP3 ADD DUP1 PUSH1 0x40 MSTORE POP DUP2 ADD SWAP1 PUSH2 0x110C SWAP2 SWAP1 PUSH2 0x2FA2 JUMP JUMPDEST SWAP1 POP PUSH0 PUSH2 0x112A DUP3 PUSH1 0x20 ADD MLOAD DUP4 PUSH1 0x40 ADD MLOAD PUSH2 0x1125 CALLER PUSH2 0x925 JUMP JUMPDEST PUSH2 0x1B6A JUMP JUMPDEST SWAP1 POP PUSH0 DUP2 GT ISZERO PUSH2 0x1181 JUMPI PUSH2 0x113E CALLER DUP3 PUSH2 0x1AEB JUMP JUMPDEST TIMESTAMP PUSH1 0x3A PUSH0 CALLER PUSH20 0xFFFFFFFFFFFFFFFFFFFFFFFFFFFFFFFFFFFFFFFF AND PUSH20 0xFFFFFFFFFFFFFFFFFFFFFFFFFFFFFFFFFFFFFFFF AND DUP2 MSTORE PUSH1 0x20 ADD SWAP1 DUP2 MSTORE PUSH1 0x20 ADD PUSH0 KECCAK256 DUP2 SWAP1 SSTORE POP JUMPDEST POP POP JUMP JUMPDEST PUSH1 0x3A PUSH1 0x20 MSTORE DUP1 PUSH0 MSTORE PUSH1 0x40 PUSH0 KECCAK256 PUSH0 SWAP2 POP SWAP1 POP SLOAD DUP2 JUMP JUMPDEST PUSH0 DUP1 PUSH2 0x11A4 PUSH2 0x12AE JUMP JUMPDEST SWAP1 POP DUP1 PUSH1 0x1 ADD PUSH0 DUP6 PUSH20 0xFFFFFFFFFFFFFFFFFFFFFFFFFFFFFFFFFFFFFFFF AND PUSH20 0xFFFFFFFFFFFFFFFFFFFFFFFFFFFFFFFFFFFFFFFF AND DUP2 MSTORE PUSH1 0x20 ADD SWAP1 DUP2 MSTORE PUSH1 0x20 ADD PUSH0 KECCAK256 PUSH0 DUP5 PUSH20 0xFFFFFFFFFFFFFFFFFFFFFFFFFFFFFFFFFFFFFFFF AND PUSH20 0xFFFFFFFFFFFFFFFFFFFFFFFFFFFFFFFFFFFFFFFF AND DUP2 MSTORE PUSH1 0x20 ADD SWAP1 DUP2 MSTORE PUSH1 0x20 ADD PUSH0 KECCAK256 SLOAD SWAP2 POP POP SWAP3 SWAP2 POP POP JUMP JUMPDEST PUSH2 0x1232 PUSH2 0x12EE JUMP JUMPDEST PUSH0 PUSH20 0xFFFFFFFFFFFFFFFFFFFFFFFFFFFFFFFFFFFFFFFF AND DUP2 PUSH20 0xFFFFFFFFFFFFFFFFFFFFFFFFFFFFFFFFFFFFFFFF AND SUB PUSH2 0x12A2 JUMPI PUSH0 PUSH1 0x40 MLOAD PUSH32 0x1E4FBDF700000000000000000000000000000000000000000000000000000000 DUP2 MSTORE PUSH1 0x4 ADD PUSH2 0x1299 SWAP2 SWAP1 PUSH2 0x2C29 JUMP JUMPDEST PUSH1 0x40 MLOAD DUP1 SWAP2 SUB SWAP1 REVERT JUMPDEST PUSH2 0x12AB DUP2 PUSH2 0x17ED JUMP JUMPDEST POP JUMP JUMPDEST PUSH0 PUSH32 0x52C63247E1F47DB19D5CE0460030C497F067CA4CEBF71BA98EEADABE20BACE00 SWAP1 POP SWAP1 JUMP JUMPDEST PUSH0 CALLER SWAP1 POP SWAP1 JUMP JUMPDEST PUSH2 0x12E9 DUP4 DUP4 DUP4 PUSH1 0x1 PUSH2 0x1C0E JUMP JUMPDEST POP POP POP JUMP JUMPDEST PUSH2 0x12F6 PUSH2 0x12D5 JUMP JUMPDEST PUSH20 0xFFFFFFFFFFFFFFFFFFFFFFFFFFFFFFFFFFFFFFFF AND PUSH2 0x1314 PUSH2 0x9C2 JUMP JUMPDEST PUSH20 0xFFFFFFFFFFFFFFFFFFFFFFFFFFFFFFFFFFFFFFFF AND EQ PUSH2 0x1373 JUMPI PUSH2 0x1337 PUSH2 0x12D5 JUMP JUMPDEST PUSH1 0x40 MLOAD PUSH32 0x118CDAA700000000000000000000000000000000000000000000000000000000 DUP2 MSTORE PUSH1 0x4 ADD PUSH2 0x136A SWAP2 SWAP1 PUSH2 0x2C29 JUMP JUMPDEST PUSH1 0x40 MLOAD DUP1 SWAP2 SUB SWAP1 REVERT JUMPDEST JUMP JUMPDEST PUSH0 PUSH2 0x1380 DUP5 DUP5 PUSH2 0x119A JUMP JUMPDEST SWAP1 POP PUSH32 0xFFFFFFFFFFFFFFFFFFFFFFFFFFFFFFFFFFFFFFFFFFFFFFFFFFFFFFFFFFFFFFFF DUP2 EQ PUSH2 0x1401 JUMPI DUP2 DUP2 LT ISZERO PUSH2 0x13F2 JUMPI DUP3 DUP2 DUP4 PUSH1 0x40 MLOAD PUSH32 0xFB8F41B200000000000000000000000000000000000000000000000000000000 DUP2 MSTORE PUSH1 0x4 ADD PUSH2 0x13E9 SWAP4 SWAP3 SWAP2 SWAP1 PUSH2 0x3274 JUMP JUMPDEST PUSH1 0x40 MLOAD DUP1 SWAP2 SUB SWAP1 REVERT JUMPDEST PUSH2 0x1400 DUP5 DUP5 DUP5 DUP5 SUB PUSH0 PUSH2 0x1C0E JUMP JUMPDEST JUMPDEST POP POP POP POP JUMP JUMPDEST PUSH0 PUSH20 0xFFFFFFFFFFFFFFFFFFFFFFFFFFFFFFFFFFFFFFFF AND DUP4 PUSH20 0xFFFFFFFFFFFFFFFFFFFFFFFFFFFFFFFFFFFFFFFF AND SUB PUSH2 0x1477 JUMPI PUSH0 PUSH1 0x40 MLOAD PUSH32 0x96C6FD1E00000000000000000000000000000000000000000000000000000000 DUP2 MSTORE PUSH1 0x4 ADD PUSH2 0x146E SWAP2 SWAP1 PUSH2 0x2C29 JUMP JUMPDEST PUSH1 0x40 MLOAD DUP1 SWAP2 SUB SWAP1 REVERT JUMPDEST PUSH0 PUSH20 0xFFFFFFFFFFFFFFFFFFFFFFFFFFFFFFFFFFFFFFFF AND DUP3 PUSH20 0xFFFFFFFFFFFFFFFFFFFFFFFFFFFFFFFFFFFFFFFF AND SUB PUSH2 0x14E7 JUMPI PUSH0 PUSH1 0x40 MLOAD PUSH32 0xEC442F0500000000000000000000000000000000000000000000000000000000 DUP2 MSTORE PUSH1 0x4 ADD PUSH2 0x14DE SWAP2 SWAP1 PUSH2 0x2C29 JUMP JUMPDEST PUSH1 0x40 MLOAD DUP1 SWAP2 SUB SWAP1 REVERT JUMPDEST PUSH2 0x14F2 DUP4 DUP4 DUP4 PUSH2 0x1DEB JUMP JUMPDEST POP POP POP JUMP JUMPDEST PUSH2 0x14FF PUSH2 0x201A JUMP JUMPDEST PUSH0 DUP1 PUSH0 PUSH2 0x100 EXP DUP2 SLOAD DUP2 PUSH1 0xFF MUL NOT AND SWAP1 DUP4 ISZERO ISZERO MUL OR SWAP1 SSTORE POP PUSH32 0x5DB9EE0A495BF2E6FF9C91A7834C1BA4FDD244A5E8AA4E537BD38AEAE4B073AA PUSH2 0x1540 PUSH2 0x12D5 JUMP JUMPDEST PUSH1 0x40 MLOAD PUSH2 0x154D SWAP2 SWAP1 PUSH2 0x2C29 JUMP JUMPDEST PUSH1 0x40 MLOAD DUP1 SWAP2 SUB SWAP1 LOG1 JUMP JUMPDEST PUSH32 0x0 PUSH20 0xFFFFFFFFFFFFFFFFFFFFFFFFFFFFFFFFFFFFFFFF AND ADDRESS PUSH20 0xFFFFFFFFFFFFFFFFFFFFFFFFFFFFFFFFFFFFFFFF AND EQ DUP1 PUSH2 0x1604 JUMPI POP PUSH32 0x0 PUSH20 0xFFFFFFFFFFFFFFFFFFFFFFFFFFFFFFFFFFFFFFFF AND PUSH2 0x15EB PUSH2 0x2063 JUMP JUMPDEST PUSH20 0xFFFFFFFFFFFFFFFFFFFFFFFFFFFFFFFFFFFFFFFF AND EQ ISZERO JUMPDEST ISZERO PUSH2 0x163B JUMPI PUSH1 0x40 MLOAD PUSH32 0xE07C8DBA00000000000000000000000000000000000000000000000000000000 DUP2 MSTORE PUSH1 0x4 ADD PUSH1 0x40 MLOAD DUP1 SWAP2 SUB SWAP1 REVERT JUMPDEST JUMP JUMPDEST PUSH2 0x1645 PUSH2 0x12EE JUMP JUMPDEST POP JUMP JUMPDEST DUP2 PUSH20 0xFFFFFFFFFFFFFFFFFFFFFFFFFFFFFFFFFFFFFFFF AND PUSH4 0x52D1902D PUSH1 0x40 MLOAD DUP2 PUSH4 0xFFFFFFFF AND PUSH1 0xE0 SHL DUP2 MSTORE PUSH1 0x4 ADD PUSH1 0x20 PUSH1 0x40 MLOAD DUP1 DUP4 SUB DUP2 DUP7 GAS STATICCALL SWAP3 POP POP POP DUP1 ISZERO PUSH2 0x16B0 JUMPI POP PUSH1 0x40 MLOAD RETURNDATASIZE PUSH1 0x1F NOT PUSH1 0x1F DUP3 ADD AND DUP3 ADD DUP1 PUSH1 0x40 MSTORE POP DUP2 ADD SWAP1 PUSH2 0x16AD SWAP2 SWAP1 PUSH2 0x302A JUMP JUMPDEST PUSH1 0x1 JUMPDEST PUSH2 0x16F1 JUMPI DUP2 PUSH1 0x40 MLOAD PUSH32 0x4C9C8CE300000000000000000000000000000000000000000000000000000000 DUP2 MSTORE PUSH1 0x4 ADD PUSH2 0x16E8 SWAP2 SWAP1 PUSH2 0x2C29 JUMP JUMPDEST PUSH1 0x40 MLOAD DUP1 SWAP2 SUB SWAP1 REVERT JUMPDEST PUSH32 0x360894A13BA1A3210667C828492DB98DCA3E2076CC3735A920A3CA505D382BBC PUSH0 SHL DUP2 EQ PUSH2 0x1757 JUMPI DUP1 PUSH1 0x40 MLOAD PUSH32 0xAA1D49A400000000000000000000000000000000000000000000000000000000 DUP2 MSTORE PUSH1 0x4 ADD PUSH2 0x174E SWAP2 SWAP1 PUSH2 0x2B8D JUMP JUMPDEST PUSH1 0x40 MLOAD DUP1 SWAP2 SUB SWAP1 REVERT JUMPDEST PUSH2 0x1761 DUP4 DUP4 PUSH2 0x20B6 JUMP JUMPDEST POP POP POP JUMP JUMPDEST PUSH32 0x0 PUSH20 0xFFFFFFFFFFFFFFFFFFFFFFFFFFFFFFFFFFFFFFFF AND ADDRESS PUSH20 0xFFFFFFFFFFFFFFFFFFFFFFFFFFFFFFFFFFFFFFFF AND EQ PUSH2 0x17EB JUMPI PUSH1 0x40 MLOAD PUSH32 0xE07C8DBA00000000000000000000000000000000000000000000000000000000 DUP2 MSTORE PUSH1 0x4 ADD PUSH1 0x40 MLOAD DUP1 SWAP2 SUB SWAP1 REVERT JUMPDEST JUMP JUMPDEST PUSH0 PUSH2 0x17F6 PUSH2 0x191F JUMP JUMPDEST SWAP1 POP PUSH0 DUP2 PUSH0 ADD PUSH0 SWAP1 SLOAD SWAP1 PUSH2 0x100 EXP SWAP1 DIV PUSH20 0xFFFFFFFFFFFFFFFFFFFFFFFFFFFFFFFFFFFFFFFF AND SWAP1 POP DUP3 DUP3 PUSH0 ADD PUSH0 PUSH2 0x100 EXP DUP2 SLOAD DUP2 PUSH20 0xFFFFFFFFFFFFFFFFFFFFFFFFFFFFFFFFFFFFFFFF MUL NOT AND SWAP1 DUP4 PUSH20 0xFFFFFFFFFFFFFFFFFFFFFFFFFFFFFFFFFFFFFFFF AND MUL OR SWAP1 SSTORE POP DUP3 PUSH20 0xFFFFFFFFFFFFFFFFFFFFFFFFFFFFFFFFFFFFFFFF AND DUP2 PUSH20 0xFFFFFFFFFFFFFFFFFFFFFFFFFFFFFFFFFFFFFFFF AND PUSH32 0x8BE0079C531659141344CD1FD0A4F28419497F9722A3DAAFE3B4186F6B6457E0 PUSH1 0x40 MLOAD PUSH1 0x40 MLOAD DUP1 SWAP2 SUB SWAP1 LOG3 POP POP POP JUMP JUMPDEST PUSH2 0x18C6 PUSH2 0x1946 JUMP JUMPDEST PUSH1 0x1 PUSH0 DUP1 PUSH2 0x100 EXP DUP2 SLOAD DUP2 PUSH1 0xFF MUL NOT AND SWAP1 DUP4 ISZERO ISZERO MUL OR SWAP1 SSTORE POP PUSH32 0x62E78CEA01BEE320CD4E420270B5EA74000D11B0C9F74754EBDBFC544B05A258 PUSH2 0x1908 PUSH2 0x12D5 JUMP JUMPDEST PUSH1 0x40 MLOAD PUSH2 0x1915 SWAP2 SWAP1 PUSH2 0x2C29 JUMP JUMPDEST PUSH1 0x40 MLOAD DUP1 SWAP2 SUB SWAP1 LOG1 JUMP JUMPDEST PUSH0 PUSH32 0x9016D09D72D40FDAE2FD8CEAC6B6234C7706214FD39C1CD1E609A0528C199300 SWAP1 POP SWAP1 JUMP JUMPDEST PUSH2 0x194E PUSH2 0x911 JUMP JUMPDEST ISZERO PUSH2 0x198E JUMPI PUSH1 0x40 MLOAD PUSH32 0x8C379A000000000000000000000000000000000000000000000000000000000 DUP2 MSTORE PUSH1 0x4 ADD PUSH2 0x1985 SWAP1 PUSH2 0x32F3 JUMP JUMPDEST PUSH1 0x40 MLOAD DUP1 SWAP2 SUB SWAP1 REVERT JUMPDEST JUMP JUMPDEST PUSH0 PUSH2 0x19AB DUP3 PUSH1 0x20 ADD MLOAD DUP4 PUSH1 0x40 ADD MLOAD PUSH2 0x19A6 PUSH2 0x746 JUMP JUMPDEST PUSH2 0x1B6A JUMP JUMPDEST SWAP1 POP PUSH0 DUP2 GT ISZERO PUSH2 0x1A03 JUMPI PUSH2 0x19BF ADDRESS DUP3 PUSH2 0x2128 JUMP JUMPDEST PUSH32 0xDA04004D58812F3E164F58E498158ACCA1B0054D975FCE0E3BAFDF56F2E254BA DUP2 DUP4 PUSH1 0x20 ADD MLOAD DUP5 PUSH1 0x40 ADD MLOAD PUSH1 0x40 MLOAD PUSH2 0x19FA SWAP4 SWAP3 SWAP2 SWAP1 PUSH2 0x3311 JUMP JUMPDEST PUSH1 0x40 MLOAD DUP1 SWAP2 SUB SWAP1 LOG1 JUMPDEST POP POP JUMP JUMPDEST PUSH0 PUSH2 0x1A22 DUP3 PUSH1 0x20 ADD MLOAD DUP4 PUSH1 0x40 ADD MLOAD PUSH2 0x1A1D PUSH2 0x746 JUMP JUMPDEST PUSH2 0x21A7 JUMP JUMPDEST SWAP1 POP PUSH0 DUP2 GT ISZERO PUSH2 0x1A7A JUMPI PUSH2 0x1A36 ADDRESS DUP3 PUSH2 0x1AEB JUMP JUMPDEST PUSH32 0x958E73D0165CD8413C567DDCFECFBDFB06498A561DE5CD56849C2B463F66CDF DUP2 DUP4 PUSH1 0x20 ADD MLOAD DUP5 PUSH1 0x40 ADD MLOAD PUSH1 0x40 MLOAD PUSH2 0x1A71 SWAP4 SWAP3 SWAP2 SWAP1 PUSH2 0x3311 JUMP JUMPDEST PUSH1 0x40 MLOAD DUP1 SWAP2 SUB SWAP1 LOG1 JUMPDEST POP POP JUMP JUMPDEST PUSH0 PUSH32 0xF0C57E16840DF040F15088DC2F81FE391C3923BEC73E23A9662EFC9C229C6A00 SWAP1 POP SWAP1 JUMP JUMPDEST PUSH2 0x1AAD PUSH2 0x2270 JUMP JUMPDEST PUSH2 0x1AB7 DUP3 DUP3 PUSH2 0x22B0 JUMP JUMPDEST POP POP JUMP JUMPDEST PUSH2 0x1AC3 PUSH2 0x2270 JUMP JUMPDEST PUSH2 0x1ACC DUP2 PUSH2 0x22EC JUMP JUMPDEST POP JUMP JUMPDEST PUSH2 0x1AD7 PUSH2 0x2270 JUMP JUMPDEST PUSH2 0x1ADF PUSH2 0x2370 JUMP JUMPDEST JUMP JUMPDEST PUSH2 0x1AE9 PUSH2 0x2270 JUMP JUMPDEST JUMP JUMPDEST PUSH0 PUSH20 0xFFFFFFFFFFFFFFFFFFFFFFFFFFFFFFFFFFFFFFFF AND DUP3 PUSH20 0xFFFFFFFFFFFFFFFFFFFFFFFFFFFFFFFFFFFFFFFF AND SUB PUSH2 0x1B5B JUMPI PUSH0 PUSH1 0x40 MLOAD PUSH32 0xEC442F0500000000000000000000000000000000000000000000000000000000 DUP2 MSTORE PUSH1 0x4 ADD PUSH2 0x1B52 SWAP2 SWAP1 PUSH2 0x2C29 JUMP JUMPDEST PUSH1 0x40 MLOAD DUP1 SWAP2 SUB SWAP1 REVERT JUMPDEST PUSH2 0x1B66 PUSH0 DUP4 DUP4 PUSH2 0x1DEB JUMP JUMPDEST POP POP JUMP JUMPDEST PUSH0 DUP1 PUSH2 0x1B83 PUSH1 0x33 PUSH0 ADD SLOAD DUP7 PUSH2 0x2392 SWAP1 SWAP2 SWAP1 PUSH4 0xFFFFFFFF AND JUMP JUMPDEST SWAP1 POP PUSH0 PUSH2 0x1B9E PUSH1 0x33 PUSH1 0x1 ADD SLOAD DUP7 PUSH2 0x2392 SWAP1 SWAP2 SWAP1 PUSH4 0xFFFFFFFF AND JUMP JUMPDEST SWAP1 POP PUSH2 0x1C03 PUSH1 0x64 PUSH2 0x1BF5 PUSH2 0x2710 PUSH2 0x1BE7 DUP9 PUSH2 0x1BD9 DUP8 PUSH2 0x1BCB DUP11 PUSH1 0x33 PUSH1 0x3 ADD SLOAD PUSH2 0x23A7 SWAP1 SWAP2 SWAP1 PUSH4 0xFFFFFFFF AND JUMP JUMPDEST PUSH2 0x23A7 SWAP1 SWAP2 SWAP1 PUSH4 0xFFFFFFFF AND JUMP JUMPDEST PUSH2 0x23A7 SWAP1 SWAP2 SWAP1 PUSH4 0xFFFFFFFF AND JUMP JUMPDEST PUSH2 0x23BC SWAP1 SWAP2 SWAP1 PUSH4 0xFFFFFFFF AND JUMP JUMPDEST PUSH2 0x23BC SWAP1 SWAP2 SWAP1 PUSH4 0xFFFFFFFF AND JUMP JUMPDEST SWAP3 POP POP POP SWAP4 SWAP3 POP POP POP JUMP JUMPDEST PUSH0 PUSH2 0x1C17 PUSH2 0x12AE JUMP JUMPDEST SWAP1 POP PUSH0 PUSH20 0xFFFFFFFFFFFFFFFFFFFFFFFFFFFFFFFFFFFFFFFF AND DUP6 PUSH20 0xFFFFFFFFFFFFFFFFFFFFFFFFFFFFFFFFFFFFFFFF AND SUB PUSH2 0x1C89 JUMPI PUSH0 PUSH1 0x40 MLOAD PUSH32 0xE602DF0500000000000000000000000000000000000000000000000000000000 DUP2 MSTORE PUSH1 0x4 ADD PUSH2 0x1C80 SWAP2 SWAP1 PUSH2 0x2C29 JUMP JUMPDEST PUSH1 0x40 MLOAD DUP1 SWAP2 SUB SWAP1 REVERT JUMPDEST PUSH0 PUSH20 0xFFFFFFFFFFFFFFFFFFFFFFFFFFFFFFFFFFFFFFFF AND DUP5 PUSH20 0xFFFFFFFFFFFFFFFFFFFFFFFFFFFFFFFFFFFFFFFF AND SUB PUSH2 0x1CF9 JUMPI PUSH0 PUSH1 0x40 MLOAD PUSH32 0x94280D6200000000000000000000000000000000000000000000000000000000 DUP2 MSTORE PUSH1 0x4 ADD PUSH2 0x1CF0 SWAP2 SWAP1 PUSH2 0x2C29 JUMP JUMPDEST PUSH1 0x40 MLOAD DUP1 SWAP2 SUB SWAP1 REVERT JUMPDEST DUP3 DUP2 PUSH1 0x1 ADD PUSH0 DUP8 PUSH20 0xFFFFFFFFFFFFFFFFFFFFFFFFFFFFFFFFFFFFFFFF AND PUSH20 0xFFFFFFFFFFFFFFFFFFFFFFFFFFFFFFFFFFFFFFFF AND DUP2 MSTORE PUSH1 0x20 ADD SWAP1 DUP2 MSTORE PUSH1 0x20 ADD PUSH0 KECCAK256 PUSH0 DUP7 PUSH20 0xFFFFFFFFFFFFFFFFFFFFFFFFFFFFFFFFFFFFFFFF AND PUSH20 0xFFFFFFFFFFFFFFFFFFFFFFFFFFFFFFFFFFFFFFFF AND DUP2 MSTORE PUSH1 0x20 ADD SWAP1 DUP2 MSTORE PUSH1 0x20 ADD PUSH0 KECCAK256 DUP2 SWAP1 SSTORE POP DUP2 ISZERO PUSH2 0x1DE4 JUMPI DUP4 PUSH20 0xFFFFFFFFFFFFFFFFFFFFFFFFFFFFFFFFFFFFFFFF AND DUP6 PUSH20 0xFFFFFFFFFFFFFFFFFFFFFFFFFFFFFFFFFFFFFFFF AND PUSH32 0x8C5BE1E5EBEC7D5BD14F71427D1E84F3DD0314C0F7B2291E5B200AC8C7C3B925 DUP6 PUSH1 0x40 MLOAD PUSH2 0x1DDB SWAP2 SWAP1 PUSH2 0x2940 JUMP JUMPDEST PUSH1 0x40 MLOAD DUP1 SWAP2 SUB SWAP1 LOG3 JUMPDEST POP POP POP POP POP JUMP JUMPDEST PUSH0 PUSH2 0x1DF4 PUSH2 0x12AE JUMP JUMPDEST SWAP1 POP PUSH0 PUSH20 0xFFFFFFFFFFFFFFFFFFFFFFFFFFFFFFFFFFFFFFFF AND DUP5 PUSH20 0xFFFFFFFFFFFFFFFFFFFFFFFFFFFFFFFFFFFFFFFF AND SUB PUSH2 0x1E48 JUMPI DUP2 DUP2 PUSH1 0x2 ADD PUSH0 DUP3 DUP3 SLOAD PUSH2 0x1E3C SWAP2 SWAP1 PUSH2 0x2EE6 JUMP JUMPDEST SWAP3 POP POP DUP2 SWAP1 SSTORE POP PUSH2 0x1F1A JUMP JUMPDEST PUSH0 DUP2 PUSH0 ADD PUSH0 DUP7 PUSH20 0xFFFFFFFFFFFFFFFFFFFFFFFFFFFFFFFFFFFFFFFF AND PUSH20 0xFFFFFFFFFFFFFFFFFFFFFFFFFFFFFFFFFFFFFFFF AND DUP2 MSTORE PUSH1 0x20 ADD SWAP1 DUP2 MSTORE PUSH1 0x20 ADD PUSH0 KECCAK256 SLOAD SWAP1 POP DUP3 DUP2 LT ISZERO PUSH2 0x1ED3 JUMPI DUP5 DUP2 DUP5 PUSH1 0x40 MLOAD PUSH32 0xE450D38C00000000000000000000000000000000000000000000000000000000 DUP2 MSTORE PUSH1 0x4 ADD PUSH2 0x1ECA SWAP4 SWAP3 SWAP2 SWAP1 PUSH2 0x3274 JUMP JUMPDEST PUSH1 0x40 MLOAD DUP1 SWAP2 SUB SWAP1 REVERT JUMPDEST DUP3 DUP2 SUB DUP3 PUSH0 ADD PUSH0 DUP8 PUSH20 0xFFFFFFFFFFFFFFFFFFFFFFFFFFFFFFFFFFFFFFFF AND PUSH20 0xFFFFFFFFFFFFFFFFFFFFFFFFFFFFFFFFFFFFFFFF AND DUP2 MSTORE PUSH1 0x20 ADD SWAP1 DUP2 MSTORE PUSH1 0x20 ADD PUSH0 KECCAK256 DUP2 SWAP1 SSTORE POP POP JUMPDEST PUSH0 PUSH20 0xFFFFFFFFFFFFFFFFFFFFFFFFFFFFFFFFFFFFFFFF AND DUP4 PUSH20 0xFFFFFFFFFFFFFFFFFFFFFFFFFFFFFFFFFFFFFFFF AND SUB PUSH2 0x1F63 JUMPI DUP2 DUP2 PUSH1 0x2 ADD PUSH0 DUP3 DUP3 SLOAD SUB SWAP3 POP POP DUP2 SWAP1 SSTORE POP PUSH2 0x1FAF JUMP JUMPDEST DUP2 DUP2 PUSH0 ADD PUSH0 DUP6 PUSH20 0xFFFFFFFFFFFFFFFFFFFFFFFFFFFFFFFFFFFFFFFF AND PUSH20 0xFFFFFFFFFFFFFFFFFFFFFFFFFFFFFFFFFFFFFFFF AND DUP2 MSTORE PUSH1 0x20 ADD SWAP1 DUP2 MSTORE PUSH1 0x20 ADD PUSH0 KECCAK256 PUSH0 DUP3 DUP3 SLOAD ADD SWAP3 POP POP DUP2 SWAP1 SSTORE POP JUMPDEST DUP3 PUSH20 0xFFFFFFFFFFFFFFFFFFFFFFFFFFFFFFFFFFFFFFFF AND DUP5 PUSH20 0xFFFFFFFFFFFFFFFFFFFFFFFFFFFFFFFFFFFFFFFF AND PUSH32 0xDDF252AD1BE2C89B69C2B068FC378DAA952BA7F163C4A11628F55A4DF523B3EF DUP5 PUSH1 0x40 MLOAD PUSH2 0x200C SWAP2 SWAP1 PUSH2 0x2940 JUMP JUMPDEST PUSH1 0x40 MLOAD DUP1 SWAP2 SUB SWAP1 LOG3 POP POP POP POP JUMP JUMPDEST PUSH2 0x2022 PUSH2 0x911 JUMP JUMPDEST PUSH2 0x2061 JUMPI PUSH1 0x40 MLOAD PUSH32 0x8C379A000000000000000000000000000000000000000000000000000000000 DUP2 MSTORE PUSH1 0x4 ADD PUSH2 0x2058 SWAP1 PUSH2 0x3390 JUMP JUMPDEST PUSH1 0x40 MLOAD DUP1 SWAP2 SUB SWAP1 REVERT JUMPDEST JUMP JUMPDEST PUSH0 PUSH2 0x208F PUSH32 0x360894A13BA1A3210667C828492DB98DCA3E2076CC3735A920A3CA505D382BBC PUSH0 SHL PUSH2 0x23D1 JUMP JUMPDEST PUSH0 ADD PUSH0 SWAP1 SLOAD SWAP1 PUSH2 0x100 EXP SWAP1 DIV PUSH20 0xFFFFFFFFFFFFFFFFFFFFFFFFFFFFFFFFFFFFFFFF AND SWAP1 POP SWAP1 JUMP JUMPDEST PUSH2 0x20BF DUP3 PUSH2 0x23DA JUMP JUMPDEST DUP2 PUSH20 0xFFFFFFFFFFFFFFFFFFFFFFFFFFFFFFFFFFFFFFFF AND PUSH32 0xBC7CD75A20EE27FD9ADEBAB32041F755214DBC6BFFA90CC0225B39DA2E5C2D3B PUSH1 0x40 MLOAD PUSH1 0x40 MLOAD DUP1 SWAP2 SUB SWAP1 LOG2 PUSH0 DUP2 MLOAD GT ISZERO PUSH2 0x211B JUMPI PUSH2 0x2115 DUP3 DUP3 PUSH2 0x24A3 JUMP JUMPDEST POP PUSH2 0x2124 JUMP JUMPDEST PUSH2 0x2123 PUSH2 0x2523 JUMP JUMPDEST JUMPDEST POP POP JUMP JUMPDEST PUSH0 PUSH20 0xFFFFFFFFFFFFFFFFFFFFFFFFFFFFFFFFFFFFFFFF AND DUP3 PUSH20 0xFFFFFFFFFFFFFFFFFFFFFFFFFFFFFFFFFFFFFFFF AND SUB PUSH2 0x2198 JUMPI PUSH0 PUSH1 0x40 MLOAD PUSH32 0x96C6FD1E00000000000000000000000000000000000000000000000000000000 DUP2 MSTORE PUSH1 0x4 ADD PUSH2 0x218F SWAP2 SWAP1 PUSH2 0x2C29 JUMP JUMPDEST PUSH1 0x40 MLOAD DUP1 SWAP2 SUB SWAP1 REVERT JUMPDEST PUSH2 0x21A3 DUP3 PUSH0 DUP4 PUSH2 0x1DEB JUMP JUMPDEST POP POP JUMP JUMPDEST PUSH0 DUP1 DUP5 PUSH1 0x33 PUSH0 ADD SLOAD GT PUSH2 0x21BA JUMPI PUSH0 PUSH2 0x21D2 JUMP JUMPDEST PUSH2 0x21D1 DUP6 PUSH1 0x33 PUSH0 ADD SLOAD PUSH2 0x2392 SWAP1 SWAP2 SWAP1 PUSH4 0xFFFFFFFF AND JUMP JUMPDEST JUMPDEST SWAP1 POP PUSH0 DUP5 PUSH1 0x33 PUSH1 0x1 ADD SLOAD GT PUSH2 0x21E7 JUMPI PUSH0 PUSH2 0x2200 JUMP JUMPDEST PUSH2 0x21FF DUP6 PUSH1 0x33 PUSH1 0x1 ADD SLOAD PUSH2 0x2392 SWAP1 SWAP2 SWAP1 PUSH4 0xFFFFFFFF AND JUMP JUMPDEST JUMPDEST SWAP1 POP PUSH2 0x2265 PUSH1 0x64 PUSH2 0x2257 PUSH2 0x2710 PUSH2 0x2249 DUP9 PUSH2 0x223B DUP8 PUSH2 0x222D DUP11 PUSH1 0x33 PUSH1 0x4 ADD SLOAD PUSH2 0x23A7 SWAP1 SWAP2 SWAP1 PUSH4 0xFFFFFFFF AND JUMP JUMPDEST PUSH2 0x23A7 SWAP1 SWAP2 SWAP1 PUSH4 0xFFFFFFFF AND JUMP JUMPDEST PUSH2 0x23A7 SWAP1 SWAP2 SWAP1 PUSH4 0xFFFFFFFF AND JUMP JUMPDEST PUSH2 0x23BC SWAP1 SWAP2 SWAP1 PUSH4 0xFFFFFFFF AND JUMP JUMPDEST PUSH2 0x23BC SWAP1 SWAP2 SWAP1 PUSH4 0xFFFFFFFF AND JUMP JUMPDEST SWAP3 POP POP POP SWAP4 SWAP3 POP POP POP JUMP JUMPDEST PUSH2 0x2278 PUSH2 0x255F JUMP JUMPDEST PUSH2 0x22AE JUMPI PUSH1 0x40 MLOAD PUSH32 0xD7E6BCF800000000000000000000000000000000000000000000000000000000 DUP2 MSTORE PUSH1 0x4 ADD PUSH1 0x40 MLOAD DUP1 SWAP2 SUB SWAP1 REVERT JUMPDEST JUMP JUMPDEST PUSH2 0x22B8 PUSH2 0x2270 JUMP JUMPDEST PUSH0 PUSH2 0x22C1 PUSH2 0x12AE JUMP JUMPDEST SWAP1 POP DUP3 DUP2 PUSH1 0x3 ADD SWAP1 DUP2 PUSH2 0x22D4 SWAP2 SWAP1 PUSH2 0x3542 JUMP JUMPDEST POP DUP2 DUP2 PUSH1 0x4 ADD SWAP1 DUP2 PUSH2 0x22E6 SWAP2 SWAP1 PUSH2 0x3542 JUMP JUMPDEST POP POP POP POP JUMP JUMPDEST PUSH2 0x22F4 PUSH2 0x2270 JUMP JUMPDEST PUSH0 PUSH20 0xFFFFFFFFFFFFFFFFFFFFFFFFFFFFFFFFFFFFFFFF AND DUP2 PUSH20 0xFFFFFFFFFFFFFFFFFFFFFFFFFFFFFFFFFFFFFFFF AND SUB PUSH2 0x2364 JUMPI PUSH0 PUSH1 0x40 MLOAD PUSH32 0x1E4FBDF700000000000000000000000000000000000000000000000000000000 DUP2 MSTORE PUSH1 0x4 ADD PUSH2 0x235B SWAP2 SWAP1 PUSH2 0x2C29 JUMP JUMPDEST PUSH1 0x40 MLOAD DUP1 SWAP2 SUB SWAP1 REVERT JUMPDEST PUSH2 0x236D DUP2 PUSH2 0x17ED JUMP JUMPDEST POP JUMP JUMPDEST PUSH2 0x2378 PUSH2 0x2270 JUMP JUMPDEST PUSH0 DUP1 PUSH0 PUSH2 0x100 EXP DUP2 SLOAD DUP2 PUSH1 0xFF MUL NOT AND SWAP1 DUP4 ISZERO ISZERO MUL OR SWAP1 SSTORE POP JUMP JUMPDEST PUSH0 DUP2 DUP4 PUSH2 0x239F SWAP2 SWAP1 PUSH2 0x2FCD JUMP JUMPDEST SWAP1 POP SWAP3 SWAP2 POP POP JUMP JUMPDEST PUSH0 DUP2 DUP4 PUSH2 0x23B4 SWAP2 SWAP1 PUSH2 0x31CE JUMP JUMPDEST SWAP1 POP SWAP3 SWAP2 POP POP JUMP JUMPDEST PUSH0 DUP2 DUP4 PUSH2 0x23C9 SWAP2 SWAP1 PUSH2 0x363E JUMP JUMPDEST SWAP1 POP SWAP3 SWAP2 POP POP JUMP JUMPDEST PUSH0 DUP2 SWAP1 POP SWAP2 SWAP1 POP JUMP JUMPDEST PUSH0 DUP2 PUSH20 0xFFFFFFFFFFFFFFFFFFFFFFFFFFFFFFFFFFFFFFFF AND EXTCODESIZE SUB PUSH2 0x2435 JUMPI DUP1 PUSH1 0x40 MLOAD PUSH32 0x4C9C8CE300000000000000000000000000000000000000000000000000000000 DUP2 MSTORE PUSH1 0x4 ADD PUSH2 0x242C SWAP2 SWAP1 PUSH2 0x2C29 JUMP JUMPDEST PUSH1 0x40 MLOAD DUP1 SWAP2 SUB SWAP1 REVERT JUMPDEST DUP1 PUSH2 0x2461 PUSH32 0x360894A13BA1A3210667C828492DB98DCA3E2076CC3735A920A3CA505D382BBC PUSH0 SHL PUSH2 0x23D1 JUMP JUMPDEST PUSH0 ADD PUSH0 PUSH2 0x100 EXP DUP2 SLOAD DUP2 PUSH20 0xFFFFFFFFFFFFFFFFFFFFFFFFFFFFFFFFFFFFFFFF MUL NOT AND SWAP1 DUP4 PUSH20 0xFFFFFFFFFFFFFFFFFFFFFFFFFFFFFFFFFFFFFFFF AND MUL OR SWAP1 SSTORE POP POP JUMP JUMPDEST PUSH1 0x60 PUSH0 DUP1 DUP5 PUSH20 0xFFFFFFFFFFFFFFFFFFFFFFFFFFFFFFFFFFFFFFFF AND DUP5 PUSH1 0x40 MLOAD PUSH2 0x24CC SWAP2 SWAP1 PUSH2 0x36B2 JUMP JUMPDEST PUSH0 PUSH1 0x40 MLOAD DUP1 DUP4 SUB DUP2 DUP6 GAS DELEGATECALL SWAP2 POP POP RETURNDATASIZE DUP1 PUSH0 DUP2 EQ PUSH2 0x2504 JUMPI PUSH1 0x40 MLOAD SWAP2 POP PUSH1 0x1F NOT PUSH1 0x3F RETURNDATASIZE ADD AND DUP3 ADD PUSH1 0x40 MSTORE RETURNDATASIZE DUP3 MSTORE RETURNDATASIZE PUSH0 PUSH1 0x20 DUP5 ADD RETURNDATACOPY PUSH2 0x2509 JUMP JUMPDEST PUSH1 0x60 SWAP2 POP JUMPDEST POP SWAP2 POP SWAP2 POP PUSH2 0x2519 DUP6 DUP4 DUP4 PUSH2 0x257D JUMP JUMPDEST SWAP3 POP POP POP SWAP3 SWAP2 POP POP JUMP JUMPDEST PUSH0 CALLVALUE GT ISZERO PUSH2 0x255D JUMPI PUSH1 0x40 MLOAD PUSH32 0xB398979F00000000000000000000000000000000000000000000000000000000 DUP2 MSTORE PUSH1 0x4 ADD PUSH1 0x40 MLOAD DUP1 SWAP2 SUB SWAP1 REVERT JUMPDEST JUMP JUMPDEST PUSH0 PUSH2 0x2568 PUSH2 0x1A7E JUMP JUMPDEST PUSH0 ADD PUSH1 0x8 SWAP1 SLOAD SWAP1 PUSH2 0x100 EXP SWAP1 DIV PUSH1 0xFF AND SWAP1 POP SWAP1 JUMP JUMPDEST PUSH1 0x60 DUP3 PUSH2 0x2592 JUMPI PUSH2 0x258D DUP3 PUSH2 0x260A JUMP JUMPDEST PUSH2 0x2602 JUMP JUMPDEST PUSH0 DUP3 MLOAD EQ DUP1 ISZERO PUSH2 0x25B8 JUMPI POP PUSH0 DUP5 PUSH20 0xFFFFFFFFFFFFFFFFFFFFFFFFFFFFFFFFFFFFFFFF AND EXTCODESIZE EQ JUMPDEST ISZERO PUSH2 0x25FA JUMPI DUP4 PUSH1 0x40 MLOAD PUSH32 0x9996B31500000000000000000000000000000000000000000000000000000000 DUP2 MSTORE PUSH1 0x4 ADD PUSH2 0x25F1 SWAP2 SWAP1 PUSH2 0x2C29 JUMP JUMPDEST PUSH1 0x40 MLOAD DUP1 SWAP2 SUB SWAP1 REVERT JUMPDEST DUP2 SWAP1 POP PUSH2 0x2603 JUMP JUMPDEST JUMPDEST SWAP4 SWAP3 POP POP POP JUMP JUMPDEST PUSH0 DUP2 MLOAD GT ISZERO PUSH2 0x261C JUMPI DUP1 MLOAD DUP1 DUP3 PUSH1 0x20 ADD REVERT JUMPDEST PUSH1 0x40 MLOAD PUSH32 0xD6BDA27500000000000000000000000000000000000000000000000000000000 DUP2 MSTORE PUSH1 0x4 ADD PUSH1 0x40 MLOAD DUP1 SWAP2 SUB SWAP1 REVERT JUMPDEST PUSH0 DUP2 MLOAD SWAP1 POP SWAP2 SWAP1 POP JUMP JUMPDEST PUSH0 DUP3 DUP3 MSTORE PUSH1 0x20 DUP3 ADD SWAP1 POP SWAP3 SWAP2 POP POP JUMP JUMPDEST DUP3 DUP2 DUP4 MCOPY PUSH0 DUP4 DUP4 ADD MSTORE POP POP POP JUMP JUMPDEST PUSH0 PUSH1 0x1F NOT PUSH1 0x1F DUP4 ADD AND SWAP1 POP SWAP2 SWAP1 POP JUMP JUMPDEST PUSH0 PUSH2 0x2690 DUP3 PUSH2 0x264E JUMP JUMPDEST PUSH2 0x269A DUP2 DUP6 PUSH2 0x2658 JUMP JUMPDEST SWAP4 POP PUSH2 0x26AA DUP2 DUP6 PUSH1 0x20 DUP7 ADD PUSH2 0x2668 JUMP JUMPDEST PUSH2 0x26B3 DUP2 PUSH2 0x2676 JUMP JUMPDEST DUP5 ADD SWAP2 POP POP SWAP3 SWAP2 POP POP JUMP JUMPDEST PUSH0 PUSH1 0x20 DUP3 ADD SWAP1 POP DUP2 DUP2 SUB PUSH0 DUP4 ADD MSTORE PUSH2 0x26D6 DUP2 DUP5 PUSH2 0x2686 JUMP JUMPDEST SWAP1 POP SWAP3 SWAP2 POP POP JUMP JUMPDEST PUSH0 PUSH1 0x40 MLOAD SWAP1 POP SWAP1 JUMP JUMPDEST PUSH0 DUP1 REVERT JUMPDEST PUSH0 DUP1 REVERT JUMPDEST PUSH0 PUSH20 0xFFFFFFFFFFFFFFFFFFFFFFFFFFFFFFFFFFFFFFFF DUP3 AND SWAP1 POP SWAP2 SWAP1 POP JUMP JUMPDEST PUSH0 PUSH2 0x2718 DUP3 PUSH2 0x26EF JUMP JUMPDEST SWAP1 POP SWAP2 SWAP1 POP JUMP JUMPDEST PUSH2 0x2728 DUP2 PUSH2 0x270E JUMP JUMPDEST DUP2 EQ PUSH2 0x2732 JUMPI PUSH0 DUP1 REVERT JUMPDEST POP JUMP JUMPDEST PUSH0 DUP2 CALLDATALOAD SWAP1 POP PUSH2 0x2743 DUP2 PUSH2 0x271F JUMP JUMPDEST SWAP3 SWAP2 POP POP JUMP JUMPDEST PUSH0 DUP2 SWAP1 POP SWAP2 SWAP1 POP JUMP JUMPDEST PUSH2 0x275B DUP2 PUSH2 0x2749 JUMP JUMPDEST DUP2 EQ PUSH2 0x2765 JUMPI PUSH0 DUP1 REVERT JUMPDEST POP JUMP JUMPDEST PUSH0 DUP2 CALLDATALOAD SWAP1 POP PUSH2 0x2776 DUP2 PUSH2 0x2752 JUMP JUMPDEST SWAP3 SWAP2 POP POP JUMP JUMPDEST PUSH0 DUP1 PUSH1 0x40 DUP4 DUP6 SUB SLT ISZERO PUSH2 0x2792 JUMPI PUSH2 0x2791 PUSH2 0x26E7 JUMP JUMPDEST JUMPDEST PUSH0 PUSH2 0x279F DUP6 DUP3 DUP7 ADD PUSH2 0x2735 JUMP JUMPDEST SWAP3 POP POP PUSH1 0x20 PUSH2 0x27B0 DUP6 DUP3 DUP7 ADD PUSH2 0x2768 JUMP JUMPDEST SWAP2 POP POP SWAP3 POP SWAP3 SWAP1 POP JUMP JUMPDEST PUSH0 DUP2 ISZERO ISZERO SWAP1 POP SWAP2 SWAP1 POP JUMP JUMPDEST PUSH2 0x27CE DUP2 PUSH2 0x27BA JUMP JUMPDEST DUP3 MSTORE POP POP JUMP JUMPDEST PUSH0 PUSH1 0x20 DUP3 ADD SWAP1 POP PUSH2 0x27E7 PUSH0 DUP4 ADD DUP5 PUSH2 0x27C5 JUMP JUMPDEST SWAP3 SWAP2 POP POP JUMP JUMPDEST PUSH0 DUP1 REVERT JUMPDEST PUSH32 0x4E487B7100000000000000000000000000000000000000000000000000000000 PUSH0 MSTORE PUSH1 0x41 PUSH1 0x4 MSTORE PUSH1 0x24 PUSH0 REVERT JUMPDEST PUSH2 0x2827 DUP3 PUSH2 0x2676 JUMP JUMPDEST DUP2 ADD DUP2 DUP2 LT PUSH8 0xFFFFFFFFFFFFFFFF DUP3 GT OR ISZERO PUSH2 0x2846 JUMPI PUSH2 0x2845 PUSH2 0x27F1 JUMP JUMPDEST JUMPDEST DUP1 PUSH1 0x40 MSTORE POP POP POP JUMP JUMPDEST PUSH0 PUSH2 0x2858 PUSH2 0x26DE JUMP JUMPDEST SWAP1 POP PUSH2 0x2864 DUP3 DUP3 PUSH2 0x281E JUMP JUMPDEST SWAP2 SWAP1 POP JUMP JUMPDEST PUSH0 PUSH1 0xC0 DUP3 DUP5 SUB SLT ISZERO PUSH2 0x287E JUMPI PUSH2 0x287D PUSH2 0x27ED JUMP JUMPDEST JUMPDEST PUSH2 0x2888 PUSH1 0xC0 PUSH2 0x284F JUMP JUMPDEST SWAP1 POP PUSH0 PUSH2 0x2897 DUP5 DUP3 DUP6 ADD PUSH2 0x2768 JUMP JUMPDEST PUSH0 DUP4 ADD MSTORE POP PUSH1 0x20 PUSH2 0x28AA DUP5 DUP3 DUP6 ADD PUSH2 0x2768 JUMP JUMPDEST PUSH1 0x20 DUP4 ADD MSTORE POP PUSH1 0x40 PUSH2 0x28BE DUP5 DUP3 DUP6 ADD PUSH2 0x2768 JUMP JUMPDEST PUSH1 0x40 DUP4 ADD MSTORE POP PUSH1 0x60 PUSH2 0x28D2 DUP5 DUP3 DUP6 ADD PUSH2 0x2768 JUMP JUMPDEST PUSH1 0x60 DUP4 ADD MSTORE POP PUSH1 0x80 PUSH2 0x28E6 DUP5 DUP3 DUP6 ADD PUSH2 0x2768 JUMP JUMPDEST PUSH1 0x80 DUP4 ADD MSTORE POP PUSH1 0xA0 PUSH2 0x28FA DUP5 DUP3 DUP6 ADD PUSH2 0x2768 JUMP JUMPDEST PUSH1 0xA0 DUP4 ADD MSTORE POP SWAP3 SWAP2 POP POP JUMP JUMPDEST PUSH0 PUSH1 0xC0 DUP3 DUP5 SUB SLT ISZERO PUSH2 0x291B JUMPI PUSH2 0x291A PUSH2 0x26E7 JUMP JUMPDEST JUMPDEST PUSH0 PUSH2 0x2928 DUP5 DUP3 DUP6 ADD PUSH2 0x2869 JUMP JUMPDEST SWAP2 POP POP SWAP3 SWAP2 POP POP JUMP JUMPDEST PUSH2 0x293A DUP2 PUSH2 0x2749 JUMP JUMPDEST DUP3 MSTORE POP POP JUMP JUMPDEST PUSH0 PUSH1 0x20 DUP3 ADD SWAP1 POP PUSH2 0x2953 PUSH0 DUP4 ADD DUP5 PUSH2 0x2931 JUMP JUMPDEST SWAP3 SWAP2 POP POP JUMP JUMPDEST PUSH0 PUSH1 0x20 DUP3 DUP5 SUB SLT ISZERO PUSH2 0x296E JUMPI PUSH2 0x296D PUSH2 0x26E7 JUMP JUMPDEST JUMPDEST PUSH0 PUSH2 0x297B DUP5 DUP3 DUP6 ADD PUSH2 0x2735 JUMP JUMPDEST SWAP2 POP POP SWAP3 SWAP2 POP POP JUMP JUMPDEST PUSH0 DUP1 PUSH0 PUSH1 0x60 DUP5 DUP7 SUB SLT ISZERO PUSH2 0x299B JUMPI PUSH2 0x299A PUSH2 0x26E7 JUMP JUMPDEST JUMPDEST PUSH0 PUSH2 0x29A8 DUP7 DUP3 DUP8 ADD PUSH2 0x2735 JUMP JUMPDEST SWAP4 POP POP PUSH1 0x20 PUSH2 0x29B9 DUP7 DUP3 DUP8 ADD PUSH2 0x2735 JUMP JUMPDEST SWAP3 POP POP PUSH1 0x40 PUSH2 0x29CA DUP7 DUP3 DUP8 ADD PUSH2 0x2768 JUMP JUMPDEST SWAP2 POP POP SWAP3 POP SWAP3 POP SWAP3 JUMP JUMPDEST PUSH0 PUSH1 0xFF DUP3 AND SWAP1 POP SWAP2 SWAP1 POP JUMP JUMPDEST PUSH2 0x29E9 DUP2 PUSH2 0x29D4 JUMP JUMPDEST DUP3 MSTORE POP POP JUMP JUMPDEST PUSH0 PUSH1 0x20 DUP3 ADD SWAP1 POP PUSH2 0x2A02 PUSH0 DUP4 ADD DUP5 PUSH2 0x29E0 JUMP JUMPDEST SWAP3 SWAP2 POP POP JUMP JUMPDEST PUSH0 PUSH1 0xC0 DUP3 ADD SWAP1 POP PUSH2 0x2A1B PUSH0 DUP4 ADD DUP10 PUSH2 0x2931 JUMP JUMPDEST PUSH2 0x2A28 PUSH1 0x20 DUP4 ADD DUP9 PUSH2 0x2931 JUMP JUMPDEST PUSH2 0x2A35 PUSH1 0x40 DUP4 ADD DUP8 PUSH2 0x2931 JUMP JUMPDEST PUSH2 0x2A42 PUSH1 0x60 DUP4 ADD DUP7 PUSH2 0x2931 JUMP JUMPDEST PUSH2 0x2A4F PUSH1 0x80 DUP4 ADD DUP6 PUSH2 0x2931 JUMP JUMPDEST PUSH2 0x2A5C PUSH1 0xA0 DUP4 ADD DUP5 PUSH2 0x2931 JUMP JUMPDEST SWAP8 SWAP7 POP POP POP POP POP POP POP JUMP JUMPDEST PUSH0 DUP1 REVERT JUMPDEST PUSH0 DUP1 REVERT JUMPDEST PUSH0 PUSH8 0xFFFFFFFFFFFFFFFF DUP3 GT ISZERO PUSH2 0x2A89 JUMPI PUSH2 0x2A88 PUSH2 0x27F1 JUMP JUMPDEST JUMPDEST PUSH2 0x2A92 DUP3 PUSH2 0x2676 JUMP JUMPDEST SWAP1 POP PUSH1 0x20 DUP2 ADD SWAP1 POP SWAP2 SWAP1 POP JUMP JUMPDEST DUP3 DUP2 DUP4 CALLDATACOPY PUSH0 DUP4 DUP4 ADD MSTORE POP POP POP JUMP JUMPDEST PUSH0 PUSH2 0x2ABF PUSH2 0x2ABA DUP5 PUSH2 0x2A6F JUMP JUMPDEST PUSH2 0x284F JUMP JUMPDEST SWAP1 POP DUP3 DUP2 MSTORE PUSH1 0x20 DUP2 ADD DUP5 DUP5 DUP5 ADD GT ISZERO PUSH2 0x2ADB JUMPI PUSH2 0x2ADA PUSH2 0x2A6B JUMP JUMPDEST JUMPDEST PUSH2 0x2AE6 DUP5 DUP3 DUP6 PUSH2 0x2A9F JUMP JUMPDEST POP SWAP4 SWAP3 POP POP POP JUMP JUMPDEST PUSH0 DUP3 PUSH1 0x1F DUP4 ADD SLT PUSH2 0x2B02 JUMPI PUSH2 0x2B01 PUSH2 0x2A67 JUMP JUMPDEST JUMPDEST DUP2 CALLDATALOAD PUSH2 0x2B12 DUP5 DUP3 PUSH1 0x20 DUP7 ADD PUSH2 0x2AAD JUMP JUMPDEST SWAP2 POP POP SWAP3 SWAP2 POP POP JUMP JUMPDEST PUSH0 DUP1 PUSH1 0x40 DUP4 DUP6 SUB SLT ISZERO PUSH2 0x2B31 JUMPI PUSH2 0x2B30 PUSH2 0x26E7 JUMP JUMPDEST JUMPDEST PUSH0 PUSH2 0x2B3E DUP6 DUP3 DUP7 ADD PUSH2 0x2735 JUMP JUMPDEST SWAP3 POP POP PUSH1 0x20 DUP4 ADD CALLDATALOAD PUSH8 0xFFFFFFFFFFFFFFFF DUP2 GT ISZERO PUSH2 0x2B5F JUMPI PUSH2 0x2B5E PUSH2 0x26EB JUMP JUMPDEST JUMPDEST PUSH2 0x2B6B DUP6 DUP3 DUP7 ADD PUSH2 0x2AEE JUMP JUMPDEST SWAP2 POP POP SWAP3 POP SWAP3 SWAP1 POP JUMP JUMPDEST PUSH0 DUP2 SWAP1 POP SWAP2 SWAP1 POP JUMP JUMPDEST PUSH2 0x2B87 DUP2 PUSH2 0x2B75 JUMP JUMPDEST DUP3 MSTORE POP POP JUMP JUMPDEST PUSH0 PUSH1 0x20 DUP3 ADD SWAP1 POP PUSH2 0x2BA0 PUSH0 DUP4 ADD DUP5 PUSH2 0x2B7E JUMP JUMPDEST SWAP3 SWAP2 POP POP JUMP JUMPDEST PUSH0 DUP2 SWAP1 POP SWAP2 SWAP1 POP JUMP JUMPDEST PUSH0 PUSH2 0x2BC9 PUSH2 0x2BC4 PUSH2 0x2BBF DUP5 PUSH2 0x26EF JUMP JUMPDEST PUSH2 0x2BA6 JUMP JUMPDEST PUSH2 0x26EF JUMP JUMPDEST SWAP1 POP SWAP2 SWAP1 POP JUMP JUMPDEST PUSH0 PUSH2 0x2BDA DUP3 PUSH2 0x2BAF JUMP JUMPDEST SWAP1 POP SWAP2 SWAP1 POP JUMP JUMPDEST PUSH0 PUSH2 0x2BEB DUP3 PUSH2 0x2BD0 JUMP JUMPDEST SWAP1 POP SWAP2 SWAP1 POP JUMP JUMPDEST PUSH2 0x2BFB DUP2 PUSH2 0x2BE1 JUMP JUMPDEST DUP3 MSTORE POP POP JUMP JUMPDEST PUSH0 PUSH1 0x20 DUP3 ADD SWAP1 POP PUSH2 0x2C14 PUSH0 DUP4 ADD DUP5 PUSH2 0x2BF2 JUMP JUMPDEST SWAP3 SWAP2 POP POP JUMP JUMPDEST PUSH2 0x2C23 DUP2 PUSH2 0x270E JUMP JUMPDEST DUP3 MSTORE POP POP JUMP JUMPDEST PUSH0 PUSH1 0x20 DUP3 ADD SWAP1 POP PUSH2 0x2C3C PUSH0 DUP4 ADD DUP5 PUSH2 0x2C1A JUMP JUMPDEST SWAP3 SWAP2 POP POP JUMP JUMPDEST PUSH0 PUSH8 0xFFFFFFFFFFFFFFFF DUP3 GT ISZERO PUSH2 0x2C5C JUMPI PUSH2 0x2C5B PUSH2 0x27F1 JUMP JUMPDEST JUMPDEST PUSH2 0x2C65 DUP3 PUSH2 0x2676 JUMP JUMPDEST SWAP1 POP PUSH1 0x20 DUP2 ADD SWAP1 POP SWAP2 SWAP1 POP JUMP JUMPDEST PUSH0 PUSH2 0x2C84 PUSH2 0x2C7F DUP5 PUSH2 0x2C42 JUMP JUMPDEST PUSH2 0x284F JUMP JUMPDEST SWAP1 POP DUP3 DUP2 MSTORE PUSH1 0x20 DUP2 ADD DUP5 DUP5 DUP5 ADD GT ISZERO PUSH2 0x2CA0 JUMPI PUSH2 0x2C9F PUSH2 0x2A6B JUMP JUMPDEST JUMPDEST PUSH2 0x2CAB DUP5 DUP3 DUP6 PUSH2 0x2A9F JUMP JUMPDEST POP SWAP4 SWAP3 POP POP POP JUMP JUMPDEST PUSH0 DUP3 PUSH1 0x1F DUP4 ADD SLT PUSH2 0x2CC7 JUMPI PUSH2 0x2CC6 PUSH2 0x2A67 JUMP JUMPDEST JUMPDEST DUP2 CALLDATALOAD PUSH2 0x2CD7 DUP5 DUP3 PUSH1 0x20 DUP7 ADD PUSH2 0x2C72 JUMP JUMPDEST SWAP2 POP POP SWAP3 SWAP2 POP POP JUMP JUMPDEST PUSH0 DUP1 PUSH0 DUP1 PUSH2 0x120 DUP6 DUP8 SUB SLT ISZERO PUSH2 0x2CF9 JUMPI PUSH2 0x2CF8 PUSH2 0x26E7 JUMP JUMPDEST JUMPDEST PUSH0 DUP6 ADD CALLDATALOAD PUSH8 0xFFFFFFFFFFFFFFFF DUP2 GT ISZERO PUSH2 0x2D16 JUMPI PUSH2 0x2D15 PUSH2 0x26EB JUMP JUMPDEST JUMPDEST PUSH2 0x2D22 DUP8 DUP3 DUP9 ADD PUSH2 0x2CB3 JUMP JUMPDEST SWAP5 POP POP PUSH1 0x20 DUP6 ADD CALLDATALOAD PUSH8 0xFFFFFFFFFFFFFFFF DUP2 GT ISZERO PUSH2 0x2D43 JUMPI PUSH2 0x2D42 PUSH2 0x26EB JUMP JUMPDEST JUMPDEST PUSH2 0x2D4F DUP8 DUP3 DUP9 ADD PUSH2 0x2CB3 JUMP JUMPDEST SWAP4 POP POP PUSH1 0x40 PUSH2 0x2D60 DUP8 DUP3 DUP9 ADD PUSH2 0x2735 JUMP JUMPDEST SWAP3 POP POP PUSH1 0x60 PUSH2 0x2D71 DUP8 DUP3 DUP9 ADD PUSH2 0x2869 JUMP JUMPDEST SWAP2 POP POP SWAP3 SWAP6 SWAP2 SWAP5 POP SWAP3 POP JUMP JUMPDEST PUSH0 DUP1 PUSH1 0x40 DUP4 DUP6 SUB SLT ISZERO PUSH2 0x2D93 JUMPI PUSH2 0x2D92 PUSH2 0x26E7 JUMP JUMPDEST JUMPDEST PUSH0 PUSH2 0x2DA0 DUP6 DUP3 DUP7 ADD PUSH2 0x2735 JUMP JUMPDEST SWAP3 POP POP PUSH1 0x20 PUSH2 0x2DB1 DUP6 DUP3 DUP7 ADD PUSH2 0x2735 JUMP JUMPDEST SWAP2 POP POP SWAP3 POP SWAP3 SWAP1 POP JUMP JUMPDEST PUSH32 0x4E487B7100000000000000000000000000000000000000000000000000000000 PUSH0 MSTORE PUSH1 0x22 PUSH1 0x4 MSTORE PUSH1 0x24 PUSH0 REVERT JUMPDEST PUSH0 PUSH1 0x2 DUP3 DIV SWAP1 POP PUSH1 0x1 DUP3 AND DUP1 PUSH2 0x2DFF JUMPI PUSH1 0x7F DUP3 AND SWAP2 POP JUMPDEST PUSH1 0x20 DUP3 LT DUP2 SUB PUSH2 0x2E12 JUMPI PUSH2 0x2E11 PUSH2 0x2DBB JUMP JUMPDEST JUMPDEST POP SWAP2 SWAP1 POP JUMP JUMPDEST PUSH2 0x2E21 DUP2 PUSH2 0x2749 JUMP JUMPDEST DUP3 MSTORE POP POP JUMP JUMPDEST PUSH1 0xC0 DUP3 ADD PUSH0 DUP3 ADD MLOAD PUSH2 0x2E3B PUSH0 DUP6 ADD DUP3 PUSH2 0x2E18 JUMP JUMPDEST POP PUSH1 0x20 DUP3 ADD MLOAD PUSH2 0x2E4E PUSH1 0x20 DUP6 ADD DUP3 PUSH2 0x2E18 JUMP JUMPDEST POP PUSH1 0x40 DUP3 ADD MLOAD PUSH2 0x2E61 PUSH1 0x40 DUP6 ADD DUP3 PUSH2 0x2E18 JUMP JUMPDEST POP PUSH1 0x60 DUP3 ADD MLOAD PUSH2 0x2E74 PUSH1 0x60 DUP6 ADD DUP3 PUSH2 0x2E18 JUMP JUMPDEST POP PUSH1 0x80 DUP3 ADD MLOAD PUSH2 0x2E87 PUSH1 0x80 DUP6 ADD DUP3 PUSH2 0x2E18 JUMP JUMPDEST POP PUSH1 0xA0 DUP3 ADD MLOAD PUSH2 0x2E9A PUSH1 0xA0 DUP6 ADD DUP3 PUSH2 0x2E18 JUMP JUMPDEST POP POP POP POP JUMP JUMPDEST PUSH0 PUSH1 0xC0 DUP3 ADD SWAP1 POP PUSH2 0x2EB3 PUSH0 DUP4 ADD DUP5 PUSH2 0x2E27 JUMP JUMPDEST SWAP3 SWAP2 POP POP JUMP JUMPDEST PUSH32 0x4E487B7100000000000000000000000000000000000000000000000000000000 PUSH0 MSTORE PUSH1 0x11 PUSH1 0x4 MSTORE PUSH1 0x24 PUSH0 REVERT JUMPDEST PUSH0 PUSH2 0x2EF0 DUP3 PUSH2 0x2749 JUMP JUMPDEST SWAP2 POP PUSH2 0x2EFB DUP4 PUSH2 0x2749 JUMP JUMPDEST SWAP3 POP DUP3 DUP3 ADD SWAP1 POP DUP1 DUP3 GT ISZERO PUSH2 0x2F13 JUMPI PUSH2 0x2F12 PUSH2 0x2EB9 JUMP JUMPDEST JUMPDEST SWAP3 SWAP2 POP POP JUMP JUMPDEST PUSH0 DUP2 MLOAD SWAP1 POP PUSH2 0x2F27 DUP2 PUSH2 0x2752 JUMP JUMPDEST SWAP3 SWAP2 POP POP JUMP JUMPDEST PUSH0 PUSH1 0x80 DUP3 DUP5 SUB SLT ISZERO PUSH2 0x2F42 JUMPI PUSH2 0x2F41 PUSH2 0x27ED JUMP JUMPDEST JUMPDEST PUSH2 0x2F4C PUSH1 0x80 PUSH2 0x284F JUMP JUMPDEST SWAP1 POP PUSH0 PUSH2 0x2F5B DUP5 DUP3 DUP6 ADD PUSH2 0x2F19 JUMP JUMPDEST PUSH0 DUP4 ADD MSTORE POP PUSH1 0x20 PUSH2 0x2F6E DUP5 DUP3 DUP6 ADD PUSH2 0x2F19 JUMP JUMPDEST PUSH1 0x20 DUP4 ADD MSTORE POP PUSH1 0x40 PUSH2 0x2F82 DUP5 DUP3 DUP6 ADD PUSH2 0x2F19 JUMP JUMPDEST PUSH1 0x40 DUP4 ADD MSTORE POP PUSH1 0x60 PUSH2 0x2F96 DUP5 DUP3 DUP6 ADD PUSH2 0x2F19 JUMP JUMPDEST PUSH1 0x60 DUP4 ADD MSTORE POP SWAP3 SWAP2 POP POP JUMP JUMPDEST PUSH0 PUSH1 0x80 DUP3 DUP5 SUB SLT ISZERO PUSH2 0x2FB7 JUMPI PUSH2 0x2FB6 PUSH2 0x26E7 JUMP JUMPDEST JUMPDEST PUSH0 PUSH2 0x2FC4 DUP5 DUP3 DUP6 ADD PUSH2 0x2F2D JUMP JUMPDEST SWAP2 POP POP SWAP3 SWAP2 POP POP JUMP JUMPDEST PUSH0 PUSH2 0x2FD7 DUP3 PUSH2 0x2749 JUMP JUMPDEST SWAP2 POP PUSH2 0x2FE2 DUP4 PUSH2 0x2749 JUMP JUMPDEST SWAP3 POP DUP3 DUP3 SUB SWAP1 POP DUP2 DUP2 GT ISZERO PUSH2 0x2FFA JUMPI PUSH2 0x2FF9 PUSH2 0x2EB9 JUMP JUMPDEST JUMPDEST SWAP3 SWAP2 POP POP JUMP JUMPDEST PUSH2 0x3009 DUP2 PUSH2 0x2B75 JUMP JUMPDEST DUP2 EQ PUSH2 0x3013 JUMPI PUSH0 DUP1 REVERT JUMPDEST POP JUMP JUMPDEST PUSH0 DUP2 MLOAD SWAP1 POP PUSH2 0x3024 DUP2 PUSH2 0x3000 JUMP JUMPDEST SWAP3 SWAP2 POP POP JUMP JUMPDEST PUSH0 PUSH1 0x20 DUP3 DUP5 SUB SLT ISZERO PUSH2 0x303F JUMPI PUSH2 0x303E PUSH2 0x26E7 JUMP JUMPDEST JUMPDEST PUSH0 PUSH2 0x304C DUP5 DUP3 DUP6 ADD PUSH2 0x3016 JUMP JUMPDEST SWAP2 POP POP SWAP3 SWAP2 POP POP JUMP JUMPDEST PUSH0 DUP2 PUSH1 0x1 SHR SWAP1 POP SWAP2 SWAP1 POP JUMP JUMPDEST PUSH0 DUP1 DUP3 SWAP2 POP DUP4 SWAP1 POP JUMPDEST PUSH1 0x1 DUP6 GT ISZERO PUSH2 0x30AA JUMPI DUP1 DUP7 DIV DUP2 GT ISZERO PUSH2 0x3086 JUMPI PUSH2 0x3085 PUSH2 0x2EB9 JUMP JUMPDEST JUMPDEST PUSH1 0x1 DUP6 AND ISZERO PUSH2 0x3095 JUMPI DUP1 DUP3 MUL SWAP2 POP JUMPDEST DUP1 DUP2 MUL SWAP1 POP PUSH2 0x30A3 DUP6 PUSH2 0x3055 JUMP JUMPDEST SWAP5 POP PUSH2 0x306A JUMP JUMPDEST SWAP5 POP SWAP5 SWAP3 POP POP POP JUMP JUMPDEST PUSH0 DUP3 PUSH2 0x30C2 JUMPI PUSH1 0x1 SWAP1 POP PUSH2 0x317D JUMP JUMPDEST DUP2 PUSH2 0x30CF JUMPI PUSH0 SWAP1 POP PUSH2 0x317D JUMP JUMPDEST DUP2 PUSH1 0x1 DUP2 EQ PUSH2 0x30E5 JUMPI PUSH1 0x2 DUP2 EQ PUSH2 0x30EF JUMPI PUSH2 0x311E JUMP JUMPDEST PUSH1 0x1 SWAP2 POP POP PUSH2 0x317D JUMP JUMPDEST PUSH1 0xFF DUP5 GT ISZERO PUSH2 0x3101 JUMPI PUSH2 0x3100 PUSH2 0x2EB9 JUMP JUMPDEST JUMPDEST DUP4 PUSH1 0x2 EXP SWAP2 POP DUP5 DUP3 GT ISZERO PUSH2 0x3118 JUMPI PUSH2 0x3117 PUSH2 0x2EB9 JUMP JUMPDEST JUMPDEST POP PUSH2 0x317D JUMP JUMPDEST POP PUSH1 0x20 DUP4 LT PUSH2 0x133 DUP4 LT AND PUSH1 0x4E DUP5 LT PUSH1 0xB DUP5 LT AND OR ISZERO PUSH2 0x3153 JUMPI DUP3 DUP3 EXP SWAP1 POP DUP4 DUP2 GT ISZERO PUSH2 0x314E JUMPI PUSH2 0x314D PUSH2 0x2EB9 JUMP JUMPDEST JUMPDEST PUSH2 0x317D JUMP JUMPDEST PUSH2 0x3160 DUP5 DUP5 DUP5 PUSH1 0x1 PUSH2 0x3061 JUMP JUMPDEST SWAP3 POP SWAP1 POP DUP2 DUP5 DIV DUP2 GT ISZERO PUSH2 0x3177 JUMPI PUSH2 0x3176 PUSH2 0x2EB9 JUMP JUMPDEST JUMPDEST DUP2 DUP2 MUL SWAP1 POP JUMPDEST SWAP4 SWAP3 POP POP POP JUMP JUMPDEST PUSH0 PUSH2 0x318E DUP3 PUSH2 0x2749 JUMP JUMPDEST SWAP2 POP PUSH2 0x3199 DUP4 PUSH2 0x29D4 JUMP JUMPDEST SWAP3 POP PUSH2 0x31C6 PUSH32 0xFFFFFFFFFFFFFFFFFFFFFFFFFFFFFFFFFFFFFFFFFFFFFFFFFFFFFFFFFFFFFFFF DUP5 DUP5 PUSH2 0x30B3 JUMP JUMPDEST SWAP1 POP SWAP3 SWAP2 POP POP JUMP JUMPDEST PUSH0 PUSH2 0x31D8 DUP3 PUSH2 0x2749 JUMP JUMPDEST SWAP2 POP PUSH2 0x31E3 DUP4 PUSH2 0x2749 JUMP JUMPDEST SWAP3 POP DUP3 DUP3 MUL PUSH2 0x31F1 DUP2 PUSH2 0x2749 JUMP JUMPDEST SWAP2 POP DUP3 DUP3 DIV DUP5 EQ DUP4 ISZERO OR PUSH2 0x3208 JUMPI PUSH2 0x3207 PUSH2 0x2EB9 JUMP JUMPDEST JUMPDEST POP SWAP3 SWAP2 POP POP JUMP JUMPDEST PUSH0 DUP2 SWAP1 POP SWAP2 SWAP1 POP JUMP JUMPDEST PUSH0 PUSH8 0xFFFFFFFFFFFFFFFF DUP3 AND SWAP1 POP SWAP2 SWAP1 POP JUMP JUMPDEST PUSH0 PUSH2 0x3245 PUSH2 0x3240 PUSH2 0x323B DUP5 PUSH2 0x320F JUMP JUMPDEST PUSH2 0x2BA6 JUMP JUMPDEST PUSH2 0x3218 JUMP JUMPDEST SWAP1 POP SWAP2 SWAP1 POP JUMP JUMPDEST PUSH2 0x3255 DUP2 PUSH2 0x322B JUMP JUMPDEST DUP3 MSTORE POP POP JUMP JUMPDEST PUSH0 PUSH1 0x20 DUP3 ADD SWAP1 POP PUSH2 0x326E PUSH0 DUP4 ADD DUP5 PUSH2 0x324C JUMP JUMPDEST SWAP3 SWAP2 POP POP JUMP JUMPDEST PUSH0 PUSH1 0x60 DUP3 ADD SWAP1 POP PUSH2 0x3287 PUSH0 DUP4 ADD DUP7 PUSH2 0x2C1A JUMP JUMPDEST PUSH2 0x3294 PUSH1 0x20 DUP4 ADD DUP6 PUSH2 0x2931 JUMP JUMPDEST PUSH2 0x32A1 PUSH1 0x40 DUP4 ADD DUP5 PUSH2 0x2931 JUMP JUMPDEST SWAP5 SWAP4 POP POP POP POP JUMP JUMPDEST PUSH32 0x5061757361626C653A2070617573656400000000000000000000000000000000 PUSH0 DUP3 ADD MSTORE POP JUMP JUMPDEST PUSH0 PUSH2 0x32DD PUSH1 0x10 DUP4 PUSH2 0x2658 JUMP JUMPDEST SWAP2 POP PUSH2 0x32E8 DUP3 PUSH2 0x32A9 JUMP JUMPDEST PUSH1 0x20 DUP3 ADD SWAP1 POP SWAP2 SWAP1 POP JUMP JUMPDEST PUSH0 PUSH1 0x20 DUP3 ADD SWAP1 POP DUP2 DUP2 SUB PUSH0 DUP4 ADD MSTORE PUSH2 0x330A DUP2 PUSH2 0x32D1 JUMP JUMPDEST SWAP1 POP SWAP2 SWAP1 POP JUMP JUMPDEST PUSH0 PUSH1 0x60 DUP3 ADD SWAP1 POP PUSH2 0x3324 PUSH0 DUP4 ADD DUP7 PUSH2 0x2931 JUMP JUMPDEST PUSH2 0x3331 PUSH1 0x20 DUP4 ADD DUP6 PUSH2 0x2931 JUMP JUMPDEST PUSH2 0x333E PUSH1 0x40 DUP4 ADD DUP5 PUSH2 0x2931 JUMP JUMPDEST SWAP5 SWAP4 POP POP POP POP JUMP JUMPDEST PUSH32 0x5061757361626C653A206E6F7420706175736564000000000000000000000000 PUSH0 DUP3 ADD MSTORE POP JUMP JUMPDEST PUSH0 PUSH2 0x337A PUSH1 0x14 DUP4 PUSH2 0x2658 JUMP JUMPDEST SWAP2 POP PUSH2 0x3385 DUP3 PUSH2 0x3346 JUMP JUMPDEST PUSH1 0x20 DUP3 ADD SWAP1 POP SWAP2 SWAP1 POP JUMP JUMPDEST PUSH0 PUSH1 0x20 DUP3 ADD SWAP1 POP DUP2 DUP2 SUB PUSH0 DUP4 ADD MSTORE PUSH2 0x33A7 DUP2 PUSH2 0x336E JUMP JUMPDEST SWAP1 POP SWAP2 SWAP1 POP JUMP JUMPDEST PUSH0 DUP2 SWAP1 POP DUP2 PUSH0 MSTORE PUSH1 0x20 PUSH0 KECCAK256 SWAP1 POP SWAP2 SWAP1 POP JUMP JUMPDEST PUSH0 PUSH1 0x20 PUSH1 0x1F DUP4 ADD DIV SWAP1 POP SWAP2 SWAP1 POP JUMP JUMPDEST PUSH0 DUP3 DUP3 SHL SWAP1 POP SWAP3 SWAP2 POP POP JUMP JUMPDEST PUSH0 PUSH1 0x8 DUP4 MUL PUSH2 0x340A PUSH32 0xFFFFFFFFFFFFFFFFFFFFFFFFFFFFFFFFFFFFFFFFFFFFFFFFFFFFFFFFFFFFFFFF DUP3 PUSH2 0x33CF JUMP JUMPDEST PUSH2 0x3414 DUP7 DUP4 PUSH2 0x33CF JUMP JUMPDEST SWAP6 POP DUP1 NOT DUP5 AND SWAP4 POP DUP1 DUP7 AND DUP5 OR SWAP3 POP POP POP SWAP4 SWAP3 POP POP POP JUMP JUMPDEST PUSH0 PUSH2 0x3446 PUSH2 0x3441 PUSH2 0x343C DUP5 PUSH2 0x2749 JUMP JUMPDEST PUSH2 0x2BA6 JUMP JUMPDEST PUSH2 0x2749 JUMP JUMPDEST SWAP1 POP SWAP2 SWAP1 POP JUMP JUMPDEST PUSH0 DUP2 SWAP1 POP SWAP2 SWAP1 POP JUMP JUMPDEST PUSH2 0x345F DUP4 PUSH2 0x342C JUMP JUMPDEST PUSH2 0x3473 PUSH2 0x346B DUP3 PUSH2 0x344D JUMP JUMPDEST DUP5 DUP5 SLOAD PUSH2 0x33DB JUMP JUMPDEST DUP3 SSTORE POP POP POP POP JUMP JUMPDEST PUSH0 SWAP1 JUMP JUMPDEST PUSH2 0x3487 PUSH2 0x347B JUMP JUMPDEST PUSH2 0x3492 DUP2 DUP5 DUP5 PUSH2 0x3456 JUMP JUMPDEST POP POP POP JUMP JUMPDEST JUMPDEST DUP2 DUP2 LT ISZERO PUSH2 0x34B5 JUMPI PUSH2 0x34AA PUSH0 DUP3 PUSH2 0x347F JUMP JUMPDEST PUSH1 0x1 DUP2 ADD SWAP1 POP PUSH2 0x3498 JUMP JUMPDEST POP POP JUMP JUMPDEST PUSH1 0x1F DUP3 GT ISZERO PUSH2 0x34FA JUMPI PUSH2 0x34CB DUP2 PUSH2 0x33AE JUMP JUMPDEST PUSH2 0x34D4 DUP5 PUSH2 0x33C0 JUMP JUMPDEST DUP2 ADD PUSH1 0x20 DUP6 LT ISZERO PUSH2 0x34E3 JUMPI DUP2 SWAP1 POP JUMPDEST PUSH2 0x34F7 PUSH2 0x34EF DUP6 PUSH2 0x33C0 JUMP JUMPDEST DUP4 ADD DUP3 PUSH2 0x3497 JUMP JUMPDEST POP POP JUMPDEST POP POP POP JUMP JUMPDEST PUSH0 DUP3 DUP3 SHR SWAP1 POP SWAP3 SWAP2 POP POP JUMP JUMPDEST PUSH0 PUSH2 0x351A PUSH0 NOT DUP5 PUSH1 0x8 MUL PUSH2 0x34FF JUMP JUMPDEST NOT DUP1 DUP4 AND SWAP2 POP POP SWAP3 SWAP2 POP POP JUMP JUMPDEST PUSH0 PUSH2 0x3532 DUP4 DUP4 PUSH2 0x350B JUMP JUMPDEST SWAP2 POP DUP3 PUSH1 0x2 MUL DUP3 OR SWAP1 POP SWAP3 SWAP2 POP POP JUMP JUMPDEST PUSH2 0x354B DUP3 PUSH2 0x264E JUMP JUMPDEST PUSH8 0xFFFFFFFFFFFFFFFF DUP2 GT ISZERO PUSH2 0x3564 JUMPI PUSH2 0x3563 PUSH2 0x27F1 JUMP JUMPDEST JUMPDEST PUSH2 0x356E DUP3 SLOAD PUSH2 0x2DE8 JUMP JUMPDEST PUSH2 0x3579 DUP3 DUP3 DUP6 PUSH2 0x34B9 JUMP JUMPDEST PUSH0 PUSH1 0x20 SWAP1 POP PUSH1 0x1F DUP4 GT PUSH1 0x1 DUP2 EQ PUSH2 0x35AA JUMPI PUSH0 DUP5 ISZERO PUSH2 0x3598 JUMPI DUP3 DUP8 ADD MLOAD SWAP1 POP JUMPDEST PUSH2 0x35A2 DUP6 DUP3 PUSH2 0x3527 JUMP JUMPDEST DUP7 SSTORE POP PUSH2 0x3609 JUMP JUMPDEST PUSH1 0x1F NOT DUP5 AND PUSH2 0x35B8 DUP7 PUSH2 0x33AE JUMP JUMPDEST PUSH0 JUMPDEST DUP3 DUP2 LT ISZERO PUSH2 0x35DF JUMPI DUP5 DUP10 ADD MLOAD DUP3 SSTORE PUSH1 0x1 DUP3 ADD SWAP2 POP PUSH1 0x20 DUP6 ADD SWAP5 POP PUSH1 0x20 DUP2 ADD SWAP1 POP PUSH2 0x35BA JUMP JUMPDEST DUP7 DUP4 LT ISZERO PUSH2 0x35FC JUMPI DUP5 DUP10 ADD MLOAD PUSH2 0x35F8 PUSH1 0x1F DUP10 AND DUP3 PUSH2 0x350B JUMP JUMPDEST DUP4 SSTORE POP JUMPDEST PUSH1 0x1 PUSH1 0x2 DUP9 MUL ADD DUP9 SSTORE POP POP POP JUMPDEST POP POP POP POP POP POP JUMP JUMPDEST PUSH32 0x4E487B7100000000000000000000000000000000000000000000000000000000 PUSH0 MSTORE PUSH1 0x12 PUSH1 0x4 MSTORE PUSH1 0x24 PUSH0 REVERT JUMPDEST PUSH0 PUSH2 0x3648 DUP3 PUSH2 0x2749 JUMP JUMPDEST SWAP2 POP PUSH2 0x3653 DUP4 PUSH2 0x2749 JUMP JUMPDEST SWAP3 POP DUP3 PUSH2 0x3663 JUMPI PUSH2 0x3662 PUSH2 0x3611 JUMP JUMPDEST JUMPDEST DUP3 DUP3 DIV SWAP1 POP SWAP3 SWAP2 POP POP JUMP JUMPDEST PUSH0 DUP2 MLOAD SWAP1 POP SWAP2 SWAP1 POP JUMP JUMPDEST PUSH0 DUP2 SWAP1 POP SWAP3 SWAP2 POP POP JUMP JUMPDEST PUSH0 PUSH2 0x368C DUP3 PUSH2 0x366E JUMP JUMPDEST PUSH2 0x3696 DUP2 DUP6 PUSH2 0x3678 JUMP JUMPDEST SWAP4 POP PUSH2 0x36A6 DUP2 DUP6 PUSH1 0x20 DUP7 ADD PUSH2 0x2668 JUMP JUMPDEST DUP1 DUP5 ADD SWAP2 POP POP SWAP3 SWAP2 POP POP JUMP JUMPDEST PUSH0 PUSH2 0x36BD DUP3 DUP5 PUSH2 0x3682 JUMP JUMPDEST SWAP2 POP DUP2 SWAP1 POP SWAP3 SWAP2 POP POP JUMP INVALID LOG2 PUSH5 0x6970667358 0x22 SLT KECCAK256 CALLVALUE MOD 0xAF 0xCF 0xBE CREATE 0xCC NUMBER DUP9 PUSH30 0x8E4BDCF1A33F1A2C81E6F089E3F0F05A18F9B7B0174B64736F6C63430008 BYTE STOP CALLER "
				},
				"gasEstimates": {
					"creation": {
						"codeDepositCost": "2815600",
						"executionCost": "infinite",
						"totalCost": "infinite"
					},
					"external": {
						"UPGRADE_INTERFACE_VERSION()": "infinite",
						"allowance(address,address)": "infinite",
						"approve(address,uint256)": "infinite",
						"balanceOf(address)": "2992",
						"claimReward()": "infinite",
						"decimals()": "384",
						"initialize(string,string,address,(uint256,uint256,uint256,uint256,uint256,uint256))": "infinite",
						"lastMechanicsUpdate()": "2514",
						"lastRewardClaim(address)": "2868",
						"mechanics()": "infinite",
						"name()": "infinite",
						"owner()": "2612",
						"pause()": "infinite",
						"paused()": "2562",
						"proxiableUUID()": "infinite",
						"renounceOwnership()": "infinite",
						"socialOracle()": "infinite",
						"symbol()": "infinite",
						"totalSupply()": "2575",
						"transfer(address,uint256)": "infinite",
						"transferFrom(address,address,uint256)": "infinite",
						"transferOwnership(address)": "infinite",
						"unpause()": "infinite",
						"updateBasedOnMetrics()": "infinite",
						"updateMechanics((uint256,uint256,uint256,uint256,uint256,uint256))": "infinite",
						"updateOracle(address)": "infinite",
						"upgradeToAndCall(address,bytes)": "infinite"
					},
					"internal": {
						"_authorizeUpgrade(address)": "infinite",
						"_calculatePenalty(uint256,uint256,uint256)": "infinite",
						"_calculateReward(uint256,uint256,uint256)": "infinite",
						"_handleNegativeMetrics(struct ISocialMetricsOracle.SocialMetrics memory)": "infinite",
						"_handlePositiveMetrics(struct ISocialMetricsOracle.SocialMetrics memory)": "infinite"
					}
				},
				"methodIdentifiers": {
					"UPGRADE_INTERFACE_VERSION()": "ad3cb1cc",
					"allowance(address,address)": "dd62ed3e",
					"approve(address,uint256)": "095ea7b3",
					"balanceOf(address)": "70a08231",
					"claimReward()": "b88a802f",
					"decimals()": "313ce567",
					"initialize(string,string,address,(uint256,uint256,uint256,uint256,uint256,uint256))": "af9dcc2c",
					"lastMechanicsUpdate()": "9e24f236",
					"lastRewardClaim(address)": "d8ad5231",
					"mechanics()": "38b42785",
					"name()": "06fdde03",
					"owner()": "8da5cb5b",
					"pause()": "8456cb59",
					"paused()": "5c975abb",
					"proxiableUUID()": "52d1902d",
					"renounceOwnership()": "715018a6",
					"socialOracle()": "78f3c4b6",
					"symbol()": "95d89b41",
					"totalSupply()": "18160ddd",
					"transfer(address,uint256)": "a9059cbb",
					"transferFrom(address,address,uint256)": "23b872dd",
					"transferOwnership(address)": "f2fde38b",
					"unpause()": "3f4ba83a",
					"updateBasedOnMetrics()": "a7892c11",
					"updateMechanics((uint256,uint256,uint256,uint256,uint256,uint256))": "0b594036",
					"updateOracle(address)": "1cb44dfc",
					"upgradeToAndCall(address,bytes)": "4f1ef286"
				}
			},
			"storageLayout": {
				"storage": [
					{
						"astId": 652,
						"contract": "contracts/SocialToken.sol:SocialToken",
						"label": "_paused",
						"offset": 0,
						"slot": "0",
						"type": "t_bool"
					},
					{
						"astId": 757,
						"contract": "contracts/SocialToken.sol:SocialToken",
						"label": "__gap",
						"offset": 0,
						"slot": "1",
						"type": "t_array(t_uint256)49_storage"
					},
					{
						"astId": 2756,
						"contract": "contracts/SocialToken.sol:SocialToken",
						"label": "socialOracle",
						"offset": 0,
						"slot": "50",
						"type": "t_contract(ISocialMetricsOracle)2742"
					},
					{
						"astId": 2772,
						"contract": "contracts/SocialToken.sol:SocialToken",
						"label": "mechanics",
						"offset": 0,
						"slot": "51",
						"type": "t_struct(TokenMechanics)2769_storage"
					},
					{
						"astId": 2774,
						"contract": "contracts/SocialToken.sol:SocialToken",
						"label": "lastMechanicsUpdate",
						"offset": 0,
						"slot": "57",
						"type": "t_uint256"
					},
					{
						"astId": 2778,
						"contract": "contracts/SocialToken.sol:SocialToken",
						"label": "lastRewardClaim",
						"offset": 0,
						"slot": "58",
						"type": "t_mapping(t_address,t_uint256)"
					}
				],
				"types": {
					"t_address": {
						"encoding": "inplace",
						"label": "address",
						"numberOfBytes": "20"
					},
					"t_array(t_uint256)49_storage": {
						"base": "t_uint256",
						"encoding": "inplace",
						"label": "uint256[49]",
						"numberOfBytes": "1568"
					},
					"t_bool": {
						"encoding": "inplace",
						"label": "bool",
						"numberOfBytes": "1"
					},
					"t_contract(ISocialMetricsOracle)2742": {
						"encoding": "inplace",
						"label": "contract ISocialMetricsOracle",
						"numberOfBytes": "20"
					},
					"t_mapping(t_address,t_uint256)": {
						"encoding": "mapping",
						"key": "t_address",
						"label": "mapping(address => uint256)",
						"numberOfBytes": "32",
						"value": "t_uint256"
					},
					"t_struct(TokenMechanics)2769_storage": {
						"encoding": "inplace",
						"label": "struct SocialToken.TokenMechanics",
						"members": [
							{
								"astId": 2758,
								"contract": "contracts/SocialToken.sol:SocialToken",
								"label": "minSentimentScore",
								"offset": 0,
								"slot": "0",
								"type": "t_uint256"
							},
							{
								"astId": 2760,
								"contract": "contracts/SocialToken.sol:SocialToken",
								"label": "minEngagementRate",
								"offset": 0,
								"slot": "1",
								"type": "t_uint256"
							},
							{
								"astId": 2762,
								"contract": "contracts/SocialToken.sol:SocialToken",
								"label": "minTweetCount",
								"offset": 0,
								"slot": "2",
								"type": "t_uint256"
							},
							{
								"astId": 2764,
								"contract": "contracts/SocialToken.sol:SocialToken",
								"label": "rewardBaseAmount",
								"offset": 0,
								"slot": "3",
								"type": "t_uint256"
							},
							{
								"astId": 2766,
								"contract": "contracts/SocialToken.sol:SocialToken",
								"label": "penaltyBaseAmount",
								"offset": 0,
								"slot": "4",
								"type": "t_uint256"
							},
							{
								"astId": 2768,
								"contract": "contracts/SocialToken.sol:SocialToken",
								"label": "cooldownPeriod",
								"offset": 0,
								"slot": "5",
								"type": "t_uint256"
							}
						],
						"numberOfBytes": "192"
					},
					"t_uint256": {
						"encoding": "inplace",
						"label": "uint256",
						"numberOfBytes": "32"
					}
				}
			},
			"userdoc": {
				"kind": "user",
				"methods": {},
				"version": 1
			}
		}
	}
}