{
	"data": {
		"bytecode": {
			"linkReferences": {},
			"object": "60a06040523073ffffffffffffffffffffffffffffffffffffffff1660809073ffffffffffffffffffffffffffffffffffffffff16815250348015610042575f80fd5b5061005161005660201b60201c565b6101b6565b5f61006561015460201b60201c565b9050805f0160089054906101000a900460ff16156100af576040517ff92ee8a900000000000000000000000000000000000000000000000000000000815260040160405180910390fd5b67ffffffffffffffff8016815f015f9054906101000a900467ffffffffffffffff1667ffffffffffffffff16146101515767ffffffffffffffff815f015f6101000a81548167ffffffffffffffff021916908367ffffffffffffffff1602179055507fc7f505b2f371ae2175ee4913f4499e1f2633a7b5936321eed1cdaeb6115181d267ffffffffffffffff604051610148919061019d565b60405180910390a15b50565b5f7ff0c57e16840df040f15088dc2f81fe391c3923bec73e23a9662efc9c229c6a00905090565b5f67ffffffffffffffff82169050919050565b6101978161017b565b82525050565b5f6020820190506101b05f83018461018e565b92915050565b6080516136fe6101dc5f395f8181611559015281816115ae015261176801526136fe5ff3fe60806040526004361061019b575f3560e01c8063715018a6116100eb578063a9059cbb11610089578063b88a802f11610063578063b88a802f1461054e578063d8ad523114610564578063dd62ed3e146105a0578063f2fde38b146105dc5761019b565b8063a9059cbb146104c0578063ad3cb1cc146104fc578063af9dcc2c146105265761019b565b80638da5cb5b116100c55780638da5cb5b1461042c57806395d89b41146104565780639e24f23614610480578063a7892c11146104aa5761019b565b8063715018a6146103d657806378f3c4b6146103ec5780638456cb59146104165761019b565b8063313ce567116101585780634f1ef286116101325780634f1ef2861461032a57806352d1902d146103465780635c975abb1461037057806370a082311461039a5761019b565b8063313ce567146102bb57806338b42785146102e55780633f4ba83a146103145761019b565b806306fdde031461019f578063095ea7b3146101c95780630b5940361461020557806318160ddd1461022d5780631cb44dfc1461025757806323b872dd1461027f575b5f80fd5b3480156101aa575f80fd5b506101b3610604565b6040516101c091906126be565b60405180910390f35b3480156101d4575f80fd5b506101ef60048036038101906101ea919061277c565b6106a2565b6040516101fc91906127d4565b60405180910390f35b348015610210575f80fd5b5061022b60048036038101906102269190612906565b6106c4565b005b348015610238575f80fd5b50610241610746565b60405161024e9190612940565b60405180910390f35b348015610262575f80fd5b5061027d60048036038101906102789190612959565b61075d565b005b34801561028a575f80fd5b506102a560048036038101906102a09190612984565b610850565b6040516102b291906127d4565b60405180910390f35b3480156102c6575f80fd5b506102cf61087e565b6040516102dc91906129ef565b60405180910390f35b3480156102f0575f80fd5b506102f9610886565b60405161030b96959493929190612a08565b60405180910390f35b34801561031f575f80fd5b506103286108af565b005b610344600480360381019061033f9190612b1b565b6108c1565b005b348015610351575f80fd5b5061035a6108e0565b6040516103679190612b8d565b60405180910390f35b34801561037b575f80fd5b50610384610911565b60405161039191906127d4565b60405180910390f35b3480156103a5575f80fd5b506103c060048036038101906103bb9190612959565b610925565b6040516103cd9190612940565b60405180910390f35b3480156103e1575f80fd5b506103ea610978565b005b3480156103f7575f80fd5b5061040061098b565b60405161040d9190612c01565b60405180910390f35b348015610421575f80fd5b5061042a6109b0565b005b348015610437575f80fd5b506104406109c2565b60405161044d9190612c29565b60405180910390f35b348015610461575f80fd5b5061046a6109f7565b60405161047791906126be565b60405180910390f35b34801561048b575f80fd5b50610494610a95565b6040516104a19190612940565b60405180910390f35b3480156104b5575f80fd5b506104be610a9b565b005b3480156104cb575f80fd5b506104e660048036038101906104e1919061277c565b610ce5565b6040516104f391906127d4565b60405180910390f35b348015610507575f80fd5b50610510610d07565b60405161051d91906126be565b60405180910390f35b348015610531575f80fd5b5061054c60048036038101906105479190612ce0565b610d40565b005b348015610559575f80fd5b50610562610fee565b005b34801561056f575f80fd5b5061058a60048036038101906105859190612959565b611185565b6040516105979190612940565b60405180910390f35b3480156105ab575f80fd5b506105c660048036038101906105c19190612d7d565b61119a565b6040516105d39190612940565b60405180910390f35b3480156105e7575f80fd5b5061060260048036038101906105fd9190612959565b61122a565b005b60605f61060f6112ae565b905080600301805461062090612de8565b80601f016020809104026020016040519081016040528092919081815260200182805461064c90612de8565b80156106975780601f1061066e57610100808354040283529160200191610697565b820191905f5260205f20905b81548152906001019060200180831161067a57829003601f168201915b505050505091505090565b5f806106ac6112d5565b90506106b98185856112dc565b600191505092915050565b6106cc6112ee565b8060335f820151815f01556020820151816001015560408201518160020155606082015181600301556080820151816004015560a082015181600501559050507f367b6b00685ae263e44e2231e399d2e112eac1979516a9e0e1069d7cd4ac3a2d8160405161073b9190612ea0565b60405180910390a150565b5f806107506112ae565b9050806002015491505090565b6107656112ee565b5f73ffffffffffffffffffffffffffffffffffffffff168173ffffffffffffffffffffffffffffffffffffffff16036107ca576040517f5521068100000000000000000000000000000000000000000000000000000000815260040160405180910390fd5b8060325f6101000a81548173ffffffffffffffffffffffffffffffffffffffff021916908373ffffffffffffffffffffffffffffffffffffffff1602179055508073ffffffffffffffffffffffffffffffffffffffff167f3df77beb5db05fcdd70a30fc8adf3f83f9501b68579455adbd100b818094039460405160405180910390a250565b5f8061085a6112d5565b9050610867858285611375565b610872858585611407565b60019150509392505050565b5f6012905090565b6033805f0154908060010154908060020154908060030154908060040154908060050154905086565b6108b76112ee565b6108bf6114f7565b565b6108c9611557565b6108d28261163d565b6108dc8282611648565b5050565b5f6108e9611766565b7f360894a13ba1a3210667c828492db98dca3e2076cc3735a920a3ca505d382bbc5f1b905090565b5f805f9054906101000a900460ff16905090565b5f8061092f6112ae565b9050805f015f8473ffffffffffffffffffffffffffffffffffffffff1673ffffffffffffffffffffffffffffffffffffffff1681526020019081526020015f2054915050919050565b6109806112ee565b6109895f6117ed565b565b60325f9054906101000a900473ffffffffffffffffffffffffffffffffffffffff1681565b6109b86112ee565b6109c06118be565b565b5f806109cc61191f565b9050805f015f9054906101000a900473ffffffffffffffffffffffffffffffffffffffff1691505090565b60605f610a026112ae565b9050806004018054610a1390612de8565b80601f0160208091040260200160405190810160405280929190818152602001828054610a3f90612de8565b8015610a8a5780601f10610a6157610100808354040283529160200191610a8a565b820191905f5260205f20905b815481529060010190602001808311610a6d57829003601f168201915b505050505091505090565b60395481565b610aa3611946565b603360050154603954610ab69190612ee6565b421015610aef576040517f4a448f3700000000000000000000000000000000000000000000000000000000815260040160405180910390fd5b5f60325f9054906101000a900473ffffffffffffffffffffffffffffffffffffffff1673ffffffffffffffffffffffffffffffffffffffff1663395924dc6040518163ffffffff1660e01b8152600401608060405180830381865afa158015610b5a573d5f803e3d5ffd5b505050506040513d601f19601f82011682018060405250810190610b7e9190612fa2565b9050610e10816060015142610b939190612fcd565b1115610bcb576040517f7428474c00000000000000000000000000000000000000000000000000000000815260040160405180910390fd5b603360020154815f01511015610c0d576040517fda2029d100000000000000000000000000000000000000000000000000000000815260040160405180910390fd5b60335f0154816020015110158015610c2e5750603360010154816040015110155b15610c4157610c3c81611990565b610c4b565b610c4a81611a07565b5b4260398190555060325f9054906101000a900473ffffffffffffffffffffffffffffffffffffffff1673ffffffffffffffffffffffffffffffffffffffff166309c22c5d6040518163ffffffff1660e01b81526004016020604051808303815f875af1158015610cbd573d5f803e3d5ffd5b505050506040513d601f19601f82011682018060405250810190610ce1919061302a565b5050565b5f80610cef6112d5565b9050610cfc818585611407565b600191505092915050565b6040518060400160405280600581526020017f352e302e3000000000000000000000000000000000000000000000000000000081525081565b5f610d49611a7e565b90505f815f0160089054906101000a900460ff161590505f825f015f9054906101000a900467ffffffffffffffff1690505f808267ffffffffffffffff16148015610d915750825b90505f60018367ffffffffffffffff16148015610dc457505f3073ffffffffffffffffffffffffffffffffffffffff163b145b905081158015610dd2575080155b15610e09576040517ff92ee8a900000000000000000000000000000000000000000000000000000000815260040160405180910390fd5b6001855f015f6101000a81548167ffffffffffffffff021916908367ffffffffffffffff1602179055508315610e56576001855f0160086101000a81548160ff0219169083151502179055505b610e608989611aa5565b610e6933611abb565b610e71611acf565b610e79611ae1565b5f73ffffffffffffffffffffffffffffffffffffffff168773ffffffffffffffffffffffffffffffffffffffff1603610ede576040517f5521068100000000000000000000000000000000000000000000000000000000815260040160405180910390fd5b8660325f6101000a81548173ffffffffffffffffffffffffffffffffffffffff021916908373ffffffffffffffffffffffffffffffffffffffff1602179055508560335f820151815f01556020820151816001015560408201518160020155606082015181600301556080820151816004015560a08201518160050155905050610f8933610f6a61087e565b600a610f769190613184565b620f4240610f8491906131ce565b611aeb565b8315610fe3575f855f0160086101000a81548160ff0219169083151502179055507fc7f505b2f371ae2175ee4913f4499e1f2633a7b5936321eed1cdaeb6115181d26001604051610fda919061325b565b60405180910390a15b505050505050505050565b610ff6611946565b603360050154603a5f3373ffffffffffffffffffffffffffffffffffffffff1673ffffffffffffffffffffffffffffffffffffffff1681526020019081526020015f20546110449190612ee6565b42101561107d576040517f2bc08a7300000000000000000000000000000000000000000000000000000000815260040160405180910390fd5b5f60325f9054906101000a900473ffffffffffffffffffffffffffffffffffffffff1673ffffffffffffffffffffffffffffffffffffffff1663395924dc6040518163ffffffff1660e01b8152600401608060405180830381865afa1580156110e8573d5f803e3d5ffd5b505050506040513d601f19601f8201168201806040525081019061110c9190612fa2565b90505f61112a8260200151836040015161112533610925565b611b6a565b90505f8111156111815761113e3382611aeb565b42603a5f3373ffffffffffffffffffffffffffffffffffffffff1673ffffffffffffffffffffffffffffffffffffffff1681526020019081526020015f20819055505b5050565b603a602052805f5260405f205f915090505481565b5f806111a46112ae565b9050806001015f8573ffffffffffffffffffffffffffffffffffffffff1673ffffffffffffffffffffffffffffffffffffffff1681526020019081526020015f205f8473ffffffffffffffffffffffffffffffffffffffff1673ffffffffffffffffffffffffffffffffffffffff1681526020019081526020015f205491505092915050565b6112326112ee565b5f73ffffffffffffffffffffffffffffffffffffffff168173ffffffffffffffffffffffffffffffffffffffff16036112a2575f6040517f1e4fbdf70000000000000000000000000000000000000000000000000000000081526004016112999190612c29565b60405180910390fd5b6112ab816117ed565b50565b5f7f52c63247e1f47db19d5ce0460030c497f067ca4cebf71ba98eeadabe20bace00905090565b5f33905090565b6112e98383836001611c0e565b505050565b6112f66112d5565b73ffffffffffffffffffffffffffffffffffffffff166113146109c2565b73ffffffffffffffffffffffffffffffffffffffff1614611373576113376112d5565b6040517f118cdaa700000000000000000000000000000000000000000000000000000000815260040161136a9190612c29565b60405180910390fd5b565b5f611380848461119a565b90507fffffffffffffffffffffffffffffffffffffffffffffffffffffffffffffffff811461140157818110156113f2578281836040517ffb8f41b20000000000000000000000000000000000000000000000000000000081526004016113e993929190613274565b60405180910390fd5b61140084848484035f611c0e565b5b50505050565b5f73ffffffffffffffffffffffffffffffffffffffff168373ffffffffffffffffffffffffffffffffffffffff1603611477575f6040517f96c6fd1e00000000000000000000000000000000000000000000000000000000815260040161146e9190612c29565b60405180910390fd5b5f73ffffffffffffffffffffffffffffffffffffffff168273ffffffffffffffffffffffffffffffffffffffff16036114e7575f6040517fec442f050000000000000000000000000000000000000000000000000000000081526004016114de9190612c29565b60405180910390fd5b6114f2838383611deb565b505050565b6114ff61201a565b5f805f6101000a81548160ff0219169083151502179055507f5db9ee0a495bf2e6ff9c91a7834c1ba4fdd244a5e8aa4e537bd38aeae4b073aa6115406112d5565b60405161154d9190612c29565b60405180910390a1565b7f000000000000000000000000000000000000000000000000000000000000000073ffffffffffffffffffffffffffffffffffffffff163073ffffffffffffffffffffffffffffffffffffffff16148061160457507f000000000000000000000000000000000000000000000000000000000000000073ffffffffffffffffffffffffffffffffffffffff166115eb612063565b73ffffffffffffffffffffffffffffffffffffffff1614155b1561163b576040517fe07c8dba00000000000000000000000000000000000000000000000000000000815260040160405180910390fd5b565b6116456112ee565b50565b8173ffffffffffffffffffffffffffffffffffffffff166352d1902d6040518163ffffffff1660e01b8152600401602060405180830381865afa9250505080156116b057506040513d601f19601f820116820180604052508101906116ad919061302a565b60015b6116f157816040517f4c9c8ce30000000000000000000000000000000000000000000000000000000081526004016116e89190612c29565b60405180910390fd5b7f360894a13ba1a3210667c828492db98dca3e2076cc3735a920a3ca505d382bbc5f1b811461175757806040517faa1d49a400000000000000000000000000000000000000000000000000000000815260040161174e9190612b8d565b60405180910390fd5b61176183836120b6565b505050565b7f000000000000000000000000000000000000000000000000000000000000000073ffffffffffffffffffffffffffffffffffffffff163073ffffffffffffffffffffffffffffffffffffffff16146117eb576040517fe07c8dba00000000000000000000000000000000000000000000000000000000815260040160405180910390fd5b565b5f6117f661191f565b90505f815f015f9054906101000a900473ffffffffffffffffffffffffffffffffffffffff16905082825f015f6101000a81548173ffffffffffffffffffffffffffffffffffffffff021916908373ffffffffffffffffffffffffffffffffffffffff1602179055508273ffffffffffffffffffffffffffffffffffffffff168173ffffffffffffffffffffffffffffffffffffffff167f8be0079c531659141344cd1fd0a4f28419497f9722a3daafe3b4186f6b6457e060405160405180910390a3505050565b6118c6611946565b60015f806101000a81548160ff0219169083151502179055507f62e78cea01bee320cd4e420270b5ea74000d11b0c9f74754ebdbfc544b05a2586119086112d5565b6040516119159190612c29565b60405180910390a1565b5f7f9016d09d72d40fdae2fd8ceac6b6234c7706214fd39c1cd1e609a0528c199300905090565b61194e610911565b1561198e576040517f08c379a0000000000000000000000000000000000000000000000000000000008152600401611985906132f3565b60405180910390fd5b565b5f6119ab826020015183604001516119a6610746565b611b6a565b90505f811115611a03576119bf3082612128565b7fda04004d58812f3e164f58e498158acca1b0054d975fce0e3bafdf56f2e254ba81836020015184604001516040516119fa93929190613311565b60405180910390a15b5050565b5f611a2282602001518360400151611a1d610746565b6121a7565b90505f811115611a7a57611a363082611aeb565b7f0958e73d0165cd8413c567ddcfecfbdfb06498a561de5cd56849c2b463f66cdf8183602001518460400151604051611a7193929190613311565b60405180910390a15b5050565b5f7ff0c57e16840df040f15088dc2f81fe391c3923bec73e23a9662efc9c229c6a00905090565b611aad612270565b611ab782826122b0565b5050565b611ac3612270565b611acc816122ec565b50565b611ad7612270565b611adf612370565b565b611ae9612270565b565b5f73ffffffffffffffffffffffffffffffffffffffff168273ffffffffffffffffffffffffffffffffffffffff1603611b5b575f6040517fec442f05000000000000000000000000000000000000000000000000000000008152600401611b529190612c29565b60405180910390fd5b611b665f8383611deb565b5050565b5f80611b8360335f01548661239290919063ffffffff16565b90505f611b9e6033600101548661239290919063ffffffff16565b9050611c036064611bf5612710611be788611bd987611bcb8a6033600301546123a790919063ffffffff16565b6123a790919063ffffffff16565b6123a790919063ffffffff16565b6123bc90919063ffffffff16565b6123bc90919063ffffffff16565b925050509392505050565b5f611c176112ae565b90505f73ffffffffffffffffffffffffffffffffffffffff168573ffffffffffffffffffffffffffffffffffffffff1603611c89575f6040517fe602df05000000000000000000000000000000000000000000000000000000008152600401611c809190612c29565b60405180910390fd5b5f73ffffffffffffffffffffffffffffffffffffffff168473ffffffffffffffffffffffffffffffffffffffff1603611cf9575f6040517f94280d62000000000000000000000000000000000000000000000000000000008152600401611cf09190612c29565b60405180910390fd5b82816001015f8773ffffffffffffffffffffffffffffffffffffffff1673ffffffffffffffffffffffffffffffffffffffff1681526020019081526020015f205f8673ffffffffffffffffffffffffffffffffffffffff1673ffffffffffffffffffffffffffffffffffffffff1681526020019081526020015f20819055508115611de4578373ffffffffffffffffffffffffffffffffffffffff168573ffffffffffffffffffffffffffffffffffffffff167f8c5be1e5ebec7d5bd14f71427d1e84f3dd0314c0f7b2291e5b200ac8c7c3b92585604051611ddb9190612940565b60405180910390a35b5050505050565b5f611df46112ae565b90505f73ffffffffffffffffffffffffffffffffffffffff168473ffffffffffffffffffffffffffffffffffffffff1603611e485781816002015f828254611e3c9190612ee6565b92505081905550611f1a565b5f815f015f8673ffffffffffffffffffffffffffffffffffffffff1673ffffffffffffffffffffffffffffffffffffffff1681526020019081526020015f2054905082811015611ed3578481846040517fe450d38c000000000000000000000000000000000000000000000000000000008152600401611eca93929190613274565b60405180910390fd5b828103825f015f8773ffffffffffffffffffffffffffffffffffffffff1673ffffffffffffffffffffffffffffffffffffffff1681526020019081526020015f2081905550505b5f73ffffffffffffffffffffffffffffffffffffffff168373ffffffffffffffffffffffffffffffffffffffff1603611f635781816002015f8282540392505081905550611faf565b81815f015f8573ffffffffffffffffffffffffffffffffffffffff1673ffffffffffffffffffffffffffffffffffffffff1681526020019081526020015f205f82825401925050819055505b8273ffffffffffffffffffffffffffffffffffffffff168473ffffffffffffffffffffffffffffffffffffffff167fddf252ad1be2c89b69c2b068fc378daa952ba7f163c4a11628f55a4df523b3ef8460405161200c9190612940565b60405180910390a350505050565b612022610911565b612061576040517f08c379a000000000000000000000000000000000000000000000000000000000815260040161205890613390565b60405180910390fd5b565b5f61208f7f360894a13ba1a3210667c828492db98dca3e2076cc3735a920a3ca505d382bbc5f1b6123d1565b5f015f9054906101000a900473ffffffffffffffffffffffffffffffffffffffff16905090565b6120bf826123da565b8173ffffffffffffffffffffffffffffffffffffffff167fbc7cd75a20ee27fd9adebab32041f755214dbc6bffa90cc0225b39da2e5c2d3b60405160405180910390a25f8151111561211b5761211582826124a3565b50612124565b612123612523565b5b5050565b5f73ffffffffffffffffffffffffffffffffffffffff168273ffffffffffffffffffffffffffffffffffffffff1603612198575f6040517f96c6fd1e00000000000000000000000000000000000000000000000000000000815260040161218f9190612c29565b60405180910390fd5b6121a3825f83611deb565b5050565b5f808460335f0154116121ba575f6121d2565b6121d18560335f015461239290919063ffffffff16565b5b90505f84603360010154116121e7575f612200565b6121ff8560336001015461239290919063ffffffff16565b5b905061226560646122576127106122498861223b8761222d8a6033600401546123a790919063ffffffff16565b6123a790919063ffffffff16565b6123a790919063ffffffff16565b6123bc90919063ffffffff16565b6123bc90919063ffffffff16565b925050509392505050565b61227861255f565b6122ae576040517fd7e6bcf800000000000000000000000000000000000000000000000000000000815260040160405180910390fd5b565b6122b8612270565b5f6122c16112ae565b9050828160030190816122d49190613542565b50818160040190816122e69190613542565b50505050565b6122f4612270565b5f73ffffffffffffffffffffffffffffffffffffffff168173ffffffffffffffffffffffffffffffffffffffff1603612364575f6040517f1e4fbdf700000000000000000000000000000000000000000000000000000000815260040161235b9190612c29565b60405180910390fd5b61236d816117ed565b50565b612378612270565b5f805f6101000a81548160ff021916908315150217905550565b5f818361239f9190612fcd565b905092915050565b5f81836123b491906131ce565b905092915050565b5f81836123c9919061363e565b905092915050565b5f819050919050565b5f8173ffffffffffffffffffffffffffffffffffffffff163b0361243557806040517f4c9c8ce300000000000000000000000000000000000000000000000000000000815260040161242c9190612c29565b60405180910390fd5b806124617f360894a13ba1a3210667c828492db98dca3e2076cc3735a920a3ca505d382bbc5f1b6123d1565b5f015f6101000a81548173ffffffffffffffffffffffffffffffffffffffff021916908373ffffffffffffffffffffffffffffffffffffffff16021790555050565b60605f808473ffffffffffffffffffffffffffffffffffffffff16846040516124cc91906136b2565b5f60405180830381855af49150503d805f8114612504576040519150601f19603f3d011682016040523d82523d5f602084013e612509565b606091505b509150915061251985838361257d565b9250505092915050565b5f34111561255d576040517fb398979f00000000000000000000000000000000000000000000000000000000815260040160405180910390fd5b565b5f612568611a7e565b5f0160089054906101000a900460ff16905090565b6060826125925761258d8261260a565b612602565b5f82511480156125b857505f8473ffffffffffffffffffffffffffffffffffffffff163b145b156125fa57836040517f9996b3150000000000000000000000000000000000000000000000000000000081526004016125f19190612c29565b60405180910390fd5b819050612603565b5b9392505050565b5f8151111561261c5780518082602001fd5b6040517fd6bda27500000000000000000000000000000000000000000000000000000000815260040160405180910390fd5b5f81519050919050565b5f82825260208201905092915050565b8281835e5f83830152505050565b5f601f19601f8301169050919050565b5f6126908261264e565b61269a8185612658565b93506126aa818560208601612668565b6126b381612676565b840191505092915050565b5f6020820190508181035f8301526126d68184612686565b905092915050565b5f604051905090565b5f80fd5b5f80fd5b5f73ffffffffffffffffffffffffffffffffffffffff82169050919050565b5f612718826126ef565b9050919050565b6127288161270e565b8114612732575f80fd5b50565b5f813590506127438161271f565b92915050565b5f819050919050565b61275b81612749565b8114612765575f80fd5b50565b5f8135905061277681612752565b92915050565b5f8060408385031215612792576127916126e7565b5b5f61279f85828601612735565b92505060206127b085828601612768565b9150509250929050565b5f8115159050919050565b6127ce816127ba565b82525050565b5f6020820190506127e75f8301846127c5565b92915050565b5f80fd5b7f4e487b71000000000000000000000000000000000000000000000000000000005f52604160045260245ffd5b61282782612676565b810181811067ffffffffffffffff82111715612846576128456127f1565b5b80604052505050565b5f6128586126de565b9050612864828261281e565b919050565b5f60c0828403121561287e5761287d6127ed565b5b61288860c061284f565b90505f61289784828501612768565b5f8301525060206128aa84828501612768565b60208301525060406128be84828501612768565b60408301525060606128d284828501612768565b60608301525060806128e684828501612768565b60808301525060a06128fa84828501612768565b60a08301525092915050565b5f60c0828403121561291b5761291a6126e7565b5b5f61292884828501612869565b91505092915050565b61293a81612749565b82525050565b5f6020820190506129535f830184612931565b92915050565b5f6020828403121561296e5761296d6126e7565b5b5f61297b84828501612735565b91505092915050565b5f805f6060848603121561299b5761299a6126e7565b5b5f6129a886828701612735565b93505060206129b986828701612735565b92505060406129ca86828701612768565b9150509250925092565b5f60ff82169050919050565b6129e9816129d4565b82525050565b5f602082019050612a025f8301846129e0565b92915050565b5f60c082019050612a1b5f830189612931565b612a286020830188612931565b612a356040830187612931565b612a426060830186612931565b612a4f6080830185612931565b612a5c60a0830184612931565b979650505050505050565b5f80fd5b5f80fd5b5f67ffffffffffffffff821115612a8957612a886127f1565b5b612a9282612676565b9050602081019050919050565b828183375f83830152505050565b5f612abf612aba84612a6f565b61284f565b905082815260208101848484011115612adb57612ada612a6b565b5b612ae6848285612a9f565b509392505050565b5f82601f830112612b0257612b01612a67565b5b8135612b12848260208601612aad565b91505092915050565b5f8060408385031215612b3157612b306126e7565b5b5f612b3e85828601612735565b925050602083013567ffffffffffffffff811115612b5f57612b5e6126eb565b5b612b6b85828601612aee565b9150509250929050565b5f819050919050565b612b8781612b75565b82525050565b5f602082019050612ba05f830184612b7e565b92915050565b5f819050919050565b5f612bc9612bc4612bbf846126ef565b612ba6565b6126ef565b9050919050565b5f612bda82612baf565b9050919050565b5f612beb82612bd0565b9050919050565b612bfb81612be1565b82525050565b5f602082019050612c145f830184612bf2565b92915050565b612c238161270e565b82525050565b5f602082019050612c3c5f830184612c1a565b92915050565b5f67ffffffffffffffff821115612c5c57612c5b6127f1565b5b612c6582612676565b9050602081019050919050565b5f612c84612c7f84612c42565b61284f565b905082815260208101848484011115612ca057612c9f612a6b565b5b612cab848285612a9f565b509392505050565b5f82601f830112612cc757612cc6612a67565b5b8135612cd7848260208601612c72565b91505092915050565b5f805f806101208587031215612cf957612cf86126e7565b5b5f85013567ffffffffffffffff811115612d1657612d156126eb565b5b612d2287828801612cb3565b945050602085013567ffffffffffffffff811115612d4357612d426126eb565b5b612d4f87828801612cb3565b9350506040612d6087828801612735565b9250506060612d7187828801612869565b91505092959194509250565b5f8060408385031215612d9357612d926126e7565b5b5f612da085828601612735565b9250506020612db185828601612735565b9150509250929050565b7f4e487b71000000000000000000000000000000000000000000000000000000005f52602260045260245ffd5b5f6002820490506001821680612dff57607f821691505b602082108103612e1257612e11612dbb565b5b50919050565b612e2181612749565b82525050565b60c082015f820151612e3b5f850182612e18565b506020820151612e4e6020850182612e18565b506040820151612e616040850182612e18565b506060820151612e746060850182612e18565b506080820151612e876080850182612e18565b5060a0820151612e9a60a0850182612e18565b50505050565b5f60c082019050612eb35f830184612e27565b92915050565b7f4e487b71000000000000000000000000000000000000000000000000000000005f52601160045260245ffd5b5f612ef082612749565b9150612efb83612749565b9250828201905080821115612f1357612f12612eb9565b5b92915050565b5f81519050612f2781612752565b92915050565b5f60808284031215612f4257612f416127ed565b5b612f4c608061284f565b90505f612f5b84828501612f19565b5f830152506020612f6e84828501612f19565b6020830152506040612f8284828501612f19565b6040830152506060612f9684828501612f19565b60608301525092915050565b5f60808284031215612fb757612fb66126e7565b5b5f612fc484828501612f2d565b91505092915050565b5f612fd782612749565b9150612fe283612749565b9250828203905081811115612ffa57612ff9612eb9565b5b92915050565b61300981612b75565b8114613013575f80fd5b50565b5f8151905061302481613000565b92915050565b5f6020828403121561303f5761303e6126e7565b5b5f61304c84828501613016565b91505092915050565b5f8160011c9050919050565b5f808291508390505b60018511156130aa5780860481111561308657613085612eb9565b5b60018516156130955780820291505b80810290506130a385613055565b945061306a565b94509492505050565b5f826130c2576001905061317d565b816130cf575f905061317d565b81600181146130e557600281146130ef5761311e565b600191505061317d565b60ff84111561310157613100612eb9565b5b8360020a91508482111561311857613117612eb9565b5b5061317d565b5060208310610133831016604e8410600b84101617156131535782820a90508381111561314e5761314d612eb9565b5b61317d565b6131608484846001613061565b9250905081840481111561317757613176612eb9565b5b81810290505b9392505050565b5f61318e82612749565b9150613199836129d4565b92506131c67fffffffffffffffffffffffffffffffffffffffffffffffffffffffffffffffff84846130b3565b905092915050565b5f6131d882612749565b91506131e383612749565b92508282026131f181612749565b9150828204841483151761320857613207612eb9565b5b5092915050565b5f819050919050565b5f67ffffffffffffffff82169050919050565b5f61324561324061323b8461320f565b612ba6565b613218565b9050919050565b6132558161322b565b82525050565b5f60208201905061326e5f83018461324c565b92915050565b5f6060820190506132875f830186612c1a565b6132946020830185612931565b6132a16040830184612931565b949350505050565b7f5061757361626c653a20706175736564000000000000000000000000000000005f82015250565b5f6132dd601083612658565b91506132e8826132a9565b602082019050919050565b5f6020820190508181035f83015261330a816132d1565b9050919050565b5f6060820190506133245f830186612931565b6133316020830185612931565b61333e6040830184612931565b949350505050565b7f5061757361626c653a206e6f74207061757365640000000000000000000000005f82015250565b5f61337a601483612658565b915061338582613346565b602082019050919050565b5f6020820190508181035f8301526133a78161336e565b9050919050565b5f819050815f5260205f209050919050565b5f6020601f8301049050919050565b5f82821b905092915050565b5f6008830261340a7fffffffffffffffffffffffffffffffffffffffffffffffffffffffffffffffff826133cf565b61341486836133cf565b95508019841693508086168417925050509392505050565b5f61344661344161343c84612749565b612ba6565b612749565b9050919050565b5f819050919050565b61345f8361342c565b61347361346b8261344d565b8484546133db565b825550505050565b5f90565b61348761347b565b613492818484613456565b505050565b5b818110156134b5576134aa5f8261347f565b600181019050613498565b5050565b601f8211156134fa576134cb816133ae565b6134d4846133c0565b810160208510156134e3578190505b6134f76134ef856133c0565b830182613497565b50505b505050565b5f82821c905092915050565b5f61351a5f19846008026134ff565b1980831691505092915050565b5f613532838361350b565b9150826002028217905092915050565b61354b8261264e565b67ffffffffffffffff811115613564576135636127f1565b5b61356e8254612de8565b6135798282856134b9565b5f60209050601f8311600181146135aa575f8415613598578287015190505b6135a28582613527565b865550613609565b601f1984166135b8866133ae565b5f5b828110156135df578489015182556001820191506020850194506020810190506135ba565b868310156135fc57848901516135f8601f89168261350b565b8355505b6001600288020188555050505b505050505050565b7f4e487b71000000000000000000000000000000000000000000000000000000005f52601260045260245ffd5b5f61364882612749565b915061365383612749565b92508261366357613662613611565b5b828204905092915050565b5f81519050919050565b5f81905092915050565b5f61368c8261366e565b6136968185613678565b93506136a6818560208601612668565b80840191505092915050565b5f6136bd8284613682565b91508190509291505056fea26469706673582212203406afcfbef0cc43887d8e4bdcf1a33f1a2c81e6f089e3f0f05a18f9b7b0174b64736f6c634300081a0033",
			"opcodes": "PUSH1 0xA0 PUSH1 0x40 MSTORE ADDRESS PUSH20 0xFFFFFFFFFFFFFFFFFFFFFFFFFFFFFFFFFFFFFFFF AND PUSH1 0x80 SWAP1 PUSH20 0xFFFFFFFFFFFFFFFFFFFFFFFFFFFFFFFFFFFFFFFF AND DUP2 MSTORE POP CALLVALUE DUP1 ISZERO PUSH2 0x42 JUMPI PUSH0 DUP1 REVERT JUMPDEST POP PUSH2 0x51 PUSH2 0x56 PUSH1 0x20 SHL PUSH1 0x20 SHR JUMP JUMPDEST PUSH2 0x1B6 JUMP JUMPDEST PUSH0 PUSH2 0x65 PUSH2 0x154 PUSH1 0x20 SHL PUSH1 0x20 SHR JUMP JUMPDEST SWAP1 POP DUP1 PUSH0 ADD PUSH1 0x8 SWAP1 SLOAD SWAP1 PUSH2 0x100 EXP SWAP1 DIV PUSH1 0xFF AND ISZERO PUSH2 0xAF JUMPI PUSH1 0x40 MLOAD PUSH32 0xF92EE8A900000000000000000000000000000000000000000000000000000000 DUP2 MSTORE PUSH1 0x4 ADD PUSH1 0x40 MLOAD DUP1 SWAP2 SUB SWAP1 REVERT JUMPDEST PUSH8 0xFFFFFFFFFFFFFFFF DUP1 AND DUP2 PUSH0 ADD PUSH0 SWAP1 SLOAD SWAP1 PUSH2 0x100 EXP SWAP1 DIV PUSH8 0xFFFFFFFFFFFFFFFF AND PUSH8 0xFFFFFFFFFFFFFFFF AND EQ PUSH2 0x151 JUMPI PUSH8 0xFFFFFFFFFFFFFFFF DUP2 PUSH0 ADD PUSH0 PUSH2 0x100 EXP DUP2 SLOAD DUP2 PUSH8 0xFFFFFFFFFFFFFFFF MUL NOT AND SWAP1 DUP4 PUSH8 0xFFFFFFFFFFFFFFFF AND MUL OR SWAP1 SSTORE POP PUSH32 0xC7F505B2F371AE2175EE4913F4499E1F2633A7B5936321EED1CDAEB6115181D2 PUSH8 0xFFFFFFFFFFFFFFFF PUSH1 0x40 MLOAD PUSH2 0x148 SWAP2 SWAP1 PUSH2 0x19D JUMP JUMPDEST PUSH1 0x40 MLOAD DUP1 SWAP2 SUB SWAP1 LOG1 JUMPDEST POP JUMP JUMPDEST PUSH0 PUSH32 0xF0C57E16840DF040F15088DC2F81FE391C3923BEC73E23A9662EFC9C229C6A00 SWAP1 POP SWAP1 JUMP JUMPDEST PUSH0 PUSH8 0xFFFFFFFFFFFFFFFF DUP3 AND SWAP1 POP SWAP2 SWAP1 POP JUMP JUMPDEST PUSH2 0x197 DUP2 PUSH2 0x17B JUMP JUMPDEST DUP3 MSTORE POP POP JUMP JUMPDEST PUSH0 PUSH1 0x20 DUP3 ADD SWAP1 POP PUSH2 0x1B0 PUSH0 DUP4 ADD DUP5 PUSH2 0x18E JUMP JUMPDEST SWAP3 SWAP2 POP POP JUMP JUMPDEST PUSH1 0x80 MLOAD PUSH2 0x36FE PUSH2 0x1DC PUSH0 CODECOPY PUSH0 DUP2 DUP2 PUSH2 0x1559 ADD MSTORE DUP2 DUP2 PUSH2 0x15AE ADD MSTORE PUSH2 0x1768 ADD MSTORE PUSH2 0x36FE PUSH0 RETURN INVALID PUSH1 0x80 PUSH1 0x40 MSTORE PUSH1 0x4 CALLDATASIZE LT PUSH2 0x19B JUMPI PUSH0 CALLDATALOAD PUSH1 0xE0 SHR DUP1 PUSH4 0x715018A6 GT PUSH2 0xEB JUMPI DUP1 PUSH4 0xA9059CBB GT PUSH2 0x89 JUMPI DUP1 PUSH4 0xB88A802F GT PUSH2 0x63 JUMPI DUP1 PUSH4 0xB88A802F EQ PUSH2 0x54E JUMPI DUP1 PUSH4 0xD8AD5231 EQ PUSH2 0x564 JUMPI DUP1 PUSH4 0xDD62ED3E EQ PUSH2 0x5A0 JUMPI DUP1 PUSH4 0xF2FDE38B EQ PUSH2 0x5DC JUMPI PUSH2 0x19B JUMP JUMPDEST DUP1 PUSH4 0xA9059CBB EQ PUSH2 0x4C0 JUMPI DUP1 PUSH4 0xAD3CB1CC EQ PUSH2 0x4FC JUMPI DUP1 PUSH4 0xAF9DCC2C EQ PUSH2 0x526 JUMPI PUSH2 0x19B JUMP JUMPDEST DUP1 PUSH4 0x8DA5CB5B GT PUSH2 0xC5 JUMPI DUP1 PUSH4 0x8DA5CB5B EQ PUSH2 0x42C JUMPI DUP1 PUSH4 0x95D89B41 EQ PUSH2 0x456 JUMPI DUP1 PUSH4 0x9E24F236 EQ PUSH2 0x480 JUMPI DUP1 PUSH4 0xA7892C11 EQ PUSH2 0x4AA JUMPI PUSH2 0x19B JUMP JUMPDEST DUP1 PUSH4 0x715018A6 EQ PUSH2 0x3D6 JUMPI DUP1 PUSH4 0x78F3C4B6 EQ PUSH2 0x3EC JUMPI DUP1 PUSH4 0x8456CB59 EQ PUSH2 0x416 JUMPI PUSH2 0x19B JUMP JUMPDEST DUP1 PUSH4 0x313CE567 GT PUSH2 0x158 JUMPI DUP1 PUSH4 0x4F1EF286 GT PUSH2 0x132 JUMPI DUP1 PUSH4 0x4F1EF286 EQ PUSH2 0x32A JUMPI DUP1 PUSH4 0x52D1902D EQ PUSH2 0x346 JUMPI DUP1 PUSH4 0x5C975ABB EQ PUSH2 0x370 JUMPI DUP1 PUSH4 0x70A08231 EQ PUSH2 0x39A JUMPI PUSH2 0x19B JUMP JUMPDEST DUP1 PUSH4 0x313CE567 EQ PUSH2 0x2BB JUMPI DUP1 PUSH4 0x38B42785 EQ PUSH2 0x2E5 JUMPI DUP1 PUSH4 0x3F4BA83A EQ PUSH2 0x314 JUMPI PUSH2 0x19B JUMP JUMPDEST DUP1 PUSH4 0x6FDDE03 EQ PUSH2 0x19F JUMPI DUP1 PUSH4 0x95EA7B3 EQ PUSH2 0x1C9 JUMPI DUP1 PUSH4 0xB594036 EQ PUSH2 0x205 JUMPI DUP1 PUSH4 0x18160DDD EQ PUSH2 0x22D JUMPI DUP1 PUSH4 0x1CB44DFC EQ PUSH2 0x257 JUMPI DUP1 PUSH4 0x23B872DD EQ PUSH2 0x27F JUMPI JUMPDEST PUSH0 DUP1 REVERT JUMPDEST CALLVALUE DUP1 ISZERO PUSH2 0x1AA JUMPI PUSH0 DUP1 REVERT JUMPDEST POP PUSH2 0x1B3 PUSH2 0x604 JUMP JUMPDEST PUSH1 0x40 MLOAD PUSH2 0x1C0 SWAP2 SWAP1 PUSH2 0x26BE JUMP JUMPDEST PUSH1 0x40 MLOAD DUP1 SWAP2 SUB SWAP1 RETURN JUMPDEST CALLVALUE DUP1 ISZERO PUSH2 0x1D4 JUMPI PUSH0 DUP1 REVERT JUMPDEST POP PUSH2 0x1EF PUSH1 0x4 DUP1 CALLDATASIZE SUB DUP2 ADD SWAP1 PUSH2 0x1EA SWAP2 SWAP1 PUSH2 0x277C JUMP JUMPDEST PUSH2 0x6A2 JUMP JUMPDEST PUSH1 0x40 MLOAD PUSH2 0x1FC SWAP2 SWAP1 PUSH2 0x27D4 JUMP JUMPDEST PUSH1 0x40 MLOAD DUP1 SWAP2 SUB SWAP1 RETURN JUMPDEST CALLVALUE DUP1 ISZERO PUSH2 0x210 JUMPI PUSH0 DUP1 REVERT JUMPDEST POP PUSH2 0x22B PUSH1 0x4 DUP1 CALLDATASIZE SUB DUP2 ADD SWAP1 PUSH2 0x226 SWAP2 SWAP1 PUSH2 0x2906 JUMP JUMPDEST PUSH2 0x6C4 JUMP JUMPDEST STOP JUMPDEST CALLVALUE DUP1 ISZERO PUSH2 0x238 JUMPI PUSH0 DUP1 REVERT JUMPDEST POP PUSH2 0x241 PUSH2 0x746 JUMP JUMPDEST PUSH1 0x40 MLOAD PUSH2 0x24E SWAP2 SWAP1 PUSH2 0x2940 JUMP JUMPDEST PUSH1 0x40 MLOAD DUP1 SWAP2 SUB SWAP1 RETURN JUMPDEST CALLVALUE DUP1 ISZERO PUSH2 0x262 JUMPI PUSH0 DUP1 REVERT JUMPDEST POP PUSH2 0x27D PUSH1 0x4 DUP1 CALLDATASIZE SUB DUP2 ADD SWAP1 PUSH2 0x278 SWAP2 SWAP1 PUSH2 0x2959 JUMP JUMPDEST PUSH2 0x75D JUMP JUMPDEST STOP JUMPDEST CALLVALUE DUP1 ISZERO PUSH2 0x28A JUMPI PUSH0 DUP1 REVERT JUMPDEST POP PUSH2 0x2A5 PUSH1 0x4 DUP1 CALLDATASIZE SUB DUP2 ADD SWAP1 PUSH2 0x2A0 SWAP2 SWAP1 PUSH2 0x2984 JUMP JUMPDEST PUSH2 0x850 JUMP JUMPDEST PUSH1 0x40 MLOAD PUSH2 0x2B2 SWAP2 SWAP1 PUSH2 0x27D4 JUMP JUMPDEST PUSH1 0x40 MLOAD DUP1 SWAP2 SUB SWAP1 RETURN JUMPDEST CALLVALUE DUP1 ISZERO PUSH2 0x2C6 JUMPI PUSH0 DUP1 REVERT JUMPDEST POP PUSH2 0x2CF PUSH2 0x87E JUMP JUMPDEST PUSH1 0x40 MLOAD PUSH2 0x2DC SWAP2 SWAP1 PUSH2 0x29EF JUMP JUMPDEST PUSH1 0x40 MLOAD DUP1 SWAP2 SUB SWAP1 RETURN JUMPDEST CALLVALUE DUP1 ISZERO PUSH2 0x2F0 JUMPI PUSH0 DUP1 REVERT JUMPDEST POP PUSH2 0x2F9 PUSH2 0x886 JUMP JUMPDEST PUSH1 0x40 MLOAD PUSH2 0x30B SWAP7 SWAP6 SWAP5 SWAP4 SWAP3 SWAP2 SWAP1 PUSH2 0x2A08 JUMP JUMPDEST PUSH1 0x40 MLOAD DUP1 SWAP2 SUB SWAP1 RETURN JUMPDEST CALLVALUE DUP1 ISZERO PUSH2 0x31F JUMPI PUSH0 DUP1 REVERT JUMPDEST POP PUSH2 0x328 PUSH2 0x8AF JUMP JUMPDEST STOP JUMPDEST PUSH2 0x344 PUSH1 0x4 DUP1 CALLDATASIZE SUB DUP2 ADD SWAP1 PUSH2 0x33F SWAP2 SWAP1 PUSH2 0x2B1B JUMP JUMPDEST PUSH2 0x8C1 JUMP JUMPDEST STOP JUMPDEST CALLVALUE DUP1 ISZERO PUSH2 0x351 JUMPI PUSH0 DUP1 REVERT JUMPDEST POP PUSH2 0x35A PUSH2 0x8E0 JUMP JUMPDEST PUSH1 0x40 MLOAD PUSH2 0x367 SWAP2 SWAP1 PUSH2 0x2B8D JUMP JUMPDEST PUSH1 0x40 MLOAD DUP1 SWAP2 SUB SWAP1 RETURN JUMPDEST CALLVALUE DUP1 ISZERO PUSH2 0x37B JUMPI PUSH0 DUP1 REVERT JUMPDEST POP PUSH2 0x384 PUSH2 0x911 JUMP JUMPDEST PUSH1 0x40 MLOAD PUSH2 0x391 SWAP2 SWAP1 PUSH2 0x27D4 JUMP JUMPDEST PUSH1 0x40 MLOAD DUP1 SWAP2 SUB SWAP1 RETURN JUMPDEST CALLVALUE DUP1 ISZERO PUSH2 0x3A5 JUMPI PUSH0 DUP1 REVERT JUMPDEST POP PUSH2 0x3C0 PUSH1 0x4 DUP1 CALLDATASIZE SUB DUP2 ADD SWAP1 PUSH2 0x3BB SWAP2 SWAP1 PUSH2 0x2959 JUMP JUMPDEST PUSH2 0x925 JUMP JUMPDEST PUSH1 0x40 MLOAD PUSH2 0x3CD SWAP2 SWAP1 PUSH2 0x2940 JUMP JUMPDEST PUSH1 0x40 MLOAD DUP1 SWAP2 SUB SWAP1 RETURN JUMPDEST CALLVALUE DUP1 ISZERO PUSH2 0x3E1 JUMPI PUSH0 DUP1 REVERT JUMPDEST POP PUSH2 0x3EA PUSH2 0x978 JUMP JUMPDEST STOP JUMPDEST CALLVALUE DUP1 ISZERO PUSH2 0x3F7 JUMPI PUSH0 DUP1 REVERT JUMPDEST POP PUSH2 0x400 PUSH2 0x98B JUMP JUMPDEST PUSH1 0x40 MLOAD PUSH2 0x40D SWAP2 SWAP1 PUSH2 0x2C01 JUMP JUMPDEST PUSH1 0x40 MLOAD DUP1 SWAP2 SUB SWAP1 RETURN JUMPDEST CALLVALUE DUP1 ISZERO PUSH2 0x421 JUMPI PUSH0 DUP1 REVERT JUMPDEST POP PUSH2 0x42A PUSH2 0x9B0 JUMP JUMPDEST STOP JUMPDEST CALLVALUE DUP1 ISZERO PUSH2 0x437 JUMPI PUSH0 DUP1 REVERT JUMPDEST POP PUSH2 0x440 PUSH2 0x9C2 JUMP JUMPDEST PUSH1 0x40 MLOAD PUSH2 0x44D SWAP2 SWAP1 PUSH2 0x2C29 JUMP JUMPDEST PUSH1 0x40 MLOAD DUP1 SWAP2 SUB SWAP1 RETURN JUMPDEST CALLVALUE DUP1 ISZERO PUSH2 0x461 JUMPI PUSH0 DUP1 REVERT JUMPDEST POP PUSH2 0x46A PUSH2 0x9F7 JUMP JUMPDEST PUSH1 0x40 MLOAD PUSH2 0x477 SWAP2 SWAP1 PUSH2 0x26BE JUMP JUMPDEST PUSH1 0x40 MLOAD DUP1 SWAP2 SUB SWAP1 RETURN JUMPDEST CALLVALUE DUP1 ISZERO PUSH2 0x48B JUMPI PUSH0 DUP1 REVERT JUMPDEST POP PUSH2 0x494 PUSH2 0xA95 JUMP JUMPDEST PUSH1 0x40 MLOAD PUSH2 0x4A1 SWAP2 SWAP1 PUSH2 0x2940 JUMP JUMPDEST PUSH1 0x40 MLOAD DUP1 SWAP2 SUB SWAP1 RETURN JUMPDEST CALLVALUE DUP1 ISZERO PUSH2 0x4B5 JUMPI PUSH0 DUP1 REVERT JUMPDEST POP PUSH2 0x4BE PUSH2 0xA9B JUMP JUMPDEST STOP JUMPDEST CALLVALUE DUP1 ISZERO PUSH2 0x4CB JUMPI PUSH0 DUP1 REVERT JUMPDEST POP PUSH2 0x4E6 PUSH1 0x4 DUP1 CALLDATASIZE SUB DUP2 ADD SWAP1 PUSH2 0x4E1 SWAP2 SWAP1 PUSH2 0x277C JUMP JUMPDEST PUSH2 0xCE5 JUMP JUMPDEST PUSH1 0x40 MLOAD PUSH2 0x4F3 SWAP2 SWAP1 PUSH2 0x27D4 JUMP JUMPDEST PUSH1 0x40 MLOAD DUP1 SWAP2 SUB SWAP1 RETURN JUMPDEST CALLVALUE DUP1 ISZERO PUSH2 0x507 JUMPI PUSH0 DUP1 REVERT JUMPDEST POP PUSH2 0x510 PUSH2 0xD07 JUMP JUMPDEST PUSH1 0x40 MLOAD PUSH2 0x51D SWAP2 SWAP1 PUSH2 0x26BE JUMP JUMPDEST PUSH1 0x40 MLOAD DUP1 SWAP2 SUB SWAP1 RETURN JUMPDEST CALLVALUE DUP1 ISZERO PUSH2 0x531 JUMPI PUSH0 DUP1 REVERT JUMPDEST POP PUSH2 0x54C PUSH1 0x4 DUP1 CALLDATASIZE SUB DUP2 ADD SWAP1 PUSH2 0x547 SWAP2 SWAP1 PUSH2 0x2CE0 JUMP JUMPDEST PUSH2 0xD40 JUMP JUMPDEST STOP JUMPDEST CALLVALUE DUP1 ISZERO PUSH2 0x559 JUMPI PUSH0 DUP1 REVERT JUMPDEST POP PUSH2 0x562 PUSH2 0xFEE JUMP JUMPDEST STOP JUMPDEST CALLVALUE DUP1 ISZERO PUSH2 0x56F JUMPI PUSH0 DUP1 REVERT JUMPDEST POP PUSH2 0x58A PUSH1 0x4 DUP1 CALLDATASIZE SUB DUP2 ADD SWAP1 PUSH2 0x585 SWAP2 SWAP1 PUSH2 0x2959 JUMP JUMPDEST PUSH2 0x1185 JUMP JUMPDEST PUSH1 0x40 MLOAD PUSH2 0x597 SWAP2 SWAP1 PUSH2 0x2940 JUMP JUMPDEST PUSH1 0x40 MLOAD DUP1 SWAP2 SUB SWAP1 RETURN JUMPDEST CALLVALUE DUP1 ISZERO PUSH2 0x5AB JUMPI PUSH0 DUP1 REVERT JUMPDEST POP PUSH2 0x5C6 PUSH1 0x4 DUP1 CALLDATASIZE SUB DUP2 ADD SWAP1 PUSH2 0x5C1 SWAP2 SWAP1 PUSH2 0x2D7D JUMP JUMPDEST PUSH2 0x119A JUMP JUMPDEST PUSH1 0x40 MLOAD PUSH2 0x5D3 SWAP2 SWAP1 PUSH2 0x2940 JUMP JUMPDEST PUSH1 0x40 MLOAD DUP1 SWAP2 SUB SWAP1 RETURN JUMPDEST CALLVALUE DUP1 ISZERO PUSH2 0x5E7 JUMPI PUSH0 DUP1 REVERT JUMPDEST POP PUSH2 0x602 PUSH1 0x4 DUP1 CALLDATASIZE SUB DUP2 ADD SWAP1 PUSH2 0x5FD SWAP2 SWAP1 PUSH2 0x2959 JUMP JUMPDEST PUSH2 0x122A JUMP JUMPDEST STOP JUMPDEST PUSH1 0x60 PUSH0 PUSH2 0x60F PUSH2 0x12AE JUMP JUMPDEST SWAP1 POP DUP1 PUSH1 0x3 ADD DUP1 SLOAD PUSH2 0x620 SWAP1 PUSH2 0x2DE8 JUMP JUMPDEST DUP1 PUSH1 0x1F ADD PUSH1 0x20 DUP1 SWAP2 DIV MUL PUSH1 0x20 ADD PUSH1 0x40 MLOAD SWAP1 DUP2 ADD PUSH1 0x40 MSTORE DUP1 SWAP3 SWAP2 SWAP1 DUP2 DUP2 MSTORE PUSH1 0x20 ADD DUP3 DUP1 SLOAD PUSH2 0x64C SWAP1 PUSH2 0x2DE8 JUMP JUMPDEST DUP1 ISZERO PUSH2 0x697 JUMPI DUP1 PUSH1 0x1F LT PUSH2 0x66E JUMPI PUSH2 0x100 DUP1 DUP4 SLOAD DIV MUL DUP4 MSTORE SWAP2 PUSH1 0x20 ADD SWAP2 PUSH2 0x697 JUMP JUMPDEST DUP3 ADD SWAP2 SWAP1 PUSH0 MSTORE PUSH1 0x20 PUSH0 KECCAK256 SWAP1 JUMPDEST DUP2 SLOAD DUP2 MSTORE SWAP1 PUSH1 0x1 ADD SWAP1 PUSH1 0x20 ADD DUP1 DUP4 GT PUSH2 0x67A JUMPI DUP3 SWAP1 SUB PUSH1 0x1F AND DUP3 ADD SWAP2 JUMPDEST POP POP POP POP POP SWAP2 POP POP SWAP1 JUMP JUMPDEST PUSH0 DUP1 PUSH2 0x6AC PUSH2 0x12D5 JUMP JUMPDEST SWAP1 POP PUSH2 0x6B9 DUP2 DUP6 DUP6 PUSH2 0x12DC JUMP JUMPDEST PUSH1 0x1 SWAP2 POP POP SWAP3 SWAP2 POP POP JUMP JUMPDEST PUSH2 0x6CC PUSH2 0x12EE JUMP JUMPDEST DUP1 PUSH1 0x33 PUSH0 DUP3 ADD MLOAD DUP2 PUSH0 ADD SSTORE PUSH1 0x20 DUP3 ADD MLOAD DUP2 PUSH1 0x1 ADD SSTORE PUSH1 0x40 DUP3 ADD MLOAD DUP2 PUSH1 0x2 ADD SSTORE PUSH1 0x60 DUP3 ADD MLOAD DUP2 PUSH1 0x3 ADD SSTORE PUSH1 0x80 DUP3 ADD MLOAD DUP2 PUSH1 0x4 ADD SSTORE PUSH1 0xA0 DUP3 ADD MLOAD DUP2 PUSH1 0x5 ADD SSTORE SWAP1 POP POP PUSH32 0x367B6B00685AE263E44E2231E399D2E112EAC1979516A9E0E1069D7CD4AC3A2D DUP2 PUSH1 0x40 MLOAD PUSH2 0x73B SWAP2 SWAP1 PUSH2 0x2EA0 JUMP JUMPDEST PUSH1 0x40 MLOAD DUP1 SWAP2 SUB SWAP1 LOG1 POP JUMP JUMPDEST PUSH0 DUP1 PUSH2 0x750 PUSH2 0x12AE JUMP JUMPDEST SWAP1 POP DUP1 PUSH1 0x2 ADD SLOAD SWAP2 POP POP SWAP1 JUMP JUMPDEST PUSH2 0x765 PUSH2 0x12EE JUMP JUMPDEST PUSH0 PUSH20 0xFFFFFFFFFFFFFFFFFFFFFFFFFFFFFFFFFFFFFFFF AND DUP2 PUSH20 0xFFFFFFFFFFFFFFFFFFFFFFFFFFFFFFFFFFFFFFFF AND SUB PUSH2 0x7CA JUMPI PUSH1 0x40 MLOAD PUSH32 0x5521068100000000000000000000000000000000000000000000000000000000 DUP2 MSTORE PUSH1 0x4 ADD PUSH1 0x40 MLOAD DUP1 SWAP2 SUB SWAP1 REVERT JUMPDEST DUP1 PUSH1 0x32 PUSH0 PUSH2 0x100 EXP DUP2 SLOAD DUP2 PUSH20 0xFFFFFFFFFFFFFFFFFFFFFFFFFFFFFFFFFFFFFFFF MUL NOT AND SWAP1 DUP4 PUSH20 0xFFFFFFFFFFFFFFFFFFFFFFFFFFFFFFFFFFFFFFFF AND MUL OR SWAP1 SSTORE POP DUP1 PUSH20 0xFFFFFFFFFFFFFFFFFFFFFFFFFFFFFFFFFFFFFFFF AND PUSH32 0x3DF77BEB5DB05FCDD70A30FC8ADF3F83F9501B68579455ADBD100B8180940394 PUSH1 0x40 MLOAD PUSH1 0x40 MLOAD DUP1 SWAP2 SUB SWAP1 LOG2 POP JUMP JUMPDEST PUSH0 DUP1 PUSH2 0x85A PUSH2 0x12D5 JUMP JUMPDEST SWAP1 POP PUSH2 0x867 DUP6 DUP3 DUP6 PUSH2 0x1375 JUMP JUMPDEST PUSH2 0x872 DUP6 DUP6 DUP6 PUSH2 0x1407 JUMP JUMPDEST PUSH1 0x1 SWAP2 POP POP SWAP4 SWAP3 POP POP POP JUMP JUMPDEST PUSH0 PUSH1 0x12 SWAP1 POP SWAP1 JUMP JUMPDEST PUSH1 0x33 DUP1 PUSH0 ADD SLOAD SWAP1 DUP1 PUSH1 0x1 ADD SLOAD SWAP1 DUP1 PUSH1 0x2 ADD SLOAD SWAP1 DUP1 PUSH1 0x3 ADD SLOAD SWAP1 DUP1 PUSH1 0x4 ADD SLOAD SWAP1 DUP1 PUSH1 0x5 ADD SLOAD SWAP1 POP DUP7 JUMP JUMPDEST PUSH2 0x8B7 PUSH2 0x12EE JUMP JUMPDEST PUSH2 0x8BF PUSH2 0x14F7 JUMP JUMPDEST JUMP JUMPDEST PUSH2 0x8C9 PUSH2 0x1557 JUMP JUMPDEST PUSH2 0x8D2 DUP3 PUSH2 0x163D JUMP JUMPDEST PUSH2 0x8DC DUP3 DUP3 PUSH2 0x1648 JUMP JUMPDEST POP POP JUMP JUMPDEST PUSH0 PUSH2 0x8E9 PUSH2 0x1766 JUMP JUMPDEST PUSH32 0x360894A13BA1A3210667C828492DB98DCA3E2076CC3735A920A3CA505D382BBC PUSH0 SHL SWAP1 POP SWAP1 JUMP JUMPDEST PUSH0 DUP1 PUSH0 SWAP1 SLOAD SWAP1 PUSH2 0x100 EXP SWAP1 DIV PUSH1 0xFF AND SWAP1 POP SWAP1 JUMP JUMPDEST PUSH0 DUP1 PUSH2 0x92F PUSH2 0x12AE JUMP JUMPDEST SWAP1 POP DUP1 PUSH0 ADD PUSH0 DUP5 PUSH20 0xFFFFFFFFFFFFFFFFFFFFFFFFFFFFFFFFFFFFFFFF AND PUSH20 0xFFFFFFFFFFFFFFFFFFFFFFFFFFFFFFFFFFFFFFFF AND DUP2 MSTORE PUSH1 0x20 ADD SWAP1 DUP2 MSTORE PUSH1 0x20 ADD PUSH0 KECCAK256 SLOAD SWAP2 POP POP SWAP2 SWAP1 POP JUMP JUMPDEST PUSH2 0x980 PUSH2 0x12EE JUMP JUMPDEST PUSH2 0x989 PUSH0 PUSH2 0x17ED JUMP JUMPDEST JUMP JUMPDEST PUSH1 0x32 PUSH0 SWAP1 SLOAD SWAP1 PUSH2 0x100 EXP SWAP1 DIV PUSH20 0xFFFFFFFFFFFFFFFFFFFFFFFFFFFFFFFFFFFFFFFF AND DUP2 JUMP JUMPDEST PUSH2 0x9B8 PUSH2 0x12EE JUMP JUMPDEST PUSH2 0x9C0 PUSH2 0x18BE JUMP JUMPDEST JUMP JUMPDEST PUSH0 DUP1 PUSH2 0x9CC PUSH2 0x191F JUMP JUMPDEST SWAP1 POP DUP1 PUSH0 ADD PUSH0 SWAP1 SLOAD SWAP1 PUSH2 0x100 EXP SWAP1 DIV PUSH20 0xFFFFFFFFFFFFFFFFFFFFFFFFFFFFFFFFFFFFFFFF AND SWAP2 POP POP SWAP1 JUMP JUMPDEST PUSH1 0x60 PUSH0 PUSH2 0xA02 PUSH2 0x12AE JUMP JUMPDEST SWAP1 POP DUP1 PUSH1 0x4 ADD DUP1 SLOAD PUSH2 0xA13 SWAP1 PUSH2 0x2DE8 JUMP JUMPDEST DUP1 PUSH1 0x1F ADD PUSH1 0x20 DUP1 SWAP2 DIV MUL PUSH1 0x20 ADD PUSH1 0x40 MLOAD SWAP1 DUP2 ADD PUSH1 0x40 MSTORE DUP1 SWAP3 SWAP2 SWAP1 DUP2 DUP2 MSTORE PUSH1 0x20 ADD DUP3 DUP1 SLOAD PUSH2 0xA3F SWAP1 PUSH2 0x2DE8 JUMP JUMPDEST DUP1 ISZERO PUSH2 0xA8A JUMPI DUP1 PUSH1 0x1F LT PUSH2 0xA61 JUMPI PUSH2 0x100 DUP1 DUP4 SLOAD DIV MUL DUP4 MSTORE SWAP2 PUSH1 0x20 ADD SWAP2 PUSH2 0xA8A JUMP JUMPDEST DUP3 ADD SWAP2 SWAP1 PUSH0 MSTORE PUSH1 0x20 PUSH0 KECCAK256 SWAP1 JUMPDEST DUP2 SLOAD DUP2 MSTORE SWAP1 PUSH1 0x1 ADD SWAP1 PUSH1 0x20 ADD DUP1 DUP4 GT PUSH2 0xA6D JUMPI DUP3 SWAP1 SUB PUSH1 0x1F AND DUP3 ADD SWAP2 JUMPDEST POP POP POP POP POP SWAP2 POP POP SWAP1 JUMP JUMPDEST PUSH1 0x39 SLOAD DUP2 JUMP JUMPDEST PUSH2 0xAA3 PUSH2 0x1946 JUMP JUMPDEST PUSH1 0x33 PUSH1 0x5 ADD SLOAD PUSH1 0x39 SLOAD PUSH2 0xAB6 SWAP2 SWAP1 PUSH2 0x2EE6 JUMP JUMPDEST TIMESTAMP LT ISZERO PUSH2 0xAEF JUMPI PUSH1 0x40 MLOAD PUSH32 0x4A448F3700000000000000000000000000000000000000000000000000000000 DUP2 MSTORE PUSH1 0x4 ADD PUSH1 0x40 MLOAD DUP1 SWAP2 SUB SWAP1 REVERT JUMPDEST PUSH0 PUSH1 0x32 PUSH0 SWAP1 SLOAD SWAP1 PUSH2 0x100 EXP SWAP1 DIV PUSH20 0xFFFFFFFFFFFFFFFFFFFFFFFFFFFFFFFFFFFFFFFF AND PUSH20 0xFFFFFFFFFFFFFFFFFFFFFFFFFFFFFFFFFFFFFFFF AND PUSH4 0x395924DC PUSH1 0x40 MLOAD DUP2 PUSH4 0xFFFFFFFF AND PUSH1 0xE0 SHL DUP2 MSTORE PUSH1 0x4 ADD PUSH1 0x80 PUSH1 0x40 MLOAD DUP1 DUP4 SUB DUP2 DUP7 GAS STATICCALL ISZERO DUP1 ISZERO PUSH2 0xB5A JUMPI RETURNDATASIZE PUSH0 DUP1 RETURNDATACOPY RETURNDATASIZE PUSH0 REVERT JUMPDEST POP POP POP POP PUSH1 0x40 MLOAD RETURNDATASIZE PUSH1 0x1F NOT PUSH1 0x1F DUP3 ADD AND DUP3 ADD DUP1 PUSH1 0x40 MSTORE POP DUP2 ADD SWAP1 PUSH2 0xB7E SWAP2 SWAP1 PUSH2 0x2FA2 JUMP JUMPDEST SWAP1 POP PUSH2 0xE10 DUP2 PUSH1 0x60 ADD MLOAD TIMESTAMP PUSH2 0xB93 SWAP2 SWAP1 PUSH2 0x2FCD JUMP JUMPDEST GT ISZERO PUSH2 0xBCB JUMPI PUSH1 0x40 MLOAD PUSH32 0x7428474C00000000000000000000000000000000000000000000000000000000 DUP2 MSTORE PUSH1 0x4 ADD PUSH1 0x40 MLOAD DUP1 SWAP2 SUB SWAP1 REVERT JUMPDEST PUSH1 0x33 PUSH1 0x2 ADD SLOAD DUP2 PUSH0 ADD MLOAD LT ISZERO PUSH2 0xC0D JUMPI PUSH1 0x40 MLOAD PUSH32 0xDA2029D100000000000000000000000000000000000000000000000000000000 DUP2 MSTORE PUSH1 0x4 ADD PUSH1 0x40 MLOAD DUP1 SWAP2 SUB SWAP1 REVERT JUMPDEST PUSH1 0x33 PUSH0 ADD SLOAD DUP2 PUSH1 0x20 ADD MLOAD LT ISZERO DUP1 ISZERO PUSH2 0xC2E JUMPI POP PUSH1 0x33 PUSH1 0x1 ADD SLOAD DUP2 PUSH1 0x40 ADD MLOAD LT ISZERO JUMPDEST ISZERO PUSH2 0xC41 JUMPI PUSH2 0xC3C DUP2 PUSH2 0x1990 JUMP JUMPDEST PUSH2 0xC4B JUMP JUMPDEST PUSH2 0xC4A DUP2 PUSH2 0x1A07 JUMP JUMPDEST JUMPDEST TIMESTAMP PUSH1 0x39 DUP2 SWAP1 SSTORE POP PUSH1 0x32 PUSH0 SWAP1 SLOAD SWAP1 PUSH2 0x100 EXP SWAP1 DIV PUSH20 0xFFFFFFFFFFFFFFFFFFFFFFFFFFFFFFFFFFFFFFFF AND PUSH20 0xFFFFFFFFFFFFFFFFFFFFFFFFFFFFFFFFFFFFFFFF AND PUSH4 0x9C22C5D PUSH1 0x40 MLOAD DUP2 PUSH4 0xFFFFFFFF AND PUSH1 0xE0 SHL DUP2 MSTORE PUSH1 0x4 ADD PUSH1 0x20 PUSH1 0x40 MLOAD DUP1 DUP4 SUB DUP2 PUSH0 DUP8 GAS CALL ISZERO DUP1 ISZERO PUSH2 0xCBD JUMPI RETURNDATASIZE PUSH0 DUP1 RETURNDATACOPY RETURNDATASIZE PUSH0 REVERT JUMPDEST POP POP POP POP PUSH1 0x40 MLOAD RETURNDATASIZE PUSH1 0x1F NOT PUSH1 0x1F DUP3 ADD AND DUP3 ADD DUP1 PUSH1 0x40 MSTORE POP DUP2 ADD SWAP1 PUSH2 0xCE1 SWAP2 SWAP1 PUSH2 0x302A JUMP JUMPDEST POP POP JUMP JUMPDEST PUSH0 DUP1 PUSH2 0xCEF PUSH2 0x12D5 JUMP JUMPDEST SWAP1 POP PUSH2 0xCFC DUP2 DUP6 DUP6 PUSH2 0x1407 JUMP JUMPDEST PUSH1 0x1 SWAP2 POP POP SWAP3 SWAP2 POP POP JUMP JUMPDEST PUSH1 0x40 MLOAD DUP1 PUSH1 0x40 ADD PUSH1 0x40 MSTORE DUP1 PUSH1 0x5 DUP2 MSTORE PUSH1 0x20 ADD PUSH32 0x352E302E30000000000000000000000000000000000000000000000000000000 DUP2 MSTORE POP DUP2 JUMP JUMPDEST PUSH0 PUSH2 0xD49 PUSH2 0x1A7E JUMP JUMPDEST SWAP1 POP PUSH0 DUP2 PUSH0 ADD PUSH1 0x8 SWAP1 SLOAD SWAP1 PUSH2 0x100 EXP SWAP1 DIV PUSH1 0xFF AND ISZERO SWAP1 POP PUSH0 DUP3 PUSH0 ADD PUSH0 SWAP1 SLOAD SWAP1 PUSH2 0x100 EXP SWAP1 DIV PUSH8 0xFFFFFFFFFFFFFFFF AND SWAP1 POP PUSH0 DUP1 DUP3 PUSH8 0xFFFFFFFFFFFFFFFF AND EQ DUP1 ISZERO PUSH2 0xD91 JUMPI POP DUP3 JUMPDEST SWAP1 POP PUSH0 PUSH1 0x1 DUP4 PUSH8 0xFFFFFFFFFFFFFFFF AND EQ DUP1 ISZERO PUSH2 0xDC4 JUMPI POP PUSH0 ADDRESS PUSH20 0xFFFFFFFFFFFFFFFFFFFFFFFFFFFFFFFFFFFFFFFF AND EXTCODESIZE EQ JUMPDEST SWAP1 POP DUP2 ISZERO DUP1 ISZERO PUSH2 0xDD2 JUMPI POP DUP1 ISZERO JUMPDEST ISZERO PUSH2 0xE09 JUMPI PUSH1 0x40 MLOAD PUSH32 0xF92EE8A900000000000000000000000000000000000000000000000000000000 DUP2 MSTORE PUSH1 0x4 ADD PUSH1 0x40 MLOAD DUP1 SWAP2 SUB SWAP1 REVERT JUMPDEST PUSH1 0x1 DUP6 PUSH0 ADD PUSH0 PUSH2 0x100 EXP DUP2 SLOAD DUP2 PUSH8 0xFFFFFFFFFFFFFFFF MUL NOT AND SWAP1 DUP4 PUSH8 0xFFFFFFFFFFFFFFFF AND MUL OR SWAP1 SSTORE POP DUP4 ISZERO PUSH2 0xE56 JUMPI PUSH1 0x1 DUP6 PUSH0 ADD PUSH1 0x8 PUSH2 0x100 EXP DUP2 SLOAD DUP2 PUSH1 0xFF MUL NOT AND SWAP1 DUP4 ISZERO ISZERO MUL OR SWAP1 SSTORE POP JUMPDEST PUSH2 0xE60 DUP10 DUP10 PUSH2 0x1AA5 JUMP JUMPDEST PUSH2 0xE69 CALLER PUSH2 0x1ABB JUMP JUMPDEST PUSH2 0xE71 PUSH2 0x1ACF JUMP JUMPDEST PUSH2 0xE79 PUSH2 0x1AE1 JUMP JUMPDEST PUSH0 PUSH20 0xFFFFFFFFFFFFFFFFFFFFFFFFFFFFFFFFFFFFFFFF AND DUP8 PUSH20 0xFFFFFFFFFFFFFFFFFFFFFFFFFFFFFFFFFFFFFFFF AND SUB PUSH2 0xEDE JUMPI PUSH1 0x40 MLOAD PUSH32 0x5521068100000000000000000000000000000000000000000000000000000000 DUP2 MSTORE PUSH1 0x4 ADD PUSH1 0x40 MLOAD DUP1 SWAP2 SUB SWAP1 REVERT JUMPDEST DUP7 PUSH1 0x32 PUSH0 PUSH2 0x100 EXP DUP2 SLOAD DUP2 PUSH20 0xFFFFFFFFFFFFFFFFFFFFFFFFFFFFFFFFFFFFFFFF MUL NOT AND SWAP1 DUP4 PUSH20 0xFFFFFFFFFFFFFFFFFFFFFFFFFFFFFFFFFFFFFFFF AND MUL OR SWAP1 SSTORE POP DUP6 PUSH1 0x33 PUSH0 DUP3 ADD MLOAD DUP2 PUSH0 ADD SSTORE PUSH1 0x20 DUP3 ADD MLOAD DUP2 PUSH1 0x1 ADD SSTORE PUSH1 0x40 DUP3 ADD MLOAD DUP2 PUSH1 0x2 ADD SSTORE PUSH1 0x60 DUP3 ADD MLOAD DUP2 PUSH1 0x3 ADD SSTORE PUSH1 0x80 DUP3 ADD MLOAD DUP2 PUSH1 0x4 ADD SSTORE PUSH1 0xA0 DUP3 ADD MLOAD DUP2 PUSH1 0x5 ADD SSTORE SWAP1 POP POP PUSH2 0xF89 CALLER PUSH2 0xF6A PUSH2 0x87E JUMP JUMPDEST PUSH1 0xA PUSH2 0xF76 SWAP2 SWAP1 PUSH2 0x3184 JUMP JUMPDEST PUSH3 0xF4240 PUSH2 0xF84 SWAP2 SWAP1 PUSH2 0x31CE JUMP JUMPDEST PUSH2 0x1AEB JUMP JUMPDEST DUP4 ISZERO PUSH2 0xFE3 JUMPI PUSH0 DUP6 PUSH0 ADD PUSH1 0x8 PUSH2 0x100 EXP DUP2 SLOAD DUP2 PUSH1 0xFF MUL NOT AND SWAP1 DUP4 ISZERO ISZERO MUL OR SWAP1 SSTORE POP PUSH32 0xC7F505B2F371AE2175EE4913F4499E1F2633A7B5936321EED1CDAEB6115181D2 PUSH1 0x1 PUSH1 0x40 MLOAD PUSH2 0xFDA SWAP2 SWAP1 PUSH2 0x325B JUMP JUMPDEST PUSH1 0x40 MLOAD DUP1 SWAP2 SUB SWAP1 LOG1 JUMPDEST POP POP POP POP POP POP POP POP POP JUMP JUMPDEST PUSH2 0xFF6 PUSH2 0x1946 JUMP JUMPDEST PUSH1 0x33 PUSH1 0x5 ADD SLOAD PUSH1 0x3A PUSH0 CALLER PUSH20 0xFFFFFFFFFFFFFFFFFFFFFFFFFFFFFFFFFFFFFFFF AND PUSH20 0xFFFFFFFFFFFFFFFFFFFFFFFFFFFFFFFFFFFFFFFF AND DUP2 MSTORE PUSH1 0x20 ADD SWAP1 DUP2 MSTORE PUSH1 0x20 ADD PUSH0 KECCAK256 SLOAD PUSH2 0x1044 SWAP2 SWAP1 PUSH2 0x2EE6 JUMP JUMPDEST TIMESTAMP LT ISZERO PUSH2 0x107D JUMPI PUSH1 0x40 MLOAD PUSH32 0x2BC08A7300000000000000000000000000000000000000000000000000000000 DUP2 MSTORE PUSH1 0x4 ADD PUSH1 0x40 MLOAD DUP1 SWAP2 SUB SWAP1 REVERT JUMPDEST PUSH0 PUSH1 0x32 PUSH0 SWAP1 SLOAD SWAP1 PUSH2 0x100 EXP SWAP1 DIV PUSH20 0xFFFFFFFFFFFFFFFFFFFFFFFFFFFFFFFFFFFFFFFF AND PUSH20 0xFFFFFFFFFFFFFFFFFFFFFFFFFFFFFFFFFFFFFFFF AND PUSH4 0x395924DC PUSH1 0x40 MLOAD DUP2 PUSH4 0xFFFFFFFF AND PUSH1 0xE0 SHL DUP2 MSTORE PUSH1 0x4 ADD PUSH1 0x80 PUSH1 0x40 MLOAD DUP1 DUP4 SUB DUP2 DUP7 GAS STATICCALL ISZERO DUP1 ISZERO PUSH2 0x10E8 JUMPI RETURNDATASIZE PUSH0 DUP1 RETURNDATACOPY RETURNDATASIZE PUSH0 REVERT JUMPDEST POP POP POP POP PUSH1 0x40 MLOAD RETURNDATASIZE PUSH1 0x1F NOT PUSH1 0x1F DUP3 ADD AND DUP3 ADD DUP1 PUSH1 0x40 MSTORE POP DUP2 ADD SWAP1 PUSH2 0x110C SWAP2 SWAP1 PUSH2 0x2FA2 JUMP JUMPDEST SWAP1 POP PUSH0 PUSH2 0x112A DUP3 PUSH1 0x20 ADD MLOAD DUP4 PUSH1 0x40 ADD MLOAD PUSH2 0x1125 CALLER PUSH2 0x925 JUMP JUMPDEST PUSH2 0x1B6A JUMP JUMPDEST SWAP1 POP PUSH0 DUP2 GT ISZERO PUSH2 0x1181 JUMPI PUSH2 0x113E CALLER DUP3 PUSH2 0x1AEB JUMP JUMPDEST TIMESTAMP PUSH1 0x3A PUSH0 CALLER PUSH20 0xFFFFFFFFFFFFFFFFFFFFFFFFFFFFFFFFFFFFFFFF AND PUSH20 0xFFFFFFFFFFFFFFFFFFFFFFFFFFFFFFFFFFFFFFFF AND DUP2 MSTORE PUSH1 0x20 ADD SWAP1 DUP2 MSTORE PUSH1 0x20 ADD PUSH0 KECCAK256 DUP2 SWAP1 SSTORE POP JUMPDEST POP POP JUMP JUMPDEST PUSH1 0x3A PUSH1 0x20 MSTORE DUP1 PUSH0 MSTORE PUSH1 0x40 PUSH0 KECCAK256 PUSH0 SWAP2 POP SWAP1 POP SLOAD DUP2 JUMP JUMPDEST PUSH0 DUP1 PUSH2 0x11A4 PUSH2 0x12AE JUMP JUMPDEST SWAP1 POP DUP1 PUSH1 0x1 ADD PUSH0 DUP6 PUSH20 0xFFFFFFFFFFFFFFFFFFFFFFFFFFFFFFFFFFFFFFFF AND PUSH20 0xFFFFFFFFFFFFFFFFFFFFFFFFFFFFFFFFFFFFFFFF AND DUP2 MSTORE PUSH1 0x20 ADD SWAP1 DUP2 MSTORE PUSH1 0x20 ADD PUSH0 KECCAK256 PUSH0 DUP5 PUSH20 0xFFFFFFFFFFFFFFFFFFFFFFFFFFFFFFFFFFFFFFFF AND PUSH20 0xFFFFFFFFFFFFFFFFFFFFFFFFFFFFFFFFFFFFFFFF AND DUP2 MSTORE PUSH1 0x20 ADD SWAP1 DUP2 MSTORE PUSH1 0x20 ADD PUSH0 KECCAK256 SLOAD SWAP2 POP POP SWAP3 SWAP2 POP POP JUMP JUMPDEST PUSH2 0x1232 PUSH2 0x12EE JUMP JUMPDEST PUSH0 PUSH20 0xFFFFFFFFFFFFFFFFFFFFFFFFFFFFFFFFFFFFFFFF AND DUP2 PUSH20 0xFFFFFFFFFFFFFFFFFFFFFFFFFFFFFFFFFFFFFFFF AND SUB PUSH2 0x12A2 JUMPI PUSH0 PUSH1 0x40 MLOAD PUSH32 0x1E4FBDF700000000000000000000000000000000000000000000000000000000 DUP2 MSTORE PUSH1 0x4 ADD PUSH2 0x1299 SWAP2 SWAP1 PUSH2 0x2C29 JUMP JUMPDEST PUSH1 0x40 MLOAD DUP1 SWAP2 SUB SWAP1 REVERT JUMPDEST PUSH2 0x12AB DUP2 PUSH2 0x17ED JUMP JUMPDEST POP JUMP JUMPDEST PUSH0 PUSH32 0x52C63247E1F47DB19D5CE0460030C497F067CA4CEBF71BA98EEADABE20BACE00 SWAP1 POP SWAP1 JUMP JUMPDEST PUSH0 CALLER SWAP1 POP SWAP1 JUMP JUMPDEST PUSH2 0x12E9 DUP4 DUP4 DUP4 PUSH1 0x1 PUSH2 0x1C0E JUMP JUMPDEST POP POP POP JUMP JUMPDEST PUSH2 0x12F6 PUSH2 0x12D5 JUMP JUMPDEST PUSH20 0xFFFFFFFFFFFFFFFFFFFFFFFFFFFFFFFFFFFFFFFF AND PUSH2 0x1314 PUSH2 0x9C2 JUMP JUMPDEST PUSH20 0xFFFFFFFFFFFFFFFFFFFFFFFFFFFFFFFFFFFFFFFF AND EQ PUSH2 0x1373 JUMPI PUSH2 0x1337 PUSH2 0x12D5 JUMP JUMPDEST PUSH1 0x40 MLOAD PUSH32 0x118CDAA700000000000000000000000000000000000000000000000000000000 DUP2 MSTORE PUSH1 0x4 ADD PUSH2 0x136A SWAP2 SWAP1 PUSH2 0x2C29 JUMP JUMPDEST PUSH1 0x40 MLOAD DUP1 SWAP2 SUB SWAP1 REVERT JUMPDEST JUMP JUMPDEST PUSH0 PUSH2 0x1380 DUP5 DUP5 PUSH2 0x119A JUMP JUMPDEST SWAP1 POP PUSH32 0xFFFFFFFFFFFFFFFFFFFFFFFFFFFFFFFFFFFFFFFFFFFFFFFFFFFFFFFFFFFFFFFF DUP2 EQ PUSH2 0x1401 JUMPI DUP2 DUP2 LT ISZERO PUSH2 0x13F2 JUMPI DUP3 DUP2 DUP4 PUSH1 0x40 MLOAD PUSH32 0xFB8F41B200000000000000000000000000000000000000000000000000000000 DUP2 MSTORE PUSH1 0x4 ADD PUSH2 0x13E9 SWAP4 SWAP3 SWAP2 SWAP1 PUSH2 0x3274 JUMP JUMPDEST PUSH1 0x40 MLOAD DUP1 SWAP2 SUB SWAP1 REVERT JUMPDEST PUSH2 0x1400 DUP5 DUP5 DUP5 DUP5 SUB PUSH0 PUSH2 0x1C0E JUMP JUMPDEST JUMPDEST POP POP POP POP JUMP JUMPDEST PUSH0 PUSH20 0xFFFFFFFFFFFFFFFFFFFFFFFFFFFFFFFFFFFFFFFF AND DUP4 PUSH20 0xFFFFFFFFFFFFFFFFFFFFFFFFFFFFFFFFFFFFFFFF AND SUB PUSH2 0x1477 JUMPI PUSH0 PUSH1 0x40 MLOAD PUSH32 0x96C6FD1E00000000000000000000000000000000000000000000000000000000 DUP2 MSTORE PUSH1 0x4 ADD PUSH2 0x146E SWAP2 SWAP1 PUSH2 0x2C29 JUMP JUMPDEST PUSH1 0x40 MLOAD DUP1 SWAP2 SUB SWAP1 REVERT JUMPDEST PUSH0 PUSH20 0xFFFFFFFFFFFFFFFFFFFFFFFFFFFFFFFFFFFFFFFF AND DUP3 PUSH20 0xFFFFFFFFFFFFFFFFFFFFFFFFFFFFFFFFFFFFFFFF AND SUB PUSH2 0x14E7 JUMPI PUSH0 PUSH1 0x40 MLOAD PUSH32 0xEC442F0500000000000000000000000000000000000000000000000000000000 DUP2 MSTORE PUSH1 0x4 ADD PUSH2 0x14DE SWAP2 SWAP1 PUSH2 0x2C29 JUMP JUMPDEST PUSH1 0x40 MLOAD DUP1 SWAP2 SUB SWAP1 REVERT JUMPDEST PUSH2 0x14F2 DUP4 DUP4 DUP4 PUSH2 0x1DEB JUMP JUMPDEST POP POP POP JUMP JUMPDEST PUSH2 0x14FF PUSH2 0x201A JUMP JUMPDEST PUSH0 DUP1 PUSH0 PUSH2 0x100 EXP DUP2 SLOAD DUP2 PUSH1 0xFF MUL NOT AND SWAP1 DUP4 ISZERO ISZERO MUL OR SWAP1 SSTORE POP PUSH32 0x5DB9EE0A495BF2E6FF9C91A7834C1BA4FDD244A5E8AA4E537BD38AEAE4B073AA PUSH2 0x1540 PUSH2 0x12D5 JUMP JUMPDEST PUSH1 0x40 MLOAD PUSH2 0x154D SWAP2 SWAP1 PUSH2 0x2C29 JUMP JUMPDEST PUSH1 0x40 MLOAD DUP1 SWAP2 SUB SWAP1 LOG1 JUMP JUMPDEST PUSH32 0x0 PUSH20 0xFFFFFFFFFFFFFFFFFFFFFFFFFFFFFFFFFFFFFFFF AND ADDRESS PUSH20 0xFFFFFFFFFFFFFFFFFFFFFFFFFFFFFFFFFFFFFFFF AND EQ DUP1 PUSH2 0x1604 JUMPI POP PUSH32 0x0 PUSH20 0xFFFFFFFFFFFFFFFFFFFFFFFFFFFFFFFFFFFFFFFF AND PUSH2 0x15EB PUSH2 0x2063 JUMP JUMPDEST PUSH20 0xFFFFFFFFFFFFFFFFFFFFFFFFFFFFFFFFFFFFFFFF AND EQ ISZERO JUMPDEST ISZERO PUSH2 0x163B JUMPI PUSH1 0x40 MLOAD PUSH32 0xE07C8DBA00000000000000000000000000000000000000000000000000000000 DUP2 MSTORE PUSH1 0x4 ADD PUSH1 0x40 MLOAD DUP1 SWAP2 SUB SWAP1 REVERT JUMPDEST JUMP JUMPDEST PUSH2 0x1645 PUSH2 0x12EE JUMP JUMPDEST POP JUMP JUMPDEST DUP2 PUSH20 0xFFFFFFFFFFFFFFFFFFFFFFFFFFFFFFFFFFFFFFFF AND PUSH4 0x52D1902D PUSH1 0x40 MLOAD DUP2 PUSH4 0xFFFFFFFF AND PUSH1 0xE0 SHL DUP2 MSTORE PUSH1 0x4 ADD PUSH1 0x20 PUSH1 0x40 MLOAD DUP1 DUP4 SUB DUP2 DUP7 GAS STATICCALL SWAP3 POP POP POP DUP1 ISZERO PUSH2 0x16B0 JUMPI POP PUSH1 0x40 MLOAD RETURNDATASIZE PUSH1 0x1F NOT PUSH1 0x1F DUP3 ADD AND DUP3 ADD DUP1 PUSH1 0x40 MSTORE POP DUP2 ADD SWAP1 PUSH2 0x16AD SWAP2 SWAP1 PUSH2 0x302A JUMP JUMPDEST PUSH1 0x1 JUMPDEST PUSH2 0x16F1 JUMPI DUP2 PUSH1 0x40 MLOAD PUSH32 0x4C9C8CE300000000000000000000000000000000000000000000000000000000 DUP2 MSTORE PUSH1 0x4 ADD PUSH2 0x16E8 SWAP2 SWAP1 PUSH2 0x2C29 JUMP JUMPDEST PUSH1 0x40 MLOAD DUP1 SWAP2 SUB SWAP1 REVERT JUMPDEST PUSH32 0x360894A13BA1A3210667C828492DB98DCA3E2076CC3735A920A3CA505D382BBC PUSH0 SHL DUP2 EQ PUSH2 0x1757 JUMPI DUP1 PUSH1 0x40 MLOAD PUSH32 0xAA1D49A400000000000000000000000000000000000000000000000000000000 DUP2 MSTORE PUSH1 0x4 ADD PUSH2 0x174E SWAP2 SWAP1 PUSH2 0x2B8D JUMP JUMPDEST PUSH1 0x40 MLOAD DUP1 SWAP2 SUB SWAP1 REVERT JUMPDEST PUSH2 0x1761 DUP4 DUP4 PUSH2 0x20B6 JUMP JUMPDEST POP POP POP JUMP JUMPDEST PUSH32 0x0 PUSH20 0xFFFFFFFFFFFFFFFFFFFFFFFFFFFFFFFFFFFFFFFF AND ADDRESS PUSH20 0xFFFFFFFFFFFFFFFFFFFFFFFFFFFFFFFFFFFFFFFF AND EQ PUSH2 0x17EB JUMPI PUSH1 0x40 MLOAD PUSH32 0xE07C8DBA00000000000000000000000000000000000000000000000000000000 DUP2 MSTORE PUSH1 0x4 ADD PUSH1 0x40 MLOAD DUP1 SWAP2 SUB SWAP1 REVERT JUMPDEST JUMP JUMPDEST PUSH0 PUSH2 0x17F6 PUSH2 0x191F JUMP JUMPDEST SWAP1 POP PUSH0 DUP2 PUSH0 ADD PUSH0 SWAP1 SLOAD SWAP1 PUSH2 0x100 EXP SWAP1 DIV PUSH20 0xFFFFFFFFFFFFFFFFFFFFFFFFFFFFFFFFFFFFFFFF AND SWAP1 POP DUP3 DUP3 PUSH0 ADD PUSH0 PUSH2 0x100 EXP DUP2 SLOAD DUP2 PUSH20 0xFFFFFFFFFFFFFFFFFFFFFFFFFFFFFFFFFFFFFFFF MUL NOT AND SWAP1 DUP4 PUSH20 0xFFFFFFFFFFFFFFFFFFFFFFFFFFFFFFFFFFFFFFFF AND MUL OR SWAP1 SSTORE POP DUP3 PUSH20 0xFFFFFFFFFFFFFFFFFFFFFFFFFFFFFFFFFFFFFFFF AND DUP2 PUSH20 0xFFFFFFFFFFFFFFFFFFFFFFFFFFFFFFFFFFFFFFFF AND PUSH32 0x8BE0079C531659141344CD1FD0A4F28419497F9722A3DAAFE3B4186F6B6457E0 PUSH1 0x40 MLOAD PUSH1 0x40 MLOAD DUP1 SWAP2 SUB SWAP1 LOG3 POP POP POP JUMP JUMPDEST PUSH2 0x18C6 PUSH2 0x1946 JUMP JUMPDEST PUSH1 0x1 PUSH0 DUP1 PUSH2 0x100 EXP DUP2 SLOAD DUP2 PUSH1 0xFF MUL NOT AND SWAP1 DUP4 ISZERO ISZERO MUL OR SWAP1 SSTORE POP PUSH32 0x62E78CEA01BEE320CD4E420270B5EA74000D11B0C9F74754EBDBFC544B05A258 PUSH2 0x1908 PUSH2 0x12D5 JUMP JUMPDEST PUSH1 0x40 MLOAD PUSH2 0x1915 SWAP2 SWAP1 PUSH2 0x2C29 JUMP JUMPDEST PUSH1 0x40 MLOAD DUP1 SWAP2 SUB SWAP1 LOG1 JUMP JUMPDEST PUSH0 PUSH32 0x9016D09D72D40FDAE2FD8CEAC6B6234C7706214FD39C1CD1E609A0528C199300 SWAP1 POP SWAP1 JUMP JUMPDEST PUSH2 0x194E PUSH2 0x911 JUMP JUMPDEST ISZERO PUSH2 0x198E JUMPI PUSH1 0x40 MLOAD PUSH32 0x8C379A000000000000000000000000000000000000000000000000000000000 DUP2 MSTORE PUSH1 0x4 ADD PUSH2 0x1985 SWAP1 PUSH2 0x32F3 JUMP JUMPDEST PUSH1 0x40 MLOAD DUP1 SWAP2 SUB SWAP1 REVERT JUMPDEST JUMP JUMPDEST PUSH0 PUSH2 0x19AB DUP3 PUSH1 0x20 ADD MLOAD DUP4 PUSH1 0x40 ADD MLOAD PUSH2 0x19A6 PUSH2 0x746 JUMP JUMPDEST PUSH2 0x1B6A JUMP JUMPDEST SWAP1 POP PUSH0 DUP2 GT ISZERO PUSH2 0x1A03 JUMPI PUSH2 0x19BF ADDRESS DUP3 PUSH2 0x2128 JUMP JUMPDEST PUSH32 0xDA04004D58812F3E164F58E498158ACCA1B0054D975FCE0E3BAFDF56F2E254BA DUP2 DUP4 PUSH1 0x20 ADD MLOAD DUP5 PUSH1 0x40 ADD MLOAD PUSH1 0x40 MLOAD PUSH2 0x19FA SWAP4 SWAP3 SWAP2 SWAP1 PUSH2 0x3311 JUMP JUMPDEST PUSH1 0x40 MLOAD DUP1 SWAP2 SUB SWAP1 LOG1 JUMPDEST POP POP JUMP JUMPDEST PUSH0 PUSH2 0x1A22 DUP3 PUSH1 0x20 ADD MLOAD DUP4 PUSH1 0x40 ADD MLOAD PUSH2 0x1A1D PUSH2 0x746 JUMP JUMPDEST PUSH2 0x21A7 JUMP JUMPDEST SWAP1 POP PUSH0 DUP2 GT ISZERO PUSH2 0x1A7A JUMPI PUSH2 0x1A36 ADDRESS DUP3 PUSH2 0x1AEB JUMP JUMPDEST PUSH32 0x958E73D0165CD8413C567DDCFECFBDFB06498A561DE5CD56849C2B463F66CDF DUP2 DUP4 PUSH1 0x20 ADD MLOAD DUP5 PUSH1 0x40 ADD MLOAD PUSH1 0x40 MLOAD PUSH2 0x1A71 SWAP4 SWAP3 SWAP2 SWAP1 PUSH2 0x3311 JUMP JUMPDEST PUSH1 0x40 MLOAD DUP1 SWAP2 SUB SWAP1 LOG1 JUMPDEST POP POP JUMP JUMPDEST PUSH0 PUSH32 0xF0C57E16840DF040F15088DC2F81FE391C3923BEC73E23A9662EFC9C229C6A00 SWAP1 POP SWAP1 JUMP JUMPDEST PUSH2 0x1AAD PUSH2 0x2270 JUMP JUMPDEST PUSH2 0x1AB7 DUP3 DUP3 PUSH2 0x22B0 JUMP JUMPDEST POP POP JUMP JUMPDEST PUSH2 0x1AC3 PUSH2 0x2270 JUMP JUMPDEST PUSH2 0x1ACC DUP2 PUSH2 0x22EC JUMP JUMPDEST POP JUMP JUMPDEST PUSH2 0x1AD7 PUSH2 0x2270 JUMP JUMPDEST PUSH2 0x1ADF PUSH2 0x2370 JUMP JUMPDEST JUMP JUMPDEST PUSH2 0x1AE9 PUSH2 0x2270 JUMP JUMPDEST JUMP JUMPDEST PUSH0 PUSH20 0xFFFFFFFFFFFFFFFFFFFFFFFFFFFFFFFFFFFFFFFF AND DUP3 PUSH20 0xFFFFFFFFFFFFFFFFFFFFFFFFFFFFFFFFFFFFFFFF AND SUB PUSH2 0x1B5B JUMPI PUSH0 PUSH1 0x40 MLOAD PUSH32 0xEC442F0500000000000000000000000000000000000000000000000000000000 DUP2 MSTORE PUSH1 0x4 ADD PUSH2 0x1B52 SWAP2 SWAP1 PUSH2 0x2C29 JUMP JUMPDEST PUSH1 0x40 MLOAD DUP1 SWAP2 SUB SWAP1 REVERT JUMPDEST PUSH2 0x1B66 PUSH0 DUP4 DUP4 PUSH2 0x1DEB JUMP JUMPDEST POP POP JUMP JUMPDEST PUSH0 DUP1 PUSH2 0x1B83 PUSH1 0x33 PUSH0 ADD SLOAD DUP7 PUSH2 0x2392 SWAP1 SWAP2 SWAP1 PUSH4 0xFFFFFFFF AND JUMP JUMPDEST SWAP1 POP PUSH0 PUSH2 0x1B9E PUSH1 0x33 PUSH1 0x1 ADD SLOAD DUP7 PUSH2 0x2392 SWAP1 SWAP2 SWAP1 PUSH4 0xFFFFFFFF AND JUMP JUMPDEST SWAP1 POP PUSH2 0x1C03 PUSH1 0x64 PUSH2 0x1BF5 PUSH2 0x2710 PUSH2 0x1BE7 DUP9 PUSH2 0x1BD9 DUP8 PUSH2 0x1BCB DUP11 PUSH1 0x33 PUSH1 0x3 ADD SLOAD PUSH2 0x23A7 SWAP1 SWAP2 SWAP1 PUSH4 0xFFFFFFFF AND JUMP JUMPDEST PUSH2 0x23A7 SWAP1 SWAP2 SWAP1 PUSH4 0xFFFFFFFF AND JUMP JUMPDEST PUSH2 0x23A7 SWAP1 SWAP2 SWAP1 PUSH4 0xFFFFFFFF AND JUMP JUMPDEST PUSH2 0x23BC SWAP1 SWAP2 SWAP1 PUSH4 0xFFFFFFFF AND JUMP JUMPDEST PUSH2 0x23BC SWAP1 SWAP2 SWAP1 PUSH4 0xFFFFFFFF AND JUMP JUMPDEST SWAP3 POP POP POP SWAP4 SWAP3 POP POP POP JUMP JUMPDEST PUSH0 PUSH2 0x1C17 PUSH2 0x12AE JUMP JUMPDEST SWAP1 POP PUSH0 PUSH20 0xFFFFFFFFFFFFFFFFFFFFFFFFFFFFFFFFFFFFFFFF AND DUP6 PUSH20 0xFFFFFFFFFFFFFFFFFFFFFFFFFFFFFFFFFFFFFFFF AND SUB PUSH2 0x1C89 JUMPI PUSH0 PUSH1 0x40 MLOAD PUSH32 0xE602DF0500000000000000000000000000000000000000000000000000000000 DUP2 MSTORE PUSH1 0x4 ADD PUSH2 0x1C80 SWAP2 SWAP1 PUSH2 0x2C29 JUMP JUMPDEST PUSH1 0x40 MLOAD DUP1 SWAP2 SUB SWAP1 REVERT JUMPDEST PUSH0 PUSH20 0xFFFFFFFFFFFFFFFFFFFFFFFFFFFFFFFFFFFFFFFF AND DUP5 PUSH20 0xFFFFFFFFFFFFFFFFFFFFFFFFFFFFFFFFFFFFFFFF AND SUB PUSH2 0x1CF9 JUMPI PUSH0 PUSH1 0x40 MLOAD PUSH32 0x94280D6200000000000000000000000000000000000000000000000000000000 DUP2 MSTORE PUSH1 0x4 ADD PUSH2 0x1CF0 SWAP2 SWAP1 PUSH2 0x2C29 JUMP JUMPDEST PUSH1 0x40 MLOAD DUP1 SWAP2 SUB SWAP1 REVERT JUMPDEST DUP3 DUP2 PUSH1 0x1 ADD PUSH0 DUP8 PUSH20 0xFFFFFFFFFFFFFFFFFFFFFFFFFFFFFFFFFFFFFFFF AND PUSH20 0xFFFFFFFFFFFFFFFFFFFFFFFFFFFFFFFFFFFFFFFF AND DUP2 MSTORE PUSH1 0x20 ADD SWAP1 DUP2 MSTORE PUSH1 0x20 ADD PUSH0 KECCAK256 PUSH0 DUP7 PUSH20 0xFFFFFFFFFFFFFFFFFFFFFFFFFFFFFFFFFFFFFFFF AND PUSH20 0xFFFFFFFFFFFFFFFFFFFFFFFFFFFFFFFFFFFFFFFF AND DUP2 MSTORE PUSH1 0x20 ADD SWAP1 DUP2 MSTORE PUSH1 0x20 ADD PUSH0 KECCAK256 DUP2 SWAP1 SSTORE POP DUP2 ISZERO PUSH2 0x1DE4 JUMPI DUP4 PUSH20 0xFFFFFFFFFFFFFFFFFFFFFFFFFFFFFFFFFFFFFFFF AND DUP6 PUSH20 0xFFFFFFFFFFFFFFFFFFFFFFFFFFFFFFFFFFFFFFFF AND PUSH32 0x8C5BE1E5EBEC7D5BD14F71427D1E84F3DD0314C0F7B2291E5B200AC8C7C3B925 DUP6 PUSH1 0x40 MLOAD PUSH2 0x1DDB SWAP2 SWAP1 PUSH2 0x2940 JUMP JUMPDEST PUSH1 0x40 MLOAD DUP1 SWAP2 SUB SWAP1 LOG3 JUMPDEST POP POP POP POP POP JUMP JUMPDEST PUSH0 PUSH2 0x1DF4 PUSH2 0x12AE JUMP JUMPDEST SWAP1 POP PUSH0 PUSH20 0xFFFFFFFFFFFFFFFFFFFFFFFFFFFFFFFFFFFFFFFF AND DUP5 PUSH20 0xFFFFFFFFFFFFFFFFFFFFFFFFFFFFFFFFFFFFFFFF AND SUB PUSH2 0x1E48 JUMPI DUP2 DUP2 PUSH1 0x2 ADD PUSH0 DUP3 DUP3 SLOAD PUSH2 0x1E3C SWAP2 SWAP1 PUSH2 0x2EE6 JUMP JUMPDEST SWAP3 POP POP DUP2 SWAP1 SSTORE POP PUSH2 0x1F1A JUMP JUMPDEST PUSH0 DUP2 PUSH0 ADD PUSH0 DUP7 PUSH20 0xFFFFFFFFFFFFFFFFFFFFFFFFFFFFFFFFFFFFFFFF AND PUSH20 0xFFFFFFFFFFFFFFFFFFFFFFFFFFFFFFFFFFFFFFFF AND DUP2 MSTORE PUSH1 0x20 ADD SWAP1 DUP2 MSTORE PUSH1 0x20 ADD PUSH0 KECCAK256 SLOAD SWAP1 POP DUP3 DUP2 LT ISZERO PUSH2 0x1ED3 JUMPI DUP5 DUP2 DUP5 PUSH1 0x40 MLOAD PUSH32 0xE450D38C00000000000000000000000000000000000000000000000000000000 DUP2 MSTORE PUSH1 0x4 ADD PUSH2 0x1ECA SWAP4 SWAP3 SWAP2 SWAP1 PUSH2 0x3274 JUMP JUMPDEST PUSH1 0x40 MLOAD DUP1 SWAP2 SUB SWAP1 REVERT JUMPDEST DUP3 DUP2 SUB DUP3 PUSH0 ADD PUSH0 DUP8 PUSH20 0xFFFFFFFFFFFFFFFFFFFFFFFFFFFFFFFFFFFFFFFF AND PUSH20 0xFFFFFFFFFFFFFFFFFFFFFFFFFFFFFFFFFFFFFFFF AND DUP2 MSTORE PUSH1 0x20 ADD SWAP1 DUP2 MSTORE PUSH1 0x20 ADD PUSH0 KECCAK256 DUP2 SWAP1 SSTORE POP POP JUMPDEST PUSH0 PUSH20 0xFFFFFFFFFFFFFFFFFFFFFFFFFFFFFFFFFFFFFFFF AND DUP4 PUSH20 0xFFFFFFFFFFFFFFFFFFFFFFFFFFFFFFFFFFFFFFFF AND SUB PUSH2 0x1F63 JUMPI DUP2 DUP2 PUSH1 0x2 ADD PUSH0 DUP3 DUP3 SLOAD SUB SWAP3 POP POP DUP2 SWAP1 SSTORE POP PUSH2 0x1FAF JUMP JUMPDEST DUP2 DUP2 PUSH0 ADD PUSH0 DUP6 PUSH20 0xFFFFFFFFFFFFFFFFFFFFFFFFFFFFFFFFFFFFFFFF AND PUSH20 0xFFFFFFFFFFFFFFFFFFFFFFFFFFFFFFFFFFFFFFFF AND DUP2 MSTORE PUSH1 0x20 ADD SWAP1 DUP2 MSTORE PUSH1 0x20 ADD PUSH0 KECCAK256 PUSH0 DUP3 DUP3 SLOAD ADD SWAP3 POP POP DUP2 SWAP1 SSTORE POP JUMPDEST DUP3 PUSH20 0xFFFFFFFFFFFFFFFFFFFFFFFFFFFFFFFFFFFFFFFF AND DUP5 PUSH20 0xFFFFFFFFFFFFFFFFFFFFFFFFFFFFFFFFFFFFFFFF AND PUSH32 0xDDF252AD1BE2C89B69C2B068FC378DAA952BA7F163C4A11628F55A4DF523B3EF DUP5 PUSH1 0x40 MLOAD PUSH2 0x200C SWAP2 SWAP1 PUSH2 0x2940 JUMP JUMPDEST PUSH1 0x40 MLOAD DUP1 SWAP2 SUB SWAP1 LOG3 POP POP POP POP JUMP JUMPDEST PUSH2 0x2022 PUSH2 0x911 JUMP JUMPDEST PUSH2 0x2061 JUMPI PUSH1 0x40 MLOAD PUSH32 0x8C379A000000000000000000000000000000000000000000000000000000000 DUP2 MSTORE PUSH1 0x4 ADD PUSH2 0x2058 SWAP1 PUSH2 0x3390 JUMP JUMPDEST PUSH1 0x40 MLOAD DUP1 SWAP2 SUB SWAP1 REVERT JUMPDEST JUMP JUMPDEST PUSH0 PUSH2 0x208F PUSH32 0x360894A13BA1A3210667C828492DB98DCA3E2076CC3735A920A3CA505D382BBC PUSH0 SHL PUSH2 0x23D1 JUMP JUMPDEST PUSH0 ADD PUSH0 SWAP1 SLOAD SWAP1 PUSH2 0x100 EXP SWAP1 DIV PUSH20 0xFFFFFFFFFFFFFFFFFFFFFFFFFFFFFFFFFFFFFFFF AND SWAP1 POP SWAP1 JUMP JUMPDEST PUSH2 0x20BF DUP3 PUSH2 0x23DA JUMP JUMPDEST DUP2 PUSH20 0xFFFFFFFFFFFFFFFFFFFFFFFFFFFFFFFFFFFFFFFF AND PUSH32 0xBC7CD75A20EE27FD9ADEBAB32041F755214DBC6BFFA90CC0225B39DA2E5C2D3B PUSH1 0x40 MLOAD PUSH1 0x40 MLOAD DUP1 SWAP2 SUB SWAP1 LOG2 PUSH0 DUP2 MLOAD GT ISZERO PUSH2 0x211B JUMPI PUSH2 0x2115 DUP3 DUP3 PUSH2 0x24A3 JUMP JUMPDEST POP PUSH2 0x2124 JUMP JUMPDEST PUSH2 0x2123 PUSH2 0x2523 JUMP JUMPDEST JUMPDEST POP POP JUMP JUMPDEST PUSH0 PUSH20 0xFFFFFFFFFFFFFFFFFFFFFFFFFFFFFFFFFFFFFFFF AND DUP3 PUSH20 0xFFFFFFFFFFFFFFFFFFFFFFFFFFFFFFFFFFFFFFFF AND SUB PUSH2 0x2198 JUMPI PUSH0 PUSH1 0x40 MLOAD PUSH32 0x96C6FD1E00000000000000000000000000000000000000000000000000000000 DUP2 MSTORE PUSH1 0x4 ADD PUSH2 0x218F SWAP2 SWAP1 PUSH2 0x2C29 JUMP JUMPDEST PUSH1 0x40 MLOAD DUP1 SWAP2 SUB SWAP1 REVERT JUMPDEST PUSH2 0x21A3 DUP3 PUSH0 DUP4 PUSH2 0x1DEB JUMP JUMPDEST POP POP JUMP JUMPDEST PUSH0 DUP1 DUP5 PUSH1 0x33 PUSH0 ADD SLOAD GT PUSH2 0x21BA JUMPI PUSH0 PUSH2 0x21D2 JUMP JUMPDEST PUSH2 0x21D1 DUP6 PUSH1 0x33 PUSH0 ADD SLOAD PUSH2 0x2392 SWAP1 SWAP2 SWAP1 PUSH4 0xFFFFFFFF AND JUMP JUMPDEST JUMPDEST SWAP1 POP PUSH0 DUP5 PUSH1 0x33 PUSH1 0x1 ADD SLOAD GT PUSH2 0x21E7 JUMPI PUSH0 PUSH2 0x2200 JUMP JUMPDEST PUSH2 0x21FF DUP6 PUSH1 0x33 PUSH1 0x1 ADD SLOAD PUSH2 0x2392 SWAP1 SWAP2 SWAP1 PUSH4 0xFFFFFFFF AND JUMP JUMPDEST JUMPDEST SWAP1 POP PUSH2 0x2265 PUSH1 0x64 PUSH2 0x2257 PUSH2 0x2710 PUSH2 0x2249 DUP9 PUSH2 0x223B DUP8 PUSH2 0x222D DUP11 PUSH1 0x33 PUSH1 0x4 ADD SLOAD PUSH2 0x23A7 SWAP1 SWAP2 SWAP1 PUSH4 0xFFFFFFFF AND JUMP JUMPDEST PUSH2 0x23A7 SWAP1 SWAP2 SWAP1 PUSH4 0xFFFFFFFF AND JUMP JUMPDEST PUSH2 0x23A7 SWAP1 SWAP2 SWAP1 PUSH4 0xFFFFFFFF AND JUMP JUMPDEST PUSH2 0x23BC SWAP1 SWAP2 SWAP1 PUSH4 0xFFFFFFFF AND JUMP JUMPDEST PUSH2 0x23BC SWAP1 SWAP2 SWAP1 PUSH4 0xFFFFFFFF AND JUMP JUMPDEST SWAP3 POP POP POP SWAP4 SWAP3 POP POP POP JUMP JUMPDEST PUSH2 0x2278 PUSH2 0x255F JUMP JUMPDEST PUSH2 0x22AE JUMPI PUSH1 0x40 MLOAD PUSH32 0xD7E6BCF800000000000000000000000000000000000000000000000000000000 DUP2 MSTORE PUSH1 0x4 ADD PUSH1 0x40 MLOAD DUP1 SWAP2 SUB SWAP1 REVERT JUMPDEST JUMP JUMPDEST PUSH2 0x22B8 PUSH2 0x2270 JUMP JUMPDEST PUSH0 PUSH2 0x22C1 PUSH2 0x12AE JUMP JUMPDEST SWAP1 POP DUP3 DUP2 PUSH1 0x3 ADD SWAP1 DUP2 PUSH2 0x22D4 SWAP2 SWAP1 PUSH2 0x3542 JUMP JUMPDEST POP DUP2 DUP2 PUSH1 0x4 ADD SWAP1 DUP2 PUSH2 0x22E6 SWAP2 SWAP1 PUSH2 0x3542 JUMP JUMPDEST POP POP POP POP JUMP JUMPDEST PUSH2 0x22F4 PUSH2 0x2270 JUMP JUMPDEST PUSH0 PUSH20 0xFFFFFFFFFFFFFFFFFFFFFFFFFFFFFFFFFFFFFFFF AND DUP2 PUSH20 0xFFFFFFFFFFFFFFFFFFFFFFFFFFFFFFFFFFFFFFFF AND SUB PUSH2 0x2364 JUMPI PUSH0 PUSH1 0x40 MLOAD PUSH32 0x1E4FBDF700000000000000000000000000000000000000000000000000000000 DUP2 MSTORE PUSH1 0x4 ADD PUSH2 0x235B SWAP2 SWAP1 PUSH2 0x2C29 JUMP JUMPDEST PUSH1 0x40 MLOAD DUP1 SWAP2 SUB SWAP1 REVERT JUMPDEST PUSH2 0x236D DUP2 PUSH2 0x17ED JUMP JUMPDEST POP JUMP JUMPDEST PUSH2 0x2378 PUSH2 0x2270 JUMP JUMPDEST PUSH0 DUP1 PUSH0 PUSH2 0x100 EXP DUP2 SLOAD DUP2 PUSH1 0xFF MUL NOT AND SWAP1 DUP4 ISZERO ISZERO MUL OR SWAP1 SSTORE POP JUMP JUMPDEST PUSH0 DUP2 DUP4 PUSH2 0x239F SWAP2 SWAP1 PUSH2 0x2FCD JUMP JUMPDEST SWAP1 POP SWAP3 SWAP2 POP POP JUMP JUMPDEST PUSH0 DUP2 DUP4 PUSH2 0x23B4 SWAP2 SWAP1 PUSH2 0x31CE JUMP JUMPDEST SWAP1 POP SWAP3 SWAP2 POP POP JUMP JUMPDEST PUSH0 DUP2 DUP4 PUSH2 0x23C9 SWAP2 SWAP1 PUSH2 0x363E JUMP JUMPDEST SWAP1 POP SWAP3 SWAP2 POP POP JUMP JUMPDEST PUSH0 DUP2 SWAP1 POP SWAP2 SWAP1 POP JUMP JUMPDEST PUSH0 DUP2 PUSH20 0xFFFFFFFFFFFFFFFFFFFFFFFFFFFFFFFFFFFFFFFF AND EXTCODESIZE SUB PUSH2 0x2435 JUMPI DUP1 PUSH1 0x40 MLOAD PUSH32 0x4C9C8CE300000000000000000000000000000000000000000000000000000000 DUP2 MSTORE PUSH1 0x4 ADD PUSH2 0x242C SWAP2 SWAP1 PUSH2 0x2C29 JUMP JUMPDEST PUSH1 0x40 MLOAD DUP1 SWAP2 SUB SWAP1 REVERT JUMPDEST DUP1 PUSH2 0x2461 PUSH32 0x360894A13BA1A3210667C828492DB98DCA3E2076CC3735A920A3CA505D382BBC PUSH0 SHL PUSH2 0x23D1 JUMP JUMPDEST PUSH0 ADD PUSH0 PUSH2 0x100 EXP DUP2 SLOAD DUP2 PUSH20 0xFFFFFFFFFFFFFFFFFFFFFFFFFFFFFFFFFFFFFFFF MUL NOT AND SWAP1 DUP4 PUSH20 0xFFFFFFFFFFFFFFFFFFFFFFFFFFFFFFFFFFFFFFFF AND MUL OR SWAP1 SSTORE POP POP JUMP JUMPDEST PUSH1 0x60 PUSH0 DUP1 DUP5 PUSH20 0xFFFFFFFFFFFFFFFFFFFFFFFFFFFFFFFFFFFFFFFF AND DUP5 PUSH1 0x40 MLOAD PUSH2 0x24CC SWAP2 SWAP1 PUSH2 0x36B2 JUMP JUMPDEST PUSH0 PUSH1 0x40 MLOAD DUP1 DUP4 SUB DUP2 DUP6 GAS DELEGATECALL SWAP2 POP POP RETURNDATASIZE DUP1 PUSH0 DUP2 EQ PUSH2 0x2504 JUMPI PUSH1 0x40 MLOAD SWAP2 POP PUSH1 0x1F NOT PUSH1 0x3F RETURNDATASIZE ADD AND DUP3 ADD PUSH1 0x40 MSTORE RETURNDATASIZE DUP3 MSTORE RETURNDATASIZE PUSH0 PUSH1 0x20 DUP5 ADD RETURNDATACOPY PUSH2 0x2509 JUMP JUMPDEST PUSH1 0x60 SWAP2 POP JUMPDEST POP SWAP2 POP SWAP2 POP PUSH2 0x2519 DUP6 DUP4 DUP4 PUSH2 0x257D JUMP JUMPDEST SWAP3 POP POP POP SWAP3 SWAP2 POP POP JUMP JUMPDEST PUSH0 CALLVALUE GT ISZERO PUSH2 0x255D JUMPI PUSH1 0x40 MLOAD PUSH32 0xB398979F00000000000000000000000000000000000000000000000000000000 DUP2 MSTORE PUSH1 0x4 ADD PUSH1 0x40 MLOAD DUP1 SWAP2 SUB SWAP1 REVERT JUMPDEST JUMP JUMPDEST PUSH0 PUSH2 0x2568 PUSH2 0x1A7E JUMP JUMPDEST PUSH0 ADD PUSH1 0x8 SWAP1 SLOAD SWAP1 PUSH2 0x100 EXP SWAP1 DIV PUSH1 0xFF AND SWAP1 POP SWAP1 JUMP JUMPDEST PUSH1 0x60 DUP3 PUSH2 0x2592 JUMPI PUSH2 0x258D DUP3 PUSH2 0x260A JUMP JUMPDEST PUSH2 0x2602 JUMP JUMPDEST PUSH0 DUP3 MLOAD EQ DUP1 ISZERO PUSH2 0x25B8 JUMPI POP PUSH0 DUP5 PUSH20 0xFFFFFFFFFFFFFFFFFFFFFFFFFFFFFFFFFFFFFFFF AND EXTCODESIZE EQ JUMPDEST ISZERO PUSH2 0x25FA JUMPI DUP4 PUSH1 0x40 MLOAD PUSH32 0x9996B31500000000000000000000000000000000000000000000000000000000 DUP2 MSTORE PUSH1 0x4 ADD PUSH2 0x25F1 SWAP2 SWAP1 PUSH2 0x2C29 JUMP JUMPDEST PUSH1 0x40 MLOAD DUP1 SWAP2 SUB SWAP1 REVERT JUMPDEST DUP2 SWAP1 POP PUSH2 0x2603 JUMP JUMPDEST JUMPDEST SWAP4 SWAP3 POP POP POP JUMP JUMPDEST PUSH0 DUP2 MLOAD GT ISZERO PUSH2 0x261C JUMPI DUP1 MLOAD DUP1 DUP3 PUSH1 0x20 ADD REVERT JUMPDEST PUSH1 0x40 MLOAD PUSH32 0xD6BDA27500000000000000000000000000000000000000000000000000000000 DUP2 MSTORE PUSH1 0x4 ADD PUSH1 0x40 MLOAD DUP1 SWAP2 SUB SWAP1 REVERT JUMPDEST PUSH0 DUP2 MLOAD SWAP1 POP SWAP2 SWAP1 POP JUMP JUMPDEST PUSH0 DUP3 DUP3 MSTORE PUSH1 0x20 DUP3 ADD SWAP1 POP SWAP3 SWAP2 POP POP JUMP JUMPDEST DUP3 DUP2 DUP4 MCOPY PUSH0 DUP4 DUP4 ADD MSTORE POP POP POP JUMP JUMPDEST PUSH0 PUSH1 0x1F NOT PUSH1 0x1F DUP4 ADD AND SWAP1 POP SWAP2 SWAP1 POP JUMP JUMPDEST PUSH0 PUSH2 0x2690 DUP3 PUSH2 0x264E JUMP JUMPDEST PUSH2 0x269A DUP2 DUP6 PUSH2 0x2658 JUMP JUMPDEST SWAP4 POP PUSH2 0x26AA DUP2 DUP6 PUSH1 0x20 DUP7 ADD PUSH2 0x2668 JUMP JUMPDEST PUSH2 0x26B3 DUP2 PUSH2 0x2676 JUMP JUMPDEST DUP5 ADD SWAP2 POP POP SWAP3 SWAP2 POP POP JUMP JUMPDEST PUSH0 PUSH1 0x20 DUP3 ADD SWAP1 POP DUP2 DUP2 SUB PUSH0 DUP4 ADD MSTORE PUSH2 0x26D6 DUP2 DUP5 PUSH2 0x2686 JUMP JUMPDEST SWAP1 POP SWAP3 SWAP2 POP POP JUMP JUMPDEST PUSH0 PUSH1 0x40 MLOAD SWAP1 POP SWAP1 JUMP JUMPDEST PUSH0 DUP1 REVERT JUMPDEST PUSH0 DUP1 REVERT JUMPDEST PUSH0 PUSH20 0xFFFFFFFFFFFFFFFFFFFFFFFFFFFFFFFFFFFFFFFF DUP3 AND SWAP1 POP SWAP2 SWAP1 POP JUMP JUMPDEST PUSH0 PUSH2 0x2718 DUP3 PUSH2 0x26EF JUMP JUMPDEST SWAP1 POP SWAP2 SWAP1 POP JUMP JUMPDEST PUSH2 0x2728 DUP2 PUSH2 0x270E JUMP JUMPDEST DUP2 EQ PUSH2 0x2732 JUMPI PUSH0 DUP1 REVERT JUMPDEST POP JUMP JUMPDEST PUSH0 DUP2 CALLDATALOAD SWAP1 POP PUSH2 0x2743 DUP2 PUSH2 0x271F JUMP JUMPDEST SWAP3 SWAP2 POP POP JUMP JUMPDEST PUSH0 DUP2 SWAP1 POP SWAP2 SWAP1 POP JUMP JUMPDEST PUSH2 0x275B DUP2 PUSH2 0x2749 JUMP JUMPDEST DUP2 EQ PUSH2 0x2765 JUMPI PUSH0 DUP1 REVERT JUMPDEST POP JUMP JUMPDEST PUSH0 DUP2 CALLDATALOAD SWAP1 POP PUSH2 0x2776 DUP2 PUSH2 0x2752 JUMP JUMPDEST SWAP3 SWAP2 POP POP JUMP JUMPDEST PUSH0 DUP1 PUSH1 0x40 DUP4 DUP6 SUB SLT ISZERO PUSH2 0x2792 JUMPI PUSH2 0x2791 PUSH2 0x26E7 JUMP JUMPDEST JUMPDEST PUSH0 PUSH2 0x279F DUP6 DUP3 DUP7 ADD PUSH2 0x2735 JUMP JUMPDEST SWAP3 POP POP PUSH1 0x20 PUSH2 0x27B0 DUP6 DUP3 DUP7 ADD PUSH2 0x2768 JUMP JUMPDEST SWAP2 POP POP SWAP3 POP SWAP3 SWAP1 POP JUMP JUMPDEST PUSH0 DUP2 ISZERO ISZERO SWAP1 POP SWAP2 SWAP1 POP JUMP JUMPDEST PUSH2 0x27CE DUP2 PUSH2 0x27BA JUMP JUMPDEST DUP3 MSTORE POP POP JUMP JUMPDEST PUSH0 PUSH1 0x20 DUP3 ADD SWAP1 POP PUSH2 0x27E7 PUSH0 DUP4 ADD DUP5 PUSH2 0x27C5 JUMP JUMPDEST SWAP3 SWAP2 POP POP JUMP JUMPDEST PUSH0 DUP1 REVERT JUMPDEST PUSH32 0x4E487B7100000000000000000000000000000000000000000000000000000000 PUSH0 MSTORE PUSH1 0x41 PUSH1 0x4 MSTORE PUSH1 0x24 PUSH0 REVERT JUMPDEST PUSH2 0x2827 DUP3 PUSH2 0x2676 JUMP JUMPDEST DUP2 ADD DUP2 DUP2 LT PUSH8 0xFFFFFFFFFFFFFFFF DUP3 GT OR ISZERO PUSH2 0x2846 JUMPI PUSH2 0x2845 PUSH2 0x27F1 JUMP JUMPDEST JUMPDEST DUP1 PUSH1 0x40 MSTORE POP POP POP JUMP JUMPDEST PUSH0 PUSH2 0x2858 PUSH2 0x26DE JUMP JUMPDEST SWAP1 POP PUSH2 0x2864 DUP3 DUP3 PUSH2 0x281E JUMP JUMPDEST SWAP2 SWAP1 POP JUMP JUMPDEST PUSH0 PUSH1 0xC0 DUP3 DUP5 SUB SLT ISZERO PUSH2 0x287E JUMPI PUSH2 0x287D PUSH2 0x27ED JUMP JUMPDEST JUMPDEST PUSH2 0x2888 PUSH1 0xC0 PUSH2 0x284F JUMP JUMPDEST SWAP1 POP PUSH0 PUSH2 0x2897 DUP5 DUP3 DUP6 ADD PUSH2 0x2768 JUMP JUMPDEST PUSH0 DUP4 ADD MSTORE POP PUSH1 0x20 PUSH2 0x28AA DUP5 DUP3 DUP6 ADD PUSH2 0x2768 JUMP JUMPDEST PUSH1 0x20 DUP4 ADD MSTORE POP PUSH1 0x40 PUSH2 0x28BE DUP5 DUP3 DUP6 ADD PUSH2 0x2768 JUMP JUMPDEST PUSH1 0x40 DUP4 ADD MSTORE POP PUSH1 0x60 PUSH2 0x28D2 DUP5 DUP3 DUP6 ADD PUSH2 0x2768 JUMP JUMPDEST PUSH1 0x60 DUP4 ADD MSTORE POP PUSH1 0x80 PUSH2 0x28E6 DUP5 DUP3 DUP6 ADD PUSH2 0x2768 JUMP JUMPDEST PUSH1 0x80 DUP4 ADD MSTORE POP PUSH1 0xA0 PUSH2 0x28FA DUP5 DUP3 DUP6 ADD PUSH2 0x2768 JUMP JUMPDEST PUSH1 0xA0 DUP4 ADD MSTORE POP SWAP3 SWAP2 POP POP JUMP JUMPDEST PUSH0 PUSH1 0xC0 DUP3 DUP5 SUB SLT ISZERO PUSH2 0x291B JUMPI PUSH2 0x291A PUSH2 0x26E7 JUMP JUMPDEST JUMPDEST PUSH0 PUSH2 0x2928 DUP5 DUP3 DUP6 ADD PUSH2 0x2869 JUMP JUMPDEST SWAP2 POP POP SWAP3 SWAP2 POP POP JUMP JUMPDEST PUSH2 0x293A DUP2 PUSH2 0x2749 JUMP JUMPDEST DUP3 MSTORE POP POP JUMP JUMPDEST PUSH0 PUSH1 0x20 DUP3 ADD SWAP1 POP PUSH2 0x2953 PUSH0 DUP4 ADD DUP5 PUSH2 0x2931 JUMP JUMPDEST SWAP3 SWAP2 POP POP JUMP JUMPDEST PUSH0 PUSH1 0x20 DUP3 DUP5 SUB SLT ISZERO PUSH2 0x296E JUMPI PUSH2 0x296D PUSH2 0x26E7 JUMP JUMPDEST JUMPDEST PUSH0 PUSH2 0x297B DUP5 DUP3 DUP6 ADD PUSH2 0x2735 JUMP JUMPDEST SWAP2 POP POP SWAP3 SWAP2 POP POP JUMP JUMPDEST PUSH0 DUP1 PUSH0 PUSH1 0x60 DUP5 DUP7 SUB SLT ISZERO PUSH2 0x299B JUMPI PUSH2 0x299A PUSH2 0x26E7 JUMP JUMPDEST JUMPDEST PUSH0 PUSH2 0x29A8 DUP7 DUP3 DUP8 ADD PUSH2 0x2735 JUMP JUMPDEST SWAP4 POP POP PUSH1 0x20 PUSH2 0x29B9 DUP7 DUP3 DUP8 ADD PUSH2 0x2735 JUMP JUMPDEST SWAP3 POP POP PUSH1 0x40 PUSH2 0x29CA DUP7 DUP3 DUP8 ADD PUSH2 0x2768 JUMP JUMPDEST SWAP2 POP POP SWAP3 POP SWAP3 POP SWAP3 JUMP JUMPDEST PUSH0 PUSH1 0xFF DUP3 AND SWAP1 POP SWAP2 SWAP1 POP JUMP JUMPDEST PUSH2 0x29E9 DUP2 PUSH2 0x29D4 JUMP JUMPDEST DUP3 MSTORE POP POP JUMP JUMPDEST PUSH0 PUSH1 0x20 DUP3 ADD SWAP1 POP PUSH2 0x2A02 PUSH0 DUP4 ADD DUP5 PUSH2 0x29E0 JUMP JUMPDEST SWAP3 SWAP2 POP POP JUMP JUMPDEST PUSH0 PUSH1 0xC0 DUP3 ADD SWAP1 POP PUSH2 0x2A1B PUSH0 DUP4 ADD DUP10 PUSH2 0x2931 JUMP JUMPDEST PUSH2 0x2A28 PUSH1 0x20 DUP4 ADD DUP9 PUSH2 0x2931 JUMP JUMPDEST PUSH2 0x2A35 PUSH1 0x40 DUP4 ADD DUP8 PUSH2 0x2931 JUMP JUMPDEST PUSH2 0x2A42 PUSH1 0x60 DUP4 ADD DUP7 PUSH2 0x2931 JUMP JUMPDEST PUSH2 0x2A4F PUSH1 0x80 DUP4 ADD DUP6 PUSH2 0x2931 JUMP JUMPDEST PUSH2 0x2A5C PUSH1 0xA0 DUP4 ADD DUP5 PUSH2 0x2931 JUMP JUMPDEST SWAP8 SWAP7 POP POP POP POP POP POP POP JUMP JUMPDEST PUSH0 DUP1 REVERT JUMPDEST PUSH0 DUP1 REVERT JUMPDEST PUSH0 PUSH8 0xFFFFFFFFFFFFFFFF DUP3 GT ISZERO PUSH2 0x2A89 JUMPI PUSH2 0x2A88 PUSH2 0x27F1 JUMP JUMPDEST JUMPDEST PUSH2 0x2A92 DUP3 PUSH2 0x2676 JUMP JUMPDEST SWAP1 POP PUSH1 0x20 DUP2 ADD SWAP1 POP SWAP2 SWAP1 POP JUMP JUMPDEST DUP3 DUP2 DUP4 CALLDATACOPY PUSH0 DUP4 DUP4 ADD MSTORE POP POP POP JUMP JUMPDEST PUSH0 PUSH2 0x2ABF PUSH2 0x2ABA DUP5 PUSH2 0x2A6F JUMP JUMPDEST PUSH2 0x284F JUMP JUMPDEST SWAP1 POP DUP3 DUP2 MSTORE PUSH1 0x20 DUP2 ADD DUP5 DUP5 DUP5 ADD GT ISZERO PUSH2 0x2ADB JUMPI PUSH2 0x2ADA PUSH2 0x2A6B JUMP JUMPDEST JUMPDEST PUSH2 0x2AE6 DUP5 DUP3 DUP6 PUSH2 0x2A9F JUMP JUMPDEST POP SWAP4 SWAP3 POP POP POP JUMP JUMPDEST PUSH0 DUP3 PUSH1 0x1F DUP4 ADD SLT PUSH2 0x2B02 JUMPI PUSH2 0x2B01 PUSH2 0x2A67 JUMP JUMPDEST JUMPDEST DUP2 CALLDATALOAD PUSH2 0x2B12 DUP5 DUP3 PUSH1 0x20 DUP7 ADD PUSH2 0x2AAD JUMP JUMPDEST SWAP2 POP POP SWAP3 SWAP2 POP POP JUMP JUMPDEST PUSH0 DUP1 PUSH1 0x40 DUP4 DUP6 SUB SLT ISZERO PUSH2 0x2B31 JUMPI PUSH2 0x2B30 PUSH2 0x26E7 JUMP JUMPDEST JUMPDEST PUSH0 PUSH2 0x2B3E DUP6 DUP3 DUP7 ADD PUSH2 0x2735 JUMP JUMPDEST SWAP3 POP POP PUSH1 0x20 DUP4 ADD CALLDATALOAD PUSH8 0xFFFFFFFFFFFFFFFF DUP2 GT ISZERO PUSH2 0x2B5F JUMPI PUSH2 0x2B5E PUSH2 0x26EB JUMP JUMPDEST JUMPDEST PUSH2 0x2B6B DUP6 DUP3 DUP7 ADD PUSH2 0x2AEE JUMP JUMPDEST SWAP2 POP POP SWAP3 POP SWAP3 SWAP1 POP JUMP JUMPDEST PUSH0 DUP2 SWAP1 POP SWAP2 SWAP1 POP JUMP JUMPDEST PUSH2 0x2B87 DUP2 PUSH2 0x2B75 JUMP JUMPDEST DUP3 MSTORE POP POP JUMP JUMPDEST PUSH0 PUSH1 0x20 DUP3 ADD SWAP1 POP PUSH2 0x2BA0 PUSH0 DUP4 ADD DUP5 PUSH2 0x2B7E JUMP JUMPDEST SWAP3 SWAP2 POP POP JUMP JUMPDEST PUSH0 DUP2 SWAP1 POP SWAP2 SWAP1 POP JUMP JUMPDEST PUSH0 PUSH2 0x2BC9 PUSH2 0x2BC4 PUSH2 0x2BBF DUP5 PUSH2 0x26EF JUMP JUMPDEST PUSH2 0x2BA6 JUMP JUMPDEST PUSH2 0x26EF JUMP JUMPDEST SWAP1 POP SWAP2 SWAP1 POP JUMP JUMPDEST PUSH0 PUSH2 0x2BDA DUP3 PUSH2 0x2BAF JUMP JUMPDEST SWAP1 POP SWAP2 SWAP1 POP JUMP JUMPDEST PUSH0 PUSH2 0x2BEB DUP3 PUSH2 0x2BD0 JUMP JUMPDEST SWAP1 POP SWAP2 SWAP1 POP JUMP JUMPDEST PUSH2 0x2BFB DUP2 PUSH2 0x2BE1 JUMP JUMPDEST DUP3 MSTORE POP POP JUMP JUMPDEST PUSH0 PUSH1 0x20 DUP3 ADD SWAP1 POP PUSH2 0x2C14 PUSH0 DUP4 ADD DUP5 PUSH2 0x2BF2 JUMP JUMPDEST SWAP3 SWAP2 POP POP JUMP JUMPDEST PUSH2 0x2C23 DUP2 PUSH2 0x270E JUMP JUMPDEST DUP3 MSTORE POP POP JUMP JUMPDEST PUSH0 PUSH1 0x20 DUP3 ADD SWAP1 POP PUSH2 0x2C3C PUSH0 DUP4 ADD DUP5 PUSH2 0x2C1A JUMP JUMPDEST SWAP3 SWAP2 POP POP JUMP JUMPDEST PUSH0 PUSH8 0xFFFFFFFFFFFFFFFF DUP3 GT ISZERO PUSH2 0x2C5C JUMPI PUSH2 0x2C5B PUSH2 0x27F1 JUMP JUMPDEST JUMPDEST PUSH2 0x2C65 DUP3 PUSH2 0x2676 JUMP JUMPDEST SWAP1 POP PUSH1 0x20 DUP2 ADD SWAP1 POP SWAP2 SWAP1 POP JUMP JUMPDEST PUSH0 PUSH2 0x2C84 PUSH2 0x2C7F DUP5 PUSH2 0x2C42 JUMP JUMPDEST PUSH2 0x284F JUMP JUMPDEST SWAP1 POP DUP3 DUP2 MSTORE PUSH1 0x20 DUP2 ADD DUP5 DUP5 DUP5 ADD GT ISZERO PUSH2 0x2CA0 JUMPI PUSH2 0x2C9F PUSH2 0x2A6B JUMP JUMPDEST JUMPDEST PUSH2 0x2CAB DUP5 DUP3 DUP6 PUSH2 0x2A9F JUMP JUMPDEST POP SWAP4 SWAP3 POP POP POP JUMP JUMPDEST PUSH0 DUP3 PUSH1 0x1F DUP4 ADD SLT PUSH2 0x2CC7 JUMPI PUSH2 0x2CC6 PUSH2 0x2A67 JUMP JUMPDEST JUMPDEST DUP2 CALLDATALOAD PUSH2 0x2CD7 DUP5 DUP3 PUSH1 0x20 DUP7 ADD PUSH2 0x2C72 JUMP JUMPDEST SWAP2 POP POP SWAP3 SWAP2 POP POP JUMP JUMPDEST PUSH0 DUP1 PUSH0 DUP1 PUSH2 0x120 DUP6 DUP8 SUB SLT ISZERO PUSH2 0x2CF9 JUMPI PUSH2 0x2CF8 PUSH2 0x26E7 JUMP JUMPDEST JUMPDEST PUSH0 DUP6 ADD CALLDATALOAD PUSH8 0xFFFFFFFFFFFFFFFF DUP2 GT ISZERO PUSH2 0x2D16 JUMPI PUSH2 0x2D15 PUSH2 0x26EB JUMP JUMPDEST JUMPDEST PUSH2 0x2D22 DUP8 DUP3 DUP9 ADD PUSH2 0x2CB3 JUMP JUMPDEST SWAP5 POP POP PUSH1 0x20 DUP6 ADD CALLDATALOAD PUSH8 0xFFFFFFFFFFFFFFFF DUP2 GT ISZERO PUSH2 0x2D43 JUMPI PUSH2 0x2D42 PUSH2 0x26EB JUMP JUMPDEST JUMPDEST PUSH2 0x2D4F DUP8 DUP3 DUP9 ADD PUSH2 0x2CB3 JUMP JUMPDEST SWAP4 POP POP PUSH1 0x40 PUSH2 0x2D60 DUP8 DUP3 DUP9 ADD PUSH2 0x2735 JUMP JUMPDEST SWAP3 POP POP PUSH1 0x60 PUSH2 0x2D71 DUP8 DUP3 DUP9 ADD PUSH2 0x2869 JUMP JUMPDEST SWAP2 POP POP SWAP3 SWAP6 SWAP2 SWAP5 POP SWAP3 POP JUMP JUMPDEST PUSH0 DUP1 PUSH1 0x40 DUP4 DUP6 SUB SLT ISZERO PUSH2 0x2D93 JUMPI PUSH2 0x2D92 PUSH2 0x26E7 JUMP JUMPDEST JUMPDEST PUSH0 PUSH2 0x2DA0 DUP6 DUP3 DUP7 ADD PUSH2 0x2735 JUMP JUMPDEST SWAP3 POP POP PUSH1 0x20 PUSH2 0x2DB1 DUP6 DUP3 DUP7 ADD PUSH2 0x2735 JUMP JUMPDEST SWAP2 POP POP SWAP3 POP SWAP3 SWAP1 POP JUMP JUMPDEST PUSH32 0x4E487B7100000000000000000000000000000000000000000000000000000000 PUSH0 MSTORE PUSH1 0x22 PUSH1 0x4 MSTORE PUSH1 0x24 PUSH0 REVERT JUMPDEST PUSH0 PUSH1 0x2 DUP3 DIV SWAP1 POP PUSH1 0x1 DUP3 AND DUP1 PUSH2 0x2DFF JUMPI PUSH1 0x7F DUP3 AND SWAP2 POP JUMPDEST PUSH1 0x20 DUP3 LT DUP2 SUB PUSH2 0x2E12 JUMPI PUSH2 0x2E11 PUSH2 0x2DBB JUMP JUMPDEST JUMPDEST POP SWAP2 SWAP1 POP JUMP JUMPDEST PUSH2 0x2E21 DUP2 PUSH2 0x2749 JUMP JUMPDEST DUP3 MSTORE POP POP JUMP JUMPDEST PUSH1 0xC0 DUP3 ADD PUSH0 DUP3 ADD MLOAD PUSH2 0x2E3B PUSH0 DUP6 ADD DUP3 PUSH2 0x2E18 JUMP JUMPDEST POP PUSH1 0x20 DUP3 ADD MLOAD PUSH2 0x2E4E PUSH1 0x20 DUP6 ADD DUP3 PUSH2 0x2E18 JUMP JUMPDEST POP PUSH1 0x40 DUP3 ADD MLOAD PUSH2 0x2E61 PUSH1 0x40 DUP6 ADD DUP3 PUSH2 0x2E18 JUMP JUMPDEST POP PUSH1 0x60 DUP3 ADD MLOAD PUSH2 0x2E74 PUSH1 0x60 DUP6 ADD DUP3 PUSH2 0x2E18 JUMP JUMPDEST POP PUSH1 0x80 DUP3 ADD MLOAD PUSH2 0x2E87 PUSH1 0x80 DUP6 ADD DUP3 PUSH2 0x2E18 JUMP JUMPDEST POP PUSH1 0xA0 DUP3 ADD MLOAD PUSH2 0x2E9A PUSH1 0xA0 DUP6 ADD DUP3 PUSH2 0x2E18 JUMP JUMPDEST POP POP POP POP JUMP JUMPDEST PUSH0 PUSH1 0xC0 DUP3 ADD SWAP1 POP PUSH2 0x2EB3 PUSH0 DUP4 ADD DUP5 PUSH2 0x2E27 JUMP JUMPDEST SWAP3 SWAP2 POP POP JUMP JUMPDEST PUSH32 0x4E487B7100000000000000000000000000000000000000000000000000000000 PUSH0 MSTORE PUSH1 0x11 PUSH1 0x4 MSTORE PUSH1 0x24 PUSH0 REVERT JUMPDEST PUSH0 PUSH2 0x2EF0 DUP3 PUSH2 0x2749 JUMP JUMPDEST SWAP2 POP PUSH2 0x2EFB DUP4 PUSH2 0x2749 JUMP JUMPDEST SWAP3 POP DUP3 DUP3 ADD SWAP1 POP DUP1 DUP3 GT ISZERO PUSH2 0x2F13 JUMPI PUSH2 0x2F12 PUSH2 0x2EB9 JUMP JUMPDEST JUMPDEST SWAP3 SWAP2 POP POP JUMP JUMPDEST PUSH0 DUP2 MLOAD SWAP1 POP PUSH2 0x2F27 DUP2 PUSH2 0x2752 JUMP JUMPDEST SWAP3 SWAP2 POP POP JUMP JUMPDEST PUSH0 PUSH1 0x80 DUP3 DUP5 SUB SLT ISZERO PUSH2 0x2F42 JUMPI PUSH2 0x2F41 PUSH2 0x27ED JUMP JUMPDEST JUMPDEST PUSH2 0x2F4C PUSH1 0x80 PUSH2 0x284F JUMP JUMPDEST SWAP1 POP PUSH0 PUSH2 0x2F5B DUP5 DUP3 DUP6 ADD PUSH2 0x2F19 JUMP JUMPDEST PUSH0 DUP4 ADD MSTORE POP PUSH1 0x20 PUSH2 0x2F6E DUP5 DUP3 DUP6 ADD PUSH2 0x2F19 JUMP JUMPDEST PUSH1 0x20 DUP4 ADD MSTORE POP PUSH1 0x40 PUSH2 0x2F82 DUP5 DUP3 DUP6 ADD PUSH2 0x2F19 JUMP JUMPDEST PUSH1 0x40 DUP4 ADD MSTORE POP PUSH1 0x60 PUSH2 0x2F96 DUP5 DUP3 DUP6 ADD PUSH2 0x2F19 JUMP JUMPDEST PUSH1 0x60 DUP4 ADD MSTORE POP SWAP3 SWAP2 POP POP JUMP JUMPDEST PUSH0 PUSH1 0x80 DUP3 DUP5 SUB SLT ISZERO PUSH2 0x2FB7 JUMPI PUSH2 0x2FB6 PUSH2 0x26E7 JUMP JUMPDEST JUMPDEST PUSH0 PUSH2 0x2FC4 DUP5 DUP3 DUP6 ADD PUSH2 0x2F2D JUMP JUMPDEST SWAP2 POP POP SWAP3 SWAP2 POP POP JUMP JUMPDEST PUSH0 PUSH2 0x2FD7 DUP3 PUSH2 0x2749 JUMP JUMPDEST SWAP2 POP PUSH2 0x2FE2 DUP4 PUSH2 0x2749 JUMP JUMPDEST SWAP3 POP DUP3 DUP3 SUB SWAP1 POP DUP2 DUP2 GT ISZERO PUSH2 0x2FFA JUMPI PUSH2 0x2FF9 PUSH2 0x2EB9 JUMP JUMPDEST JUMPDEST SWAP3 SWAP2 POP POP JUMP JUMPDEST PUSH2 0x3009 DUP2 PUSH2 0x2B75 JUMP JUMPDEST DUP2 EQ PUSH2 0x3013 JUMPI PUSH0 DUP1 REVERT JUMPDEST POP JUMP JUMPDEST PUSH0 DUP2 MLOAD SWAP1 POP PUSH2 0x3024 DUP2 PUSH2 0x3000 JUMP JUMPDEST SWAP3 SWAP2 POP POP JUMP JUMPDEST PUSH0 PUSH1 0x20 DUP3 DUP5 SUB SLT ISZERO PUSH2 0x303F JUMPI PUSH2 0x303E PUSH2 0x26E7 JUMP JUMPDEST JUMPDEST PUSH0 PUSH2 0x304C DUP5 DUP3 DUP6 ADD PUSH2 0x3016 JUMP JUMPDEST SWAP2 POP POP SWAP3 SWAP2 POP POP JUMP JUMPDEST PUSH0 DUP2 PUSH1 0x1 SHR SWAP1 POP SWAP2 SWAP1 POP JUMP JUMPDEST PUSH0 DUP1 DUP3 SWAP2 POP DUP4 SWAP1 POP JUMPDEST PUSH1 0x1 DUP6 GT ISZERO PUSH2 0x30AA JUMPI DUP1 DUP7 DIV DUP2 GT ISZERO PUSH2 0x3086 JUMPI PUSH2 0x3085 PUSH2 0x2EB9 JUMP JUMPDEST JUMPDEST PUSH1 0x1 DUP6 AND ISZERO PUSH2 0x3095 JUMPI DUP1 DUP3 MUL SWAP2 POP JUMPDEST DUP1 DUP2 MUL SWAP1 POP PUSH2 0x30A3 DUP6 PUSH2 0x3055 JUMP JUMPDEST SWAP5 POP PUSH2 0x306A JUMP JUMPDEST SWAP5 POP SWAP5 SWAP3 POP POP POP JUMP JUMPDEST PUSH0 DUP3 PUSH2 0x30C2 JUMPI PUSH1 0x1 SWAP1 POP PUSH2 0x317D JUMP JUMPDEST DUP2 PUSH2 0x30CF JUMPI PUSH0 SWAP1 POP PUSH2 0x317D JUMP JUMPDEST DUP2 PUSH1 0x1 DUP2 EQ PUSH2 0x30E5 JUMPI PUSH1 0x2 DUP2 EQ PUSH2 0x30EF JUMPI PUSH2 0x311E JUMP JUMPDEST PUSH1 0x1 SWAP2 POP POP PUSH2 0x317D JUMP JUMPDEST PUSH1 0xFF DUP5 GT ISZERO PUSH2 0x3101 JUMPI PUSH2 0x3100 PUSH2 0x2EB9 JUMP JUMPDEST JUMPDEST DUP4 PUSH1 0x2 EXP SWAP2 POP DUP5 DUP3 GT ISZERO PUSH2 0x3118 JUMPI PUSH2 0x3117 PUSH2 0x2EB9 JUMP JUMPDEST JUMPDEST POP PUSH2 0x317D JUMP JUMPDEST POP PUSH1 0x20 DUP4 LT PUSH2 0x133 DUP4 LT AND PUSH1 0x4E DUP5 LT PUSH1 0xB DUP5 LT AND OR ISZERO PUSH2 0x3153 JUMPI DUP3 DUP3 EXP SWAP1 POP DUP4 DUP2 GT ISZERO PUSH2 0x314E JUMPI PUSH2 0x314D PUSH2 0x2EB9 JUMP JUMPDEST JUMPDEST PUSH2 0x317D JUMP JUMPDEST PUSH2 0x3160 DUP5 DUP5 DUP5 PUSH1 0x1 PUSH2 0x3061 JUMP JUMPDEST SWAP3 POP SWAP1 POP DUP2 DUP5 DIV DUP2 GT ISZERO PUSH2 0x3177 JUMPI PUSH2 0x3176 PUSH2 0x2EB9 JUMP JUMPDEST JUMPDEST DUP2 DUP2 MUL SWAP1 POP JUMPDEST SWAP4 SWAP3 POP POP POP JUMP JUMPDEST PUSH0 PUSH2 0x318E DUP3 PUSH2 0x2749 JUMP JUMPDEST SWAP2 POP PUSH2 0x3199 DUP4 PUSH2 0x29D4 JUMP JUMPDEST SWAP3 POP PUSH2 0x31C6 PUSH32 0xFFFFFFFFFFFFFFFFFFFFFFFFFFFFFFFFFFFFFFFFFFFFFFFFFFFFFFFFFFFFFFFF DUP5 DUP5 PUSH2 0x30B3 JUMP JUMPDEST SWAP1 POP SWAP3 SWAP2 POP POP JUMP JUMPDEST PUSH0 PUSH2 0x31D8 DUP3 PUSH2 0x2749 JUMP JUMPDEST SWAP2 POP PUSH2 0x31E3 DUP4 PUSH2 0x2749 JUMP JUMPDEST SWAP3 POP DUP3 DUP3 MUL PUSH2 0x31F1 DUP2 PUSH2 0x2749 JUMP JUMPDEST SWAP2 POP DUP3 DUP3 DIV DUP5 EQ DUP4 ISZERO OR PUSH2 0x3208 JUMPI PUSH2 0x3207 PUSH2 0x2EB9 JUMP JUMPDEST JUMPDEST POP SWAP3 SWAP2 POP POP JUMP JUMPDEST PUSH0 DUP2 SWAP1 POP SWAP2 SWAP1 POP JUMP JUMPDEST PUSH0 PUSH8 0xFFFFFFFFFFFFFFFF DUP3 AND SWAP1 POP SWAP2 SWAP1 POP JUMP JUMPDEST PUSH0 PUSH2 0x3245 PUSH2 0x3240 PUSH2 0x323B DUP5 PUSH2 0x320F JUMP JUMPDEST PUSH2 0x2BA6 JUMP JUMPDEST PUSH2 0x3218 JUMP JUMPDEST SWAP1 POP SWAP2 SWAP1 POP JUMP JUMPDEST PUSH2 0x3255 DUP2 PUSH2 0x322B JUMP JUMPDEST DUP3 MSTORE POP POP JUMP JUMPDEST PUSH0 PUSH1 0x20 DUP3 ADD SWAP1 POP PUSH2 0x326E PUSH0 DUP4 ADD DUP5 PUSH2 0x324C JUMP JUMPDEST SWAP3 SWAP2 POP POP JUMP JUMPDEST PUSH0 PUSH1 0x60 DUP3 ADD SWAP1 POP PUSH2 0x3287 PUSH0 DUP4 ADD DUP7 PUSH2 0x2C1A JUMP JUMPDEST PUSH2 0x3294 PUSH1 0x20 DUP4 ADD DUP6 PUSH2 0x2931 JUMP JUMPDEST PUSH2 0x32A1 PUSH1 0x40 DUP4 ADD DUP5 PUSH2 0x2931 JUMP JUMPDEST SWAP5 SWAP4 POP POP POP POP JUMP JUMPDEST PUSH32 0x5061757361626C653A2070617573656400000000000000000000000000000000 PUSH0 DUP3 ADD MSTORE POP JUMP JUMPDEST PUSH0 PUSH2 0x32DD PUSH1 0x10 DUP4 PUSH2 0x2658 JUMP JUMPDEST SWAP2 POP PUSH2 0x32E8 DUP3 PUSH2 0x32A9 JUMP JUMPDEST PUSH1 0x20 DUP3 ADD SWAP1 POP SWAP2 SWAP1 POP JUMP JUMPDEST PUSH0 PUSH1 0x20 DUP3 ADD SWAP1 POP DUP2 DUP2 SUB PUSH0 DUP4 ADD MSTORE PUSH2 0x330A DUP2 PUSH2 0x32D1 JUMP JUMPDEST SWAP1 POP SWAP2 SWAP1 POP JUMP JUMPDEST PUSH0 PUSH1 0x60 DUP3 ADD SWAP1 POP PUSH2 0x3324 PUSH0 DUP4 ADD DUP7 PUSH2 0x2931 JUMP JUMPDEST PUSH2 0x3331 PUSH1 0x20 DUP4 ADD DUP6 PUSH2 0x2931 JUMP JUMPDEST PUSH2 0x333E PUSH1 0x40 DUP4 ADD DUP5 PUSH2 0x2931 JUMP JUMPDEST SWAP5 SWAP4 POP POP POP POP JUMP JUMPDEST PUSH32 0x5061757361626C653A206E6F7420706175736564000000000000000000000000 PUSH0 DUP3 ADD MSTORE POP JUMP JUMPDEST PUSH0 PUSH2 0x337A PUSH1 0x14 DUP4 PUSH2 0x2658 JUMP JUMPDEST SWAP2 POP PUSH2 0x3385 DUP3 PUSH2 0x3346 JUMP JUMPDEST PUSH1 0x20 DUP3 ADD SWAP1 POP SWAP2 SWAP1 POP JUMP JUMPDEST PUSH0 PUSH1 0x20 DUP3 ADD SWAP1 POP DUP2 DUP2 SUB PUSH0 DUP4 ADD MSTORE PUSH2 0x33A7 DUP2 PUSH2 0x336E JUMP JUMPDEST SWAP1 POP SWAP2 SWAP1 POP JUMP JUMPDEST PUSH0 DUP2 SWAP1 POP DUP2 PUSH0 MSTORE PUSH1 0x20 PUSH0 KECCAK256 SWAP1 POP SWAP2 SWAP1 POP JUMP JUMPDEST PUSH0 PUSH1 0x20 PUSH1 0x1F DUP4 ADD DIV SWAP1 POP SWAP2 SWAP1 POP JUMP JUMPDEST PUSH0 DUP3 DUP3 SHL SWAP1 POP SWAP3 SWAP2 POP POP JUMP JUMPDEST PUSH0 PUSH1 0x8 DUP4 MUL PUSH2 0x340A PUSH32 0xFFFFFFFFFFFFFFFFFFFFFFFFFFFFFFFFFFFFFFFFFFFFFFFFFFFFFFFFFFFFFFFF DUP3 PUSH2 0x33CF JUMP JUMPDEST PUSH2 0x3414 DUP7 DUP4 PUSH2 0x33CF JUMP JUMPDEST SWAP6 POP DUP1 NOT DUP5 AND SWAP4 POP DUP1 DUP7 AND DUP5 OR SWAP3 POP POP POP SWAP4 SWAP3 POP POP POP JUMP JUMPDEST PUSH0 PUSH2 0x3446 PUSH2 0x3441 PUSH2 0x343C DUP5 PUSH2 0x2749 JUMP JUMPDEST PUSH2 0x2BA6 JUMP JUMPDEST PUSH2 0x2749 JUMP JUMPDEST SWAP1 POP SWAP2 SWAP1 POP JUMP JUMPDEST PUSH0 DUP2 SWAP1 POP SWAP2 SWAP1 POP JUMP JUMPDEST PUSH2 0x345F DUP4 PUSH2 0x342C JUMP JUMPDEST PUSH2 0x3473 PUSH2 0x346B DUP3 PUSH2 0x344D JUMP JUMPDEST DUP5 DUP5 SLOAD PUSH2 0x33DB JUMP JUMPDEST DUP3 SSTORE POP POP POP POP JUMP JUMPDEST PUSH0 SWAP1 JUMP JUMPDEST PUSH2 0x3487 PUSH2 0x347B JUMP JUMPDEST PUSH2 0x3492 DUP2 DUP5 DUP5 PUSH2 0x3456 JUMP JUMPDEST POP POP POP JUMP JUMPDEST JUMPDEST DUP2 DUP2 LT ISZERO PUSH2 0x34B5 JUMPI PUSH2 0x34AA PUSH0 DUP3 PUSH2 0x347F JUMP JUMPDEST PUSH1 0x1 DUP2 ADD SWAP1 POP PUSH2 0x3498 JUMP JUMPDEST POP POP JUMP JUMPDEST PUSH1 0x1F DUP3 GT ISZERO PUSH2 0x34FA JUMPI PUSH2 0x34CB DUP2 PUSH2 0x33AE JUMP JUMPDEST PUSH2 0x34D4 DUP5 PUSH2 0x33C0 JUMP JUMPDEST DUP2 ADD PUSH1 0x20 DUP6 LT ISZERO PUSH2 0x34E3 JUMPI DUP2 SWAP1 POP JUMPDEST PUSH2 0x34F7 PUSH2 0x34EF DUP6 PUSH2 0x33C0 JUMP JUMPDEST DUP4 ADD DUP3 PUSH2 0x3497 JUMP JUMPDEST POP POP JUMPDEST POP POP POP JUMP JUMPDEST PUSH0 DUP3 DUP3 SHR SWAP1 POP SWAP3 SWAP2 POP POP JUMP JUMPDEST PUSH0 PUSH2 0x351A PUSH0 NOT DUP5 PUSH1 0x8 MUL PUSH2 0x34FF JUMP JUMPDEST NOT DUP1 DUP4 AND SWAP2 POP POP SWAP3 SWAP2 POP POP JUMP JUMPDEST PUSH0 PUSH2 0x3532 DUP4 DUP4 PUSH2 0x350B JUMP JUMPDEST SWAP2 POP DUP3 PUSH1 0x2 MUL DUP3 OR SWAP1 POP SWAP3 SWAP2 POP POP JUMP JUMPDEST PUSH2 0x354B DUP3 PUSH2 0x264E JUMP JUMPDEST PUSH8 0xFFFFFFFFFFFFFFFF DUP2 GT ISZERO PUSH2 0x3564 JUMPI PUSH2 0x3563 PUSH2 0x27F1 JUMP JUMPDEST JUMPDEST PUSH2 0x356E DUP3 SLOAD PUSH2 0x2DE8 JUMP JUMPDEST PUSH2 0x3579 DUP3 DUP3 DUP6 PUSH2 0x34B9 JUMP JUMPDEST PUSH0 PUSH1 0x20 SWAP1 POP PUSH1 0x1F DUP4 GT PUSH1 0x1 DUP2 EQ PUSH2 0x35AA JUMPI PUSH0 DUP5 ISZERO PUSH2 0x3598 JUMPI DUP3 DUP8 ADD MLOAD SWAP1 POP JUMPDEST PUSH2 0x35A2 DUP6 DUP3 PUSH2 0x3527 JUMP JUMPDEST DUP7 SSTORE POP PUSH2 0x3609 JUMP JUMPDEST PUSH1 0x1F NOT DUP5 AND PUSH2 0x35B8 DUP7 PUSH2 0x33AE JUMP JUMPDEST PUSH0 JUMPDEST DUP3 DUP2 LT ISZERO PUSH2 0x35DF JUMPI DUP5 DUP10 ADD MLOAD DUP3 SSTORE PUSH1 0x1 DUP3 ADD SWAP2 POP PUSH1 0x20 DUP6 ADD SWAP5 POP PUSH1 0x20 DUP2 ADD SWAP1 POP PUSH2 0x35BA JUMP JUMPDEST DUP7 DUP4 LT ISZERO PUSH2 0x35FC JUMPI DUP5 DUP10 ADD MLOAD PUSH2 0x35F8 PUSH1 0x1F DUP10 AND DUP3 PUSH2 0x350B JUMP JUMPDEST DUP4 SSTORE POP JUMPDEST PUSH1 0x1 PUSH1 0x2 DUP9 MUL ADD DUP9 SSTORE POP POP POP JUMPDEST POP POP POP POP POP POP JUMP JUMPDEST PUSH32 0x4E487B7100000000000000000000000000000000000000000000000000000000 PUSH0 MSTORE PUSH1 0x12 PUSH1 0x4 MSTORE PUSH1 0x24 PUSH0 REVERT JUMPDEST PUSH0 PUSH2 0x3648 DUP3 PUSH2 0x2749 JUMP JUMPDEST SWAP2 POP PUSH2 0x3653 DUP4 PUSH2 0x2749 JUMP JUMPDEST SWAP3 POP DUP3 PUSH2 0x3663 JUMPI PUSH2 0x3662 PUSH2 0x3611 JUMP JUMPDEST JUMPDEST DUP3 DUP3 DIV SWAP1 POP SWAP3 SWAP2 POP POP JUMP JUMPDEST PUSH0 DUP2 MLOAD SWAP1 POP SWAP2 SWAP1 POP JUMP JUMPDEST PUSH0 DUP2 SWAP1 POP SWAP3 SWAP2 POP POP JUMP JUMPDEST PUSH0 PUSH2 0x368C DUP3 PUSH2 0x366E JUMP JUMPDEST PUSH2 0x3696 DUP2 DUP6 PUSH2 0x3678 JUMP JUMPDEST SWAP4 POP PUSH2 0x36A6 DUP2 DUP6 PUSH1 0x20 DUP7 ADD PUSH2 0x2668 JUMP JUMPDEST DUP1 DUP5 ADD SWAP2 POP POP SWAP3 SWAP2 POP POP JUMP JUMPDEST PUSH0 PUSH2 0x36BD DUP3 DUP5 PUSH2 0x3682 JUMP JUMPDEST SWAP2 POP DUP2 SWAP1 POP SWAP3 SWAP2 POP POP JUMP INVALID LOG2 PUSH5 0x6970667358 0x22 SLT KECCAK256 CALLVALUE MOD 0xAF 0xCF 0xBE CREATE 0xCC NUMBER DUP9 PUSH30 0x8E4BDCF1A33F1A2C81E6F089E3F0F05A18F9B7B0174B64736F6C63430008 BYTE STOP CALLER "
		},
		"gasEstimates": {
			"creation": {
				"codeDepositCost": "2815600",
				"executionCost": "infinite",
				"totalCost": "infinite"
			},
			"external": {
				"UPGRADE_INTERFACE_VERSION()": "infinite",
				"allowance(address,address)": "infinite",
				"approve(address,uint256)": "infinite",
				"balanceOf(address)": "2992",
				"claimReward()": "infinite",
				"decimals()": "384",
				"initialize(string,string,address,(uint256,uint256,uint256,uint256,uint256,uint256))": "infinite",
				"lastMechanicsUpdate()": "2514",
				"lastRewardClaim(address)": "2868",
				"mechanics()": "infinite",
				"name()": "infinite",
				"owner()": "2612",
				"pause()": "infinite",
				"paused()": "2562",
				"proxiableUUID()": "infinite",
				"renounceOwnership()": "infinite",
				"socialOracle()": "infinite",
				"symbol()": "infinite",
				"totalSupply()": "2575",
				"transfer(address,uint256)": "infinite",
				"transferFrom(address,address,uint256)": "infinite",
				"transferOwnership(address)": "infinite",
				"unpause()": "infinite",
				"updateBasedOnMetrics()": "infinite",
				"updateMechanics((uint256,uint256,uint256,uint256,uint256,uint256))": "infinite",
				"updateOracle(address)": "infinite",
				"upgradeToAndCall(address,bytes)": "infinite"
			},
			"internal": {
				"_authorizeUpgrade(address)": "infinite",
				"_calculatePenalty(uint256,uint256,uint256)": "infinite",
				"_calculateReward(uint256,uint256,uint256)": "infinite",
				"_handleNegativeMetrics(struct ISocialMetricsOracle.SocialMetrics memory)": "infinite",
				"_handlePositiveMetrics(struct ISocialMetricsOracle.SocialMetrics memory)": "infinite"
			}
		},
		"methodIdentifiers": {
			"UPGRADE_INTERFACE_VERSION()": "ad3cb1cc",
			"allowance(address,address)": "dd62ed3e",
			"approve(address,uint256)": "095ea7b3",
			"balanceOf(address)": "70a08231",
			"claimReward()": "b88a802f",
			"decimals()": "313ce567",
			"initialize(string,string,address,(uint256,uint256,uint256,uint256,uint256,uint256))": "af9dcc2c",
			"lastMechanicsUpdate()": "9e24f236",
			"lastRewardClaim(address)": "d8ad5231",
			"mechanics()": "38b42785",
			"name()": "06fdde03",
			"owner()": "8da5cb5b",
			"pause()": "8456cb59",
			"paused()": "5c975abb",
			"proxiableUUID()": "52d1902d",
			"renounceOwnership()": "715018a6",
			"socialOracle()": "78f3c4b6",
			"symbol()": "95d89b41",
			"totalSupply()": "18160ddd",
			"transfer(address,uint256)": "a9059cbb",
			"transferFrom(address,address,uint256)": "23b872dd",
			"transferOwnership(address)": "f2fde38b",
			"unpause()": "3f4ba83a",
			"updateBasedOnMetrics()": "a7892c11",
			"updateMechanics((uint256,uint256,uint256,uint256,uint256,uint256))": "0b594036",
			"updateOracle(address)": "1cb44dfc",
			"upgradeToAndCall(address,bytes)": "4f1ef286"
		}
	},
	"abi": [
		{
			"inputs": [],
			"stateMutability": "nonpayable",
			"type": "constructor"
		},
		{
			"inputs": [
				{
					"internalType": "address",
					"name": "target",
					"type": "address"
				}
			],
			"name": "AddressEmptyCode",
			"type": "error"
		},
		{
			"inputs": [],
			"name": "CooldownPeriodNotElapsed",
			"type": "error"
		},
		{
			"inputs": [
				{
					"internalType": "address",
					"name": "implementation",
					"type": "address"
				}
			],
			"name": "ERC1967InvalidImplementation",
			"type": "error"
		},
		{
			"inputs": [],
			"name": "ERC1967NonPayable",
			"type": "error"
		},
		{
			"inputs": [
				{
					"internalType": "address",
					"name": "spender",
					"type": "address"
				},
				{
					"internalType": "uint256",
					"name": "allowance",
					"type": "uint256"
				},
				{
					"internalType": "uint256",
					"name": "needed",
					"type": "uint256"
				}
			],
			"name": "ERC20InsufficientAllowance",
			"type": "error"
		},
		{
			"inputs": [
				{
					"internalType": "address",
					"name": "sender",
					"type": "address"
				},
				{
					"internalType": "uint256",
					"name": "balance",
					"type": "uint256"
				},
				{
					"internalType": "uint256",
					"name": "needed",
					"type": "uint256"
				}
			],
			"name": "ERC20InsufficientBalance",
			"type": "error"
		},
		{
			"inputs": [
				{
					"internalType": "address",
					"name": "approver",
					"type": "address"
				}
			],
			"name": "ERC20InvalidApprover",
			"type": "error"
		},
		{
			"inputs": [
				{
					"internalType": "address",
					"name": "receiver",
					"type": "address"
				}
			],
			"name": "ERC20InvalidReceiver",
			"type": "error"
		},
		{
			"inputs": [
				{
					"internalType": "address",
					"name": "sender",
					"type": "address"
				}
			],
			"name": "ERC20InvalidSender",
			"type": "error"
		},
		{
			"inputs": [
				{
					"internalType": "address",
					"name": "spender",
					"type": "address"
				}
			],
			"name": "ERC20InvalidSpender",
			"type": "error"
		},
		{
			"inputs": [],
			"name": "FailedCall",
			"type": "error"
		},
		{
			"inputs": [],
			"name": "InsufficientTweetCount",
			"type": "error"
		},
		{
			"inputs": [],
			"name": "InvalidInitialization",
			"type": "error"
		},
		{
			"inputs": [],
			"name": "InvalidMetricsTimestamp",
			"type": "error"
		},
		{
			"inputs": [],
			"name": "InvalidOracleAddress",
			"type": "error"
		},
		{
			"inputs": [],
			"name": "NotInitializing",
			"type": "error"
		},
		{
			"inputs": [
				{
					"internalType": "address",
					"name": "owner",
					"type": "address"
				}
			],
			"name": "OwnableInvalidOwner",
			"type": "error"
		},
		{
			"inputs": [
				{
					"internalType": "address",
					"name": "account",
					"type": "address"
				}
			],
			"name": "OwnableUnauthorizedAccount",
			"type": "error"
		},
		{
			"inputs": [],
			"name": "RewardClaimTooSoon",
			"type": "error"
		},
		{
			"inputs": [],
			"name": "UUPSUnauthorizedCallContext",
			"type": "error"
		},
		{
			"inputs": [
				{
					"internalType": "bytes32",
					"name": "slot",
					"type": "bytes32"
				}
			],
			"name": "UUPSUnsupportedProxiableUUID",
			"type": "error"
		},
		{
			"anonymous": false,
			"inputs": [
				{
					"indexed": true,
					"internalType": "address",
					"name": "owner",
					"type": "address"
				},
				{
					"indexed": true,
					"internalType": "address",
					"name": "spender",
					"type": "address"
				},
				{
					"indexed": false,
					"internalType": "uint256",
					"name": "value",
					"type": "uint256"
				}
			],
			"name": "Approval",
			"type": "event"
		},
		{
			"anonymous": false,
			"inputs": [
				{
					"indexed": false,
					"internalType": "uint64",
					"name": "version",
					"type": "uint64"
				}
			],
			"name": "Initialized",
			"type": "event"
		},
		{
			"anonymous": false,
			"inputs": [
				{
					"components": [
						{
							"internalType": "uint256",
							"name": "minSentimentScore",
							"type": "uint256"
						},
						{
							"internalType": "uint256",
							"name": "minEngagementRate",
							"type": "uint256"
						},
						{
							"internalType": "uint256",
							"name": "minTweetCount",
							"type": "uint256"
						},
						{
							"internalType": "uint256",
							"name": "rewardBaseAmount",
							"type": "uint256"
						},
						{
							"internalType": "uint256",
							"name": "penaltyBaseAmount",
							"type": "uint256"
						},
						{
							"internalType": "uint256",
							"name": "cooldownPeriod",
							"type": "uint256"
						}
					],
					"indexed": false,
					"internalType": "struct SocialToken.TokenMechanics",
					"name": "mechanics",
					"type": "tuple"
				}
			],
			"name": "MechanicsUpdated",
			"type": "event"
		},
		{
			"anonymous": false,
			"inputs": [
				{
					"indexed": true,
					"internalType": "address",
					"name": "newOracle",
					"type": "address"
				}
			],
			"name": "OracleUpdated",
			"type": "event"
		},
		{
			"anonymous": false,
			"inputs": [
				{
					"indexed": true,
					"internalType": "address",
					"name": "previousOwner",
					"type": "address"
				},
				{
					"indexed": true,
					"internalType": "address",
					"name": "newOwner",
					"type": "address"
				}
			],
			"name": "OwnershipTransferred",
			"type": "event"
		},
		{
			"anonymous": false,
			"inputs": [
				{
					"indexed": false,
					"internalType": "address",
					"name": "account",
					"type": "address"
				}
			],
			"name": "Paused",
			"type": "event"
		},
		{
			"anonymous": false,
			"inputs": [
				{
					"indexed": false,
					"internalType": "uint256",
					"name": "amount",
					"type": "uint256"
				},
				{
					"indexed": false,
					"internalType": "uint256",
					"name": "sentimentScore",
					"type": "uint256"
				},
				{
					"indexed": false,
					"internalType": "uint256",
					"name": "engagementRate",
					"type": "uint256"
				}
			],
			"name": "PenaltyApplied",
			"type": "event"
		},
		{
			"anonymous": false,
			"inputs": [
				{
					"indexed": false,
					"internalType": "uint256",
					"name": "amount",
					"type": "uint256"
				},
				{
					"indexed": false,
					"internalType": "uint256",
					"name": "sentimentScore",
					"type": "uint256"
				},
				{
					"indexed": false,
					"internalType": "uint256",
					"name": "engagementRate",
					"type": "uint256"
				}
			],
			"name": "RewardDistributed",
			"type": "event"
		},
		{
			"anonymous": false,
			"inputs": [
				{
					"indexed": true,
					"internalType": "address",
					"name": "from",
					"type": "address"
				},
				{
					"indexed": true,
					"internalType": "address",
					"name": "to",
					"type": "address"
				},
				{
					"indexed": false,
					"internalType": "uint256",
					"name": "value",
					"type": "uint256"
				}
			],
			"name": "Transfer",
			"type": "event"
		},
		{
			"anonymous": false,
			"inputs": [
				{
					"indexed": false,
					"internalType": "address",
					"name": "account",
					"type": "address"
				}
			],
			"name": "Unpaused",
			"type": "event"
		},
		{
			"anonymous": false,
			"inputs": [
				{
					"indexed": true,
					"internalType": "address",
					"name": "implementation",
					"type": "address"
				}
			],
			"name": "Upgraded",
			"type": "event"
		},
		{
			"inputs": [],
			"name": "UPGRADE_INTERFACE_VERSION",
			"outputs": [
				{
					"internalType": "string",
					"name": "",
					"type": "string"
				}
			],
			"stateMutability": "view",
			"type": "function"
		},
		{
			"inputs": [
				{
					"internalType": "address",
					"name": "owner",
					"type": "address"
				},
				{
					"internalType": "address",
					"name": "spender",
					"type": "address"
				}
			],
			"name": "allowance",
			"outputs": [
				{
					"internalType": "uint256",
					"name": "",
					"type": "uint256"
				}
			],
			"stateMutability": "view",
			"type": "function"
		},
		{
			"inputs": [
				{
					"internalType": "address",
					"name": "spender",
					"type": "address"
				},
				{
					"internalType": "uint256",
					"name": "value",
					"type": "uint256"
				}
			],
			"name": "approve",
			"outputs": [
				{
					"internalType": "bool",
					"name": "",
					"type": "bool"
				}
			],
			"stateMutability": "nonpayable",
			"type": "function"
		},
		{
			"inputs": [
				{
					"internalType": "address",
					"name": "account",
					"type": "address"
				}
			],
			"name": "balanceOf",
			"outputs": [
				{
					"internalType": "uint256",
					"name": "",
					"type": "uint256"
				}
			],
			"stateMutability": "view",
			"type": "function"
		},
		{
			"inputs": [],
			"name": "claimReward",
			"outputs": [],
			"stateMutability": "nonpayable",
			"type": "function"
		},
		{
			"inputs": [],
			"name": "decimals",
			"outputs": [
				{
					"internalType": "uint8",
					"name": "",
					"type": "uint8"
				}
			],
			"stateMutability": "view",
			"type": "function"
		},
		{
			"inputs": [
				{
					"internalType": "string",
					"name": "name",
					"type": "string"
				},
				{
					"internalType": "string",
					"name": "symbol",
					"type": "string"
				},
				{
					"internalType": "address",
					"name": "_socialOracle",
					"type": "address"
				},
				{
					"components": [
						{
							"internalType": "uint256",
							"name": "minSentimentScore",
							"type": "uint256"
						},
						{
							"internalType": "uint256",
							"name": "minEngagementRate",
							"type": "uint256"
						},
						{
							"internalType": "uint256",
							"name": "minTweetCount",
							"type": "uint256"
						},
						{
							"internalType": "uint256",
							"name": "rewardBaseAmount",
							"type": "uint256"
						},
						{
							"internalType": "uint256",
							"name": "penaltyBaseAmount",
							"type": "uint256"
						},
						{
							"internalType": "uint256",
							"name": "cooldownPeriod",
							"type": "uint256"
						}
					],
					"internalType": "struct SocialToken.TokenMechanics",
					"name": "_mechanics",
					"type": "tuple"
				}
			],
			"name": "initialize",
			"outputs": [],
			"stateMutability": "nonpayable",
			"type": "function"
		},
		{
			"inputs": [],
			"name": "lastMechanicsUpdate",
			"outputs": [
				{
					"internalType": "uint256",
					"name": "",
					"type": "uint256"
				}
			],
			"stateMutability": "view",
			"type": "function"
		},
		{
			"inputs": [
				{
					"internalType": "address",
					"name": "",
					"type": "address"
				}
			],
			"name": "lastRewardClaim",
			"outputs": [
				{
					"internalType": "uint256",
					"name": "",
					"type": "uint256"
				}
			],
			"stateMutability": "view",
			"type": "function"
		},
		{
			"inputs": [],
			"name": "mechanics",
			"outputs": [
				{
					"internalType": "uint256",
					"name": "minSentimentScore",
					"type": "uint256"
				},
				{
					"internalType": "uint256",
					"name": "minEngagementRate",
					"type": "uint256"
				},
				{
					"internalType": "uint256",
					"name": "minTweetCount",
					"type": "uint256"
				},
				{
					"internalType": "uint256",
					"name": "rewardBaseAmount",
					"type": "uint256"
				},
				{
					"internalType": "uint256",
					"name": "penaltyBaseAmount",
					"type": "uint256"
				},
				{
					"internalType": "uint256",
					"name": "cooldownPeriod",
					"type": "uint256"
				}
			],
			"stateMutability": "view",
			"type": "function"
		},
		{
			"inputs": [],
			"name": "name",
			"outputs": [
				{
					"internalType": "string",
					"name": "",
					"type": "string"
				}
			],
			"stateMutability": "view",
			"type": "function"
		},
		{
			"inputs": [],
			"name": "owner",
			"outputs": [
				{
					"internalType": "address",
					"name": "",
					"type": "address"
				}
			],
			"stateMutability": "view",
			"type": "function"
		},
		{
			"inputs": [],
			"name": "pause",
			"outputs": [],
			"stateMutability": "nonpayable",
			"type": "function"
		},
		{
			"inputs": [],
			"name": "paused",
			"outputs": [
				{
					"internalType": "bool",
					"name": "",
					"type": "bool"
				}
			],
			"stateMutability": "view",
			"type": "function"
		},
		{
			"inputs": [],
			"name": "proxiableUUID",
			"outputs": [
				{
					"internalType": "bytes32",
					"name": "",
					"type": "bytes32"
				}
			],
			"stateMutability": "view",
			"type": "function"
		},
		{
			"inputs": [],
			"name": "renounceOwnership",
			"outputs": [],
			"stateMutability": "nonpayable",
			"type": "function"
		},
		{
			"inputs": [],
			"name": "socialOracle",
			"outputs": [
				{
					"internalType": "contract ISocialMetricsOracle",
					"name": "",
					"type": "address"
				}
			],
			"stateMutability": "view",
			"type": "function"
		},
		{
			"inputs": [],
			"name": "symbol",
			"outputs": [
				{
					"internalType": "string",
					"name": "",
					"type": "string"
				}
			],
			"stateMutability": "view",
			"type": "function"
		},
		{
			"inputs": [],
			"name": "totalSupply",
			"outputs": [
				{
					"internalType": "uint256",
					"name": "",
					"type": "uint256"
				}
			],
			"stateMutability": "view",
			"type": "function"
		},
		{
			"inputs": [
				{
					"internalType": "address",
					"name": "to",
					"type": "address"
				},
				{
					"internalType": "uint256",
					"name": "value",
					"type": "uint256"
				}
			],
			"name": "transfer",
			"outputs": [
				{
					"internalType": "bool",
					"name": "",
					"type": "bool"
				}
			],
			"stateMutability": "nonpayable",
			"type": "function"
		},
		{
			"inputs": [
				{
					"internalType": "address",
					"name": "from",
					"type": "address"
				},
				{
					"internalType": "address",
					"name": "to",
					"type": "address"
				},
				{
					"internalType": "uint256",
					"name": "value",
					"type": "uint256"
				}
			],
			"name": "transferFrom",
			"outputs": [
				{
					"internalType": "bool",
					"name": "",
					"type": "bool"
				}
			],
			"stateMutability": "nonpayable",
			"type": "function"
		},
		{
			"inputs": [
				{
					"internalType": "address",
					"name": "newOwner",
					"type": "address"
				}
			],
			"name": "transferOwnership",
			"outputs": [],
			"stateMutability": "nonpayable",
			"type": "function"
		},
		{
			"inputs": [],
			"name": "unpause",
			"outputs": [],
			"stateMutability": "nonpayable",
			"type": "function"
		},
		{
			"inputs": [],
			"name": "updateBasedOnMetrics",
			"outputs": [],
			"stateMutability": "nonpayable",
			"type": "function"
		},
		{
			"inputs": [
				{
					"components": [
						{
							"internalType": "uint256",
							"name": "minSentimentScore",
							"type": "uint256"
						},
						{
							"internalType": "uint256",
							"name": "minEngagementRate",
							"type": "uint256"
						},
						{
							"internalType": "uint256",
							"name": "minTweetCount",
							"type": "uint256"
						},
						{
							"internalType": "uint256",
							"name": "rewardBaseAmount",
							"type": "uint256"
						},
						{
							"internalType": "uint256",
							"name": "penaltyBaseAmount",
							"type": "uint256"
						},
						{
							"internalType": "uint256",
							"name": "cooldownPeriod",
							"type": "uint256"
						}
					],
					"internalType": "struct SocialToken.TokenMechanics",
					"name": "newMechanics",
					"type": "tuple"
				}
			],
			"name": "updateMechanics",
			"outputs": [],
			"stateMutability": "nonpayable",
			"type": "function"
		},
		{
			"inputs": [
				{
					"internalType": "address",
					"name": "newOracle",
					"type": "address"
				}
			],
			"name": "updateOracle",
			"outputs": [],
			"stateMutability": "nonpayable",
			"type": "function"
		},
		{
			"inputs": [
				{
					"internalType": "address",
					"name": "newImplementation",
					"type": "address"
				},
				{
					"internalType": "bytes",
					"name": "data",
					"type": "bytes"
				}
			],
			"name": "upgradeToAndCall",
			"outputs": [],
			"stateMutability": "payable",
			"type": "function"
		}
	]
}